:100000000C9443000C94ED220C94FF220C941123C9
:100010000C9423230C9435230C9447230C94A8258B
:100020000C94A51D0C946B230C948D1A0C947D23B9
:100030000C947A170C948F230C94A1230C94C71062
:100040000C94DA130C94B3230C9461110C94C52313
:100050000C94A8250C94D7230C9459230C94BF1905
:100060000C94BD1F0C94E9230C94FB230C941C17D7
:100070000C94941F0C940D240C941F240100010275
:10008000800104077F8011241FBECFEFD0E1DEBFC7
:10009000CDBFECE7F0E040E017C0B591A5913591F8
:1000A0002591059107FD0CC095918591EF01F92FE0
:1000B000E82F05900D92A217B307D9F7FE0104C0EF
:1000C0001D92A217B307E1F7E638F40731F70E9453
:0A00D0009F060C94FF24F894FFCF64
:1000DA00525820416E6E6F756E6365205265717558
:1000EA00657374202D2064656C6179696E672025BB
:1000FA00646D73206265666F726520726573706FD6
:10010A006E73650D0A004173736572742025733A24
:10011A002025640A002E2E2F2E2F6D61696E2E6304
:01012A0000D4
:10012B000000000080DE280080C84D0000A776008C
:10013B0000349E008012C700809FEE00007E1701E6
:10014B00805C400180E9670100C890010055B8014F
:10015B0080841E00000140420F00000020A1070018
:10016B00010190D00300010048E80100020124F4D2
:0A017B0000000201127A00000200E9
:1001850010050915050B14050C12050A1105051DA9
:0E019500050D1E050E1F050F1605101705118E
:1001A3002E2E2F2E2F7274635F6D637037393430A8
:0401B3006E2E630049
:1001B70000060C12191F252B32383E444B51575D50
:0F01C7000902050601050701060B00000B0000E9
:0C01D6001F1C1F1E1F1E1F1F1E1F1E1FB0
:0C01E2001F1E1F1E1F1F1E1F1E1F1F1DA3
:0B01EE002E2E2F2E2F6164632E630065
:0B01F9002E2E2F2E2F63616E2E630050
:0802040001000605FF070000E0
:08020C0001000105FF070000DD
:0802140001000505FF070000D1
:08021C0001000805FF070000C6
:0802240001000705FF070000BF
:08022C0001000405FF070000BA
:0802340001000305FF070000B3
:08023C0001000205FF070000AC
:0802440001000005FF070000A6
:08024C0002000005000500009E
:080254000000FF07FF07000096
:04025C00474D5400B6
:04026000474D5400B2
:10026400A6E1B0E0E8E3F1E00C94E1207901D42EBA
:10027400C52EB62FA72FF82FB92E40585D4B6E40D0
:100284007F4F8F4F9F4F21153B474D415348624E3F
:1002940071408105910511F008F008C2188B0F8791
:1002A4009B2D8F2F7A2F6B2F5C2D4D2D970120586E
:1002B4003D454C4B58436109710981099109190164
:1002C4004D8359876D877983898B9A8BF0E8AF2E9C
:1002D400A1E5BA2ECC24C394D12CE12CF12C00E05E
:1002E40010E00E943C1E29013A014B018E8B9B8B2E
:1002F40091014D8159856D85798189899A890E94F9
:100304003A1E2D833E834F8358878D819E81AF8112
:10031400B885B7FF15C080589E4AAE4FBF4F8D8336
:100324009E83AF83B8879201A301B4018E899B8910
:10033400AFEF0E94C72429013A014B018E8B9B8B9E
:100344009201A301B4018E899B89A3E00E94C72472
:10035400E7E0AE2EB12CC12CD12CE12CF12C00E025
:1003640010E00E943A1E2D873E87AD85BE85B7FFFB
:1003740003C01796BE87AD8751EBA52E6AE3B62E50
:1003840072E0C72ED12CE12CF12C00E010E0920198
:10039400A301B4018E899B890E943C1E29873A8758
:1003A4004B875C879201A301B4018E899B890E94CB
:1003B4003A1E822E932EA42EB52EB7FE12C0B1EB98
:1003C4008B0EBAE39B1EB2E0AB1EB11C89859A85E5
:1003D400AB85BC850197A109B10989879A87AB8749
:1003E400BC87C501B4012CEA3EE840E050E00E941D
:1003F400C92169017A01243031054105510529F4E7
:1004040043E0C42ED12CE12CF12CA4E5B1E7A701E3
:1004140096010E9456252B013C01480C591C6A1C6C
:100424007B1CC301B20125EB35E040E050E00E94A3
:10043400C92149015A01293131054105510529F4E0
:1004440038E1832E912CA12CB12CABE4BAEFA50199
:1004540094010E945625460E571E681E791EC3013C
:10046400B2012DE631E040E050E00E94C921298329
:100474003A834B835C83243031054105510541F4B3
:1004840083E090E0A0E0B0E089839A83AB83BC83EF
:10049400A3E9BEEF29813A814B815C810E945625F4
:1004A400460E571E681E791E232B242B252B81F400
:1004B40081149104A104B10471F431E020E0C11469
:1004C400D104E104F10409F030E0832F922F05C038
:1004D40080E090E002C081E090E01201ABE32A0EDC
:1004E400311C280E391E9C0124593E4F2215330518
:1004F40024F483599E4F281A390A92E0880C991CD7
:10050400AA1CBB1C9A95D1F789819A81AB81BC81C5
:10051400880E991EAA1EBB1EA4E6B0E0A701960190
:100524000E94F424860E971EA81EB91ED501C4018C
:10053400BB0F880B982FDC0189839A83AB83BC8320
:1005440069857A858B859C8520E931E040E050E01F
:100554000E948524F22FE32F6A017B018C01940110
:10056400A5016981762F862F962FAF2EBE2E0E946D
:10057400392549015A016B017C0122EE31E040E04A
:100584001A821982F901849147FD8081082E000C9A
:10059400990BAA0BBB0B2F5F3F4F4F4F48165906C1
:1005A4006A067B0654F0481A590A6A0A7B0AA9812A
:1005B400BA811196BA83A983E5CFE981FA81EA3039
:1005C400F10574F03C97FA83E9839401A501B6011F
:1005D400C701A1E00E94C72449015A016B017C01B3
:1005E4009401A501B601C7012C593F474F4F5F4FF6
:1005F4006F4F7F4F8F4F9F4F2F3F3F4F4105510507
:10060400610571058105910511F008F04FC024E6DC
:10061400820E911CAF85B8891B969C928E921A9774
:10062400E981FA8132961996FC93EE931897FFEFBD
:100634004F1A5F0A17965C924E9216978D859E8587
:100644001D969C938E931C971F963C922E921E97F8
:100654006D817E818F81988520E13EE040E050E00D
:100664000E94C921AF85B88915963C932E9314979F
:100674008CE3C82ED12CE12CF12C6D817E818F81ED
:100684009885A70196010E94C9214B015C01CA010A
:10069400B901A70196010E94C921EF85F8897383E6
:1006A40062839182808280E090E002C08FEF9FEFAE
:0806B4006696E2E10C94FD20C2
:1006BC00CF92DF92EF92FF920F931F93CF93DF9322
:1006CC0000D000D0CDB7DEB78C0180911C038823FD
:1006DC0069F088E0D8011D928A95E9F748E0B801E5
:1006EC0088E00E94D324811110921C038091160380
:1006FC00882309F400C180916907811180C0809121
:10070C0006018F70F8018083809122038183809190
:10071C002103828380911D01838384E03496DF0161
:10072C001D928A95E9F780915001882379F0809188
:10073C005301882371F080910601833069F40E9483
:10074C00ED11809137019091380108C080E090E85C
:10075C0005C080E090E802C080E090E8F801848356
:10076C00958380914D01882379F080914E01909171
:10077C004F014FEF53E060E070E09A01AB01281B92
:10078C00390B4109510903C020E030E0A901ECE02C
:10079C00F1E0A1A1B2A10E945325DC01CB01689428
:1007AC0016F8B695A795979587951694D1F7C18CA1
:1007BC00D28CE38CF48CBC01CD016C0D7D1D8E1D97
:1007CC009F1D2FE030E040E050E00E942B20209352
:1007DC00490130934A0140934B0150934C01D8018D
:1007EC0016962C93169717963C9348E0B80181E027
:1007FC000E94D324882309F467C081E06CC0813047
:10080C00A1F5ECE0F1E085A996A9D8018C9385A916
:10081C0096A911969C93119783A994A912968C93DF
:10082C00129783A994A913969C93139787A990ADBB
:10083C0014968C93149787A990AD15969C9361ADE3
:10084C0072AD83AD94AD2FE030E040E050E00E94FB
:10085C002B20F8012683378348E0B80182E00E9400
:10086C00D324882399F181E036C0823089F5ECE0FD
:10087C00F1E087A590A9D8018C9387A590A9119632
:10088C009C93119785A596A512968C93129785A586
:10089C0096A513969C93139781A992A914968C9361
:1008AC00149781A992A915969C93159716961C924C
:1008BC00169717961C9248E0B80183E00E94D32447
:1008CC00882341F081E007C080E005C080E003C0D0
:1008DC0081E001C080E0882371F0809169078F5F0F
:1008EC0080936907833038F01092690710921603D1
:1008FC0081E08093130380911503882309F46EC063
:10090C001C821B821A8219829091350180911F03DF
:10091C00891708F05DC080911F0390E04496880F02
:10092C00991F880F991FAE014F5F5F4FBE016D5F1E
:10093C007F4F845F9E4F0E94772280911F03F801A6
:10094C008083ECE0F1E08189D80111968C931197AA
:10095C0099818A8112969C93129713968C93139774
:10096C003B812C8114963C93149715962C93832FD2
:10097C00922F64E070E10E949F2244E6649F602DF8
:10098C001124D80116966C9363A974A985A996A90C
:10099C00681B790B832F922F0E949F22649F602DDE
:1009AC001124F801678348E0B80184E00E94D32445
:1009BC008823A1F080911F038F5F80931F03909178
:1009CC001F0380912003981748F01092150306C05E
:1009DC001092200310921F031092150380911303A1
:1009EC00882389F1ECE0F1E08785D8018C9380892C
:1009FC0011968C93119784A195A112968C931297B2
:100A0C0084A195A113969C93139782A514968C930D
:100A1C00149786A18F3F31F081A596A1891B15965D
:100A2C008C9303C08FEFF8018583D80116961C9226
:100A3C00169717961C9248E0B80186E00E94D324C2
:100A4C0081111092130380911403882391F0B80143
:100A5C00C80102960E947519F8011482158216823B
:100A6C00178248E0B80185E00E94D32481111092CE
:100A7C0014030F900F900F900F90DF91CF911F9157
:0C0A8C000F91FF90EF90DF90CF90089545
:100A98003F924F925F926F927F928F929F92AF9206
:100AA800BF92CF92DF92EF92FF920F931F93CF9353
:100AB800DF9300D000D000D0CDB7DEB780913301EE
:100AC80090913401892B09F41EC1ECE0F1E08FEF1D
:100AD80086A3978581A5891728F481A5878781E052
:100AE80080931303ECE0F1E0908981A5981728F42E
:100AF80081A5808B81E080931303809133019091CD
:100B0800340183709927892B61F0809136018F3FDA
:100B180041F0ECE0F1E082A58F5F82A781E080934D
:100B28001303ECE0F1E014AA13AA8FEF9FEF96AB42
:100B380085AB10AE17AA80E090E896A785A78FEF3F
:100B48009FE790AB87A712AA11AAD12C312CC12CF0
:100B5800412C512C3201812C912C54012FEF3FE76D
:100B68003E832D8380E090E89C838B836BC00D2DA2
:100B780010E0F8017496EE0FFF1FEE0FFF1FE45F01
:100B8800FE4F808191819A838983E280F38060E0BF
:100B980070E0C7010E948B1C8823F1F0F4FE03C0AB
:100BA800C701906F02C0C7019F77EB81FC81E817EE
:100BB800F90714F49C838B832D813E818217930758
:100BC80014F49E838D83092E000CAA0BBB0B880E90
:100BD800991EAA1EBB1E3394F8017496EE0FFF1FD0
:100BE800EE0FFF1FE45FFE4F8081918199231CF473
:100BF80081E080932F01BE016F5F7F4F89819A81C9
:100C08000E94091E8823E9F020913F01309140019C
:100C180089819A812817390720F49093400180939D
:100C28003F0120914101309142018217930720F43E
:100C38009093420180934101480E591E611C711C1A
:100C4800C394D39480913501D81608F490CFCC2062
:100C580079F10CE011E0F80141AE52AE63AE74AE2A
:100C680061AD72AD83AD94AD2C2D30E040E050E025
:100C78000E942B20F80130AF27AB8091060183300A
:100C8800B9F080911103811113C023A934A985A952
:100C980096A92817390760F083A994A925A936A928
:100CA800821B930B8034910518F081E08093120326
:100CB8003320C9F0232D30E040E050E0C501B401F5
:100CC8000E94C9216DE371E0C9010E948B1C69E390
:100CD80071E08B819C810E948B1C6BE371E08D819C
:100CE8009E810E948B1C80910701882351F080917E
:100CF8000601882331F08CE091E00E94EE12809387
:100D080007010E94852526960FB6F894DEBF0FBE10
:100D1800CDBFDF91CF911F910F91FF90EF90DF90A2
:100D2800CF90BF90AF909F908F907F906F905F9083
:060D38004F903F9008956A
:100D3E00CF93DF93CDB7DEB728970FB6F894DEBF0B
:100D4E000FBECDBF0E94A22488B18F7E88B987B115
:100D5E00806187B987B18D7F87B987B1806887B980
:100D6E0088B18F7E88B98DB182608DB98EB18D7F3D
:100D7E008EB984B1806184B985B18F7E85B9E0E08A
:100D8E00F8E002C08AEA8193E11580E1F807D0F31A
:100D9E0084B7809367078091670783FF0AC08091AD
:100DAE002403ECE0F1E086858F5F86870E94220B9C
:100DBE004BC0809167078091670780916707F89411
:100DCE000E948B250E946B1F0E94B1210E94291048
:100DDE000E94131B8093070181E00E94D71789E0C0
:100DEE0090E00E941E25809309010E94541B60937F
:100DFE001703709318038093190390931A038AB103
:100E0E008F7B8AB98BB180648BB911E01BBB82E0FA
:100E1E008BBB84E08BBB88E08BBBECE6F0E0808183
:100E2E00806480838BB384608BBB8DE19CE00E94D9
:100E3E0091250E9427190E94080985E080930601DA
:100E4E001092050110930B01789480910A0188236A
:100E5E00E1F310920A0180911D03882329F0CE013F
:100E6E0001960E945E0303C081E080931E03809171
:100E7E001B03882371F010921B0310922303109210
:100E8E001D0381E080931E030E94852580E00E9451
:100E9E009625EFE6F0E0908180818D7F80838091B2
:100EAE000B0120916F079083813009F061C02223DE
:100EBE0009F455C010926F070E94491A0E943124FE
:100ECE00CE0101960E944C0580916807843029F569
:100EDE00ECE0F1E091A581899817E9F080911D0170
:100EEE008823C9F0809109018823B9F08091090106
:100EFE008F3F99F0809108018F5F80930801909148
:100F0E00080180910901981740F081E080936807ED
:100F1E001092080102C01092080180911E038823CE
:100F2E00F1F086E5898380E28A8382E08B8383E019
:100F3E008C838091170390911803A0911903B0919F
:100F4E001A038D839E83AF83B88748E0BE016F5F1F
:100F5E007F4F80E00E94D324811110921E030E94C5
:100F6E00220B80910F038823B1F010920F0313C050
:100F7E00222389F010926F070E94491A80E00E9486
:100F8E00D71780916807843031F40E9414250E948F
:100F9E009B250E94C21E80910E03882321F0109281
:0C0FAE000E030E94ED110E944E224FCF56
:100FBA00ACE0B0E0E3EEF7E00C94E12049015A011D
:100FCA006B017C011C830B832A38310541055105CD
:100FDA00610571058105910511F00CF042C0F90116
:100FEA00E454F109F595E795F595E795C9018370FC
:100FFA009927892B51F431970115110569F081E080
:10100A0090E0D8018D939C9307C08B819C810097B7
:10101A0019F0DC011D921C92D901A654B10920E8ED
:10102A0033E341EE51E00E9453256B017C01DF015D
:10103A0020E831E541E050E00E945325DC01CB0174
:10104A008C0D9D1DAE1DBF1D9C01AD016C017D0166
:10105A00FF0CCC08DC2C7601AC2DFC2DEC2D9C2D44
:10106A00CBC0EB81FC81EF2B31F41A821982CE01BD
:10107A0001969C838B83C4018456910960E971E0CF
:10108A000E94B3227E836D839401A501B601C70134
:10109A00ACE90E94C72419012A013B018F83988772
:1010AA0070E9A72EBB24B394C12CD12CE12CF12CCE
:1010BA0000E010E09101A201B3010E943A1EC901A9
:1010CA00009759F481E090E0AB81BC818D939C93A9
:1010DA0020E030E040E050E033C0283C31056CF0BD
:1010EA002C3231402CF08C52914043E050E00CC03D
:1010FA00885C910942E050E007C0243631056CF063
:10110A008456910941E050E0009749F4EB81FC8153
:10111A001182108220E030E013C040E050E09C01D0
:10112A0036952795369527958370992761E070E063
:10113A00892B11F060E070E0AB81BC816D937C93E8
:10114A0081E6ED81FE818E9FB0018F9F700D112483
:10115A00E8E1E49FC001E59F900D1124860F971FD7
:10116A00AB81BC814D915C91841B950B820F931FBF
:10117A00E92FEE0FEE0B20E8A22E31E5B32ECC2498
:10118A00C394D12CE12CF12C00E010E09C014E2FED
:10119A005E2F6E2F7E2F8E2F9E2F0E94D718922E93
:1011AA00832E4B835D8369877A878B879C8743E38A
:1011BA00B42E51EEC52EDD24D3949101A201B301C0
:1011CA008F8198850E94D71859016A017B018C0189
:1011DA00292D382D4B815D8169857A858B859C8582
:1011EA000E9439253B564149574C6F4F7F4F8F4FCD
:1011FA009F4FA62FF72FE82F6A2F7F2F8E2F2C961F
:06120A00E2E10C94FD205E
:10121000FF920F931F93CF93DF93CDB7DEB7A197C4
:101220000FB6F894DEBF0FBECDBF198241E0BE01FC
:101230006F5F7F4F87E00E94701D182F882309F48D
:10124000EBC080E8898341E0BE016F5F7F4F80E0A3
:101250000E94701D182F811117C0DEC0198241E055
:10126000BE016F5F7F4F83E00E94931B182F88237E
:1012700009F4D2C0898185FD0AC060E070E0CB012D
:101280000E94421F0F5F01C000E0083C38F3083C99
:1012900008F0C2C089818860898341E0BE016F5F28
:1012A0007F4F83E00E94701D182F882309F4B4C07B
:1012B00041E0BE016F5F7F4F82E00E94931B182FB9
:1012C000882309F4A9C089818F7B898341E0BE010D
:1012D0006F5F7F4F82E00E94701D182F882309F4F2
:1012E0009BC0CE0102960E946913182F882309F42F
:1012F00093C08A818C3310F410E001C011E08B811F
:101300008C3308F011E08C818C3308F011E08D8172
:101310008150873008F011E02F818FEF820F8C30E1
:1013200018F50E81002311F1822F90E00197092E0C
:10133000000CAA0B8A529E4FAF4FFC01F490A7FD00
:10134000F080223071F4888590E08431910518F4A2
:101350008C5C974F02C08053984F0E9418218111D6
:10136000F394F01628F005C011E003C011E001C0AD
:1013700011E01123B9F01A821B821C8281E08E8356
:101380008F8388E18887CE0102960E946F12182F02
:10139000882309F441C0CE0102960E946913182FD8
:1013A0008823D1F1BE01675F7F4FCE0102960E9474
:1013B000D21BCE0109960E94D01A8B019C01F89491
:1013C000009341071093420720934307309344074B
:1013D000109245071092460710924707109248074F
:1013E000789487B18E7F87B988B1816088B941E0F0
:1013F000BE016F5F7F4F87E00E94931B182F8823E9
:1014000059F089818064898341E0BE016F5F7F4F1D
:1014100087E00E94701D182F812FA1960FB6F894B7
:10142000DEBF0FBECDBFDF91CF911F910F91FF9017
:0214300008951D
:101432006F927F928F929F92BF92CF92DF92EF92A2
:10144200FF920F931F93CF93DF93F82E6A01E62E3C
:10145200E9010F2EF5E06F2EF02D681638F44FECEF
:1014620050E069EF71E080E00E940C22093038F010
:1014720040ED50E069EF71E080E00E940C22EBED5C
:10148200F0E0B08080818F7780838F2D8295807F7E
:101492008093ED001092EE00F6018491E7FC8081CA
:1014A20020E4829FC0011124102F182BAE2DC601FB
:1014B2000196A11DFC018491A7FD8081811110621A
:1014C20010610E94A5254E2D96012E5F3F4F4F4F72
:1014D200F901542F0E945B25AB01577060E070E068
:1014E200032E32E1440F551F661F771F3A95D1F73D
:1014F200302D3A014B01682AD401C3014E2D9601C9
:101502002A5F3F4F4F4FF901249147FD208122234B
:1015120011F024E001C020E0E0EFF0E02083208120
:10152200382F330F330F330F232B2083AC01BD0130
:10153200689414F876956795579547951694D1F760
:101542004093F100AC01BD01032E3DE07695679515
:10155200579547953A95D1F7302D4093F200072ED3
:1015620075E1B695A795979587957A95D1F7702DE0
:101572008093F300AE2DC6010796A11DFC01849154
:10158200A7FD8081882311F084E001C080E0E4EFB0
:10159200F0E080838081816080831092F500AE2D1F
:1015A200C6010496A11DFC015A2F0E945B2562957B
:1015B200660F607E6093F600FC015A2F0E945B2545
:1015C2007695679576956795769567956093F7001A
:1015D20004C089918093FA0001500111FACF10934F
:1015E200EF00F6018491E7FC8081882369F0EEED3B
:1015F200F0E0208181E090E002C0880F991FFA9408
:10160200E2F7822B80830DC0EEEDF0E0208181E0D5
:1016120090E002C0880F991FFA94E2F78095822326
:101622008083B092DB00DF91CF911F910F91FF90E9
:10163200EF90DF90CF90BF909F908F907F906F90B0
:02164200089509
:101644001F93CF93DF93D0910501809104018D17EF
:1016540030F09091060180910401891710F4D09123
:10166400040180910601D81709F4E1C0D23009F4CD
:101674006EC028F4DD2389F0D130E1F1CCC0D33041
:1016840009F49DC0D53009F0C6C01092060110922D
:101694000501D09106010E947F2588B18F7E88B90B
:1016A40068E873E180E090E00E94421F8EB18D7F74
:1016B4008EB968E873E180E090E00E94421FEBE697
:1016C400F0E080818D7F8083E8E6F0E080818D7F8B
:1016D400808381E08093120310921103109210030F
:1016E40080910701882309F49EC00E9438228093C8
:1016F400070199C088B18F7E88B968E873E180E0FA
:1017040090E00E94421FEBE6F0E080818D7F8083B1
:10171400E8E6F0E080818D7F80838EB182608EB9AF
:1017240068E873E180E090E00E94421F81E08093CA
:101734001203109211031092100380910701882361
:1017440009F471C00E94C520809307016CC061999F
:1017540009C08EB182608EB968E873E180E090E0E0
:101764000E94421FCBE026C088B1806188B988B14D
:101774008F7788B988B1806888B968EE73E080E0B3
:1017840090E00E94421F88B18F7E88B968E873E1B7
:1017940080E090E00E94421F60E573EC80E090E0FE
:1017A4000E94421F80910F03882319F010920F03A7
:1017B40001C0C12F1FEF1C0FC111D6CF34C06199D6
:1017C40009C08EB182608EB968E873E180E090E070
:1017D4000E94421F88B1806188B988B18F7788B927
:1017E40088B1806888B968E873E180E090E00E947D
:1017F400421F109212031092110381E08093100390
:10180400EBE6F0E0808182608083E8E6F0E08081AE
:101814008260808308C04EEC53E06FE171E080E0A9
:101824000E940C22D5E0D09306010E948525DF9109
:06183400CF911F91089501
:10183A00EF92FF920F931F93CF93DF93C82F8B01E1
:10184A00D42FF0901D03893069F5483009F0DEC0C5
:10185A00FB0190818281823009F0D8C08381833074
:10186A0009F0D4C00481158126813781409117037C
:10187A00509118036091190370911A030417150700
:10188A002607370709F0C2C010926D079093230309
:10189A000E94852581E08093140380931D03809321
:1018AA001C03B4C0FB01E080442309F4AFC01092CA
:1018BA006D07813121F481818F700E94DE24FF201F
:1018CA00E1F180912303E81238C0CA3029F4D130FB
:1018DA00A1F50E94852531C0CB30F1F4D33069F5EA
:1018EA0080911503811129C0F801818190911D0110
:1018FA00891718F580931F0390911F039093200373
:10190A008F3F31F480911D018093200310921F03B1
:10191A0081E08093150311C0CC3051F410926D0709
:10192A00D23059F4F80181818F700E94962505C042
:10193A00C53019F481E080931403CE3041F410923B
:10194A00230310921D0380E00E9496255FC0CF30CA
:10195A0021F480E00E94962559C0C03161F4F80153
:10196A002081318142815381648175818681978189
:10197A000E94F6154BC0CD3009F048C080911D0376
:10198A00811144C08091170390911803A091190303
:10199A00B0911A03492F5A2F6B2F772748275927B7
:1019AA006A277B278D012227332740275127622761
:1019BA0073278B2F9927AA27BB278A019B01082700
:1019CA0019272A273B27C901B80124E630E040E05D
:1019DA0050E00E942B20C62F1F926F938AED90E051
:1019EA00A0E0AF939F938F930E9463252C2F30E042
:1019FA00A8EEB3E00E9476240E94421F81E0809301
:101A0A001E030F900F900F900F900F90DF91CF91C0
:0A1A1A001F910F91FF90EF900895C7
:101A2400A5E0B0E0E8E1FDE00C94E1203B01882E64
:101A3400A82FCB010A96A11DFC015A2F0E945B25F9
:101A44005B019B019B2C990C9908F92CB92DA92DAC
:101A5400892D992DE82C630148E0C40ED11CE11CAA
:101A6400F6015E2D0E945B252B016C30710510F18F
:101A7400CB016CE070E00E94B3222C0197FF05C0FB
:101A8400615071098CE0480E511C972F990F990BE6
:101A94009B01492F592F692F792F892FC92CD92CB4
:101AA400E92CF92C092D192D0E943925942EF52E97
:101AB400B62FA72F8E010F5F1F4F492D5F2D6B2F60
:101AC4007A2F0E94DD0759016A017B018C0169812B
:101AD4007A81C2010E948A201B012C01550C220824
:101AE400322C21019B01AC01622D722D822D922D8D
:101AF4000E94392519012A01962E7B838C839D83AC
:101B0400A82DC3010696A11DFC015A2F0E945B2536
:101B140061507109972F990F990B30E8A32E41E575
:101B2400B42ECC24C394D12CE12CF12C00E010E091
:101B34009B01492F592F692F792F892F0E94D7187C
:101B440051016201E92CFB800C811D810E94392521
:101B540059016A017B018C01A82DC3010496A11DC2
:101B6400FC015A2F0E945B25072E000C880B990B51
:101B740020E13EE040E050E00E9485240E943925A7
:101B840059016A017B018C01A82DC3010296A11D94
:101B9400FC015A2F0E945B25072E000C880B990B21
:101BA4002CE330E040E050E00E9485240E94392577
:101BB40059016A017B018C01F301582D0E945B25B8
:101BC4009B01932F990F990B492F592F692F792F27
:0E1BD400892F0E9439252596E2E10C94FD2010
:101BE200CF92DF92FF920F931F93CF93DF93CDB7E4
:101BF200DEB728970FB6F894DEBF0FBECDBF982F81
:101C02009295907F9093ED00EEEDF0E0208101E05F
:101C120010E0082E02C0000F111F0A94E2F7902F65
:101C2200909592239083EFEEF0E090819F739083E2
:101C320081115DC08091EE0086FF09C0EEEEF0E0FA
:101C420080818F7B80831092630710925F0780915F
:101C5200EE0085FF38C0EEEEF0E080818F7D80835C
:101C6200C0904907D0904A07C114D10461F1809114
:101C7200EF008F70F82E4091F30050E0440F551F93
:101C8200440F551F440F551F8091F200829586958F
:101C92008770482B90E00AC02091FA00E1E0F0E062
:101CA200EC0FFD1FE90FF11D20839F5F9F15A0F32D
:101CB200CA010E94D81D823131F04F2DBE016F5FE3
:101CC2007F4FF60109958091EE008E7029F0EEEEBD
:101CD200F0E08081817F8083EEEDF0E08081082B4F
:101CE2000083EFEEF0E080818068808334C0813031
:101CF20091F58091EE0086FF07C0EEEEF0E0808164
:101D02008F7B8083109263078091EE0085FF05C070
:101D1200EEEEF0E080818F7D80838091EE0089710C
:101D2200D1F0EEEEF0E08081867E808380916207C2
:101D3200843168F481E080935F0721E0409160077D
:101D420069E377E0809161070E94BA0E04C01092A5
:101D5200630710925F0728960FB6F894DEBF0FBE96
:101D6200CDBFDF91CF911F910F91FF90DF90CF9068
:021D72000895D2
:101D74006F927F928F92EF92FF920F93CF93DF93A4
:101D8400C82F7B01042FD22F8823F9F0813031F141
:101D9400823069F18330A1F18630D9F1873009F4BA
:101DA40041C0853009F447C0843009F44DC08830FF
:101DB40009F453C042E451E069EF71E080E00E940D
:101DC4000C22612C712C812C50C00F2EF4E46F2E48
:101DD400F2E07F2EF0E08F2EF02D47C00F2EFCE3B3
:101DE4006F2EF2E07F2EF0E08F2EF02D3EC00F2EEE
:101DF400F4E36F2EF2E07F2EF0E08F2EF02D35C04D
:101E04000F2EFCE26F2EF2E07F2EF0E08F2EF02DED
:101E14002CC00F2EF4E26F2EF2E07F2EF0E08F2E16
:101E2400F02D23C00F2EFCE16F2EF2E07F2EF0E0A8
:101E34008F2EF02D1AC00F2EFCE06F2EF2E07F2EB5
:101E4400F0E08F2EF02D11C00F2EF4E16F2EF2E092
:101E54007F2EF0E08F2EF02D08C00F2EF4E06F2EB1
:101E6400F2E07F2EF0E08F2EF02DDD2321F0809123
:101E74005F07811130C0D11104C0809163078111C3
:101E84002AC081E080936307D1111AC010926207BF
:101E9400C0936107093038F042E551E069EF71E021
:101EA40080E00E940C22202F30E0C701A0E8AC01A2
:101EB4006A2F89E397E00E9498210093600705C088
:101EC400809162078F5F809362079701682DA30159
:101ED40081E00E94190ADF91CF910F91FF90EF905A
:081EE4008F907F906F9008952C
:101EEC001F93CF93DF9300D000D00F92CDB7DEB706
:101EFC0087B1806487B988B1806488B988B18064FF
:101F0C0088B90E9422220E94A82010E00DC0CE01A8
:101F1C0001960E945524813049F060E177E280E01F
:101F2C0090E00E94421F1F5F143688F3143609F4A8
:101F3C0076C0CE01019625E0FC0111922A95E9F7B5
:101F4C000E944C21813009F05EC08C818A3A09F0E4
:101F5C0068C040E050E060E070E4CE0101960E9461
:101F6C00971E811160C0CE0101960E9466218823C4
:101F7C000CF45BC089E297E00E94101C88230CF4DF
:101F8C0056C0E9E2F7E087818F7390E0A0E0B0E003
:101F9C00BC01552744279085892F90E0A0E0B0E044
:101FAC00BA2FA92F982F8827842B952BA62BB72BCC
:101FBC002185822B0196A11DB11D072E7AE0880F79
:101FCC00991FAA1FBB1F7A95D1F7702D80935007CC
:101FDC0090935107A0935207B093530725812F700C
:101FEC0081E090E002C0880F991F2A95E2F7909348
:101FFC005B0780935A0760EC78ED87EA90E00E94CB
:10200C00911581E017C040E050E060E070E4CE0133
:10201C0001960E94971E81110CC081E00BC080E0DC
:10202C0009C080E007C080E005C080E003C080E00C
:10203C0001C080E00F900F900F900F900F90DF91E8
:06204C00CF911F910895E1
:10205200CF9382E080937A0010927C0010929400D9
:1020620010929500109296001092970080EA809349
:102072007B00C0E083C02C2F30E0C901880F991F7C
:10208200820F931F0196092E000CAA0B89539E4FB3
:10209200AF4FFC018491A7FD8081813041F008F4AB
:1020A2006CC0823021F1833009F441C05FC054B169
:1020B200C901880F991F280F391F2E5F3F4F032E2A
:1020C200000C440B29533E4F4F4FF901249147FD19
:1020D200208181E090E002C0880F991F2A95E2F7E3
:1020E2008095582354B995B1892385B946C057B113
:1020F200C901880F991F280F391F2E5F3F4F032EEA
:10210200000C440B29533E4F4F4FF901249147FDD8
:10211200208181E090E002C0880F991F2A95E2F7A2
:102122008095582357B998B1892388B926C04AB1F6
:10213200C901880F991F820F931F0296092E000C66
:10214200AA0B89539E4FAF4FFC012491A7FD20811A
:1021520081E090E002C0880F991F2A95E2F78095EE
:1021620048234AB99BB189238BB907C045EB50E09C
:102172006EEE71E080E00E940C22CF5FC53008F461
:0C2182007ACF81E080935E07CF91089532
:10218E001F920F920FB60F9211242F933F934F93DE
:10219E005F936F937F938F939F93AF93BF93EF93C1
:1021AE00FF9386B5835D87BD85B3826085BBEEE602
:1021BE00F0E080818260808380917407882321F013
:1021CE0085B1886085B903C085B1877F85B9809157
:1021DE0079078F5F8093790780917907833061F457
:1021EE0080917507882341F08BE0809379071092D8
:1021FE007407109277074DC0809179078A3080F46A
:10220E0080917807882324F481E08093740702C0BC
:10221E001092740780917807880F8093780739C0E1
:10222E00809179078A3029F480917707809374071B
:10223E0030C0809179078B3019F41092740729C041
:10224E00809179078C3029F58091770780937407F8
:10225E001092790780917707811108C01092760746
:10226E00EEE6F0E080818D7F808313C00E944324D0
:10227E00809377070E94E31F8093780786B5885373
:10228E0087BD85B3826085BBEEE6F0E0808182601B
:10229E008083FF91EF91BF91AF919F918F917F912D
:1022AE006F915F914F913F912F910F900FBE0F90B5
:0422BE001F901895C0
:1022C2001F920F920FB60F9211240F931F932F9309
:1022D2003F934F935F936F937F938F939F93AF93AC
:1022E200BF93CF93DF93EF93FF93EBEDF0E0D081B9
:1022F2001091DE0080818F778083C091E000C0FF63
:102302000CC080E00E94F10D00E020E030E04CE4DF
:1023120052E060E080E00E94190AC1FF03C081E040
:102322000E94F10D8091DA0086FF03C080E4809361
:10233200DA008091DA0084FF0AC042EF51E069EFCF
:1023420071E080E00E940C2280E18093DA008091AB
:10235200DA0083FF03C088E08093DA008091DA001C
:1023620082FF03C084E08093DA008091DA0081FF6B
:1023720003C082E08093DA008091DA0080FF13C00C
:1023820081E08093DA0080916207843150F421E089
:102392004091600769E377E0809161070E94BA0E7D
:1023A20002C0109263071093DE00D093DB00FF910E
:1023B200EF91DF91CF91BF91AF919F918F917F91DB
:1023C2006F915F914F913F912F911F910F910F90BC
:0823D2000FBE0F901F9018953B
:1023DA00A0915101B09152018091540190915501FF
:1023EA00E0917107EF3F81F407C0F0E0EE0FFF1FA5
:1023FA00E75EF84F91838083E0917107EF5FE09386
:10240A007107E83090F30FC021E02E0F2093710777
:10241A00F0E0EE0FFF1FE75EF84F918380832830CC
:10242A0010F01092710780E020E030E00BC0E82F36
:10243A00F0E0EE0FFF1FE75EF84F40815181240F55
:10244A00351F8F5F883098F3C90199230CF40796DA
:10245A00959587959595879595958795A81BB90B19
:10246A0020E83CE00E947825AB01BC015F5F6F4F1A
:10247A007F4FDB01CA01772324F481509E4FAF4F6F
:10248A00BF4F072E79E0B595A795979587957A95C9
:10249A00D1F7702D9058AF4FBF4FECE0F1E094A701
:1024AA0083A723A534A5828993898217930720F4E9
:1024BA0083A594A5938B828BECE0F1E023A534A548
:1024CA00848995892817390720F483A594A5958BC3
:0424DA00848B089552
:1024DE00FC0120818DEC289F912D112496959695C7
:1024EE00969530E1939FA0011124990F392F330F48
:1024FE00330F930F291B242B20832181289F912D8D
:10250E00112496959695969530E1939FA0011124EE
:10251E00990F392F330F330F930F291B242B218340
:10252E004281489F912D112496959695969550E14E
:10253E00959F90011124990F392F330F330F930F5D
:10254E00491B242B2F7B2283938197709860938352
:10255E002481289F912D112496959695969530E17C
:10256E00939FA0011124990F392F330F330F930F1F
:10257E00291B242B24832581289F912D1124969588
:10258E009695969530E1939FA0011124990F392FBE
:10259E00330F330F930F291B242B25839681989F7E
:1025AE00812D112486958695869540E1849F900114
:1025BE001124880F382F330F330F830F981B922B54
:0E25CE00968347E0BF0180E00E94701D0895D3
:1025DC008F929F92AF92BF92CF92DF92EF92FF9227
:1025EC000F931F93CF93DF93FC012481358121300E
:1025FC00324008F05AC0EC012C813D81AC0160E8FE
:10260C0088E293E00E9498218C819D8181159240F3
:10261C0070F42C813D818C819D8140E052E0421B05
:10262C00530B60E070E0885D9C4F0E942725C12C05
:10263C00D12C7601C394812C912C54012FC0609124
:10264C00540770915507809156079091570701E0F8
:10265C0010E020E030E0A401485D5C4F0E9449147A
:10266C00882321F18091540790915507A09156072A
:10267C00B09157070196A11DB11D809354079093FB
:10268C005507A0935607B093570742E0940EA11C30
:10269C00B11C81E0C81AD108E108F108C114D104B9
:1026AC00E104F10461F681E001C080E0DF91CF919B
:1026BC001F910F91FF90EF90DF90CF90BF90AF9054
:0626CC009F908F9008951D
:1026D200CF93DF93EC0147E0BC0180E00E94931BA3
:1026E200882309F463C09881292F22952F702770BF
:1026F200220F322F330F330F230F9F70920F9883C5
:102702009981292F22952F702770220F322F330F94
:10271200330F230F9F70920F99839A8196FF11C0F6
:1027220094FB222720F9220F322F330F330F230F6E
:10273200392F3F70230F2A8395FF0FC0245F2A830E
:102742000CC0292F22952F702370220F322F330FA6
:10275200330F230F9F70920F9A839B8197709B83F5
:102762009C81292F22952F702370220F322F330F35
:10277200330F230F9F70920F9C839D8194FB22271E
:1027820020F9220F322F330F330F230F9F70920F36
:102792009D839E81292F22952F70220F322F330F76
:1027A200330F230F9F70920F9C5E9E83DF91CF9118
:0227B200089588
:1027B4001F920F920FB60F9211242F933F934F93B2
:1027C4005F936F937F938F939F93AF93BF93EF9395
:1027D400FF9386B5855D88BD85B3846085BBEEE6D1
:1027E400F0E080818460808320917B0783B182FB49
:1027F400882780F980937B0790917207992331F0A1
:1028040098B1906898B91092720706C098B19F77F2
:1028140098B981E08093720780917E078F5F8093DF
:102824007E07813019F410927D0720C08A3038F475
:1028340080917D07880F822B80937D0717C020939A
:102844007A078CE0809369008CB382608CBB8DB373
:1028540082608DBBEEE6F0E080818B7F8083809187
:102864007D070E94C81C83E080937C07FF91EF9151
:10287400BF91AF919F918F917F916F915F914F9194
:0E2884003F912F910F900FBE0F901F9018954F
:102892008F929F92AF92BF92CF92DF92EF92FF926E
:1028A2000F931F93CF93DF934B015C01EA01680101
:1028B20079010E94AC2581E00E940A2581E0C816B8
:1028C200D104E104F10489F4B501A40188E10E9474
:1028D2003118811137C060915A0770915B074EEF32
:1028E200CE010E94BB16182F30C0B501A40189E1A8
:1028F2000E943118882319F027C06C017D01609174
:102902005A0770915B074CEFCE010E94BB16182F3D
:102912000E94AC2580915A0790915B07C80FD91F7E
:10292200112349F0D701C6010197A109B109CD28A8
:10293200CE28CF2811F740E050E0BA018CE00E9487
:10294200311803C010E001C010E080E00E940A25A7
:10295200812FDF91CF911F910F91FF90EF90DF9028
:0C296200CF90BF90AF909F908F90089591
:10296E008F929F92AF92BF92CF92DF92EF92FF9291
:10297E000F931F93E8E2F5E0C48CD58CE68CF78CB0
:10298E0080A091A0A2A0B3A001E010E020E030E072
:10299E0048E253E0C701B6010E942515882309F4C9
:1029AE0042C0F401E85DFC4F0091400510914105D5
:1029BE002091420530914305008311832283338396
:1029CE00148215821682178201E010E020E030E0BA
:1029DE0048E253E0C701B6010E944914882319F159
:1029EE00E8E2F5E080A191A1A2A1B3A10896A11DF4
:1029FE00B11D80A391A3A2A3B3A381159240A105FB
:102A0E00B10578F0848D958DA68DB78D0196A11D9B
:102A1E00B11D848F958FA68FB78F10A211A212A20F
:102A2E0013A20E947F211F910F91FF90EF90DF90D4
:0C2A3E00CF90BF90AF909F908F900895B4
:102A4A008F929F92AF92BF92CF92DF92EF92FF92B4
:102A5A000F931F93CF93DF934B015C01EA01680147
:102A6A0079010E94AC2581E00E940A2581E0C816FE
:102A7A00D104E104F10481F4B501A40181E10E94C9
:102A8A003118811135C060915A0770915B07CE01E8
:102A9A000E94041A182F2FC0B501A40182E10E94D6
:102AAA003118882319F026C06C017D0160915A07FC
:102ABA0070915B07CE010E94041A182F0E94AC2560
:102ACA0080915A0790915B07C80FD91F112349F0CB
:102ADA00D701C6010197A109B109CD28CE28CF286F
:102AEA0019F740E050E0BA018CE00E94311803C0A7
:102AFA0010E001C010E080E00E940A25812FDF91DA
:102B0A00CF911F910F91FF90EF90DF90CF90BF90E0
:082B1A00AF909F908F90089589
:102B2200CF92DF92EF92FF926B017C0120E019C0FD
:102B3200822F90E0AC01440F551F840F951F880F20
:102B4200991F092E000CAA0B855A9E4FAF4FFC010C
:102B52005A2F0E94BB24C616D706E806F90618F4B7
:102B62002F5F273028F3273009F421506CB530E06D
:102B7200A901440F551FCA01820F931F880F991F85
:102B82000496092E000CAA0B855A9E4FAF4FFC01EA
:102B92008491A7FD80816C7F862B8CBD6DB5CA01A7
:102BA200820F931F880F991F0596092E000CAA0BFE
:102BB200855A9E4FAF4FFC018491A7FD80816E7FA5
:102BC200862B8DBD240F351F220F331F032E000CC1
:102BD200440B255A3E4F4F4FF901542F0E94BB24FC
:0A2BE200FF90EF90DF90CF90089570
:102BEC000F931F93CF93DF93CDB7DEB7A8970FB694
:102BFC00F894DEBF0FBECDBF29A33AA34BA35CA3B1
:102C0C006DA37EA38FA398A7FE01319689E1DF0106
:102C1C001D928A95E9F7BE016F5D7F4F80E80E9497
:102C2C00A0258C01892B39F442E851E063EA71E06C
:102C3C0080E00E940C22A80160E829E130E0CE017E
:102C4C0001960E949821BE01665E7F4FCE010196CF
:102C5C000E94181FF89479A16AA15BA14CA13DA117
:102C6C002EA19FA188A570934107609342075093B2
:102C7C0043074093440730934507209346079093AE
:102C8C004707809348077894CE014A960E946F12AA
:102C9C00A8960FB6F894DEBF0FBECDBFDF91CF91D3
:062CAC001F910F91089535
:102CB200CF92DF92EF92FF928F3508F08EE5ECE033
:102CC200F1E0818BC82ED12CE12CF12CAAECB8E0DA
:102CD200A70196010E94F424618F728F838F948FD3
:102CE200A4E9B1E10E94F424658F768F878F90A3C7
:102CF200858D968DA78DB0A1418D528D638D748D7A
:102D0200841B950BA60BB70B880F991FAA1FBB1F1D
:102D1200880F991FAA1FBB1F880F991FAA1FBB1FCD
:102D2200880F991FAA1FBB1F880F991FAA1FBB1FBD
:102D3200880F991FAA1FBB1F880F991FAA1FBB1FAD
:102D4200AC01BD01BB2324F441505C4F6F4F7F4F58
:102D5200032E3AE075956795579547953A95D1F7C1
:102D6200302D50932E0140932D01FF90EF90DF9074
:042D7200CF90089561
:102D7600EF92FF920F931F93CF93DF9300D0CDB7BF
:102D8600DEB78C017B014A8341E050E0BE016E5FF5
:102D96007F4F81E00E946B1E8A818D3FE1F1A70182
:102DA600B80181E00E946B1E00E010E00DC041E01A
:102DB60050E0BE016F5F7F4F83E00E946B1E8981EA
:102DC6008F3F31F40F5F1F4F0E3988E9180778F3EC
:102DD6000E39184911F189818F718983853081F007
:102DE60080E01EC041E050E0BE016F5F7F4F83E090
:102DF6000E946B1E8981811109C00F5F1F4F02C09F
:102E060000E010E00E3988E9180760F30E3918491A
:102E160031F081E005C081E003C080E001C080E0C0
:102E26000F900F90DF91CF911F910F91FF90EF9030
:022E36000895FD
:102E380078941F920F920FB60F9211242F933F93FD
:102E48004F935F936F937F938F939F93AF93BF93AA
:102E5800EF93FF93609178007091790080914B0710
:102E680091E0980F90934B07953010F010924B0714
:102E7800ACE7B0E05C9120914B0730E0F901EE0F30
:102E8800FF1F2E0F3F1F032E000C440B29533E4FEC
:102E98004F4FF901949147FD9081507E952B906C8E
:102EA8009C930E94DA2280914B07811109C0EAE7BE
:102EB800F0E08081877F808381E080935E0705C092
:102EC800EAE7F0E0808188648083FF91EF91BF9109
:102ED800AF919F918F917F916F915F914F913F91AA
:0C2EE8002F910F900FBE0F901F901895B7
:102EF40078941F920F920FB60F9211248F939F9381
:102F0400EF93FF9382E086BB8091840090918500CB
:102F14008B5C934F9093890080938800EFE6F0E0F8
:102F240080818260808381E080930A0180917007B0
:102F34008F5F8093700780917007833078F01092D0
:102F4400700781E080936F0780910B01813019F441
:102F540010920B0103C081E080930B0180916D07F7
:102F64008F3F29F080916D078F5F80936D0780916B
:102F74006D078F3640F080916D078F5680936D07F3
:102F840081E080931B0380916E07882329F0809150
:102F94006E07815080936E07FF91EF919F918F91FF
:0A2FA4000F900FBE0F901F901895BC
:102FAE00CF93DF9381110DC080910C0190910D0193
:102FBE00A0910E01B0910F018A379A4DA747BA4BD7
:102FCE00E9F0ECE0F1E080E092E0DF01EC011D922F
:102FDE002197E9F7958384838AE79AEDA7E7BAEB01
:102FEE0080839183A283B3838FEF86A3878784E048
:102FFE0090E00E941E250E9459161CC0ECE0F1E0E4
:10300E0011AE12AE13AE14AE14AA13AA16AA15AAB6
:10301E0010AE17AA80EB91E0ACE5B1E0ED019C019A
:10302E00199221503040E1F713A215A214A216A254
:10303E0011A612A6ECE0F1E08FE995E196A785A71F
:10304E0090AB87A792AB81AB8FEF80937107DF9127
:04305E00CF91089571
:10306200DF92EF92FF920F931F93CF93DF93CDB72F
:10307200DEB727970FB6F894DEBF0FBECDBF182F6D
:10308200042FF52EE62ED72E88234CF440E050E094
:10309200BA0187E30E9431188F83823040F5812F75
:1030A2008F7380648983DA82EB82FC820D83112321
:1030B20011F080E001C085E9183009F487E88160E9
:1030C2008E8346E050E0BE016F5F7F4F81E00E9439
:1030D2006B1E1AE041E050E0BE01695F7F4F83E062
:1030E2000E946B1E8F81882314F4115099F7279642
:1030F2000FB6F894DEBF0FBECDBFDF91CF911F9107
:0A3102000F91FF90EF90DF90089509
:10310C0088249924F401E401B0E49F93AA279A152A
:10311C008B049C04ED05FE05CF05D007A10798F4A0
:10312C00AD2FDC2FCF2FFE2FE92D982C892E982F29
:10313C00872F762F652F542F432F322F2227B850ED
:10314C0031F7BF9127C01B2EBF91BB27220F331F16
:10315C00441F551F661F771F881F991F881C991CB9
:10316C00EE1FFF1FCC1FDD1FAA1FBB1F8A149B0461
:10317C00EC05FD05CE05DF05A007B10748F08A1860
:10318C009B08EC09FD09CE09DF09A00BB10B2160EE
:10319C001A94E1F62EF49401AF01BE01CD01000C9E
:0231AC00089584
:1031AE00DF93CF931F930F939A9DF02D219FF00DD8
:1031BE008B9DF00D8A9DE02DF10D039FF00D029F6A
:1031CE00E00DF11D4E9DE00DF11D5E9DF00D4F9D2C
:1031DE00F00D7F936F93BF92AF925F934F93D50194
:1031EE000E9476248B01AC01D7010E947624EB015C
:1031FE00E80FF91FD6010E9430252F913F91D6017D
:10320E000E947624C60FD71FE81FF91FAF91BF91FA
:10321E000E9430252F913F910E947624C60FD71F12
:10322E00E81FF91FD6010E947624E60FF71F9801BA
:10323E00BE01CF0111240F911F91CF91DF910895FF
:10324E000F93CF93C2E0C093E20084E08093E3003B
:10325E0082E18093E40000E020E030E044E552E0BB
:10326E0060E080E00E94190A20E030E044E552E080
:10327E0060E081E00E94190A20E030E044E552E06F
:10328E0060E082E00E94190A20E030E044E552E05E
:10329E0060E083E00E94190A20E030E044E552E04D
:1032AE0060E084E00E94190A20E030E044E552E03C
:1032BE0060E085E00E94190A20E030E04CE452E024
:1032CE0060E080E00E94190A8EEB8093DB00C093D1
:0C32DE00D80010926307CF910F91089563
:1032EA000F931F93CF93DF938C01EB01892BF9F096
:1032FA0087E090E00E941E2590E0F8019183808388
:10330A0088E090E00E941E2590E0982F8827F80117
:10331A0020813181822B932B9183808301978E3F69
:10332A009F4F28F08CEC97E7F801918380832097D0
:10333A00E1F085E090E00E941E2590E09983888361
:10334A0086E090E00E941E2590E0982F8827288129
:10335A003981822B932B9983888301978E3F9F4FC4
:10336A0020F084EF91E899838883DF91CF911F91B0
:04337A000F91089512
:10337E0078941F920F920FB60F9211242F933F93B2
:10338E004F935F936F937F938F939F93AF93BF935F
:10339E00EF93FF9396B180910601833021F08091D7
:1033AE0006018230C9F491FF17C088B18F7E88B9AB
:1033BE0080910601833019F481E00E949625EBE698
:1033CE00F0E080818D7F8083E8E6F0E080818D7F64
:1033DE00808381E080930F03FF91EF91BF91AF91B6
:1033EE009F918F917F916F915F914F913F912F910F
:0A33FE000F900FBE0F901F9018955E
:10340800CF92DF92EF92FF920F931F93CF93DF93A8
:103418000F92CDB7DEB77C016B0100E010E101C06F
:10342800890141E050E0BE016F5F7F4F83E00E9459
:103438006B1E89818E3F29F0980121503109012B9B
:1034480079F78E3FB9F4A601B70183E00E946B1E9D
:1034580041E050E0BE016F5F7F4F83E00E946B1E2A
:1034680041E050E0BE016F5F7F4F83E00E946B1E1A
:1034780081E001C080E00F90DF91CF911F910F9103
:0A348800FF90EF90DF90CF900895C1
:1034920080916807823049F128F4882341F0813015
:1034A20091F032C0833061F18430A9F12DC085B131
:1034B2008F7E85B981E08093680780E00E94D717EC
:1034C2000E948525089585B18F7E85B980E00E948E
:1034D200D71782E08093680781E080936E07ECE063
:1034E200F1E08FEF8787108A089580916E0781112E
:1034F20012C085B1806185B983E080936807089521
:1035020084E080936807089544E652E06FE171E039
:0835120080E00E940C220895E4
:10351A0078941F920F920FB60F9211242F933F9314
:10352A004F935F936F937F938F939F93AF938CB3D4
:10353A0088608CBB20914107309142074091430734
:10354A00509144076091450770914607809147075B
:10355A0090914807A1E00E94C72420934107309325
:10356A00420740934307509344076093450770937B
:10357A0046078093470790934807AF919F918F9191
:10358A007F916F915F914F913F912F910F900FBE55
:06359A000F901F90189530
:1035A000A9E1B0E0E6EDFAE10C94E3202C01BC01C6
:1035B00080E80E94120D39014A0159016A01E12C8B
:1035C000F12C00E010E00E944225F9F41A8A198AD1
:1035D0001B8A1C8A1D8A1E8A20E632E040E02F8B5F
:1035E000388F498F8E010F5F1F4F9301482D0E9426
:1035F000320197FD0AC089E1F801D20101900D92D4
:103600008A95E1F7B301C4010AC08FE490E090937A
:103610000101809300016FEF7FEF8FEF9FEF6996BD
:06362000E0E10C94FF2024
:10362600CF930E94760FC82F8823C1F10E944D20A8
:10363600811122C0E8E2F5E088ED91E0DF019C010E
:103646001D9221503040E1F781E090E0A0E0B0E02B
:1036560084879587A687B787808F918FA28FB38F30
:1036660084E090E0A0E0B0E0848F958FA68FB78FBE
:103676000E947F21882389F0809140059091410521
:10368600A0914205B0914305809354079093550746
:10369600A0935607B093570701C0C82F8C2FCF9120
:0236A600089585
:1036A800CF92DF92EF92FF9280E090E00E941E2579
:1036B800C82ED12CE12CF12C81E090E00E941E252F
:1036C80090E0A0E0B0E0BA2FA92F982F8827C82A49
:1036D800D92AEA2AFB2A82E090E00E941E2590E07F
:1036E800A0E0B0E0DC0199278827C82AD92AEA2A6D
:1036F800FB2A83E090E00E941E2590E0A0E0B0E065
:10370800B82FAA2799278827BC01CD016C297D29C4
:0E3718008E299F29FF90EF90DF90CF900895AB
:10372600FF920F931F93CF93DF93F82E8B01C42F35
:10373600411107C04FE550E063EA71E080E00E9466
:103746000C2241E060E08EED0E940920D82F8823EC
:10375600E9F08F2D0E943B1DD82F8823B9F040E059
:1037660061E08EED0E940920D82F811108C00EC09D
:1037760081E00E944E1CF80181938F01C150C23036
:10378600B8F780E00E944E1CF80180830E94C72291
:0E3796008D2FDF91CF911F910F91FF9008951D
:1037A400CF93DF93DC01FB0189E1EB0119928A9548
:1037B400E9F78C9190E09183808311968C91119715
:1037C40090E09383828312968C91129790E0958374
:1037D400848314968C91149790E09783868315962E
:1037E4008C91159790E001979187808716968C911C
:1037F400843130F490E08C5C974F9387828705C0C6
:1038040090E08053984F93878287828593858C5666
:0C381400974093878287DF91CF91089541
:10382000EF92FF920F931F93CF93DF930F92CDB739
:10383000DEB77C0181E00E940A2540E050E0BA0139
:1038400089E00E943118082F81111CC018E001C0C6
:10385000182F41E050E0BE016F5F7F4F83E00E9470
:103860006B1E89818E3F29F08FEF810F1111F0CFF0
:1038700001C0812F882331F040E150E0B70183E09F
:103880000E946B1E80E00E940A25802F0F90DF911E
:0C389000CF911F910F91FF90EF900895D1
:10389C001F93CF93DF93182F8AB18D7F8AB98BB189
:1038AC0082608BB9C8E0D0E00EC0DD0F8BB18160B7
:1038BC008BB90E946A254999D1608BB18E7F8BB9E7
:1038CC000E946A25C150C111F0CF8AB182608AB9B9
:1038DC00112321F08BB18D7F8BB903C08BB182602A
:1038EC008BB90E946A258BB181608BB90E946A25C5
:1038FC008BB18E7F8BB90E946A258BB18D7F8BB972
:0A390C008D2FDF91CF911F910895D8
:103916008F3F2FEF920761F1282F2F7094FF02C07F
:10392600906F01C09F779595879595958795959505
:10393600879595958795AC014C5E5F4F4D3851053F
:10394600C8F434E6389FD001399FB00D112430E019
:1039560040E029543E4F4F4FF901849147FD808145
:10396600FD01E80FF11DCF0181569A4E21E005C0F9
:1039760020E003C08FEF9FEF20E06115710519F07D
:0A398600FB0191838083822F0895D6
:10399000E0916B0721E02E0F20936B07F0E0E45BD2
:1039A000F84F808380915807909159070196909322
:1039B000590780935807243038F110926B07809193
:1039C0006C078C3608F5E82FF0E07496EE0FFF1FB9
:1039D000EE0FFF1FE45FFE4FACE4B7E04D915D9149
:1039E0006D917C91139740835183628373831D9201
:1039F0001D921D921C9213978F5F80936C0780918C
:0A3A00006A078F5F80936A0708953C
:103A0A00A0E0B0E0EBE0FDE10C94E720EA01FB0165
:103A1A00582F0E94BB244B015C01C12CD12C76018A
:103A2A008E019B01A50160E070E080E090E00E94B9
:103A3A00320197FF09C08FE490E0909301018093CF
:103A4A00000180E090E00DC0198A188A1A8A1B8A40
:103A5A001C8A1D8A8CE592E0A0E08E8B9F8BA88F32
:0C3A6A00CE01CDB7DEB7ECE00C940321D8
:103A7600CF93DF93D82F8AB182608AB9C8E015C088
:103A8600DD2324F48BB182608BB903C08BB18D7FAB
:103A96008BB98BB181608BB90E946A258BB18E7F01
:103AA6008BB90E946A25DD0FC150C111E9CF8AB1D9
:103AB6008D7F8AB98BB182608BB98BB181608BB9EE
:103AC6000E946A25499BC1E08BB18E7F8BB90E940B
:0A3AD6006A258C2FDF91CF9108952F
:103AE000FF920F931F93CF93DF93F82E8B01C42F78
:103AF000411107C042E950E063EA71E080E00E94B2
:103B00000C2241E060E08EED0E940920D82F88232E
:103B100099F08F2D0E943B1DD82F81110BC00CC036
:103B2000F80180810E943B1DD82F882329F00F5F68
:103B30001F4FC150C111F4CF0E94C7228D2FDF91BA
:0A3B4000CF911F910F91FF9008959F
:103B4A001F920F920FB60F9211248F93EF93FF9348
:103B5A0086B5855C88BD85B3846085BBEEE6F0E0FA
:103B6A008081846080838DB38D7F8DBB8091720745
:103B7A00882331F088B1806888B91092720706C02C
:103B8A0088B18F7788B981E08093720781E080934A
:103B9A007C0710927E07FF91EF918F910F900FBED5
:063BAA000F901F9018951A
:103BB000CF93DF93EC0190E026C0A92FB0E09D01E8
:103BC000220F331F2A0F3B1F032E000C440B2B57D1
:103BD0003E4F4F4FF901542F0E945B256C177D0714
:103BE00089F4CD01880F991F8A0F9B1F0296092E19
:103BF000000CAA0B8B579E4FAF4FFC018491A7FD81
:103C0000808104C09F5F9A30C0F282E1DF91CF9142
:023C1000089515
:103C1200FB0193709C01205F31402131324000F55D
:103C2200DC012BED36EA43E250E00E94F424DC0191
:103C3200CB01072E7AE0B695A795979587957A9549
:103C4200D1F7702D9F5FAF4FBF4F072E79E0B6952A
:103C5200A795979587957A95D1F7702D21E003C0A6
:103C620020E080E090E0309711F091838083822FF2
:023C72000895B3
:103C7400689401C0E894F92FF12B12F00C94972466
:103C8400A0E0B0E0E8E4FEE10C94E720092E0594FE
:103C940022F40E946624112392F4F0E80F26FFEF29
:103CA400E094F09400951095B094C094D094A194AD
:103CB400BF0ACF0ADF0AEF0AFF0A0F0B1F0B0E948D
:103CC400861807FC0E946624CDB7DEB7ECE00C949E
:023CD4000321CA
:103CD600FB01833071F408C02FEF2EBD0DB407FE33
:103CE600FDCF2EB52193AC01CA010197452BA1F753
:103CF6000895813061F406C021912EBD0DB407FEF2
:103D0600FDCFAC01CA010197452BB1F7089582306A
:103D160051F405C0EEBD0DB407FEFDCFAC01CA01DE
:083D26000197452BB9F7089540
:103D2E00CF92DF92EF92FF920F931F93CF93DF9379
:103D3E008C016A017B01C0E00FC0B701A601C8016A
:103D4E000E943221D82F882349F060E177E280E08B
:103D5E0090E00E94421FCF5FC43678F3C43609F458
:103D6E00D0E88D2FDF91CF911F910F91FF90EF90A3
:063D7E00DF90CF900895D4
:103D840080917607811123C080917C07811121C025
:103D940082E080937607109273071092790781E08E
:103DA4008093740786B58E5C87BD85B3826085BBBE
:103DB400EEE6F0E08081826080830E944324809359
:103DC40077070E94E31F8093780781E0089580E0DD
:063DD400089580E008954F
:103DDA00E894DF93CF93FC01DB010E9476247F9362
:103DEA006F93E9019A01AC01BF93AF933F932F936D
:103DFA00DF010E94762426F46C1B7D0B820B930B49
:103E0A009E01EB01FC010E943025AF91BF912F91D9
:103E1A003F910E943025BE01CF01F9012F913F91B8
:063E2A00CF91DF91089525
:103E3000CF93DF93DC01FB0187E0EB0119928A95B8
:103E4000E9F78C91808312968C9112978183149656
:103E50008C911497828316968C911697848318966A
:103E60008C91189785831A968D919C911B97883C0D
:103E700091051CF08453868302C0805D8683DF91A8
:043E8000CF91089541
:103E8400AB01BC014F5F5F4F6F4F7F4F76956795D6
:103E94005795479596B517C086B59817E9F326B593
:103EA400822F891B90E0A0E0B0E0481759076A0709
:103EB4007B0728F0481B590B6A0B7B0B03C040E0BF
:103EC40050E0BA01922F411551056105710521F7A2
:023ED40008954F
:103ED60014BC92E095BDA4E6B0E08C91877F8C93EC
:103EE6001092800084E08093810096BB80918400CC
:103EF600909185008B5C934F909389008093880006
:103F0600EFE6F0E08081826080838C918F7E8C93D7
:103F1600AEE6B0E08C918E7F8C9380818E7F80831D
:023F26000895FC
:103F28001F920F920FB60F9211242F933F934F9326
:103F38005F936F937F938F939F93AF93BF93EF9309
:103F4800FF934DEF52E06FE171E080E00E940C2298
:103F5800FF91EF91BF91AF919F918F917F916F9159
:103F68005F914F913F912F910F900FBE0F901F902F
:023F780018959A
:103F7A0078941F920F920FB60F9211242F933F93AA
:103F8A004F935F936F937F938F939F93AF93BF9357
:103F9A00EF93FF938BB10E94AF24FF91EF91BF91F2
:103FAA00AF919F918F917F916F915F914F913F91C7
:0C3FBA002F910F900FBE0F901F901895D4
:103FC60080917307811110C081E00E948B22ECE57D
:103FD600F7E0908381838081882324F481E08093B5
:103FE600750702C010927507E0917307F0E0E45A76
:103FF600F84F8081909173079F5F9093730790911C
:0C4006007307923010F0109273070895B9
:10401200FF920F931F93CF93DF93F82E062F142F47
:10402200D3E0C0E00CC0D150602F8F2D0E946322DC
:10403200C82F112341F0811102C00E946C20C111CE
:1040420002C0D111F0CF8C2FDF91CF911F910F9130
:04405200FF9008953E
:10405600A1E21A2EAA1BBB1BFD010DC0AA1FBB1F86
:10406600EE1FFF1FA217B307E407F50720F0A21BF8
:10407600B30BE40BF50B661F771F881F991F1A9465
:1040860069F760957095809590959B01AC01BD018F
:04409600CF010895B9
:10409A000F931F93CF9301E010E020E030E048E255
:1040AA0053E060E070E0CB010E942515C82F8823F9
:1040BA0049F048E253E060E828ED31E088E295E013
:0E40CA000E9498218C2FCF911F910F91089585
:1040D800CF938AB181608AB98AB182608AB9C0E413
:1040E80011C08BB18E7F8BB98BB18D7F8BB90E943C
:1040F8006A258BB181608BB98BB182608BB90E94C4
:0C4108006A25C150C111EDCFCF91089580
:10411400CF93DF939C01EB01880F991F880F991FA0
:10412400092E000CAA0B855D9E4FAF4FFC015A2F40
:104134000E94BB24CD2B39F02230310524F0605885
:0C4144007E4A8E4F9F4FDF91CF9108956F
:1041500060E87AE186E090E00E94911588B1806481
:1041600088B960ED77E080E090E00E94421F40E176
:1041700050E06FEF70E082E00E946B1E60ED77E030
:0A41800080E090E00E94421F0895C5
:10418A00E8E2F5E084899589A689B7890196A11D97
:10419A00B11D848B958BA68BB78B80915407909118
:1041AA005507A0915607B0915707808F918FA28F1C
:0841BA00B38F0E94B7140895B1
:1041C2002F923F924F925F926F927F928F929F9225
:1041D200AF92BF92CF92DF92EF92FF920F931F9313
:1041E200CF93DF93CDB7DEB7CA1BDB0B0FB6F894C4
:0841F200DEBF0FBECDBF099432
:1041FA002A88398848885F846E847D848C849B846D
:10420A00AA84B984C884DF80EE80FD800C811B817A
:10421A00AA81B981CE0FD11D0FB6F894DEBF0FBEA9
:06422A00CDBFED01089577
:104230009C0160E971E00E949F22892B69F0C9010D
:1042400064E670E00E949F22892B41F0237033279F
:10425000232B31F080E0089581E0089580E00895F7
:0442600081E008955C
:10426400CF92DF92EF92FF92CF936A017B0181E0BC
:104274000E940A25B701A60189EA0E943118C82FB5
:1042840080E00E940A258C2FCF91FF90EF90DF9061
:04429400CF9008952A
:104298000F931F93CF938C0181E00E940A254AEA6D
:1042A80051E060E070E088E00E943118C82FC80132
:1042B8000E94712580E00E940A258C2FCF911F91C2
:0442C8000F910895B5
:1042CC000F931F93CF938C0181E00E940A2540E04D
:1042DC0050E0BA018AE30E943118C82FC8010E942D
:1042EC00712580E00E940A258C2FCF911F910F9190
:0242FC00089523
:1042FE000F931F9348E255E060E828ED31E088E225
:10430E0093E00E94982101E010E020E030E048E2C6
:10431E0053E060E070E0CB010E9449141F910F91B1
:02432E000895F0
:10433000CF92DF92EF926A01E62EDC01280F391F3F
:10434000A217B30751F0F6014491E7FC40814D9369
:104350004FEFC41AD40AE40AF3CFEF90DF90CF9066
:024360000895BE
:1043620085B78F7E85BF84B1886084B984B18B7F25
:1043720084B985B18B7F85B987B1806887B98DB3E0
:104382008D7F8DBB1092760785B1877F85B90895A1
:10439200052E97FB1EF400940E944B2557FD07D073
:1043A2000E942B2007FC03D04EF40C944B25509511
:0E43B2004095309521953F4F4F4F5F4F089536
:1043C0008AB182608AB98BB182608BB98BB181600E
:1043D0008BB90E946A258BB18D7F8BB90E946A25AB
:0C43E0008BB18E7F8BB90E946A25089576
:1043EC008BB181608BB98BB182608BB98AB18160E2
:1043FC008AB98AB18D7F8AB98BB182608BB964E13D
:0C440C0070E080E090E00E94421F0895E4
:104418005F934F938F937F936F9380E191E0A0E038
:10442800AF939F938F930E9463258DB79EB708968D
:0C4438000FB6F8949EBF0FBE8DBF089514
:1044440084B1826884B984B18E7F84B985B1816076
:1044540085B983E58CBD1DBC85B78F7785BF60E8C2
:0C4464007AE186E090E00E949115089536
:104470008091540790915507A0915607B091570726
:104480000197A109B1098093380590933905A0934C
:0C4490003A05B0933B050E947F2108957F
:10449C0080915E07813081F410924B07ECE7F0E0DD
:1044AC008081807E896C808382E080935E07EAE75E
:0A44BC00F0E08081886C8083089591
:1044C600CF93DF93C82FD62F0E94F6210E94E021BA
:1044D600DD2319F08C2F816002C08C2F8E7F0E9405
:0844E6003B1DDF91CF91089509
:1044EE000F931F93CF93DF93EC018A0188819981FB
:1044FE000E94091EB8018A819B810E948B1CDF914C
:08450E00CF911F910F91089558
:1045160090911003992351F0882359F010921003BB
:1045260081E0809311038FEF93E0089580E090E897
:0845360008958FEF93E0089552
:10453E00AA1BBB1B51E107C0AA1FBB1FA617B707BB
:10454E0010F0A61BB70B881F991F5A95A9F78095D7
:08455E009095BC01CD01089508
:1045660097FB072E16F4009407D077FD09D00E941A
:104576009F2207FC05D03EF4909581959F4F0895A4
:08458600709561957F4F0895C7
:10458E008BB18D7F8BB90E946A258BB181608BB9FF
:10459E000E946A258AB18D7F8AB98BB182608BB9F0
:0645AE000E946A25089539
:1045B400843019F491E090930E0390E0FC01EE0F27
:1045C400FF1F8E0F9F1FFC01E35BFE4F728361830D
:0645D40081E080830895E0
:1045DA001F920F920FB60F9211248DEE92E28093E2
:1045EA00660780916A008093650780916B008093CB
:0445FA006407FFCF84
:1045FE001F920F920FB60F9211248FEF92E28093BB
:10460E00660780916A008093650780916B008093A6
:04461E006407FFCF5F
:104622001F920F920FB60F92112481E193E28093B1
:10463200660780916A008093650780916B00809382
:044642006407FFCF3B
:104646001F920F920FB60F92112483E293E280938A
:10465600660780916A008093650780916B0080935E
:044666006407FFCF17
:10466A001F920F920FB60F92112485E393E2809363
:10467A00660780916A008093650780916B0080933A
:04468A006407FFCFF3
:10468E001F920F920FB60F92112487E493E280933C
:10469E00660780916A008093650780916B00809316
:0446AE006407FFCFCF
:1046B2001F920F920FB60F92112489E593E2809315
:1046C200660780916A008093650780916B008093F2
:0446D2006407FFCFAB
:1046D6001F920F920FB60F9211248BE693E28093EE
:1046E600660780916A008093650780916B008093CE
:0446F6006407FFCF87
:1046FA001F920F920FB60F9211248DE793E28093C7
:10470A00660780916A008093650780916B008093A9
:04471A006407FFCF62
:10471E001F920F920FB60F9211248FE893E280939F
:10472E00660780916A008093650780916B00809385
:04473E006407FFCF3E
:104742001F920F920FB60F92112481EA93E2809387
:10475200660780916A008093650780916B00809361
:044762006407FFCF1A
:104766001F920F920FB60F92112483EB93E2809360
:10477600660780916A008093650780916B0080933D
:044786006407FFCFF6
:10478A001F920F920FB60F92112485EC93E2809339
:10479A00660780916A008093650780916B00809319
:0447AA006407FFCFD2
:1047AE001F920F920FB60F92112487ED93E2809312
:1047BE00660780916A008093650780916B008093F5
:0447CE006407FFCFAE
:1047D2001F920F920FB60F92112489EE93E28093EB
:1047E200660780916A008093650780916B008093D1
:0447F2006407FFCF8A
:1047F6001F920F920FB60F9211248BEF93E28093C4
:10480600660780916A008093650780916B008093AC
:044816006407FFCF65
:10481A001F920F920FB60F9211248DE094E28093AB
:10482A00660780916A008093650780916B00809388
:04483A006407FFCF41
:10483E001F920F920FB60F9211248FE194E2809384
:10484E00660780916A008093650780916B00809364
:04485E006407FFCF1D
:104862008091580790915907ECE0F1E090A787A357
:1048720080916A0781A710925907109258071092E7
:044882006A07089524
:1048860080917307811106C00E948B2290935D0769
:1048960080935C0780917307811102C081E00895BF
:0448A60080E0089511
:1048AA00CF9381E00E940A2540E050E0BA0180E0FF
:1048BA000E943118C82F80E00E940A258C2FCF91C0
:0248CA0008954F
:1048CC006095709580959095309540955095219573
:1048DC003F4F4F4F5F4F6F4F7F4F8F4F9F4F0895FD
:1048EC00A29FB001B39FC001A39F700D811D112425
:0E48FC00911DB29F700D811D1124911D089514
:10490A0097FB57FF0C94EE1E9F938F930E94EE1E07
:0E491A006E1B7F0BAF91BF918A0B9B0B089514
:10492800689401C0E8948F929F92CF93DF930E947E
:0C4938008618DF91CF919F908F9008951A
:10494400A8950FB6F894A89580916000886180932B
:0A4954006000109260000FBE08958D
:10495E0086FD09C088B18F7E88B98EB18D7F8EB9E4
:08496E0080E00E9496250895E7
:1049760057FD05C065917591859195910895619151
:08498600719181919191089556
:10498E000024A7FD00942A0F301D401D501D601DF0
:08499E00701D801D901D08959D
:1049A60090916307911105C020E00E94BA0E81E044
:0649B600089580E0089561
:1049BC00843040F48093040190910601891710F41F
:0649CC008093050108952F
:1049D20010926B0710926C071092590710925807A9
:0649E20010926A0708951F
:1049E8000E947624A59F900DB49F900DA49F800DE2
:0649F800911D1124089539
:1049FE00EC010E94AE250E94AD25CE010E94AF258E
:064A0E00CE010E94AA2562
:104A1400882321F088B18F7B88B9089588B1806498
:044A240088B90895B0
:104A28008CE0809369008CB382608CBB8DB382600C
:044A38008DBB089595
:104A3C00F999FECF92BD81BD8FB381608FBB80B5DC
:024A4C000895CB
:104A4E00FC01480F591FE417F50711F06193FBCFD6
:024A5E000895B9
:104A60000E947624460F571FC81FD91F08F431969D
:024A70000895A7
:104A72002A0D3B1D4C1D5D1D6E1D7F1D801F911F4C
:024A8200089595
:104A84002A153B054C055D056E057F0580079107DA
:024A9400089583
:104A960090958095709561957F4F8F4F9F4F0895A4
:104AA600B7FF0C94F4240E94F424821B930B089500
:104AB60057FD03C0659175910895619171910895AF
:0E4AC600CF93DF93CDB7DEB7DF91CF91089588
:0E4AD4006AE070E080E090E00E94421F0895CA
:0E4AE20044E050E0BC0183E00E946B1E08958A
:0E4AF0000E947624B7FF0895821B930B089551
:0C4AFE00EAE7F0E0808180688083089582
:0C4B0A0081E08093160310926907089563
:0C4B1600E1E6F0E080E880831082089562
:0A4B220090934A0780934907089515
:0A4B2C00843010F480930501089511
:0A4B360010927C070E94E924089504
:0A4B400040E057E00E94051D0895B3
:064B4A0080912303089591
:044B50000C940000C1
:044B54000E946B0050
:024B58000895BE
:024B5A000895BC
:024B5C000895BA
:024B5E000895B8
:00000001FF
