:100000000C9443000C947B250C948D250C949F2517
:100010000C94B1250C94C3250C94D5250C942D2853
:100020000C949E200C94F9250C94001D0C940B2626
:100030000C94F1190C941D260C942F260C94C012CC
:100040000C946F150C9441260C9483110C94532638
:100050000C942D280C9465260C94E7250C94321CE6
:100060000C9474220C9477260C9489260C94931982
:100070000C944B220C949B260C94AD26010001029B
:1000800080010409988011241FBECFEFD0E1DEBFAC
:10009000CDBFECE7F0E040E017C0B591A5913591F8
:1000A0002591059107FD0CC095918591EF01F92FE0
:1000B000E82F05900D92A217B307D9F7FE0104C0EF
:1000C0001D92A217B307E1F7E638F40731F70E9453
:0A00D0000A060C948227F894FFCF73
:1000DA00525820416C6C2044652D526567697374CF
:1000EA006572202D206D6F64756C6520646572657C
:1000FA0067697374657265640D0A00525820416E0F
:10010A006E6F756E6365205265717565737420280C
:10011A00554E5245474953544552454429202D20AE
:10012A007363686564756C696E6720726573706F56
:10013A006E736520696E2025646D730D0A0052582E
:10014A0020416E6E6F756E636520526571756573B9
:10015A007420285245474953544552454429202D75
:10016A002069676E6F72696E670D0A0052582041E6
:10017A006E6E6F756E636520526571756573742056
:10018A002D20616C72656164792070656E64696E98
:10019A00670D0A0052582052656769737472617458
:1001AA00696F6E202D204D6F64756C652049443D42
:1001BA0025303278207265676973746572656420C8
:1001CA007375636365737366756C6C790D0A005297
:1001DA005820537461747573205265717565737410
:1001EA00202D2073656E64696E672073746174755F
:1001FA00730D0A00525820496E6469766964756104
:10020A006C2044652D5265676973746572202D20D0
:10021A006D6F64756C652049443D253032782064E1
:10022A0065726567697374657265640D0A00417366
:10023A00736572742025733A2025640A002E2E2FC6
:10024A002E2F6D61696E2E6300416E6E6F756E633F
:10025A00656D656E742064656C617920636F6D707D
:10026A006C657465202D2073656E64696E670D0A6E
:01027A000083
:10027B000000000080DE280080C84D0000A776003B
:10028B0000349E008012C700809FEE00007E170195
:10029B00805C400180E9670100C890010055B801FE
:1002AB0080841E00000140420F00000020A10700C7
:1002BB00010190D00300010048E80100020124F481
:0A02CB0000000201127A0000020098
:1002D50010050915050B14050C12050A1105051D58
:1002E500050D18050E1E050F1F051016051117051E
:0102F50012F6
:1002F6002E2E2F2E2F7274635F6D63703739343054
:040306006E2E6300F4
:10030A0000060C12191F252B32383E444B51575DFB
:0F031A000902050601050701060B00000B000094
:0C0329001F1C1F1E1F1E1F1F1E1F1E1F5B
:0C0335001F1E1F1E1F1F1E1F1E1F1F1D4E
:0B0341002E2E2F2E2F6164632E630010
:0B034C002E2E2F2E2F63616E2E6300FB
:0803570001000605FF0700008C
:08035F0001000105FF07000089
:0803670001000505FF0700007D
:08036F0001000805FF07000072
:0803770001000705FF0700006B
:08037F0001000405FF07000066
:0803870001000305FF0700005F
:08038F0001000205FF07000058
:0803970001000005FF07000052
:08039F00020000050007000048
:0803A7000000FF07FF07000042
:0403AF00474D540062
:0403B300474D54005E
:1003B800A6E1B0E0E2EEF1E00C947C237901D42EC2
:1003C800C52EB62FA72FF82FB92E40585D4B6E407B
:1003D8007F4F8F4F9F4F21153B474D415348624EEA
:1003E80071408105910511F008F008C2188B0F873C
:1003F8009B2D8F2F7A2F6B2F5C2D4D2D9701205819
:100408003D454C4B5843610971098109910919010E
:100418004D8359876D877983898B9A8BF0E8AF2E46
:10042800A1E5BA2ECC24C394D12CE12CF12C00E008
:1004380010E00E94402029013A014B018E8B9B8BD2
:1004480091014D8159856D85798189899A890E94A3
:100458003E202D833E834F8358878D819E81AF81B7
:10046800B885B7FF15C080589E4AAE4FBF4F8D83E1
:100478009E83AF83B8879201A301B4018E899B89BB
:10048800AFEF0E94552729013A014B018E8B9B8BB8
:100498009201A301B4018E899B89A3E00E9455278C
:1004A800E7E0AE2EB12CC12CD12CE12CF12C00E0D0
:1004B80010E00E943E202D873E87AD85BE85B7FFA0
:1004C80003C01796BE87AD8751EBA52E6AE3B62EFB
:1004D80072E0C72ED12CE12CF12C00E010E0920143
:1004E800A301B4018E899B890E94402029873A87FD
:1004F8004B875C879201A301B4018E899B890E9476
:100508003E20822E932EA42EB52EB7FE12C0B1EB3C
:100518008B0EBAE39B1EB2E0AB1EB11C89859A858F
:10052800AB85BC850197A109B10989879A87AB87F3
:10053800BC87C501B4012CEA3EE840E050E00E94C7
:100548007E2469017A01243031054105510529F4D9
:1005580043E0C42ED12CE12CF12CA4E5B1E7A7018E
:1005680096010E94E1272B013C01480C591C6A1C8A
:100578007B1CC301B20125EB35E040E050E00E944E
:100588007E2449015A01293131054105510529F4D3
:1005980038E1832E912CA12CB12CABE4BAEFA50144
:1005A80094010E94E127460E571E681E791EC3015A
:1005B800B2012DE631E040E050E00E947E2429831C
:1005C8003A834B835C83243031054105510541F45E
:1005D80083E090E0A0E0B0E089839A83AB83BC839A
:1005E800A3E9BEEF29813A814B815C810E94E12712
:1005F800460E571E681E791E232B242B252B81F4AB
:1006080081149104A104B10471F431E020E0C11413
:10061800D104E104F10409F030E0832F922F05C0E2
:1006280080E090E002C081E090E01201ABE32A0E86
:10063800311C280E391E9C0124593E4F22153305C2
:1006480024F483599E4F281A390A92E0880C991C81
:10065800AA1CBB1C9A95D1F789819A81AB81BC8170
:10066800880E991EAA1EBB1EA4E6B0E0A70196013B
:100678000E947727860E971EA81EB91ED501C401B1
:10068800BB0F880B982FDC0189839A83AB83BC83CB
:1006980069857A858B859C8520E931E040E050E0CA
:1006A8000E941327F22FE32F6A017B018C0194012A
:1006B800A5016981762F862F962FAF2EBE2E0E9418
:1006C800BC2749015A016B017C0125E333E040E076
:1006D8001A821982F901849147FD8081082E000C45
:1006E800990BAA0BBB0B2F5F3F4F4F4F481659066C
:1006F8006A067B0654F0481A590A6A0A7B0AA981D5
:10070800BA811196BA83A983E5CFE981FA81EA30E3
:10071800F10574F03C97FA83E9839401A501B601C9
:10072800C701A1E00E94552749015A016B017C01CC
:100738009401A501B601C7012C593F474F4F5F4FA0
:100748006F4F7F4F8F4F9F4F2F3F3F4F41055105B1
:10075800610571058105910511F008F04FC024E687
:10076800820E911CAF85B8891B969C928E921A971F
:10077800E981FA8132961996FC93EE931897FFEF68
:100788004F1A5F0A17965C924E9216978D859E8532
:100798001D969C938E931C971F963C922E921E97A3
:1007A8006D817E818F81988520E13EE040E050E0B8
:1007B8000E947E24AF85B88915963C932E93149792
:1007C8008CE3C82ED12CE12CF12C6D817E818F8198
:1007D8009885A70196010E947E244B015C01CA01FD
:1007E800B901A70196010E947E24EF85F8897383D9
:1007F80062839182808280E090E002C08FEF9FEF59
:080808006696E2E10C94B323B3
:10081000CF92DF92EF92FF920F931F93CF93DF93CC
:1008200000D000D0CDB7DEB78C018091240388239F
:1008300069F088E0D8011D928A95E9F748E0B8018F
:1008400088E00E9467248111109224038091220382
:10085000882309F406C180917F09811180C08091AD
:1008600007018F70F801808380912A038183809132
:100870002903828380912501838384E03496DF01FC
:100880001D928A95E9F780915901882379F080912A
:100890005C01882371F080910701833069F40E9424
:1008A000F213809140019091410108C080E090E8EE
:1008B00005C080E090E802C080E090E8F801848301
:1008C000958380915601882379F08091570190910A
:1008D00058014FEF53E060E070E09A01AB01281B34
:1008E000390B4109510903C020E030E0A901E0E1E2
:1008F000F1E0A5A1B6A10E94DE27DC01CB0168943E
:1009000016F8B695A795979587951694D1F7C58C47
:10091000D68CE78CF0A0BC01CD016C0D7D1D8E1D29
:100920009F1D2FE030E040E050E00E94E222209343
:100930005201309353014093540150935501D80113
:1009400016962C93169717963C9348E0B80181E0D1
:100950000E946724882309F46BC081E070C0813055
:10096000C1F5E0E1F1E082AD93ADD8018C9382ADA9
:1009700093AD11969C93119780AD91AD12968C9387
:10098000129780AD91AD13969C93139784AD95AD5E
:1009900014968C93149784AD95AD15969C936091A5
:1009A0004E0170914F0180915001909151012FE0C3
:1009B00030E040E050E00E94E222F80126833783D5
:1009C00048E0B80182E00E946724882399F181E021
:1009D00036C0823089F5E0E1F1E084A995A9D8011B
:1009E0008C9384A995A911969C93119782A993A998
:1009F00012968C93129782A993A913969C9313979E
:100A000086A997A914968C93149786A997A91596E9
:100A10009C93159716961C92169717961C9248E071
:100A2000B80183E00E946724882341F081E007C079
:100A300080E005C080E003C081E001C080E0882341
:100A400081F080917F098F5F80937F09833048F028
:100A500010927F09109222031092870981E08093FF
:100A60001F0380912103882309F47DC01C821B820F
:100A70001A821982E0902703F0903F01EF1430F5BD
:100A8000FF2021F1EF2DEE19E150EC36F8F4F0E003
:100A90007596EE0FFF1FEE0FFF1FE05FFE4F818187
:100AA0009281C380D480BE016D5F7F4F0E946F2012
:100AB000811102C01C821B82BE016F5F7F4FC60185
:100AC0000E94DB1F811102C01A821982F801E082A4
:100AD000F18299818A81928383832B813C81248353
:100AE00035832115310559F0C90164E070E10E9498
:100AF000402584E6689F602D1124668301C016821C
:100B0000E0E1F1E040AD51AD82AD93AD84179507C2
:100B100098F42115310581F060AD71AD82AD93ADD2
:100B2000681B790BC9010E94402584E6689F602DEF
:100B30001124F801678303C0D80117961C9248E07E
:100B4000B80184E00E946724882369F0809127031C
:100B50008F5F809327039091270380912803981734
:100B600010F01092210380911F03882389F1E0E1A6
:100B7000F1E08389D8018C93848911968C93119725
:100B800080A591A512968C93129780A591A5139696
:100B90009C93139786A514968C93149782A58F3FE8
:100BA00031F085A592A5891B15968C9303C08FEF14
:100BB000F8018583D80116961C92169717961C92F9
:100BC00048E0B80186E00E946724811110921F035B
:100BD00080912003882389F0B801C80102960E9401
:100BE000E81BF801148215821682178248E0B801CA
:100BF00085E00E946724109220030F900F900F90C1
:100C00000F90DF91CF911F910F91FF90EF90DF90A8
:040C1000CF900895E4
:100C1400CF93DF93CDB7DEB728970FB6F894DEBF36
:100C24000FBECDBF0E94302788B18F7E88B987B1AF
:100C3400806187B987B18D7F87B987B1806887B9AB
:100C440088B18F7E88B98DB182608DB98EB18D7F68
:100C54008EB984B1806184B985B18F7E85B984B73A
:100C640080937E0980917E0983FF0AC080912C03C2
:100C7400E0E1F1E082898F5F828B0E94660C70C094
:100C840080917E0980917E0980917E09F8940E946A
:100C940010280E9422220E9498230E9422120E945D
:100CA400861D8093080181E00E94A21789E090E0EC
:100CB4000E94A12780930A018AB18F7B8AB98BB1E4
:100CC40080648BB911E01BBB82E08BBB84E08BBBDF
:100CD40088E08BBBECE6F0E08081806480838BB39A
:100CE40084608BBB8EED98E00E9416280E949A1BAC
:100CF40010922B03109225031092870980E00E9422
:100D04001B2810932603109223031092220310929F
:100D140021031092200310921F0310921E031092BD
:100D24001D0310921C0310921B03109228031092AF
:100D3400270310922A031092290310920A01109299
:100D440009010E94550B85E080930701109206016A
:100D540010920501109225031092040110930C01C6
:100D6400789480910B018823E1F310920B010E9487
:100D74004E1A0E945A1380912503811122C080913A
:100D84008909882311F180918809882329F08091A9
:100D9400880981508093880980918809811115C040
:100DA40081E0809326031092890983E592E0A0E014
:100DB400AF939F938F930E94EE270F900F900F9005
:100DC40004C0CE0101960E94080480912303882365
:100DD40081F01092230310922B031092250310929A
:100DE400870981E0809326030E94CE2780E00E9439
:100DF4001B28EFE6F0E0908180818D7F80838091D5
:100E04000C01209185099083813009F061C022236F
:100E140009F455C0109285090E94BC1C0E94BF268B
:100E2400CE0101960E94880780910401843029F53F
:100E3400E0E1F1E095A585899817E9F08091250115
:100E44008823C9F080910A018823B9F080910A01AE
:100E54008F3F99F0809109018F5F809309019091F0
:100E6400090180910A01981740F081E08093040100
:100E74001092090102C0109209018091260388236F
:100E8400F1F086E5898380E28A8382E08B8383E0C4
:100E94008C8380911E0190911F01A0912001B0913B
:100EA40021018D839E83AF83B88748E0BE016F5FC5
:100EB4007F4F80E00E9467248111109226030E94D4
:100EC400660C80911B038823B1F010921B0313C09E
:100ED400222389F0109285090E94BC1C80E00E94A4
:100EE400A21780910401843031F40E9497270E9454
:100EF40020280E944F2180911A03882321F0109208
:0C0F04001A030E94F2130E9403252BCF59
:100F10003F924F925F926F927F928F929F92AF9289
:100F2000BF92CF92DF92EF92FF920F931F93CF93D6
:100F3000DF9300D000D000D0CDB7DEB780913B0169
:100F400090913C01892B09F421C1E0E1F1E08FEFA0
:100F500082A7938985A5891728F485A5838B81E0CD
:100F600080931F03E0E1F1E0948985A5981728F4A8
:100F700085A5848B81E080931F0380913B01909134
:100F80003C0183709927892B61F080913E018F3F4E
:100F900041F0E0E1F1E086A58F5F86A781E08093D4
:100FA0001F03E0E1F1E011AE10AE8FEF9FEF93AFC2
:100FB00082AF15AE14AE80E090E893AB82AB8FEFBA
:100FC0009FE795AB84AB17AA16AAD12C312CC12C64
:100FD000412C512C3201812C912C54012FEF3FE7F1
:100FE0003E832D8380E090E89C838B836BC00D2D26
:100FF00010E0F8017596EE0FFF1FEE0FFF1FE05F88
:10100000FE4F818192819A838983E380F48060E03E
:1010100070E0C7010E94DB1F8823F1F0F4FE03C0DB
:10102000C701906F02C0C7019F772B813C812817B1
:10103000390714F49C838B832D813E81821793079B
:1010400014F49E838D83092E000CAA0BBB0B880E13
:10105000991EAA1EBB1E3394F8017596EE0FFF1F52
:10106000EE0FFF1FE05FFE4F8181928199231CF4F8
:1010700081E080933701BE016F5F7F4F89819A8144
:101080000E946F208823E9F02091480130914901A6
:1010900089819A812817390720F490934901809318
:1010A000480120914A0130914B018217930720F4A7
:1010B00090934B0180934A01480E591E611C711C8C
:1010C000C394D39480913D01D81608F490CFCC20DE
:1010D00089F1EEE4F1E040825182628273826081A4
:1010E0007181828193812C2D30E040E050E00E949C
:1010F000E22230934D0120934C018091070183300F
:10110000C9F080911D03811115C0E0E1F1E020AD2F
:1011100031AD82AD93AD2817390760F080AD91AD48
:1011200022AD33AD821B930B8034910518F081E022
:1011300080931E033320C9F0232D30E040E050E0BF
:10114000C501B4010E947E2466E471E0C9010E94D9
:10115000DB1F62E471E08B819C810E94DB1F64E4F1
:1011600071E08D819E810E94DB1FE0E1F1E085A5A9
:1011700087A780910801882349F08091070188237F
:1011800029F0CF010E94F3148093080126960FB630
:10119000F894DEBF0FBECDBFDF91CF911F910F91AD
:1011A000FF90EF90DF90CF90BF90AF909F908F9087
:0C11B0007F906F905F904F903F900895EB
:1011BC00CF92DF92EF92FF92CF93FB019091250398
:1011CC0010928309823129F480818F700E946127EB
:1011DC0035C18F30A9F48AED90E0A0E0AF939F93D6
:1011EC008F930E94EE2710922B03109225031092DE
:1011FC00870980E00E941B280F900F900F901EC152
:10120C00803121F480E00E941B2818C1813159F4EF
:10121C0020813181428153816481758186819781DE
:10122C000E946D180BC18D3009F04FC080912503C1
:10123C0081112FC08091890981112BC0C0901E0192
:10124C00D0901F01E0902001F09021011F92CF92CD
:10125C0085E091E0A0E0AF939F938F930E94EE27DF
:10126C008DECC89EC12C1124C694C694C694C09211
:10127C008809809188090F900F900F900F900F9014
:10128C00811103C081E08093880981E080938909F2
:10129C00D5C080912503882361F088E491E0A0E01B
:1012AC00AF939F938F930E94EE270F900F900F9008
:1012BC00C5C086E791E0A0E0AF939F938F930E9407
:1012CC00EE270F900F900F90B9C0893009F041C0F4
:1012DC00483009F0B3C0F0808281823009F0AEC092
:1012EC008381833009F0AAC040911E0150911F01E7
:1012FC00609120017091210184819581A681B78133
:10130C00481759076A077B0709F098C010928309A0
:10131C00F0922B030E94CE27C1E0C0932003C09310
:10132C002503109287091F92FF928EE991E0A0E0AD
:10133C00AF939F938F930E94EE271092890910927E
:10134C008809C09324030F900F900F900F900F906B
:10135C0075C0442309F472C02081911108C08A30F1
:10136C0009F06CC090912503992309F467C0909102
:10137C002B03291363C08A30A9F4413009F05EC0F5
:10138C008091870981115AC089ED91E0A0E0AF935B
:10139C009F938F930E94EE270E94CE270F900F9061
:1013AC000F904CC08B30F9F4433009F047C080915A
:1013BC002103811143C08181909125018917F0F59A
:1013CC0080932703909127039F5F909328038F3F6F
:1013DC0031F480912501809328031092270381E03A
:1013EC00809321032BC08C3049F410928309423036
:1013FC0029F581818F700E941B2820C0853021F433
:10140C0081E0809320031AC08E30C1F41F922F9379
:10141C008EEF91E0A0E0AF939F938F930E94EE2705
:10142C0010922B03109225031092870980E00E94E2
:10143C001B280F900F900F900F900F90CF91FF9053
:08144C00EF90DF90CF900895AE
:10145400ACE0B0E0E0E3FAE00C947C2349015A01EB
:101464006B017C011C830B832A383105410551052E
:10147400610571058105910511F00CF042C0F90177
:10148400E454F109F595E795F595E795C90183705D
:101494009927892B51F431970115110569F081E0E1
:1014A40090E0D8018D939C9307C08B819C81009719
:1014B40019F0DC011D921C92D901A654B10920E84F
:1014C40033E341EE51E00E94DE276B017C01DF0132
:1014D40020E831E541E050E00E94DE27DC01CB0149
:1014E4008C0D9D1DAE1DBF1D9C01AD016C017D01C8
:1014F400FF0CCC08DC2C7601AC2DFC2DEC2D9C2DA6
:10150400CBC0EB81FC81EF2B31F41A821982CE011E
:1015140001969C838B83C4018456910960E971E030
:101524000E9454257E836D839401A501B601C701F1
:10153400ACE90E94552719012A013B018F83988742
:1015440070E9A72EBB24B394C12CD12CE12CF12C2F
:1015540000E010E09101A201B3010E943E20C90104
:10156400009759F481E090E0AB81BC818D939C930A
:1015740020E030E040E050E033C0283C31056CF01E
:101584002C3231402CF08C52914043E050E00CC09E
:10159400885C910942E050E007C0243631056CF0C4
:1015A4008456910941E050E0009749F4EB81FC81B5
:1015B4001182108220E030E013C040E050E09C0132
:1015C40036952795369527958370992761E070E0C5
:1015D400892B11F060E070E0AB81BC816D937C934A
:1015E40081E6ED81FE818E9FB0018F9F700D1124E5
:1015F400E8E1E49FC001E59F900D1124860F971F39
:10160400AB81BC814D915C91841B950B820F931F20
:10161400E92FEE0FEE0B20E8A22E31E5B32ECC24F9
:10162400C394D12CE12CF12C00E010E09C014E2F4E
:101634005E2F6E2F7E2F8E2F9E2F0E944A1B922E7E
:10164400832E4B835D8369877A878B879C8743E3EB
:10165400B42E51EEC52EDD24D3949101A201B30121
:101664008F8198850E944A1B59016A017B018C0174
:10167400292D382D4B815D8169857A858B859C85E3
:101684000E94BC273B564149574C6F4F7F4F8F4FA9
:101694009F4FA62FF72FE82F6A2F7F2F8E2F2C9680
:0616A400E2E10C94B32307
:1016AA00FF920F931F93CF93DF93CDB7DEB7A19726
:1016BA000FB6F894DEBF0FBECDBF198241E0BE015E
:1016CA006F5F7F4F87E00E94A61F182F882309F4B7
:1016DA00EBC080E8898341E0BE016F5F7F4F80E005
:1016EA000E94A61F182F811117C0DEC0198241E07F
:1016FA00BE016F5F7F4F83E00E94061E182F88236A
:10170A0009F4D2C0898185FD0AC060E070E0CB018E
:10171A000E94F9210F5F01C000E0083C38F3083C41
:10172A0008F0C2C089818860898341E0BE016F5F89
:10173A007F4F83E00E94A61F182F882309F4B4C0A4
:10174A0041E0BE016F5F7F4F82E00E94061E182FA4
:10175A00882309F4A9C089818F7B898341E0BE016E
:10176A006F5F7F4F82E00E94A61F182F882309F41B
:10177A009BC0CE0102960E94E915182F882309F40E
:10178A0093C08A818C3310F410E001C011E08B8180
:10179A008C3308F011E08C818C3308F011E08D81D4
:1017AA008150873008F011E02F818FEF820F8C3043
:1017BA0018F50E81002311F1822F90E00197092E6E
:1017CA00000CAA0B875D9C4FAF4FFC01F490A7FD5C
:1017DA00F080223071F4888590E08431910518F404
:1017EA008C5C974F02C08053984F0E94CE23811180
:1017FA00F394F01628F005C011E003C011E001C00F
:10180A0011E01123B9F01A821B821C8281E08E83B7
:10181A008F8388E18887CE0102960E947414182F5C
:10182A00882309F441C0CE0102960E94E915182FB7
:10183A008823D1F1BE01675F7F4FCE0102960E94D5
:10184A00451ECE0109960E94431D8B019C01F89406
:10185A000093490910934A0920934B0930934C0984
:10186A0010924D0910924E0910924F091092500988
:10187A00789487B18E7F87B988B1816088B941E051
:10188A00BE016F5F7F4F87E00E94061E182F8823D4
:10189A0059F089818064898341E0BE016F5F7F4F7F
:1018AA0087E00E94A61F182F812FA1960FB6F894E1
:1018BA00DEBF0FBECDBFDF91CF911F910F91FF9079
:0218CA0008957F
:1018CC001F93CF93DF93D0910601809105018D1763
:1018DC0030F09091070180910501891710F4D09197
:1018EC00050180910701D81709F4F5C0D23009F42D
:1018FC0072C028F4DD2389F0D130E1F1E0C0D3309F
:10190C0009F4A9C0D53009F0DAC010920701109281
:10191C000601D09107010E940A2888B18F7E88B9F0
:10192C0068E873E180E090E00E94F9218EB18D7F30
:10193C008EB968E873E180E090E00E94F921EBE653
:10194C00F0E080818D7F8083E8E6F0E080818D7F00
:10195C00808381E080931E0310921D0310921C0360
:10196C0080910801882309F4B2C00E94F82080936A
:10197C000801ADC088B18F7E88B968E873E180E05A
:10198C0090E00E94F921EBE6F0E080818D7F80836E
:10199C00E8E6F0E080818D7F8083809125038823A9
:1019AC0019F08EB182608EB968E873E180E090E046
:1019BC000E94F92181E080931E0310921D03109266
:1019CC001C0380910801882309F481C00E94CF2157
:1019DC00809308017CC061990DC0809125038823F8
:1019EC0019F08EB182608EB968E873E180E090E006
:1019FC000E94F921CBE02AC080912503882349F06D
:101A0C0088B1806188B988B18F7788B988B18068CE
:101A1C0088B968EE73E080E090E00E94F92188B10B
:101A2C008F7E88B968E873E180E090E00E94F9212C
:101A3C0060E573EC80E090E00E94F92180911B033B
:101A4C00882319F010921B0301C0C12F1FEF1C0F2C
:101A5C00C111D2CF3CC061990DC080912503882360
:101A6C0019F08EB182608EB968E873E180E090E085
:101A7C000E94F92180912503882349F088B1806167
:101A8C0088B988B18F7788B988B1806888B968E8D7
:101A9C0073E180E090E00E94F92110921E031092F5
:101AAC001D0381E080931C03EBE6F0E080818260F3
:101ABC008083E8E6F0E080818260808308C04AEF92
:101ACC0053E067E472E080E00E94C124D5E0D0933B
:0E1ADC0007010E94CE27DF91CF911F91089540
:101AEA006F927F928F929F92BF92CF92DF92EF92E4
:101AFA00FF920F931F93CF93DF93F82E6A01E62E7E
:101B0A00E9010F2EF5E06F2EF02D681638F44DED31
:101B1A0050E06CE473E080E00E94C124093038F0A0
:101B2A004EED50E06CE473E080E00E94C124EBEDDE
:101B3A00F0E0B08080818F7780838F2D8295807FBF
:101B4A008093ED001092EE00F6018491E7FC80810B
:101B5A0020E4829FC0011124102F182BAE2DC6013C
:101B6A000196A11DFC018491A7FD8081811110625B
:101B7A0010610E942A284E2D96012E5F3F4F4F4F2B
:101B8A00F901542F0E94E627AB01577060E070E01C
:101B9A00032E32E1440F551F661F771F3A95D1F77E
:101BAA00302D3A014B01682AD401C3014E2D96010A
:101BBA002A5F3F4F4F4FF901249147FD208122238D
:101BCA0011F024E001C020E0E0EFF0E02083208162
:101BDA00382F330F330F330F232B2083AC01BD0172
:101BEA00689414F876956795579547951694D1F7A2
:101BFA004093F100AC01BD01032E3DE07695679557
:101C0A00579547953A95D1F7302D4093F200072E14
:101C1A0075E1B695A795979587957A95D1F7702D21
:101C2A008093F300AE2DC6010796A11DFC01849195
:101C3A00A7FD8081882311F084E001C080E0E4EFF1
:101C4A00F0E080838081816080831092F500AE2D60
:101C5A00C6010496A11DFC015A2F0E94E62762952F
:101C6A00660F607E6093F600FC015A2F0E94E627F9
:101C7A007695679576956795769567956093F7005B
:101C8A0004C089918093FA0001500111FACF109390
:101C9A00EF00F6018491E7FC8081882369F0EEED7C
:101CAA00F0E0208181E090E002C0880F991FFA9449
:101CBA00E2F7822B80830DC0EEEDF0E0208181E017
:101CCA0090E002C0880F991FFA94E2F78095822368
:101CDA008083B092DB00DF91CF911F910F91FF902B
:101CEA00EF90DF90CF90BF909F908F907F906F90F2
:021CFA0008954B
:101CFC00A5E0B0E0E4E8FEE00C947C233B01882EE8
:101D0C00A82FCB010A96A11DFC015A2F0E94E62791
:101D1C005B019B019B2C990C9908F92CB92DA92DD1
:101D2C00892D992DE82C630148E0C40ED11CE11CCF
:101D3C00F6015E2D0E94E6272B016C30710510F127
:101D4C00CB016CE070E00E9454252C0197FF05C07C
:101D5C00615071098CE0480E511C972F990F990B0B
:101D6C009B01492F592F692F792F892FC92CD92CD9
:101D7C00E92CF92C092D192D0E94BC27942EF52E37
:101D8C00B62FA72F8E010F5F1F4F492D5F2D6B2F85
:101D9C007A2F0E942A0A59016A017B018C01698100
:101DAC007A81C2010E9441231B012C01550C22088F
:101DBC00322C21019B01AC01622D722D822D922DB2
:101DCC000E94BC2719012A01962E7B838C839D834C
:101DDC00A82DC3010696A11DFC015A2F0E94E627CF
:101DEC0061507109972F990F990B30E8A32E41E59B
:101DFC00B42ECC24C394D12CE12CF12C00E010E0B7
:101E0C009B01492F592F692F792F892F0E944A1B2B
:101E1C0051016201E92CFB800C811D810E94BC27C1
:101E2C0059016A017B018C01A82DC3010496A11DE7
:101E3C00FC015A2F0E94E627072E000C880B990BE9
:101E4C0020E13EE040E050E00E9413270E94BC27B6
:101E5C0059016A017B018C01A82DC3010296A11DB9
:101E6C00FC015A2F0E94E627072E000C880B990BB9
:101E7C002CE330E040E050E00E9413270E94BC2786
:101E8C0059016A017B018C01F301582D0E94E62750
:101E9C009B01932F990F990B492F592F692F792F4C
:0E1EAC00892F0E94BC272596E2E10C94B323F7
:101EBA006F927F928F92EF92FF920F93CF93DF935D
:101ECA00C82F7B01042FD22F8823F9F0813031F1FA
:101EDA00823069F18330A1F18630D9F1873009F473
:101EEA0041C0853009F447C0843009F44DC08830B8
:101EFA0009F453C040E551E06CE473E080E00E94CD
:101F0A00C124612C712C812C50C00F2EF7E96F2E41
:101F1A00F3E07F2EF0E08F2EF02D47C00F2EFFE862
:101F2A006F2EF3E07F2EF0E08F2EF02D3EC00F2EA5
:101F3A00F7E86F2EF3E07F2EF0E08F2EF02D35C0FC
:101F4A000F2EFFE76F2EF3E07F2EF0E08F2EF02D9D
:101F5A002CC00F2EF7E76F2EF3E07F2EF0E08F2EC6
:101F6A00F02D23C00F2EFFE66F2EF3E07F2EF0E058
:101F7A008F2EF02D1AC00F2EFFE56F2EF3E07F2E65
:101F8A00F0E08F2EF02D11C00F2EF7E66F2EF3E042
:101F9A007F2EF0E08F2EF02D08C00F2EF7E56F2E62
:101FAA00F3E07F2EF0E08F2EF02DDD2321F08091DB
:101FBA007609811134C0D11104C080917A09811146
:101FCA002EC080917A09811103C082E080937A0938
:101FDA00D1111AC010927909C0937809093038F0E2
:101FEA0045E651E06CE473E080E00E94C124202FB2
:101FFA0030E0C701A0E8AC016A2F81E499E00E94B1
:10200A004E240093770905C0809179098F5F8093E8
:10201A0079099701682DA30181E00E94750DDF916E
:10202A00CF910F91FF90EF908F907F906F900895CE
:10203A00CF92DF92FF920F931F93CF93DF93CDB787
:10204A00DEB728970FB6F894DEBF0FBECDBF982F24
:10205A009295907F9093ED00EEEDF0E0208101E003
:10206A0010E0082E02C0000F111F0A94E2F7902F09
:10207A00909592239083EFEEF0E090819F73908386
:10208A00811150C08091EE0085FF38C0EEEEF0E07D
:10209A0080818F7D8083C0906809D0906909C114BE
:1020AA00D10461F18091EF008F70F82E4091F30016
:1020BA0050E0440F551F440F551F440F551F809180
:1020CA00F200829586958770482B90E00AC020918D
:1020DA00FA00E1E0F0E0EC0FFD1FE90FF11D2083AB
:1020EA009F5F9F15A0F3CA010E940D20833131F032
:1020FA004F2DBE016F5F7F4FF60109958091EE006B
:10210A008E7029F0EEEEF0E08081817F8083EEED23
:10211A00F0E08081082B0083EFEEF0E08081806898
:10212A0080832BC0813049F58091EE0086FF07C07D
:10213A00EEEEF0E080818F7B808310927A098091A5
:10214A00EE008971D1F0EEEEF0E08081867E808328
:10215A0080917909843168F481E08093760921E0DD
:10216A004091770961E479E0809178090E945D0FD6
:10217A0004C010927A091092760928960FB6F8943C
:10218A00DEBF0FBECDBFDF91CF911F910F91FF90A0
:06219A00DF90CF900895D4
:1021A0001F93CF93DF9300D000D00F92CDB7DEB74F
:1021B00087B1806487B988B1806488B988B1806448
:1021C00088B90E94ED240E945F2310E00DC0CE016B
:1021D00001960E94E326813049F060E177E280E0D9
:1021E00090E00E94F9211F5F143688F3143609F439
:1021F00076C0CE01019625E0FC0111922A95E9F7FF
:102200000E940224813009F05EC08C818A3A09F074
:1022100068C040E050E060E070E4CE0101960E94AA
:102220002421811160C0CE0101960E941C248823C4
:102230000CF45BC081E399E00E94831E88230CF4B8
:1022400056C0E1E3F9E087818F7390E0A0E0B0E051
:10225000BC01552744279085892F90E0A0E0B0E08D
:10226000BA2FA92F982F8827842B952BA62BB72B15
:102270002185822B0196A11DB11D072E7AE0880FC2
:10228000991FAA1FBB1F7A95D1F7702D809358090B
:1022900090935909A0935A09B0935B0925812F7037
:1022A00081E090E002C0880F991F2A95E2F7909391
:1022B0006D0980936C0960EC78ED87EA90E00E94EC
:1022C000081881E017C040E050E060E070E4CE0103
:1022D00001960E94242181110CC081E00BC080E096
:1022E00009C080E007C080E005C080E003C080E056
:1022F00001C080E00F900F900F900F900F90DF9132
:06230000CF911F9108952A
:102306001F920F920FB60F9211240F931F932F93C4
:102316003F934F935F936F937F938F939F93AF9367
:10232600BF93CF93DF93EF93FF93EBEDF0E0D08174
:102336001091DE0080818F778083C091E000C0FF1E
:102346000CC080E00E941D1000E020E030E04FE964
:1023560053E060E080E00E94750DC1FF03C081E09C
:102366000E941D108091DA0086FF16C080E48093DB
:10237600DA00809160099091610901969093610954
:102386008093600982E08093D80010927A091092B7
:1023960076098AE0809375098091DA0084FF0AC085
:1023A60045E452E06CE473E080E00E94C12480E1E1
:1023B6008093DA008091DA0083FF03C088E080937F
:1023C600DA008091DA0082FF03C084E08093DA00AD
:1023D6008091DA0081FF03C082E08093DA00809169
:1023E600DA0080FF13C081E08093DA0080917909DA
:1023F600843150F421E04091770961E479E08091DD
:1024060078090E945D0F02C010927A091093DE00CF
:10241600D093DB00FF91EF91DF91CF91BF91AF9108
:102426009F918F917F916F915F914F913F912F91E6
:0E2436001F910F910F900FBE0F901F901895E1
:10244400CF9382E080937A0010927C0010929400E3
:1024540010929500109296001092970080EA809353
:102464007B00C0E083C02C2F30E0C901880F991F86
:10247400820F931F0196092E000CAA0B865E9C4FB7
:10248400AF4FFC018491A7FD8081813041F008F4B5
:102494006CC0823021F1833009F441C05FC054B173
:1024A400C901880F991F280F391F2E5F3F4F032E34
:1024B400000C440B265E3C4F4F4FF901249147FD1D
:1024C400208181E090E002C0880F991F2A95E2F7ED
:1024D4008095582354B995B1892385B946C057B11D
:1024E400C901880F991F280F391F2E5F3F4F032EF4
:1024F400000C440B265E3C4F4F4FF901249147FDDD
:10250400208181E090E002C0880F991F2A95E2F7AC
:102514008095582357B998B1892388B926C04AB100
:10252400C901880F991F820F931F0296092E000C70
:10253400AA0B865E9C4FAF4FFC012491A7FD20811E
:1025440081E090E002C0880F991F2A95E2F78095F8
:1025540048234AB99BB189238BB907C045EB50E0A6
:1025640061E473E080E00E94C124CF5FC53008F4C9
:0C2574007ACF81E080937009CF91089528
:102580001F920F920FB60F9211242F933F934F93E8
:102590005F936F937F938F939F93AF93BF93EF93CB
:1025A000FF9386B5835D87BD85B3826085BBEEE60C
:1025B000F0E080818260808380918D09882321F002
:1025C00085B1886085B903C085B1877F85B9809161
:1025D00092098F5F8093920980919209833061F410
:1025E00080918E09882341F08BE0809392091092AC
:1025F0008D09109290094DC0809192098A3080F423
:1026000080919109882324F481E080938D0902C090
:1026100010928D0980919109880F8093910939C09A
:10262000809192098A3029F48091900980938D09D4
:1026300030C0809192098B3019F410928D0929C015
:10264000809192098C3029F58091900980938D09B1
:102650001092920980919009811108C010928F09FF
:10266000EEE6F0E080818D7F808313C00E94D1264A
:10267000809390090E949A228093910986B588538D
:1026800087BD85B3826085BBEEE6F0E08081826025
:102690008083FF91EF91BF91AF919F918F917F9137
:1026A0006F915F914F913F912F910F900FBE0F90BF
:0426B0001F901895CA
:1026B4000F9380917509882319F0815080937509CF
:1026C40080917309882319F08150809373092091B4
:1026D400EA003091EB0080917209821748F53111BC
:1026E40027C090917109911123C0409174094F5FE3
:1026F400409374094430F8F09091730991111BC010
:1027040050E0435051094430510514F043E050E087
:1027140062E070E0FB0102C0EE0FFF1F4A95E2F792
:10272400E0937309E13138F090E19093730903C0A9
:10273400311110927409422F50E090E00A968417E8
:1027440095074CF0432F50E08091710990E00A9670
:10275400841795073CF480917309853018F485E05B
:10276400809373092093720930937109222314F022
:1027740033234CF48091510990915209019690931E
:102784005209809351098091D90082FD12C082E0E0
:102794008093D80000E020E030E04FE953E060E0AF
:1027A40080E00E94750D8091EA00811102C0809141
:1027B400EB00EDEEF0E0908110828091EF00807CE0
:1027C40059F49093ED0000E020E030E04FE953E04D
:1027D40060E00E94750D02C09093ED000F91089582
:1027E400A0915A01B0915B0180915D0190915E01CD
:1027F400E0918A09EF3F81F407C0F0E0EE0FFF1F7C
:10280400EF5DF64F91838083E0918A09EF5FE09357
:102814008A09E83090F30FC021E02E0F20938A0933
:10282400F0E0EE0FFF1FEF5DF64F918380832830B9
:1028340010F010928A0980E020E030E00BC0E82F0D
:10284400F0E0EE0FFF1FEF5DF64F40815181240F42
:10285400351F8F5F883098F3C90199230CF40796CC
:10286400959587959595879595958795A81BB90B0B
:1028740020E83CE00E940328AB01BC015F5F6F4F7E
:102884007F4FDB01CA01772324F481509E4FAF4F61
:10289400BF4F072E79E0B595A795979587957A95BB
:1028A400D1F7702D9058AF4FBF4FE0E1F1E091ABFD
:1028B40080AB20A931A9868997898217930720F4D0
:1028C40080A991A9978B868BE0E1F1E020A931A939
:1028D400808D918D2817390720F480A991A9918FB3
:0428E400808F089544
:1028E800FC0120818DEC289F912D112496959695B9
:1028F800969530E1939FA0011124990F392F330F3A
:10290800330F930F291B242B20832181289F912D7E
:10291800112496959695969530E1939FA0011124E0
:10292800990F392F330F330F930F291B242B218332
:102938004281489F912D112496959695969550E140
:10294800959F90011124990F392F330F330F930F4F
:10295800491B242B2F7B2283938197709860938344
:102968002481289F912D112496959695969530E16E
:10297800939FA0011124990F392F330F330F930F11
:10298800291B242B24832581289F912D112496957A
:102998009695969530E1939FA0011124990F392FB0
:1029A800330F330F930F291B242B25839681989F70
:1029B800812D112486958695869540E1849F900106
:1029C8001124880F382F330F330F830F981B922B46
:0E29D800968347E0BF0180E00E94A61F08958D
:1029E6008F929F92AF92BF92CF92DF92EF92FF9219
:1029F6000F931F93CF93DF93FC0124813581213000
:102A0600344008F05BC0EC012C813D81AC0160E8EC
:102A160080E393E00E944E248C819D818115944031
:102A260070F42C813D818C819D8140E054E0421BF5
:102A3600530B60E070E0805D9C4F0E94AA27C12C7A
:102A4600D12C76016894C1F8812C912C54012FC0A9
:102A560060915C0970915D0980915E0990915F09B2
:102A660001E010E020E030E0A401405D5C4F0E94F0
:102A76005A16882321F180915C0990915D09A091F5
:102A86005E09B0915F090196A11DB11D80935C0995
:102A960090935D09A0935E09B0935F0942E0940E9E
:102AA600A11CB11C81E0C81AD108E108F108C114C3
:102AB600D104E104F10461F681E001C080E0DF9118
:102AC600CF911F910F91FF90EF90DF90CF90BF9025
:082AD600AF909F908F900895CE
:102ADE001F920F920FB60F9211242F933F934F9385
:102AEE005F936F937F938F939F93AF93BF93EF9368
:102AFE00FF9386B58E5C88BD85B3846085BBEEE69C
:102B0E00F0E08081846080832091940983B182FB00
:102B1E00882780F98093940990918B09992331F03D
:102B2E009BB190629BB910928B0906C09BB19F7DA1
:102B3E009BB981E080938B09809197098F5F809379
:102B4E009709813019F4109296092BC08A3038F407
:102B5E0080919609880F822B8093960922C020932C
:102B6E0093098BB18F7D8BB981E080938B09E9E658
:102B7E00F0E09CE090838CB382608CBB90838CB32E
:102B8E0082608CBB8DB382608DBBEEE6F0E08081FF
:102B9E008B7F8083809196090E94FE1E83E0809336
:102BAE009509FF91EF91BF91AF919F918F917F9179
:102BBE006F915F914F913F912F910F900FBE0F909C
:042BCE001F901895A7
:102BD200CF93DF93EC0147E0BC0180E00E94061E28
:102BE200882309F463C09881292F22952F702770BA
:102BF200220F322F330F330F230F9F70920F9883C0
:102C02009981292F22952F702770220F322F330F8F
:102C1200330F230F9F70920F99839A8196FF11C0F1
:102C220094FB222720F9220F322F330F330F230F69
:102C3200392F3F70230F2A8395FF0FC0245F2A8309
:102C42000CC0292F22952F702370220F322F330FA1
:102C5200330F230F9F70920F9A839B8197709B83F0
:102C62009C81292F22952F702370220F322F330F30
:102C7200330F230F9F70920F9C839D8194FB222719
:102C820020F9220F322F330F330F230F9F70920F31
:102C92009D839E81292F22952F70220F322F330F71
:102CA200330F230F9F70920F9C5E9E83DF91CF9113
:022CB200089583
:102CB4008F929F92AF92BF92CF92DF92EF92FF9248
:102CC4000F931F93CF93DF934B015C01EA016801DB
:102CD40079010E94312881E00E948D2781E0C81685
:102CE400D104E104F10489F4B501A40188E10E944E
:102CF400A41A811137C060916C0970916D094EEF6F
:102D0400CE010E943219182F30C0B501A40189E107
:102D14000E94A41A882319F027C06C017D016091D8
:102D24006C0970916D094CEFCE010E943219182F75
:102D34000E94312880916C0990916D09C80FD91FA8
:102D4400112349F0D701C6010197A109B109CD2882
:102D5400CE28CF2811F740E050E0BA018CE00E9461
:102D6400A41A03C010E001C010E080E00E948D2787
:102D7400812FDF91CF911F910F91FF90EF90DF9002
:0C2D8400CF90BF90AF909F908F9008956B
:102D90008F929F92AF92BF92CF92DF92EF92FF926B
:102DA0000F931F93E0E3F7E0C48CD58CE68CF78C8F
:102DB00080A091A0A2A0B3A001E010E020E030E04C
:102DC00040E353E0C701B6010E943617882309F497
:102DD00042C0F401E05DFC4F0091480710914907A3
:102DE00020914A0730914B0700831183228333835C
:102DF000148215821682178201E010E020E030E094
:102E000040E353E0C701B6010E945A16882319F126
:102E1000E0E3F7E080A191A1A2A1B3A10896A11DD2
:102E2000B11D80A391A3A2A3B3A381159240A105D4
:102E3000B10578F0848D958DA68DB78D0196A11D75
:102E4000B11D848F958FA68FB78F10A211A212A2E9
:102E500013A20E9435241F910F91FF90EF90DF90F5
:0C2E6000CF90BF90AF909F908F9008958E
:102E6C008F929F92AF92BF92CF92DF92EF92FF928E
:102E7C000F931F93CF93DF934B015C01EA01680121
:102E8C0079010E94312881E00E948D2781E0C816CB
:102E9C00D104E104F10481F4B501A40181E10E94A3
:102EAC00A41A811135C060916C0970916D09CE0125
:102EBC000E94771C182F2FC0B501A40182E10E943B
:102ECC00A41A882319F026C06C017D0160916C094D
:102EDC0070916D09CE010E94771C182F0E94312829
:102EEC0080916C0990916D09C80FD91F112349F07D
:102EFC00D701C6010197A109B109CD28CE28CF2849
:102F0C0019F740E050E0BA018CE00E94A41A03C00B
:102F1C0010E001C010E080E00E948D27812FDF912E
:102F2C00CF911F910F91FF90EF90DF90CF90BF90BA
:082F3C00AF909F908F90089563
:102F4400CF93DF9381110DC08091100190911101F5
:102F5400A0911201B09113018A379A4DA747BA4B39
:102F640029F1C0E1D1E088E092E0FE019C011192D8
:102F740021503040E1F79D838C838AE79AEDA7E7DF
:102F8400BAEB88839983AA83BB830E94C71D6E878B
:102F94007F87888B998B8FEF8AA78B8B1C8A84E021
:102FA40090E00E94A1270E94D0182AC0E0E1F1E03D
:102FB40017A211A610A612A615A616A680914E0158
:102FC40090914F01A0915001B0915101892B8A2B0E
:102FD4008B2BB1F410924E0110924F0110925001BC
:102FE4001092510111AE10AE13AE12AE15AE14AE66
:102FF4008FE995E193AB82AB95AB84AB97AB86AB92
:0C3004008FEF80938A09DF91CF9108952F
:10301000CF92DF92EF92FF926B017C0120E019C00A
:10302000822F90E0AC01440F551F840F951F880F2D
:10303000991F092E000CAA0B85559D4FAF4FFC011F
:103040005A2F0E944927C616D706E806F90618F433
:103050002F5F273028F3273009F421506CB530E07A
:10306000A901440F551FCA01820F931F880F991F92
:103070000496092E000CAA0B85559D4FAF4FFC01FD
:103080008491A7FD80816C7F862B8CBD6DB5CA01B4
:10309000820F931F880F991F0596092E000CAA0B0B
:1030A00085559D4FAF4FFC018491A7FD80816E7FB8
:1030B000862B8DBD240F351F220F331F032E000CCE
:1030C000440B25553D4F4F4FF901542F0E9449277E
:0A30D000FF90EF90DF90CF9008957D
:1030DA000F931F93CF93DF93CDB7DEB7A8970FB6A1
:1030EA00F894DEBF0FBECDBF29A33AA34BA35CA3BE
:1030FA006DA37EA38FA398A7FE01319689E1DF0114
:10310A001D928A95E9F7BE016F5D7F4F80E80E94A4
:10311A0025288C01892B39F442E851E066EF72E0E8
:10312A0080E00E94C124A80160E829E130E0CE01D4
:10313A0001960E944E24BE01665E7F4FCE01019623
:10314A000E94A521F89479A16AA15BA14CA13DA195
:10315A002EA19FA188A57093490960934A095093AB
:10316A004B0940934C0930934D0920934E09909393
:10317A004F09809350097894CE014A960E9474149C
:10318A00A8960FB6F894DEBF0FBECDBFDF91CF91E0
:06319A001F910F91089542
:1031A000CF92DF92EF92FF928F3508F08EE5E0E14B
:1031B000F1E0858BC82ED12CE12CF12CAAECB8E0E3
:1031C000A70196010E947727658F768F878F90A33E
:1031D000A4E9B1E10E94772761A372A383A394A31A
:1031E00081A192A1A3A1B4A1458D568D678D70A137
:1031F000841B950BA60BB70B880F991FAA1FBB1F2B
:10320000880F991FAA1FBB1F880F991FAA1FBB1FDA
:10321000880F991FAA1FBB1F880F991FAA1FBB1FCA
:10322000880F991FAA1FBB1F880F991FAA1FBB1FBA
:10323000AC01BD01BB2324F441505C4F6F4F7F4F65
:10324000032E3AE075956795579547953A95D1F7CE
:10325000302D5093360140933501FF90EF90DF9071
:04326000CF9008956E
:10326400EF92FF920F931F93CF93DF9300D0CDB7CC
:10327400DEB78C017B014A8341E050E0BE016E5F02
:103284007F4F81E00E94CC208A818D3FE1F1A7012C
:10329400B80181E00E94CC2000E010E00DC041E0C4
:1032A40050E0BE016F5F7F4F83E00E94CC20898194
:1032B4008F3F31F40F5F1F4F0E3988E9180778F3F9
:1032C4000E39184911F189818F718983853081F014
:1032D40080E01EC041E050E0BE016F5F7F4F83E09D
:1032E4000E94CC208981811109C00F5F1F4F02C049
:1032F40000E010E00E3988E9180760F30E39184928
:1033040031F081E005C081E003C080E001C080E0CD
:103314000F900F90DF91CF911F910F91FF90EF903D
:0233240008950A
:1033260078941F920F920FB60F9211242F933F930A
:103336004F935F936F937F938F939F93AF93BF93B7
:10334600EF93FF9360917800709179008091530913
:1033560091E0980F90935309953010F0109253090D
:10336600ACE7B0E05C912091530930E0F901EE0F33
:10337600FF1F2E0F3F1F032E000C440B265E3C4FF3
:103386004F4FF901949147FD9081507E952B906C9B
:103396009C930E94D72480915309811109C0EAE7C2
:1033A600F0E08081877F808381E08093700905C08B
:1033B600EAE7F0E0808188648083FF91EF91BF9116
:1033C600AF919F918F917F916F915F914F913F91B7
:0C33D6002F910F900FBE0F901F901895C4
:1033E20078941F920F920FB60F9211248F939F938E
:1033F200EF93FF9382E086BB8091840090918500D9
:103402008B5C934F9093890080938800EFE6F0E005
:1034120080818260808381E080930B0180918609A4
:103422008F5F8093860980918609833078F01092AD
:10343200860981E08093850980910C01813019F41D
:1034420010920C0103C081E080930C0180918309EA
:103452008F3F29F0809183098F5F80938309809148
:1034620083098F3640F0809183098F5680938309B8
:1034720081E08093230380918409882329F080913D
:103482008409815080938409FF91EF919F918F91DC
:0A3492000F900FBE0F901F901895C9
:10349C0080917A09882309F450C0EDEEF0E0808128
:1034AC0090E190839091EE0096FF12C0EEEEF0E06A
:1034BC0090819F7B908310927A09209162093091C0
:1034CC0063092F5F3F4F309363092093620933C028
:1034DC009091EE009F7189F01092EE0010927A0993
:1034EC0020916409309165092F5F3F4F3093650936
:1034FC0020936409109276091EC090917A0991501C
:10350C0090937A0990917A09911115C01092EE005E
:10351C001092EF0010927609EEEDF0E090819D7F15
:10352C00908320916609309167092F5F3F4F30934C
:0C353C006709209366098093ED00089554
:10354800DF92EF92FF920F931F93CF93DF93CDB744
:10355800DEB727970FB6F894DEBF0FBECDBF182F82
:10356800042FF52EE62ED72E88234CF440E050E0A9
:10357800BA0187E30E94A41A8F83823040F5812F15
:103588008F7380648983DA82EB82FC820D83112336
:1035980011F080E001C085E9183009F487E88160FE
:1035A8008E8346E050E0BE016F5F7F4F81E00E944E
:1035B800CC201AE041E050E0BE01695F7F4F83E014
:1035C8000E94CC208F81882314F4115099F72796F4
:1035D8000FB6F894DEBF0FBECDBFDF91CF911F911C
:0A35E8000F91FF90EF90DF9008951F
:1035F20088249924F401E401B0E49F93AA279A1540
:103602008B049C04ED05FE05CF05D007A10798F4B5
:10361200AD2FDC2FCF2FFE2FE92D982C892E982F3E
:10362200872F762F652F542F432F322F2227B85002
:1036320031F7BF9127C01B2EBF91BB27220F331F2B
:10364200441F551F661F771F881F991F881C991CCE
:10365200EE1FFF1FCC1FDD1FAA1FBB1F8A149B0476
:10366200EC05FD05CE05DF05A007B10748F08A1875
:103672009B08EC09FD09CE09DF09A00BB10B216003
:103682001A94E1F62EF49401AF01BE01CD01000CB3
:02369200089599
:10369400DF93CF931F930F939A9DF02D219FF00DED
:1036A4008B9DF00D8A9DE02DF10D039FF00D029F7F
:1036B400E00DF11D4E9DE00DF11D5E9DF00D4F9D41
:1036C400F00D7F936F93BF92AF925F934F93D501A9
:1036D4000E9404278B01AC01D7010E940427EB014F
:1036E400E80FF91FD6010E94B3272F913F91D6010D
:1036F4000E940427C60FD71FE81FF91FAF91BF917F
:103704000E94B3272F913F910E940427C60FD71F11
:10371400E81FF91FD6010E940427E60FF71F98013E
:10372400BE01CF0111240F911F91CF91DF91089514
:103734000F93CF93C2E0C093E20084E08093E30050
:1037440082E18093E40000E020E030E047EA53E0C7
:1037540060E080E00E94750D20E030E047EA53E02D
:1037640060E081E00E94750D20E030E047EA53E01C
:1037740060E082E00E94750D20E030E047EA53E00B
:1037840060E083E00E94750D20E030E047EA53E0FA
:1037940060E084E00E94750D20E030E047EA53E0E9
:1037A40060E085E00E94750D20E030E04FE953E0D1
:1037B40060E080E00E94750D8EEB8093DB00C09387
:0C37C400D80010927A09CF910F9108955F
:1037D0000F931F93CF93DF938C01EB01892BF9F0AB
:1037E00087E090E00E94A12790E0F8019183808318
:1037F00088E090E00E94A12790E0982F8827F801A8
:1038000020813181822B932B9183808301978E3F7E
:103810009F4F28F08CEC97E7F801918380832097E5
:10382000E1F085E090E00E94A12790E099838883F1
:1038300086E090E00E94A12790E0982F88272881B9
:103840003981822B932B9983888301978E3F9F4FD9
:1038500020F084EF91E899838883DF91CF911F91C5
:043860000F91089527
:1038640078941F920F920FB60F9211242F933F93C7
:103874004F935F936F937F938F939F93AF93BF9374
:10388400EF93FF9396B180910701833021F08091EB
:1038940007018230C9F491FF17C088B18F7E88B9BF
:1038A40080910701833019F481E00E941B28EBE624
:1038B400F0E080818D7F8083E8E6F0E080818D7F79
:1038C400808381E080931B03FF91EF91BF91AF91BF
:1038D4009F918F917F916F915F914F913F912F9124
:0A38E4000F900FBE0F901F90189573
:1038EE00CF92DF92EF92FF920F931F93CF93DF93BE
:1038FE000F92CDB7DEB77C016B0100E010E101C085
:10390E00890141E050E0BE016F5F7F4F83E00E946E
:10391E00CC2089818E3F29F0980121503109012B4D
:10392E0079F78E3FB9F4A601B70183E00E94CC204F
:10393E0041E050E0BE016F5F7F4F83E00E94CC20DC
:10394E0041E050E0BE016F5F7F4F83E00E94CC20CC
:10395E0081E001C080E00F90DF91CF911F910F9118
:0A396E00FF90EF90DF90CF900895D6
:1039780080910401823049F128F4882341F0813094
:1039880091F032C0833061F18430A9F12DC085B146
:103998008F7E85B981E08093040180E00E94A217A0
:1039A8000E94CE27089585B18F7E85B980E00E9458
:1039B800A21782E08093040181E080938409E0E10A
:1039C800F1E08FEF838B148A089580918409811127
:1039D80012C085B1806185B983E0809304010895A0
:1039E80084E08093040108954DE652E067E472E0B4
:0839F80080E00E94C124089543
:103A000078941F920F920FB60F9211242F933F9329
:103A10004F935F936F937F938F939F93AF938CB3E9
:103A200088608CBB2091490930914A0940914B092B
:103A300050914C0960914D0970914E0980914F0948
:103A400090915009A1E00E94552720934909309395
:103A50004A0940934B0950934C0960934D09709368
:103A60004E0980934F0990935009AF919F918F9188
:103A70007F916F915F914F913F912F910F900FBE6A
:063A80000F901F90189545
:103A8600A9E1B0E0E9E4FDE10C947E232C01BC0140
:103A960080E80E947E0E39014A0159016A01E12C33
:103AA600F12C00E010E00E94C527F9F41A8A198A61
:103AB6001B8A1C8A1D8A1E8A23EB33E040E02F8B6B
:103AC600388F498F8E010F5F1F4F9301482D0E943B
:103AD600DC0197FD0AC089E1F801D20101900D923F
:103AE6008A95E1F7B301C4010AC08FE490E0909390
:103AF6000101809300016FEF7FEF8FEF9FEF6996D3
:063B0600E0E10C94B52380
:103B0C00CF930E94D010C82F8823C1F10E940423A8
:103B1C00811122C0E0E3F7E088ED91E0DF019C0128
:103B2C001D9221503040E1F781E090E0A0E0B0E040
:103B3C0084879587A687B787808F918FA28FB38F45
:103B4C0084E090E0A0E0B0E0848F958FA68FB78FD3
:103B5C000E943524882389F0809148079091490769
:103B6C00A0914A07B0914B0780935C0990935D0933
:103B7C00A0935E09B0935F0901C0C82F8C2FCF9121
:023B8C0008959A
:103B8E00CF92DF92EF92FF9280E090E00E94A12709
:103B9E00C82ED12CE12CF12C81E090E00E94A127BF
:103BAE0090E0A0E0B0E0BA2FA92F982F8827C82A5E
:103BBE00D92AEA2AFB2A82E090E00E94A12790E00F
:103BCE00A0E0B0E0DC0199278827C82AD92AEA2A82
:103BDE00FB2A83E090E00E94A12790E0A0E0B0E0F5
:103BEE00B82FAA2799278827BC01CD016C297D29DA
:0E3BFE008E299F29FF90EF90DF90CF900895C1
:103C0C00FF920F931F93CF93DF93F82E8B01C42F4A
:103C1C00411107C04FE550E066EF72E080E00E9472
:103C2C00C12441E060E08EED0E94C022D82F882391
:103C3C00E9F08F2D0E94711FD82F8823B9F040E036
:103C4C0061E08EED0E94C022D82F811108C00EC0F9
:103C5C0081E00E94C11EF80181938F01C150C230D6
:103C6C00B8F780E00E94C11EF80180830E9468258D
:0E3C7C008D2FDF91CF911F910F91FF90089532
:103C8A00CF93DF93DC01FB0189E1EB0119928A955D
:103C9A00E9F78C9190E09183808311968C9111972A
:103CAA0090E09383828312968C91129790E0958389
:103CBA00848314968C91149790E097838683159643
:103CCA008C91159790E001979187808716968C9131
:103CDA00843130F490E08C5C974F9387828705C0DB
:103CEA0090E08053984F93878287828593858C567C
:0C3CFA00974093878287DF91CF91089557
:103D0600EF92FF920F931F93CF93DF930F92CDB74E
:103D1600DEB77C0181E00E948D2740E050E0BA01C9
:103D260089E00E94A41A082F81111CC018E001C066
:103D3600182F41E050E0BE016F5F7F4F83E00E9485
:103D4600CC2089818E3F29F08FEF810F1111F0CFA2
:103D560001C0812F882331F040E150E0B70183E0B4
:103D66000E94CC2080E00E948D27802F0F90DF914B
:0C3D7600CF911F910F91FF90EF900895E6
:103D82001F93CF93DF93182F8AB18D7F8AB98BB19E
:103D920082608BB9C8E0D0E00EC0DD0F8BB18160CC
:103DA2008BB90E94F5274999D1608BB18E7F8BB96F
:103DB2000E94F527C150C111F0CF8AB182608AB941
:103DC200112321F08BB18D7F8BB903C08BB182603F
:103DD2008BB90E94F5278BB181608BB90E94F527C0
:103DE2008BB18E7F8BB90E94F5278BB18D7F8BB9FA
:0A3DF2008D2FDF91CF911F910895EE
:103DFC00E091810921E02E0F20938109F0E0EC5A2B
:103E0C00F64F808380916A0990916B09019690938B
:103E1C006B0980936A09243038F1109281098091E2
:103E2C0082098C3608F5E82FF0E07596EE0FFF1F2F
:103E3C00EE0FFF1FE05FFE4FA4E5B9E04D915D91E1
:103E4C006D917C91139741835283638374831D928C
:103E5C001D921D921C9213978F5F80938209809103
:0A3E6C0080098F5F8093800908959C
:103E7600A0E0B0E0E1E4FFE10C948223EA01FB015B
:103E8600582F0E9449274B015C01C12CD12C760189
:103E96008E019B01A50160E070E080E090E00E9449
:103EA600DC0197FF09C08FE490E0909301018093B5
:103EB600000180E090E00DC0198A188A1A8A1B8AD0
:103EC6001C8A1D8A8FEA93E0A0E08E8B9F8BA88FB9
:0C3ED600CE01CDB7DEB7ECE00C94B923B0
:103EE200CF93DF93D82F8AB182608AB9C8E015C018
:103EF200DD2324F48BB182608BB903C08BB18D7F3B
:103F02008BB98BB181608BB90E94F5278BB18E7F03
:103F12008BB90E94F527DD0FC150C111E9CF8AB1DB
:103F22008D7F8AB98BB182608BB98BB181608BB97D
:103F32000E94F527499BC1E08BB18E7F8BB90E940D
:0A3F4200F5278C2FDF91CF91089531
:103F4C00FF920F931F93CF93DF93F82E8B01C42F07
:103F5C00411107C042E950E066EF72E080E00E9438
:103F6C00C12441E060E08EED0E94C022D82F88234E
:103F7C0099F08F2D0E94711FD82F81110BC00CC08E
:103F8C00F80180810E94711FD82F882329F00F5FC0
:103F9C001F4FC150C111F4CF0E9468258D2FDF91A6
:0A3FAC00CF911F910F91FF9008952F
:103FB6008F3F2FEF920729F1282F2F7094FF02C011
:103FC600906F01C09F77AC015595479555954795DC
:103FD600559547955595479534E6349FC001359FCD
:103FE600900D112430E040E0265F3C4F4F4FF90121
:103FF600249147FD2081820F911D81569A4E21E022
:1040060001C020E06115710519F0FB0191838083E1
:04401600822F089558
:10401A00CF93DF93EC0190E026C0A92FB0E09D0179
:10402A00220F331F2A0F3B1F032E000C440B2B5267
:10403A003D4F4F4FF901542F0E94E6276C177D0719
:10404A0089F4CD01880F991F8A0F9B1F0296092EAA
:10405A00000CAA0B8B529D4FAF4FFC018491A7FD18
:10406A00808104C09F5F9B30C0F283E1DF91CF91D2
:02407A000895A7
:10407C00689401C0E894F92FF12B12F00C942527C9
:10408C00A0E0B0E0ECE4F0E20C948223092E05945D
:10409C0022F40E94F426112392F4F0E80F26FFEF8D
:1040AC00E094F09400951095B094C094D094A194A1
:1040BC00BF0ACF0ADF0AEF0AFF0A0F0B1F0B0E9481
:1040CC00F91A07FC0E94F426CDB7DEB7ECE00C948D
:0240DC00B92306
:1040DE00FB01DC01B3702BED36EA43E250E00E94A7
:1040EE007727DC01CB01072E7AE0B695A795979539
:1040FE0087957A95D1F7702D9F5FAF4FBF4F072EE3
:10410E0079E0B695A795979587957A95D1F7702D05
:10411E009C0101978E3F9F4F10F481E003C080E019
:0E412E0020E030E0309711F0318320830895B7
:10413C001F920F920FB60F9211248F93EF93FF9350
:10414C0080919509882311F08330C1F486B5855B85
:10415C0088BD85B3846085BBEEE6F0E08081846029
:10416C0080838DB38D7F8DBB8BB180628BB91092A8
:10417C008B0981E08093950910929709FF91EF913B
:0C418C008F910F900FBE0F901F901895A0
:10419800FB01833071F408C02FEF2EBD0DB407FE6C
:1041A800FDCF2EB52193AC01CA010197452BA1F78C
:1041B8000895813061F406C021912EBD0DB407FE2B
:1041C800FDCFAC01CA010197452BB1F708958230A4
:1041D80051F405C0EEBD0DB407FEFDCFAC01CA0118
:0841E8000197452BB9F708957A
:1041F00080915C0990915D09A0915E09B0915F0981
:1042000080FF0CC08E7F0296A11DB11D80935C09BA
:1042100090935D09A0935E09B0935F0980915C095A
:1042200090915D09A0915E09B0915F090197A10984
:10423000B1098093400790934107A0934207B09340
:0842400043070E943524089594
:10424800CF92DF92EF92FF920F931F93CF93DF935A
:104258008C016A017B01C0E00FC0B701A601C8014B
:104268000E94E823D82F882349F060E177E280E0B4
:1042780090E00E94F921CF5FC43678F3C43609F480
:10428800D0E88D2FDF91CF911F910F91FF90EF9084
:06429800DF90CF900895B5
:10429E0080918F09811123C080919509811121C0D0
:1042AE0082E080938F0910928C091092920981E01E
:1042BE0080938D0986B58E5C87BD85B3826085BB84
:1042CE00EEE6F0E08081826080830E94D1268093AA
:1042DE0090090E949A228093910981E0089580E0CE
:0642EE00089580E0089530
:1042F400E894DF93CF93FC01DB010E9404277F93B2
:104304006F93E9019A01AC01BF93AF933F932F934D
:10431400DF010E94042726F46C1B7D0B820B930B98
:104324009E01EB01FC010E94B327AF91BF912F9135
:104334003F910E94B327BE01CF01F9012F913F9114
:06434400CF91DF91089506
:10434A00CF93DF93DC01FB0187E0EB0119928A9599
:10435A00E9F78C91808312968C9112978183149637
:10436A008C911497828316968C911697848318964B
:10437A008C91189785831A968D919C911B97883CEE
:10438A0091051CF08453868302C0805D8683DF9189
:04439A00CF91089522
:10439E00E0E3F7E084899589A689B7890196A11D86
:1043AE00B11D848B958BA68BB78B80915C099091F8
:1043BE005D09A0915E09B0915F09808F918FA28FE8
:1043CE00B38F80FF0CC08E7F0296A11DB11D80930E
:1043DE005C0990935D09A0935E09B0935F090E94FA
:0443EE00C816089550
:1043F200AB01BC014F5F5F4F6F4F7F4F7695679563
:104402005795479596B517C086B59817E9F326B51F
:10441200822F891B90E0A0E0B0E0481759076A0795
:104422007B0728F0481B590B6A0B7B0B03C040E04B
:1044320050E0BA01922F411551056105710521F72E
:024442000895DB
:1044440014BC92E095BDA4E6B0E08C91877F8C9378
:104454001092800084E08093810096BB8091840058
:10446400909185008B5C934F909389008093880092
:10447400EFE6F0E08081826080838C918F7E8C9364
:10448400AEE6B0E08C918E7F8C9380818E7F8083AA
:02449400089589
:104496001F920F920FB60F9211242F933F934F93B3
:1044A6005F936F937F938F939F93AF93BF93EF9396
:1044B600FF9346E053E067E472E080E00E94C12487
:1044C600FF91EF91BF91AF919F918F917F916F91E6
:1044D6005F914F913F912F910F900FBE0F901F90BC
:0244E600189527
:1044E80078941F920F920FB60F9211242F933F9337
:1044F8004F935F936F937F938F939F93AF93BF93E4
:10450800EF93FF938BB10E943D27FF91EF91BF91ED
:10451800AF919F918F917F916F915F914F913F9153
:0C4528002F910F900FBE0F901F90189560
:1045340080918C09811110C081E00E942C25EEE647
:10454400F9E0908381838081882324F481E080933F
:104554008E0902C010928E09E0918C09F0E0E259B4
:10456400F64F808190918C099F5F90938C09909174
:0C4574008C09923010F010928C09089510
:10458000FF920F931F93CF93DF93F82E062F142FD4
:10459000D3E0C0E00CC0D150602F8F2D0E941825B1
:1045A000C82F112341F0811102C00E942323C111A1
:1045B00002C0D111F0CF8C2FDF91CF911F910F91BD
:0445C000FF900895CB
:1045C400A1E21A2EAA1BBB1BFD010DC0AA1FBB1F13
:1045D400EE1FFF1FA217B307E407F50720F0A21B85
:1045E400B30BE40BF50B661F771F881F991F1A94F2
:1045F40069F760957095809590959B01AC01BD011C
:04460400CF01089545
:104608000F931F93CF9301E010E020E030E040E3E8
:1046180053E060E070E0CB010E943617C82F882372
:1046280049F040E353E060E828ED31E080E397E0AB
:0E4638000E944E248C2FCF911F910F91089558
:10464600CF938AB181608AB98AB182608AB9C0E49F
:1046560011C08BB18E7F8BB98BB18D7F8BB90E94C8
:10466600F5278BB181608BB98BB182608BB90E94C3
:0C467600F527C150C111EDCFCF91089580
:10468200CF93DF939C01EB01880F991F880F991F2D
:10469200092E000CAA0B85589D4FAF4FFC015A2FD3
:1046A2000E944927CD2B39F02230310524F0605881
:0C46B2007E4A8E4F9F4FDF91CF910895FC
:1046BE0060E87AE186E090E00E94081888B1806494
:1046CE0088B960ED77E080E090E00E94F92140E14A
:1046DE0050E06FEF70E082E00E94CC2060ED77E05A
:0A46EE0080E090E00E94F921089599
:1046F8002F923F924F925F926F927F928F929F92EA
:10470800AF92BF92CF92DF92EF92FF920F931F93D7
:10471800CF93DF93CDB7DEB7CA1BDB0B0FB6F89488
:08472800DEBF0FBECDBF0994F6
:1047300085B78F7E85BF84B1886084B984B18B7F53
:1047400084B985B18B7F85B98AB180628AB98BB112
:1047500080628BB98DB38D7F8DBB10928F0985B12F
:06476000877F85B9089572
:104766002A88398848885F846E847D848C849B84FB
:10477600AA84B984C884DF80EE80FD800C811B8109
:10478600AA81B981CE0FD11D0FB6F894DEBF0FBE38
:06479600CDBFED01089506
:10479C009C0160E971E00E944025892B69F0C901F8
:1047AC0064E670E00E944025892B41F0237033278A
:1047BC00232B31F080E0089581E0089580E0089586
:0447CC0081E00895EB
:1047D000CF92DF92EF92FF92CF936A017B0181E04B
:1047E0000E948D27B701A60189EA0E94A41AC82F4A
:1047F00080E00E948D278C2FCF91FF90EF90DF906B
:04480000CF900895B8
:104804000F931F93CF938C0181E00E948D274AEA76
:1048140051E060E070E088E00E94A41AC82FC8014B
:104824000E94FC2780E00E948D278C2FCF911F913E
:044834000F91089543
:104838000F931F93CF938C0181E00E948D2740E056
:1048480050E0BA018AE30E94A41AC82FC8010E9446
:10485800FC2780E00E948D278C2FCF911F910F910C
:024868000895B1
:10486A000F931F9340E357E060E828ED31E080E3BF
:10487A0093E00E944E2401E010E020E030E040E3A3
:10488A0053E060E070E0CB010E945A161F910F912D
:02489A0008957F
:10489C00CF92DF92EF926A01E62EDC01280F391FCE
:1048AC00A217B30751F0F6014491E7FC40814D93F8
:1048BC004FEFC41AD40AE40AF3CFEF90DF90CF90F5
:0248CC0008954D
:1048CE009091750991110DC09091730991110BC0C2
:1048DE0090917A09911109C020E00E945D0F81E04C
:0E48EE00089580E0089580E0089580E0089528
:1048FC00052E97FB1EF400940E94D62757FD07D077
:10490C000E94E22207FC03D04EF40C94D62750955B
:0E491C004095309521953F4F4F4F5F4F0895C6
:10492A008AB182608AB98BB182608BB98BB181609E
:10493A008BB90E94F5278BB18D7F8BB90E94F52721
:0C494A008BB18E7F8BB90E94F527089579
:104956008BB181608BB98BB182608BB98AB1816072
:104966008AB98AB18D7F8AB98BB182608BB964E1CD
:0C49760070E080E090E00E94F9210895BC
:104982005F934F938F937F936F9388E392E0A0E0BE
:10499200AF939F938F930E94EE278DB79EB7089691
:0C49A2000FB6F8949EBF0FBE8DBF0895A5
:1049AE00843019F491E090931A0390E09C01220F49
:1049BE00331F820F931F805F9E4FFC01E95BFF4FF9
:0C49CE0071836083319721E020830895FD
:1049DA0084B1826884B984B18E7F84B985B18160DB
:1049EA0085B983E58CBD1DBC85B78F7785BF60E827
:0C49FA007AE186E090E00E940818089521
:104A060080917009813081F410925309ECE7F0E04F
:104A16008081807E896C808382E080937009EAE7DA
:0A4A2600F0E08081886C8083089521
:104A3000CF93DF93C82FD62F0E94AB240E949524DA
:104A4000DD2319F08C2F816002C08C2F8E7F0E9495
:084A5000711FDF91CF91089561
:104A580090911C03992351F0882359F010921C035C
:104A680081E080931D038FEF93E0089580E090E844
:084A780008958FEF93E008950B
:104A8000AA1BBB1B51E107C0AA1FBB1FA617B70774
:104A900010F0A61BB70B881F991F5A95A9F7809590
:084AA0009095BC01CD010895C1
:104AA80097FB072E16F4009407D077FD09D00E94D3
:104AB800402507FC05D03EF4909581959F4F0895B9
:084AC800709561957F4F089580
:104AD0008BB18D7F8BB90E94F5278BB181608BB92B
:104AE0000E94F5278AB18D7F8AB98BB182608BB91C
:064AF0000E94F527089565
:104AF6001F920F920FB60F9211248BE795E28093C7
:104B06007D0980916A0080937C0980916B00809377
:044B16007B09FFCF49
:104B1A001F920F920FB60F9211248DE895E280939F
:104B2A007D0980916A0080937C0980916B00809353
:044B3A007B09FFCF25
:104B3E001F920F920FB60F9211248FE995E2809378
:104B4E007D0980916A0080937C0980916B0080932F
:044B5E007B09FFCF01
:104B62001F920F920FB60F92112481EB95E2809360
:104B72007D0980916A0080937C0980916B0080930B
:044B82007B09FFCFDD
:104B86001F920F920FB60F92112483EC95E2809339
:104B96007D0980916A0080937C0980916B008093E7
:044BA6007B09FFCFB9
:104BAA001F920F920FB60F92112485ED95E2809312
:104BBA007D0980916A0080937C0980916B008093C3
:044BCA007B09FFCF95
:104BCE001F920F920FB60F92112487EE95E28093EB
:104BDE007D0980916A0080937C0980916B0080939F
:044BEE007B09FFCF71
:104BF2001F920F920FB60F92112489EF95E28093C4
:104C02007D0980916A0080937C0980916B0080937A
:044C12007B09FFCF4C
:104C16001F920F920FB60F9211248BE096E28093AB
:104C26007D0980916A0080937C0980916B00809356
:044C36007B09FFCF28
:104C3A001F920F920FB60F9211248DE196E2809384
:104C4A007D0980916A0080937C0980916B00809332
:044C5A007B09FFCF04
:104C5E001F920F920FB60F9211248FE296E280935D
:104C6E007D0980916A0080937C0980916B0080930E
:044C7E007B09FFCFE0
:104C82001F920F920FB60F92112481E496E2809345
:104C92007D0980916A0080937C0980916B008093EA
:044CA2007B09FFCFBC
:104CA6001F920F920FB60F92112483E596E280931E
:104CB6007D0980916A0080937C0980916B008093C6
:044CC6007B09FFCF98
:104CCA001F920F920FB60F92112485E696E28093F7
:104CDA007D0980916A0080937C0980916B008093A2
:044CEA007B09FFCF74
:104CEE001F920F920FB60F92112487E796E28093D0
:104CFE007D0980916A0080937C0980916B0080937E
:044D0E007B09FFCF4F
:104D12001F920F920FB60F92112489E896E28093A8
:104D22007D0980916A0080937C0980916B00809359
:044D32007B09FFCF2B
:104D36001F920F920FB60F9211248BE996E2809381
:104D46007D0980916A0080937C0980916B00809335
:044D56007B09FFCF07
:104D5A001F920F920FB60F9211248DEA96E280935A
:104D6A007D0980916A0080937C0980916B00809311
:044D7A007B09FFCFE3
:104D7E0080916A0990916B09E0E1F1E094A783A715
:104D8E008091800985A710926B0910926A09109282
:044D9E0080090895EB
:104DA20080918C09811106C00E942C2590936F0975
:104DB20080936E0980918C09811102C081E008956F
:044DC20080E00895F0
:104DC600CF9381E00E948D2740E050E0BA0180E059
:104DD6000E94A41AC82F80E00E948D278C2FCF91A5
:024DE60008952E
:104DE8006095709580959095309540955095219552
:104DF8003F4F4F4F5F4F6F4F7F4F8F4F9F4F0895DC
:104E0800A29FB001B39FC001A39F700D811D112403
:0E4E1800911DB29F700D811D1124911D0895F2
:104E260097FB57FF0C947B219F938F930E947B21C6
:0E4E36006E1B7F0BAF91BF918A0B9B0B0895F3
:104E4400689401C0E8948F929F92CF93DF930E945D
:0C4E5400F91ADF91CF919F908F90089584
:104E6000A8950FB6F894A89580916000886180930A
:0A4E70006000109260000FBE08956C
:104E7A0086FD09C088B18F7E88B98EB18D7F8EB9C3
:084E8A0080E00E941B2808953E
:104E920057FD05C065917591859195910895619130
:084EA200719181919191089535
:104EAA000024A7FD00942A0F301D401D501D601DCF
:084EBA00701D801D901D08957C
:104EC200843040F48093050190910701891710F412
:064ED20080930601089523
:104ED800109281091092820910926B0910926A0946
:064EE800109280090895FC
:104EEE000E940427A59F900DB49F900DA49F800D46
:064EFE00911D112408952E
:104F0400EC010E9433280E943228CE010E943428EA
:064F1400CE010E942F28CF
:104F1A00882321F088B18F7B88B9089588B180648D
:044F2A0088B90895A5
:104F2E008CE0809369008CB382608CBB8DB3826001
:044F3E008DBB08958A
:104F4200F999FECF92BD81BD8FB381608FBB80B5D1
:024F52000895C0
:104F5400FC01480F591FE417F50711F06193FBCFCB
:024F64000895AE
:104F66000E940427460F571FC81FD91F08F4319601
:024F760008959C
:104F78002A0D3B1D4C1D5D1D6E1D7F1D801F911F41
:024F880008958A
:104F8A002A153B054C055D056E057F0580079107CF
:024F9A00089578
:104F9C0081E08093220310927F0980938709089502
:104FAC0090958095709561957F4F8F4F9F4F089589
:104FBC00B7FF0C9477270E947727821B930B0895D9
:104FCC0057FD03C065917591089561917191089594
:0E4FDC00CF93DF93CDB7DEB7DF91CF9108956D
:0E4FEA006AE070E080E090E00E94F9210895F6
:0E4FF80044E050E0BC0183E00E94CC2008950C
:0E5006000E940427B7FF0895821B930B0895A4
:0C501400EAE7F0E0808180688083089566
:0C502000E1E6F0E080E880831082089553
:0A502C0090936909809368090895C4
:0A503600843010F480930601089501
:0A504000109295090E946C27089554
:0A504A0048E059E00E943B1F089562
:0650540080912B0308957A
:04505A000C940000B2
:04505E000E946B0041
:025062000895AF
:025064000895AD
:025066000895AB
:025068000895A9
:00000001FF
