:100000000C9443000C9479250C948B250C949D251D
:100010000C94AF250C94C1250C94D3250C942B285B
:100020000C949C200C94F7250C94FE1C0C9409262F
:100030000C94EF190C941B260C942D260C94BE12D4
:100040000C946D150C943F260C9481110C94512640
:100050000C942B280C9463260C94E5250C94301CEE
:100060000C9472220C9475260C9487260C9491198A
:100070000C9449220C9499260C94AB2601000102A1
:1000800080010409948011241FBECFEFD0E1DEBFB0
:10009000CDBFECE7F0E040E017C0B591A5913591F8
:1000A0002591059107FD0CC095918591EF01F92FE0
:1000B000E82F05900D92A217B307D9F7FE0104C0EF
:1000C0001D92A217B307E1F7E638F40731F70E9453
:0A00D0001A060C948027F894FFCF65
:1000DA00525820416C6C2044652D526567697374CF
:1000EA006572202D206D6F64756C6520646572657C
:1000FA0067697374657265640D0A00525820416E0F
:10010A006E6F756E6365205265717565737420280C
:10011A00554E5245474953544552454429202D20AE
:10012A007363686564756C696E6720726573706F56
:10013A006E736520696E2025646D730D0A0052582E
:10014A0020416E6E6F756E636520526571756573B9
:10015A007420285245474953544552454429202D75
:10016A002069676E6F72696E670D0A0052582041E6
:10017A006E6E6F756E636520526571756573742056
:10018A002D20616C72656164792070656E64696E98
:10019A00670D0A0052582052656769737472617458
:1001AA00696F6E202D204D6F64756C652049443D42
:1001BA0025303278207265676973746572656420C8
:1001CA007375636365737366756C6C790D0A005297
:1001DA005820537461747573205265717565737410
:1001EA00202D2073656E64696E672073746174755F
:1001FA00730D0A00525820496E6469766964756104
:10020A006C2044652D5265676973746572202D20D0
:10021A006D6F64756C652049443D253032782064E1
:10022A0065726567697374657265640D0A00417366
:10023A00736572742025733A2025640A002E2E2FC6
:10024A002E2F6D61696E2E6300416E6E6F756E633F
:10025A00656D656E742064656C617920636F6D707D
:10026A006C657465202D2073656E64696E670D0A6E
:01027A000083
:10027B000000000080DE280080C84D0000A776003B
:10028B0000349E008012C700809FEE00007E170195
:10029B00805C400180E9670100C890010055B801FE
:1002AB0080841E00000140420F00000020A10700C7
:1002BB00010190D00300010048E80100020124F481
:0A02CB0000000201127A0000020098
:1002D50010050915050B14050C12050A1105051D58
:1002E500050D18050E1E050F1F051016051117051E
:0102F50012F6
:1002F6002E2E2F2E2F7274635F6D63703739343054
:040306006E2E6300F4
:10030A0000060C12191F252B32383E444B51575DFB
:0F031A000902050601050701060B00000B000094
:0C0329001F1C1F1E1F1E1F1F1E1F1E1F5B
:0C0335001F1E1F1E1F1F1E1F1E1F1F1D4E
:0B0341002E2E2F2E2F6164632E630010
:0B034C002E2E2F2E2F63616E2E6300FB
:0803570001000605FF0700008C
:08035F0001000105FF07000089
:0803670001000505FF0700007D
:08036F0001000805FF07000072
:0803770001000705FF0700006B
:08037F0001000405FF07000066
:0803870001000305FF0700005F
:08038F0001000205FF07000058
:0803970001000005FF07000052
:08039F00020000050007000048
:0803A7000000FF07FF07000042
:0403AF00474D540062
:0403B300474D54005E
:1003B800A6E1B0E0E2EEF1E00C947A237901D42EC4
:1003C800C52EB62FA72FF82FB92E40585D4B6E407B
:1003D8007F4F8F4F9F4F21153B474D415348624EEA
:1003E80071408105910511F008F008C2188B0F873C
:1003F8009B2D8F2F7A2F6B2F5C2D4D2D9701205819
:100408003D454C4B5843610971098109910919010E
:100418004D8359876D877983898B9A8BF0E8AF2E46
:10042800A1E5BA2ECC24C394D12CE12CF12C00E008
:1004380010E00E943E2029013A014B018E8B9B8BD4
:1004480091014D8159856D85798189899A890E94A3
:100458003C202D833E834F8358878D819E81AF81B9
:10046800B885B7FF15C080589E4AAE4FBF4F8D83E1
:100478009E83AF83B8879201A301B4018E899B89BB
:10048800AFEF0E94532729013A014B018E8B9B8BBA
:100498009201A301B4018E899B89A3E00E9453278E
:1004A800E7E0AE2EB12CC12CD12CE12CF12C00E0D0
:1004B80010E00E943C202D873E87AD85BE85B7FFA2
:1004C80003C01796BE87AD8751EBA52E6AE3B62EFB
:1004D80072E0C72ED12CE12CF12C00E010E0920143
:1004E800A301B4018E899B890E943E2029873A87FF
:1004F8004B875C879201A301B4018E899B890E9476
:100508003C20822E932EA42EB52EB7FE12C0B1EB3E
:100518008B0EBAE39B1EB2E0AB1EB11C89859A858F
:10052800AB85BC850197A109B10989879A87AB87F3
:10053800BC87C501B4012CEA3EE840E050E00E94C7
:100548007C2469017A01243031054105510529F4DB
:1005580043E0C42ED12CE12CF12CA4E5B1E7A7018E
:1005680096010E94DF272B013C01480C591C6A1C8C
:100578007B1CC301B20125EB35E040E050E00E944E
:100588007C2449015A01293131054105510529F4D5
:1005980038E1832E912CA12CB12CABE4BAEFA50144
:1005A80094010E94DF27460E571E681E791EC3015C
:1005B800B2012DE631E040E050E00E947C2429831E
:1005C8003A834B835C83243031054105510541F45E
:1005D80083E090E0A0E0B0E089839A83AB83BC839A
:1005E800A3E9BEEF29813A814B815C810E94DF2714
:1005F800460E571E681E791E232B242B252B81F4AB
:1006080081149104A104B10471F431E020E0C11413
:10061800D104E104F10409F030E0832F922F05C0E2
:1006280080E090E002C081E090E01201ABE32A0E86
:10063800311C280E391E9C0124593E4F22153305C2
:1006480024F483599E4F281A390A92E0880C991C81
:10065800AA1CBB1C9A95D1F789819A81AB81BC8170
:10066800880E991EAA1EBB1EA4E6B0E0A70196013B
:100678000E947527860E971EA81EB91ED501C401B3
:10068800BB0F880B982FDC0189839A83AB83BC83CB
:1006980069857A858B859C8520E931E040E050E0CA
:1006A8000E941127F22FE32F6A017B018C0194012C
:1006B800A5016981762F862F962FAF2EBE2E0E9418
:1006C800BA2749015A016B017C0125E333E040E078
:1006D8001A821982F901849147FD8081082E000C45
:1006E800990BAA0BBB0B2F5F3F4F4F4F481659066C
:1006F8006A067B0654F0481A590A6A0A7B0AA981D5
:10070800BA811196BA83A983E5CFE981FA81EA30E3
:10071800F10574F03C97FA83E9839401A501B601C9
:10072800C701A1E00E94532749015A016B017C01CE
:100738009401A501B601C7012C593F474F4F5F4FA0
:100748006F4F7F4F8F4F9F4F2F3F3F4F41055105B1
:10075800610571058105910511F008F04FC024E687
:10076800820E911CAF85B8891B969C928E921A971F
:10077800E981FA8132961996FC93EE931897FFEF68
:100788004F1A5F0A17965C924E9216978D859E8532
:100798001D969C938E931C971F963C922E921E97A3
:1007A8006D817E818F81988520E13EE040E050E0B8
:1007B8000E947C24AF85B88915963C932E93149794
:1007C8008CE3C82ED12CE12CF12C6D817E818F8198
:1007D8009885A70196010E947C244B015C01CA01FF
:1007E800B901A70196010E947C24EF85F8897383DB
:1007F80062839182808280E090E002C08FEF9FEF59
:080808006696E2E10C94B123B5
:10081000CF92DF92EF92FF920F931F93CF93DF93CC
:1008200000D000D0CDB7DEB78C01809120038823A3
:1008300069F088E0D8011D928A95E9F748E0B8018F
:1008400088E00E94652481111092200380911E038C
:10085000882309F406C180917B09811180C08091B1
:1008600007018F70F8018083809126038183809136
:100870002503828380912101838384E03496DF0104
:100880001D928A95E9F780915501882379F080912E
:100890005801882371F080910701833069F40E9428
:1008A000F01380913C0190913D0108C080E090E8F8
:1008B00005C080E090E802C080E090E8F801848301
:1008C000958380915201882379F080915301909112
:1008D00054014FEF53E060E070E09A01AB01281B38
:1008E000390B4109510903C020E030E0A901ECE0D7
:1008F000F1E0A5A1B6A10E94DC27DC01CB01689440
:1009000016F8B695A795979587951694D1F7C58C47
:10091000D68CE78CF0A0BC01CD016C0D7D1D8E1D29
:100920009F1D2FE030E040E050E00E94E022209345
:100930004E0130934F014093500150935101D80123
:1009400016962C93169717963C9348E0B80181E0D1
:100950000E946524882309F46BC081E070C0813057
:10096000C1F5ECE0F1E082AD93ADD8018C9382AD9E
:1009700093AD11969C93119780AD91AD12968C9387
:10098000129780AD91AD13969C93139784AD95AD5E
:1009900014968C93149784AD95AD15969C936091A5
:1009A0004A0170914B0180914C0190914D012FE0D3
:1009B00030E040E050E00E94E022F80126833783D7
:1009C00048E0B80182E00E946524882399F181E023
:1009D00036C0823089F5ECE0F1E084A995A9D80110
:1009E0008C9384A995A911969C93119782A993A998
:1009F00012968C93129782A993A913969C9313979E
:100A000086A997A914968C93149786A997A91596E9
:100A10009C93159716961C92169717961C9248E071
:100A2000B80183E00E946524882341F081E007C07B
:100A300080E005C080E003C081E001C080E0882341
:100A400081F080917B098F5F80937B09833048F030
:100A500010927B0910921E031092830981E080930B
:100A60001B0380911D03882309F47DC01C821B8217
:100A70001A821982E0902303F0903B01EF1430F5C5
:100A8000FF2021F1EF2DEE19E150EC36F8F4F0E003
:100A90007596EE0FFF1FEE0FFF1FE45FFE4F818183
:100AA0009281C380D480BE016D5F7F4F0E946D2014
:100AB000811102C01C821B82BE016F5F7F4FC60185
:100AC0000E94D91F811102C01A821982F801E082A6
:100AD000F18299818A81928383832B813C81248353
:100AE00035832115310559F0C90164E070E10E9498
:100AF0003E2584E6689F602D1124668301C016821E
:100B0000ECE0F1E040AD51AD82AD93AD84179507B7
:100B100098F42115310581F060AD71AD82AD93ADD2
:100B2000681B790BC9010E943E2584E6689F602DF1
:100B30001124F801678303C0D80117961C9248E07E
:100B4000B80184E00E946524882369F08091230322
:100B50008F5F809323039091230380912403981740
:100B600010F010921D0380911B03882389F1ECE0A3
:100B7000F1E08389D8018C93848911968C93119725
:100B800080A591A512968C93129780A591A5139696
:100B90009C93139786A514968C93149782A58F3FE8
:100BA00031F085A592A5891B15968C9303C08FEF14
:100BB000F8018583D80116961C92169717961C92F9
:100BC00048E0B80186E00E946524811110921B0361
:100BD00080911C03882309F1B801C80102960E9484
:100BE000E61BA0912101B0E028E936E146E050E0A3
:100BF0000E9475272CED35E040E050E00E94E02295
:100C0000F801248335831682178248E0B80185E015
:100C10000E946524811110921C030F900F900F9079
:100C20000F90DF91CF911F910F91FF90EF90DF9088
:040C3000CF900895C4
:100C3400CF93DF93CDB7DEB728970FB6F894DEBF16
:100C44000FBECDBF0E942E2788B18F7E88B987B191
:100C5400806187B987B18D7F87B987B1806887B98B
:100C640088B18F7E88B98DB182608DB98EB18D7F48
:100C74008EB984B1806184B985B18F7E85B984B71A
:100C840080937A0980917A0983FF0AC080912803AE
:100C9400ECE0F1E082898F5F828B0E94640C68C073
:100CA40080917A0980917A0980917A09F8940E9456
:100CB4000E280E9420220E9496230E9420120E9445
:100CC400841D8093080181E00E94A0178AB18F7B64
:100CD4008AB98BB180648BB911E01BBB82E08BBBFA
:100CE40084E08BBB88E08BBBECE6F0E08081806421
:100CF40080838BB384608BBB8CED98E00E941428B6
:100D04000E94981B109227031092210310928309CA
:100D140080E00E9419281093220310921F0310925E
:100D24001E0310921D0310921C0310921B031092B9
:100D34001A031092190310921803109217031092B9
:100D44002403109223031092260310922503109279
:100D540009010E94530B85E080930701109206015C
:100D640010920501109221031092040110930B01BB
:100D7400789480910A018823E1F310920A010E9479
:100D84004C1A0E94581380912103811122C0809132
:100D94008509882311F180918409882329F08091A1
:100DA400840981508093840980918409811115C03C
:100DB40081E0809322031092850983E592E0A0E00C
:100DC400AF939F938F930E94EC270F900F900F90F7
:100DD40004C0CE0101960E94080480911F03882359
:100DE40081F010921F031092270310922103109296
:100DF400830981E0809322030E94CC2780E00E9433
:100E04001928EFE6F0E0908180818D7F80838091C6
:100E14000B01209181099083813009F057C022236E
:100E240009F44BC0109281090E94BA1C0E94BD268D
:100E3400CE0101960E948607809104018430D9F482
:100E4400ECE0F1E095A58589981799F0809121014E
:100E5400882379F0809109018F5F80930901809143
:100E64000901853040F081E080930401109209016A
:100E740002C010920901809122038823F1F086E5D3
:100E8400898380E28A8382E08B8383E08C838091F0
:100E94001A0190911B01A0911C01B0911D018D8339
:100EA4009E83AF83B88748E0BE016F5F7F4F80E0C9
:100EB4000E9465248111109222030E94640C809187
:100EC40017038823B1F01092170313C0222389F06B
:100ED400109281090E94BA1C80E00E94A0178091A0
:100EE4000401843031F40E9495270E941E280E9438
:100EF4004D2180911603882321F0109216030E943D
:080F0400F0130E94012535CF16
:100F0C003F924F925F926F927F928F929F92AF928D
:100F1C00BF92CF92DF92EF92FF920F931F93CF93DA
:100F2C00DF9300D000D000D0CDB7DEB78091370171
:100F3C0090913801892B09F410C1ECE0F1E08FEFAE
:100F4C0082A7938985A5891728F485A5838B81E0D1
:100F5C0080931B03ECE0F1E0948985A5981728F4A5
:100F6C0085A5848B81E080931B0380913701909140
:100F7C00380183709927892B61F080913A018F3F5A
:100F8C0041F0ECE0F1E086A58F5F86A781E08093CD
:100F9C001B03ECE0F1E011AE10AE8FEF9FEF93AFBF
:100FAC0082AF15AE14AE80E090E893AB82AB8FEFBE
:100FBC009FE795AB84AB17AA16AAD12C312CC12C68
:100FCC00412C512C3201812C912C54012FEF3FE7F5
:100FDC003E832D8380E090E89C838B836BC00D2D2A
:100FEC0010E0F8017596EE0FFF1FEE0FFF1FE45F88
:100FFC00FE4F818192819A838983E380F48060E043
:10100C0070E0C7010E94D91F8823F1F0F4FE03C0E1
:10101C00C701906F02C0C7019F772B813C812817B5
:10102C00390714F49C838B832D813E81821793079F
:10103C0014F49E838D83092E000CAA0BBB0B880E17
:10104C00991EAA1EBB1E3394F8017596EE0FFF1F56
:10105C00EE0FFF1FE45FFE4F8181928199231CF4F8
:10106C0081E080933301BE016F5F7F4F89819A814C
:10107C000E946D208823E9F02091440130914501B4
:10108C0089819A812817390720F490934501809320
:10109C00440120914601309147018217930720F4B7
:1010AC009093470180934601480E591E611C711C98
:1010BC00C394D39480913901D81608F490CFCC20E6
:1010CC0089F1EAE4F1E040825182628273826081AC
:1010DC007181828193812C2D30E040E050E00E94A0
:1010EC00E02230934901209348018091070183301D
:1010FC00C9F080911903811115C0ECE0F1E020AD2D
:10110C0031AD82AD93AD2817390760F080AD91AD4C
:10111C0022AD33AD821B930B8034910518F081E026
:10112C0080931A033320C9F0232D30E040E050E0C7
:10113C00C501B4010E947C2462E471E0C9010E94E3
:10114C00D91F6EE371E08B819C810E94D91F60E4F2
:10115C0071E08D819E810E94D91FECE0F1E085A5A4
:10116C0087A780910801882349F080910701882383
:10117C0029F0CF010E94F1148093080126960FB636
:10118C00F894DEBF0FBECDBFDF91CF911F910F91B1
:10119C00FF90EF90DF90CF90BF90AF909F908F908B
:0C11AC007F906F905F904F903F900895EF
:1011B800CF92DF92EF92FF92CF93FB0190912103A0
:1011C80010927F09823129F480818F700E945F27F5
:1011D80035C18F30A9F48AED90E0A0E0AF939F93DA
:1011E8008F930E94EC2710922703109221031092EC
:1011F800830980E00E9419280F900F900F901EC15C
:10120800803121F480E00E94192818C1813159F4F5
:1012180020813181428153816481758186819781E2
:101228000E946B180BC18D3009F04FC080912103CB
:1012380081112FC08091850981112BC0C0901A019E
:10124800D0901B01E0901C01F0901D011F92CF92DD
:1012580085E091E0A0E0AF939F938F930E94EC27E5
:101268008DECC89EC12C1124C694C694C694C09215
:101278008409809184090F900F900F900F900F9020
:10128800811103C081E08093840981E080938509FE
:10129800D5C080912103882361F088E491E0A0E023
:1012A800AF939F938F930E94EC270F900F900F900E
:1012B800C5C086E791E0A0E0AF939F938F930E940B
:1012C800EC270F900F900F90B9C0893009F041C0FA
:1012D800483009F0B3C0F0808281823009F0AEC096
:1012E8008381833009F0AAC040911A0150911B01F3
:1012F80060911C0170911D0184819581A681B7813F
:10130800481759076A077B0709F098C010927F09A8
:10131800F09227030E94CC27C1E0C0931C03C0931E
:101328002103109283091F92FF928EE991E0A0E0B9
:10133800AF939F938F930E94EC2710928509109288
:101348008409C09320030F900F900F900F900F9077
:1013580075C0442309F472C02081911108C08A30F5
:1013680009F06CC090912103992309F467C090910A
:101378002703291363C08A30A9F4413009F05EC0FD
:101388008091830981115AC089ED91E0A0E0AF9363
:101398009F938F930E94EC270E94CC270F900F9069
:1013A8000F904CC08B30F9F4433009F047C080915E
:1013B8001D03811143C08181909121018917F0F5A6
:1013C80080932303909123039F5F909324038F3F7F
:1013D80031F480912101809324031092230381E04A
:1013E80080931D032BC08C3049F410927F09423042
:1013F80029F581818F700E94192820C0853021F439
:1014080081E080931C031AC08E30C1F41F922F9381
:101418008EEF91E0A0E0AF939F938F930E94EC270B
:1014280010922703109221031092830980E00E94F2
:1014380019280F900F900F900F900F90CF91FF9059
:08144800EF90DF90CF900895B2
:10145000ACE0B0E0EEE2FAE00C947A2349015A01E4
:101460006B017C011C830B832A3831054105510532
:10147000610571058105910511F00CF042C0F9017B
:10148000E454F109F595E795F595E795C901837061
:101490009927892B51F431970115110569F081E0E5
:1014A00090E0D8018D939C9307C08B819C8100971D
:1014B00019F0DC011D921C92D901A654B10920E853
:1014C00033E341EE51E00E94DC276B017C01DF0138
:1014D00020E831E541E050E00E94DC27DC01CB014F
:1014E0008C0D9D1DAE1DBF1D9C01AD016C017D01CC
:1014F000FF0CCC08DC2C7601AC2DFC2DEC2D9C2DAA
:10150000CBC0EB81FC81EF2B31F41A821982CE0122
:1015100001969C838B83C4018456910960E971E034
:101520000E9452257E836D839401A501B601C701F7
:10153000ACE90E94532719012A013B018F83988748
:1015400070E9A72EBB24B394C12CD12CE12CF12C33
:1015500000E010E09101A201B3010E943C20C9010A
:10156000009759F481E090E0AB81BC818D939C930E
:1015700020E030E040E050E033C0283C31056CF022
:101580002C3231402CF08C52914043E050E00CC0A2
:10159000885C910942E050E007C0243631056CF0C8
:1015A0008456910941E050E0009749F4EB81FC81B9
:1015B0001182108220E030E013C040E050E09C0136
:1015C00036952795369527958370992761E070E0C9
:1015D000892B11F060E070E0AB81BC816D937C934E
:1015E00081E6ED81FE818E9FB0018F9F700D1124E9
:1015F000E8E1E49FC001E59F900D1124860F971F3D
:10160000AB81BC814D915C91841B950B820F931F24
:10161000E92FEE0FEE0B20E8A22E31E5B32ECC24FD
:10162000C394D12CE12CF12C00E010E09C014E2F52
:101630005E2F6E2F7E2F8E2F9E2F0E94481B922E84
:10164000832E4B835D8369877A878B879C8743E3EF
:10165000B42E51EEC52EDD24D3949101A201B30125
:101660008F8198850E94481B59016A017B018C017A
:10167000292D382D4B815D8169857A858B859C85E7
:101680000E94BA273B564149574C6F4F7F4F8F4FAF
:101690009F4FA62FF72FE82F6A2F7F2F8E2F2C9684
:0616A000E2E10C94B1230D
:1016A600FF920F931F93CF93DF93CDB7DEB7A1972A
:1016B6000FB6F894DEBF0FBECDBF198241E0BE0162
:1016C6006F5F7F4F87E00E94A41F182F882309F4BD
:1016D600EBC080E8898341E0BE016F5F7F4F80E009
:1016E6000E94A41F182F811117C0DEC0198241E085
:1016F600BE016F5F7F4F83E00E94041E182F882370
:1017060009F4D2C0898185FD0AC060E070E0CB0192
:101716000E94F7210F5F01C000E0083C38F3083C47
:1017260008F0C2C089818860898341E0BE016F5F8D
:101736007F4F83E00E94A41F182F882309F4B4C0AA
:1017460041E0BE016F5F7F4F82E00E94041E182FAA
:10175600882309F4A9C089818F7B898341E0BE0172
:101766006F5F7F4F82E00E94A41F182F882309F421
:101776009BC0CE0102960E94E715182F882309F414
:1017860093C08A818C3310F410E001C011E08B8184
:101796008C3308F011E08C818C3308F011E08D81D8
:1017A6008150873008F011E02F818FEF820F8C3047
:1017B60018F50E81002311F1822F90E00197092E72
:1017C600000CAA0B875D9C4FAF4FFC01F490A7FD60
:1017D600F080223071F4888590E08431910518F408
:1017E6008C5C974F02C08053984F0E94CC23811186
:1017F600F394F01628F005C011E003C011E001C013
:1018060011E01123B9F01A821B821C8281E08E83BB
:101816008F8388E18887CE0102960E947214182F62
:10182600882309F441C0CE0102960E94E715182FBD
:101836008823D1F1BE01675F7F4FCE0102960E94D9
:10184600431ECE0109960E94411D8B019C01F8940E
:101856000093450910934609209347093093480998
:101866001092490910924A0910924B0910924C099C
:10187600789487B18E7F87B988B1816088B941E055
:10188600BE016F5F7F4F87E00E94041E182F8823DA
:1018960059F089818064898341E0BE016F5F7F4F83
:1018A60087E00E94A41F182F812FA1960FB6F894E7
:1018B600DEBF0FBECDBFDF91CF911F910F91FF907D
:0218C600089583
:1018C8001F93CF93DF93D0910601809105018D1767
:1018D80030F09091070180910501891710F4D0919B
:1018E800050180910701D81709F4F5C0D23009F431
:1018F80072C028F4DD2389F0D130E1F1E0C0D330A3
:1019080009F4A9C0D53009F0DAC010920701109285
:101918000601D09107010E94082888B18F7E88B9F6
:1019280068E873E180E090E00E94F7218EB18D7F36
:101938008EB968E873E180E090E00E94F721EBE659
:10194800F0E080818D7F8083E8E6F0E080818D7F04
:10195800808381E080931A03109219031092180370
:1019680080910801882309F4B2C00E94F620809370
:101978000801ADC088B18F7E88B968E873E180E05E
:1019880090E00E94F721EBE6F0E080818D7F808374
:10199800E8E6F0E080818D7F8083809121038823B1
:1019A80019F08EB182608EB968E873E180E090E04A
:1019B8000E94F72181E080931A0310921903109274
:1019C800180380910801882309F481C00E94CD2161
:1019D800809308017CC061990DC080912103882300
:1019E80019F08EB182608EB968E873E180E090E00A
:1019F8000E94F721CBE02AC080912103882349F077
:101A080088B1806188B988B18F7788B988B18068D2
:101A180088B968EE73E080E090E00E94F72188B111
:101A28008F7E88B968E873E180E090E00E94F72132
:101A380060E573EC80E090E00E94F7218091170345
:101A4800882319F01092170301C0C12F1FEF1C0F34
:101A5800C111D2CF3CC061990DC080912103882368
:101A680019F08EB182608EB968E873E180E090E089
:101A78000E94F72180912103882349F088B1806171
:101A880088B988B18F7788B988B1806888B968E8DB
:101A980073E180E090E00E94F72110921A031092FF
:101AA800190381E080931803EBE6F0E080818260FF
:101AB8008083E8E6F0E080818260808308C04DEF93
:101AC80053E067E472E080E00E94BF24D5E0D09341
:0E1AD80007010E94CC27DF91CF911F91089546
:101AE6006F927F928F929F92BF92CF92DF92EF92E8
:101AF600FF920F931F93CF93DF93F82E6A01E62E82
:101B0600E9010F2EF5E06F2EF02D681638F44DED35
:101B160050E06CE473E080E00E94BF24093038F0A6
:101B26004EED50E06CE473E080E00E94BF24EBEDE4
:101B3600F0E0B08080818F7780838F2D8295807FC3
:101B46008093ED001092EE00F6018491E7FC80810F
:101B560020E4829FC0011124102F182BAE2DC60140
:101B66000196A11DFC018491A7FD8081811110625F
:101B760010610E9428284E2D96012E5F3F4F4F4F31
:101B8600F901542F0E94E427AB01577060E070E022
:101B9600032E32E1440F551F661F771F3A95D1F782
:101BA600302D3A014B01682AD401C3014E2D96010E
:101BB6002A5F3F4F4F4FF901249147FD2081222391
:101BC60011F024E001C020E0E0EFF0E02083208166
:101BD600382F330F330F330F232B2083AC01BD0176
:101BE600689414F876956795579547951694D1F7A6
:101BF6004093F100AC01BD01032E3DE0769567955B
:101C0600579547953A95D1F7302D4093F200072E18
:101C160075E1B695A795979587957A95D1F7702D25
:101C26008093F300AE2DC6010796A11DFC01849199
:101C3600A7FD8081882311F084E001C080E0E4EFF5
:101C4600F0E080838081816080831092F500AE2D64
:101C5600C6010496A11DFC015A2F0E94E427629535
:101C6600660F607E6093F600FC015A2F0E94E427FF
:101C76007695679576956795769567956093F7005F
:101C860004C089918093FA0001500111FACF109394
:101C9600EF00F6018491E7FC8081882369F0EEED80
:101CA600F0E0208181E090E002C0880F991FFA944D
:101CB600E2F7822B80830DC0EEEDF0E0208181E01B
:101CC60090E002C0880F991FFA94E2F7809582236C
:101CD6008083B092DB00DF91CF911F910F91FF902F
:101CE600EF90DF90CF90BF909F908F907F906F90F6
:021CF60008954F
:101CF800A5E0B0E0E2E8FEE00C947A233B01882EF0
:101D0800A82FCB010A96A11DFC015A2F0E94E42797
:101D18005B019B019B2C990C9908F92CB92DA92DD5
:101D2800892D992DE82C630148E0C40ED11CE11CD3
:101D3800F6015E2D0E94E4272B016C30710510F12D
:101D4800CB016CE070E00E9452252C0197FF05C082
:101D5800615071098CE0480E511C972F990F990B0F
:101D68009B01492F592F692F792F892FC92CD92CDD
:101D7800E92CF92C092D192D0E94BA27942EF52E3D
:101D8800B62FA72F8E010F5F1F4F492D5F2D6B2F89
:101D98007A2F0E94280A59016A017B018C01698106
:101DA8007A81C2010E943F231B012C01550C220895
:101DB800322C21019B01AC01622D722D822D922DB6
:101DC8000E94BA2719012A01962E7B838C839D8352
:101DD800A82DC3010696A11DFC015A2F0E94E427D5
:101DE80061507109972F990F990B30E8A32E41E59F
:101DF800B42ECC24C394D12CE12CF12C00E010E0BB
:101E08009B01492F592F692F792F892F0E94481B31
:101E180051016201E92CFB800C811D810E94BA27C7
:101E280059016A017B018C01A82DC3010496A11DEB
:101E3800FC015A2F0E94E427072E000C880B990BEF
:101E480020E13EE040E050E00E9411270E94BA27BE
:101E580059016A017B018C01A82DC3010296A11DBD
:101E6800FC015A2F0E94E427072E000C880B990BBF
:101E78002CE330E040E050E00E9411270E94BA278E
:101E880059016A017B018C01F301582D0E94E42756
:101E98009B01932F990F990B492F592F692F792F50
:0E1EA800892F0E94BA272596E2E10C94B123FF
:101EB6006F927F928F92EF92FF920F93CF93DF9361
:101EC600C82F7B01042FD22F8823F9F0813031F1FE
:101ED600823069F18330A1F18630D9F1873009F477
:101EE60041C0853009F447C0843009F44DC08830BC
:101EF60009F453C040E551E06CE473E080E00E94D1
:101F0600BF24612C712C812C50C00F2EF7E96F2E47
:101F1600F3E07F2EF0E08F2EF02D47C00F2EFFE866
:101F26006F2EF3E07F2EF0E08F2EF02D3EC00F2EA9
:101F3600F7E86F2EF3E07F2EF0E08F2EF02D35C000
:101F46000F2EFFE76F2EF3E07F2EF0E08F2EF02DA1
:101F56002CC00F2EF7E76F2EF3E07F2EF0E08F2ECA
:101F6600F02D23C00F2EFFE66F2EF3E07F2EF0E05C
:101F76008F2EF02D1AC00F2EFFE56F2EF3E07F2E69
:101F8600F0E08F2EF02D11C00F2EF7E66F2EF3E046
:101F96007F2EF0E08F2EF02D08C00F2EF7E56F2E66
:101FA600F3E07F2EF0E08F2EF02DDD2321F08091DF
:101FB6007209811134C0D11104C080917609811152
:101FC6002EC080917609811103C082E08093760944
:101FD600D1111AC010927509C0937409093038F0EE
:101FE60045E651E06CE473E080E00E94BF24202FB8
:101FF60030E0C701A0E8AC016A2F8DE399E00E94AA
:102006004C240093730905C0809175098F5F8093F6
:1020160075099701682DA30181E00E94730DDF9178
:10202600CF910F91FF90EF908F907F906F900895D2
:10203600CF92DF92FF920F931F93CF93DF93CDB78B
:10204600DEB728970FB6F894DEBF0FBECDBF982F28
:102056009295907F9093ED00EEEDF0E0208101E007
:1020660010E0082E02C0000F111F0A94E2F7902F0D
:10207600909592239083EFEEF0E090819F7390838A
:10208600811150C08091EE0085FF38C0EEEEF0E081
:1020960080818F7D8083C0906409D0906509C114CA
:1020A600D10461F18091EF008F70F82E4091F3001A
:1020B60050E0440F551F440F551F440F551F809184
:1020C600F200829586958770482B90E00AC0209191
:1020D600FA00E1E0F0E0EC0FFD1FE90FF11D2083AF
:1020E6009F5F9F15A0F3CA010E940B20833131F038
:1020F6004F2DBE016F5F7F4FF60109958091EE006F
:102106008E7029F0EEEEF0E08081817F8083EEED27
:10211600F0E08081082B0083EFEEF0E0808180689C
:1021260080832BC0813049F58091EE0086FF07C081
:10213600EEEEF0E080818F7B8083109276098091AD
:10214600EE008971D1F0EEEEF0E08081867E80832C
:1021560080917509843168F481E08093720921E0E9
:10216600409173096DE379E0809174090E945B0FD9
:1021760004C0109276091092720928960FB6F89448
:10218600DEBF0FBECDBFDF91CF911F910F91FF90A4
:06219600DF90CF900895D8
:10219C001F93CF93DF9300D000D00F92CDB7DEB753
:1021AC0087B1806487B988B1806488B988B180644C
:1021BC0088B90E94EB240E945D2310E00DC0CE0173
:1021CC0001960E94E126813049F060E177E280E0DF
:1021DC0090E00E94F7211F5F143688F3143609F43F
:1021EC0076C0CE01019625E0FC0111922A95E9F703
:1021FC000E940024813009F05EC08C818A3A09F07B
:10220C0068C040E050E060E070E4CE0101960E94AE
:10221C002221811160C0CE0101960E941A248823CC
:10222C000CF45BC08DE299E00E94811E88230CF4B3
:10223C0056C0EDE2F9E087818F7390E0A0E0B0E04A
:10224C00BC01552744279085892F90E0A0E0B0E091
:10225C00BA2FA92F982F8827842B952BA62BB72B19
:10226C002185822B0196A11DB11D072E7AE0880FC6
:10227C00991FAA1FBB1F7A95D1F7702D8093540913
:10228C0090935509A0935609B093570925812F7047
:10229C0081E090E002C0880F991F2A95E2F7909395
:1022AC0069098093680960EC78ED87EA90E00E94F8
:1022BC00061881E017C040E050E060E070E4CE0109
:1022CC0001960E94222181110CC081E00BC080E09C
:1022DC0009C080E007C080E005C080E003C080E05A
:1022EC0001C080E00F900F900F900F900F90DF9136
:0622FC00CF911F9108952F
:102302001F920F920FB60F9211240F931F932F93C8
:102312003F934F935F936F937F938F939F93AF936B
:10232200BF93CF93DF93EF93FF93EBEDF0E0D08178
:102332001091DE0080818F778083C091E000C0FF22
:102342000CC080E00E941B1000E020E030E04FE96A
:1023520053E060E080E00E94730DC1FF03C081E0A2
:102362000E941B108091DA0086FF16C080E48093E1
:10237200DA0080915C0990915D09019690935D0964
:1023820080935C0982E08093D800109276091092C3
:1023920072098AE0809371098091DA0084FF0AC091
:1023A20045E452E06CE473E080E00E94BF2480E1E7
:1023B2008093DA008091DA0083FF03C088E0809383
:1023C200DA008091DA0082FF03C084E08093DA00B1
:1023D2008091DA0081FF03C082E08093DA0080916D
:1023E200DA0080FF13C081E08093DA0080917509E2
:1023F200843150F421E0409173096DE379E08091DA
:1024020074090E945B0F02C0109276091093DE00DD
:10241200D093DB00FF91EF91DF91CF91BF91AF910C
:102422009F918F917F916F915F914F913F912F91EA
:0E2432001F910F910F900FBE0F901F901895E5
:10244000CF9382E080937A0010927C0010929400E7
:1024500010929500109296001092970080EA809357
:102460007B00C0E083C02C2F30E0C901880F991F8A
:10247000820F931F0196092E000CAA0B865E9C4FBB
:10248000AF4FFC018491A7FD8081813041F008F4B9
:102490006CC0823021F1833009F441C05FC054B177
:1024A000C901880F991F280F391F2E5F3F4F032E38
:1024B000000C440B265E3C4F4F4FF901249147FD21
:1024C000208181E090E002C0880F991F2A95E2F7F1
:1024D0008095582354B995B1892385B946C057B121
:1024E000C901880F991F280F391F2E5F3F4F032EF8
:1024F000000C440B265E3C4F4F4FF901249147FDE1
:10250000208181E090E002C0880F991F2A95E2F7B0
:102510008095582357B998B1892388B926C04AB104
:10252000C901880F991F820F931F0296092E000C74
:10253000AA0B865E9C4FAF4FFC012491A7FD208122
:1025400081E090E002C0880F991F2A95E2F78095FC
:1025500048234AB99BB189238BB907C045EB50E0AA
:1025600061E473E080E00E94BF24CF5FC53008F4CF
:0C2570007ACF81E080936C09CF91089530
:10257C001F920F920FB60F9211242F933F934F93EC
:10258C005F936F937F938F939F93AF93BF93EF93CF
:10259C00FF9386B5835D87BD85B3826085BBEEE610
:1025AC00F0E080818260808380918909882321F00A
:1025BC0085B1886085B903C085B1877F85B9809165
:1025CC008E098F5F80938E0980918E09833061F420
:1025DC0080918A09882341F08BE080938E091092B8
:1025EC00890910928C094DC080918E098A3080F433
:1025FC0080918D09882324F481E08093890902C09D
:10260C001092890980918D09880F80938D0939C0AA
:10261C0080918E098A3029F480918C0980938909E4
:10262C0030C080918E098B3019F41092890929C021
:10263C0080918E098C3029F580918C0980938909C1
:10264C0010928E0980918C09811108C010928B090F
:10265C00EEE6F0E080818D7F808313C00E94CF2650
:10266C0080938C090E94982280938D0986B588539B
:10267C0087BD85B3826085BBEEE6F0E08081826029
:10268C008083FF91EF91BF91AF919F918F917F913B
:10269C006F915F914F913F912F910F900FBE0F90C3
:0426AC001F901895CE
:1026B0000F9380917109882319F0815080937109DB
:1026C00080916F09882319F0815080936F092091C0
:1026D000EA003091EB0080916E09821748F53111C4
:1026E00027C090916D09911123C0409170094F5FEF
:1026F000409370094430F8F090916F0991111BC01C
:1027000050E0435051094430510514F043E050E08B
:1027100062E070E0FB0102C0EE0FFF1F4A95E2F796
:10272000E0936F09E13138F090E190936F0903C0B5
:10273000311110927009422F50E090E00A968417F0
:1027400095074CF0432F50E080916D0990E00A9678
:10275000841795073CF480916F09853018F485E063
:1027600080936F0920936E0930936D09222314F032
:1027700033234CF480914D0990914E09019690932A
:102780004E0980934D098091D90082FD12C082E0EC
:102790008093D80000E020E030E04FE953E060E0B3
:1027A00080E00E94730D8091EA00811102C0809147
:1027B000EB00EDEEF0E0908110828091EF00807CE4
:1027C00059F49093ED0000E020E030E04FE953E051
:1027D00060E00E94730D02C09093ED000F91089588
:1027E000A0915601B09157018091590190915A01E1
:1027F000E0918609EF3F81F407C0F0E0EE0FFF1F84
:10280000E35EF64F91838083E0918609EF5FE0936A
:102810008609E83090F30FC021E02E0F209386093F
:10282000F0E0EE0FFF1FE35EF64F918380832830C8
:1028300010F01092860980E020E030E00BC0E82F15
:10284000F0E0EE0FFF1FE35EF64F40815181240F51
:10285000351F8F5F883098F3C90199230CF40796D0
:10286000959587959595879595958795A81BB90B0F
:1028700020E83CE00E940128AB01BC015F5F6F4F84
:102880007F4FDB01CA01772324F481509E4FAF4F65
:10289000BF4F072E79E0B595A795979587957A95BF
:1028A000D1F7702D9058AF4FBF4FECE0F1E091ABF6
:1028B00080AB20A931A9868997898217930720F4D4
:1028C00080A991A9978B868BECE0F1E020A931A932
:1028D000808D918D2817390720F480A991A9918FB7
:0428E000808F089548
:1028E400FC0120818DEC289F912D112496959695BD
:1028F400969530E1939FA0011124990F392F330F3E
:10290400330F930F291B242B20832181289F912D82
:10291400112496959695969530E1939FA0011124E4
:10292400990F392F330F330F930F291B242B218336
:102934004281489F912D112496959695969550E144
:10294400959F90011124990F392F330F330F930F53
:10295400491B242B2F7B2283938197709860938348
:102964002481289F912D112496959695969530E172
:10297400939FA0011124990F392F330F330F930F15
:10298400291B242B24832581289F912D112496957E
:102994009695969530E1939FA0011124990F392FB4
:1029A400330F330F930F291B242B25839681989F74
:1029B400812D112486958695869540E1849F90010A
:1029C4001124880F382F330F330F830F981B922B4A
:0E29D400968347E0BF0180E00E94A41F089593
:1029E2008F929F92AF92BF92CF92DF92EF92FF921D
:1029F2000F931F93CF93DF93FC0124813581213004
:102A0200344008F05BC0EC012C813D81AC0160E8F0
:102A12008CE293E00E944C248C819D81811594402C
:102A220070F42C813D818C819D8140E054E0421BF9
:102A3200530B60E070E0845D9C4F0E94A827C12C7C
:102A4200D12C76016894C1F8812C912C54012FC0AD
:102A5200609158097091590980915A0990915B09C6
:102A620001E010E020E030E0A401445D5C4F0E94F0
:102A72005816882321F18091580990915909A09103
:102A82005A09B0915B090196A11DB11D80935809A5
:102A920090935909A0935A09B0935B0942E0940EAE
:102AA200A11CB11C81E0C81AD108E108F108C114C7
:102AB200D104E104F10461F681E001C080E0DF911C
:102AC200CF911F910F91FF90EF90DF90CF90BF9029
:082AD200AF909F908F900895D2
:102ADA001F920F920FB60F9211242F933F934F9389
:102AEA005F936F937F938F939F93AF93BF93EF936C
:102AFA00FF9386B58E5C88BD85B3846085BBEEE6A0
:102B0A00F0E08081846080832091900983B182FB08
:102B1A00882780F98093900990918709992331F049
:102B2A009BB190629BB91092870906C09BB19F7DA9
:102B3A009BB981E080938709809193098F5F809385
:102B4A009309813019F4109292092BC08A3038F413
:102B5A0080919209880F822B8093920922C0209338
:102B6A008F098BB18F7D8BB981E080938709E9E664
:102B7A00F0E09CE090838CB382608CBB90838CB332
:102B8A0082608CBB8DB382608DBBEEE6F0E0808103
:102B9A008B7F8083809192090E94FC1E83E0809340
:102BAA009109FF91EF91BF91AF919F918F917F9181
:102BBA006F915F914F913F912F910F900FBE0F90A0
:042BCA001F901895AB
:102BCE00CF93DF93EC0147E0BC0180E00E94041E2E
:102BDE00882309F463C09881292F22952F702770BE
:102BEE00220F322F330F330F230F9F70920F9883C4
:102BFE009981292F22952F702770220F322F330F94
:102C0E00330F230F9F70920F99839A8196FF11C0F5
:102C1E0094FB222720F9220F322F330F330F230F6D
:102C2E00392F3F70230F2A8395FF0FC0245F2A830D
:102C3E000CC0292F22952F702370220F322F330FA5
:102C4E00330F230F9F70920F9A839B8197709B83F4
:102C5E009C81292F22952F702370220F322F330F34
:102C6E00330F230F9F70920F9C839D8194FB22271D
:102C7E0020F9220F322F330F330F230F9F70920F35
:102C8E009D839E81292F22952F70220F322F330F75
:102C9E00330F230F9F70920F9C5E9E83DF91CF9117
:022CAE00089587
:102CB0008F929F92AF92BF92CF92DF92EF92FF924C
:102CC0000F931F93CF93DF934B015C01EA016801DF
:102CD00079010E942F2881E00E948B2781E0C8168D
:102CE000D104E104F10489F4B501A40188E10E9452
:102CF000A21A811137C060916809709169094EEF7D
:102D0000CE010E943019182F30C0B501A40189E10D
:102D10000E94A21A882319F027C06C017D016091DE
:102D20006809709169094CEFCE010E943019182F83
:102D30000E942F288091680990916909C80FD91FB6
:102D4000112349F0D701C6010197A109B109CD2886
:102D5000CE28CF2811F740E050E0BA018CE00E9465
:102D6000A21A03C010E001C010E080E00E948B278F
:102D7000812FDF91CF911F910F91FF90EF90DF9006
:0C2D8000CF90BF90AF909F908F9008956F
:102D8C008F929F92AF92BF92CF92DF92EF92FF926F
:102D9C000F931F93ECE2F7E0C48CD58CE68CF78C88
:102DAC0080A091A0A2A0B3A001E010E020E030E050
:102DBC004CE253E0C701B6010E943417882309F492
:102DCC0042C0F401E45DFC4F0091440710914507AB
:102DDC002091460730914707008311832283338368
:102DEC00148215821682178201E010E020E030E098
:102DFC004CE253E0C701B6010E945816882319F122
:102E0C00ECE2F7E080A191A1A2A1B3A10896A11DCB
:102E1C00B11D80A391A3A2A3B3A381159240A105D8
:102E2C00B10578F0848D958DA68DB78D0196A11D79
:102E3C00B11D848F958FA68FB78F10A211A212A2ED
:102E4C0013A20E9433241F910F91FF90EF90DF90FB
:0C2E5C00CF90BF90AF909F908F90089592
:102E68008F929F92AF92BF92CF92DF92EF92FF9292
:102E78000F931F93CF93DF934B015C01EA01680125
:102E880079010E942F2881E00E948B2781E0C816D3
:102E9800D104E104F10481F4B501A40181E10E94A7
:102EA800A21A811135C06091680970916909CE0133
:102EB8000E94751C182F2FC0B501A40182E10E9441
:102EC800A21A882319F026C06C017D016091680957
:102ED80070916909CE010E94751C182F0E942F2835
:102EE8008091680990916909C80FD91F112349F089
:102EF800D701C6010197A109B109CD28CE28CF284D
:102F080019F740E050E0BA018CE00E94A21A03C011
:102F180010E001C010E080E00E948B27812FDF9134
:102F2800CF911F910F91FF90EF90DF90CF90BF90BE
:082F3800AF909F908F90089567
:102F4000CF93DF9381110DC080910C0190910D0101
:102F5000A0910E01B0910F018A379A4DA747BA4B45
:102F600029F1CCE0D1E088E092E0FE019C011192D1
:102F700021503040E1F79D838C838AE79AEDA7E7E3
:102F8000BAEB88839983AA83BB830E94C51D6E8791
:102F90007F87888B998B8FEF8AA78B8B1C8A84E025
:102FA00090E00E949F270E94CE182AC0ECE0F1E03A
:102FB00017A211A610A612A615A616A680914A0160
:102FC00090914B01A0914C01B0914D01892B8A2B1E
:102FD0008B2BB1F410924A0110924B0110924C01CC
:102FE00010924D0111AE10AE13AE12AE15AE14AE6E
:102FF0008FE995E193AB82AB95AB84AB97AB86AB96
:0C3000008FEF80938609DF91CF91089537
:10300C00CF92DF92EF92FF926B017C0120E019C00E
:10301C00822F90E0AC01440F551F840F951F880F31
:10302C00991F092E000CAA0B85559D4FAF4FFC0123
:10303C005A2F0E944727C616D706E806F90618F439
:10304C002F5F273028F3273009F421506CB530E07E
:10305C00A901440F551FCA01820F931F880F991F96
:10306C000496092E000CAA0B85559D4FAF4FFC0101
:10307C008491A7FD80816C7F862B8CBD6DB5CA01B8
:10308C00820F931F880F991F0596092E000CAA0B0F
:10309C0085559D4FAF4FFC018491A7FD80816E7FBC
:1030AC00862B8DBD240F351F220F331F032E000CD2
:1030BC00440B25553D4F4F4FF901542F0E94472784
:0A30CC00FF90EF90DF90CF90089581
:1030D6000F931F93CF93DF93CDB7DEB7A8970FB6A5
:1030E600F894DEBF0FBECDBF29A33AA34BA35CA3C2
:1030F6006DA37EA38FA398A7FE01319689E1DF0118
:103106001D928A95E9F7BE016F5D7F4F80E80E94A8
:1031160023288C01892B39F442E851E066EF72E0EE
:1031260080E00E94BF24A80160E829E130E0CE01DA
:1031360001960E944C24BE01665E7F4FCE01019629
:103146000E94A321F89479A16AA15BA14CA13DA19B
:103156002EA19FA188A570934509609346095093B7
:103166004709409348093093490920934A099093A7
:103176004B0980934C097894CE014A960E947214AA
:10318600A8960FB6F894DEBF0FBECDBFDF91CF91E4
:063196001F910F91089546
:10319C00CF92DF92EF92FF928F3508F08EE5ECE044
:1031AC00F1E0858BC82ED12CE12CF12CAAECB8E0E7
:1031BC00A70196010E947527658F768F878F90A344
:1031CC00A4E9B1E10E94752761A372A383A394A320
:1031DC0081A192A1A3A1B4A1458D568D678D70A13B
:1031EC00841B950BA60BB70B880F991FAA1FBB1F2F
:1031FC00880F991FAA1FBB1F880F991FAA1FBB1FDF
:10320C00880F991FAA1FBB1F880F991FAA1FBB1FCE
:10321C00880F991FAA1FBB1F880F991FAA1FBB1FBE
:10322C00AC01BD01BB2324F441505C4F6F4F7F4F69
:10323C00032E3AE075956795579547953A95D1F7D2
:10324C00302D5093320140933101FF90EF90DF907D
:04325C00CF90089572
:10326000EF92FF920F931F93CF93DF9300D0CDB7D0
:10327000DEB78C017B014A8341E050E0BE016E5F06
:103280007F4F81E00E94CA208A818D3FE1F1A70132
:10329000B80181E00E94CA2000E010E00DC041E0CA
:1032A00050E0BE016F5F7F4F83E00E94CA2089819A
:1032B0008F3F31F40F5F1F4F0E3988E9180778F3FD
:1032C0000E39184911F189818F718983853081F018
:1032D00080E01EC041E050E0BE016F5F7F4F83E0A1
:1032E0000E94CA208981811109C00F5F1F4F02C04F
:1032F00000E010E00E3988E9180760F30E3918492C
:1033000031F081E005C081E003C080E001C080E0D1
:103310000F900F90DF91CF911F910F91FF90EF9041
:0233200008950E
:1033220078941F920F920FB60F9211242F933F930E
:103332004F935F936F937F938F939F93AF93BF93BB
:10334200EF93FF93609178007091790080914F091B
:1033520091E0980F90934F09953010F010924F0919
:10336200ACE7B0E05C9120914F0930E0F901EE0F3B
:10337200FF1F2E0F3F1F032E000C440B265E3C4FF7
:103382004F4FF901949147FD9081507E952B906C9F
:103392009C930E94D52480914F09811109C0EAE7CC
:1033A200F0E08081877F808381E080936C0905C093
:1033B200EAE7F0E0808188648083FF91EF91BF911A
:1033C200AF919F918F917F916F915F914F913F91BB
:0C33D2002F910F900FBE0F901F901895C8
:1033DE0078941F920F920FB60F9211248F939F9392
:1033EE00EF93FF9382E086BB8091840090918500DD
:1033FE008B5C934F9093890080938800EFE6F0E00A
:10340E0080818260808381E080930A0180918209AD
:10341E008F5F8093820980918209833078F01092B9
:10342E00820981E08093810980910B01813019F42A
:10343E0010920B0103C081E080930B0180917F09F4
:10344E008F3F29F080917F098F5F80937F09809154
:10345E007F098F3640F080917F098F5680937F09C8
:10346E0081E080931F0380918009882329F0809149
:10347E008009815080938009FF91EF919F918F91E8
:0A348E000F900FBE0F901F901895CD
:1034980080917609882309F450C0EDEEF0E0808130
:1034A80090E190839091EE0096FF12C0EEEEF0E06E
:1034B80090819F7B90831092760920915E093091CC
:1034C8005F092F5F3F4F30935F0920935E0933C038
:1034D8009091EE009F7189F01092EE00109276099B
:1034E80020916009309161092F5F3F4F3093610946
:1034F80020936009109272091EC09091760991502C
:103508009093760990917609911115C01092EE006A
:103518001092EF0010927209EEEDF0E090819D7F1D
:10352800908320916209309163092F5F3F4F309358
:0C3538006309209362098093ED00089560
:10354400DF92EF92FF920F931F93CF93DF93CDB748
:10355400DEB727970FB6F894DEBF0FBECDBF182F86
:10356400042FF52EE62ED72E88234CF440E050E0AD
:10357400BA0187E30E94A21A8F83823040F5812F1B
:103584008F7380648983DA82EB82FC820D8311233A
:1035940011F080E001C085E9183009F487E8816002
:1035A4008E8346E050E0BE016F5F7F4F81E00E9452
:1035B400CA201AE041E050E0BE01695F7F4F83E01A
:1035C4000E94CA208F81882314F4115099F72796FA
:1035D4000FB6F894DEBF0FBECDBFDF91CF911F9120
:0A35E4000F91FF90EF90DF90089523
:1035EE0088249924F401E401B0E49F93AA279A1544
:1035FE008B049C04ED05FE05CF05D007A10798F4BA
:10360E00AD2FDC2FCF2FFE2FE92D982C892E982F42
:10361E00872F762F652F542F432F322F2227B85006
:10362E0031F7BF9127C01B2EBF91BB27220F331F2F
:10363E00441F551F661F771F881F991F881C991CD2
:10364E00EE1FFF1FCC1FDD1FAA1FBB1F8A149B047A
:10365E00EC05FD05CE05DF05A007B10748F08A1879
:10366E009B08EC09FD09CE09DF09A00BB10B216007
:10367E001A94E1F62EF49401AF01BE01CD01000CB7
:02368E0008959D
:10369000DF93CF931F930F939A9DF02D219FF00DF1
:1036A0008B9DF00D8A9DE02DF10D039FF00D029F83
:1036B000E00DF11D4E9DE00DF11D5E9DF00D4F9D45
:1036C000F00D7F936F93BF92AF925F934F93D501AD
:1036D0000E9402278B01AC01D7010E940227EB0157
:1036E000E80FF91FD6010E94B1272F913F91D60113
:1036F0000E940227C60FD71FE81FF91FAF91BF9185
:103700000E94B1272F913F910E940227C60FD71F19
:10371000E81FF91FD6010E940227E60FF71F980144
:10372000BE01CF0111240F911F91CF91DF91089518
:103730000F93CF93C2E0C093E20084E08093E30054
:1037400082E18093E40000E020E030E047EA53E0CB
:1037500060E080E00E94730D20E030E047EA53E033
:1037600060E081E00E94730D20E030E047EA53E022
:1037700060E082E00E94730D20E030E047EA53E011
:1037800060E083E00E94730D20E030E047EA53E000
:1037900060E084E00E94730D20E030E047EA53E0EF
:1037A00060E085E00E94730D20E030E04FE953E0D7
:1037B00060E080E00E94730D8EEB8093DB00C0938D
:0C37C000D80010927609CF910F91089567
:1037CC000F931F93CF93DF938C01EB01892BF9F0AF
:1037DC0087E090E00E949F2790E0F801918380831E
:1037EC0088E090E00E949F2790E0982F8827F801AE
:1037FC0020813181822B932B9183808301978E3F83
:10380C009F4F28F08CEC97E7F801918380832097E9
:10381C00E1F085E090E00E949F2790E099838883F7
:10382C0086E090E00E949F2790E0982F88272881BF
:10383C003981822B932B9983888301978E3F9F4FDD
:10384C0020F084EF91E899838883DF91CF911F91C9
:04385C000F9108952B
:1038600078941F920F920FB60F9211242F933F93CB
:103870004F935F936F937F938F939F93AF93BF9378
:10388000EF93FF9396B180910701833021F08091EF
:1038900007018230C9F491FF17C088B18F7E88B9C3
:1038A00080910701833019F481E00E941928EBE62A
:1038B000F0E080818D7F8083E8E6F0E080818D7F7D
:1038C000808381E080931703FF91EF91BF91AF91C7
:1038D0009F918F917F916F915F914F913F912F9128
:0A38E0000F900FBE0F901F90189577
:1038EA00CF92DF92EF92FF920F931F93CF93DF93C2
:1038FA000F92CDB7DEB77C016B0100E010E101C089
:10390A00890141E050E0BE016F5F7F4F83E00E9472
:10391A00CA2089818E3F29F0980121503109012B53
:10392A0079F78E3FB9F4A601B70183E00E94CA2055
:10393A0041E050E0BE016F5F7F4F83E00E94CA20E2
:10394A0041E050E0BE016F5F7F4F83E00E94CA20D2
:10395A0081E001C080E00F90DF91CF911F910F911C
:0A396A00FF90EF90DF90CF900895DA
:1039740080910401823049F128F4882341F0813098
:1039840091F032C0833061F18430A9F12DC085B14A
:103994008F7E85B981E08093040180E00E94A017A6
:1039A4000E94CC27089585B18F7E85B980E00E945E
:1039B400A01782E08093040181E080938009ECE009
:1039C400F1E08FEF838B148A08958091800981112F
:1039D40012C085B1806185B983E0809304010895A4
:1039E40084E080930401089540E752E067E472E0C4
:0839F40080E00E94BF24089549
:1039FC0078941F920F920FB60F9211242F933F932E
:103A0C004F935F936F937F938F939F93AF938CB3ED
:103A1C0088608CBB2091450930914609409147093B
:103A2C00509148096091490970914A0980914B095C
:103A3C0090914C09A1E00E945327209345093093A3
:103A4C00460940934709509348096093490970937C
:103A5C004A0980934B0990934C09AF919F918F9198
:103A6C007F916F915F914F913F912F910F900FBE6E
:063A7C000F901F90189549
:103A8200A9E1B0E0E7E4FDE10C947C232C01BC0148
:103A920080E80E947C0E39014A0159016A01E12C39
:103AA200F12C00E010E00E94C327F9F41A8A198A67
:103AB2001B8A1C8A1D8A1E8A23EB33E040E02F8B6F
:103AC200388F498F8E010F5F1F4F9301482D0E943F
:103AD200DC0197FD0AC089E1F801D20101900D9243
:103AE2008A95E1F7B301C4010AC08FE490E0909394
:103AF2000101809300016FEF7FEF8FEF9FEF6996D7
:063B0200E0E10C94B32386
:103B0800CF930E94CE10C82F8823C1F10E940223B0
:103B1800811122C0ECE2F7E088ED91E0DF019C0121
:103B28001D9221503040E1F781E090E0A0E0B0E044
:103B380084879587A687B787808F918FA28FB38F49
:103B480084E090E0A0E0B0E0848F958FA68FB78FD7
:103B58000E943324882389F0809144079091450777
:103B6800A0914607B0914707809358099093590947
:103B7800A0935A09B0935B0901C0C82F8C2FCF912D
:023B880008959E
:103B8A00CF92DF92EF92FF9280E090E00E949F270F
:103B9A00C82ED12CE12CF12C81E090E00E949F27C5
:103BAA0090E0A0E0B0E0BA2FA92F982F8827C82A62
:103BBA00D92AEA2AFB2A82E090E00E949F2790E015
:103BCA00A0E0B0E0DC0199278827C82AD92AEA2A86
:103BDA00FB2A83E090E00E949F2790E0A0E0B0E0FB
:103BEA00B82FAA2799278827BC01CD016C297D29DE
:0E3BFA008E299F29FF90EF90DF90CF900895C5
:103C0800FF920F931F93CF93DF93F82E8B01C42F4E
:103C1800411107C04FE550E066EF72E080E00E9476
:103C2800BF2441E060E08EED0E94BE22D82F882399
:103C3800E9F08F2D0E946F1FD82F8823B9F040E03C
:103C480061E08EED0E94BE22D82F811108C00EC0FF
:103C580081E00E94BF1EF80181938F01C150C230DC
:103C6800B8F780E00E94BF1EF80180830E94662595
:0E3C78008D2FDF91CF911F910F91FF90089536
:103C8600CF93DF93DC01FB0189E1EB0119928A9561
:103C9600E9F78C9190E09183808311968C9111972E
:103CA60090E09383828312968C91129790E095838D
:103CB600848314968C91149790E097838683159647
:103CC6008C91159790E001979187808716968C9135
:103CD600843130F490E08C5C974F9387828705C0DF
:103CE60090E08053984F93878287828593858C5680
:0C3CF600974093878287DF91CF9108955B
:103D0200EF92FF920F931F93CF93DF930F92CDB752
:103D1200DEB77C0181E00E948B2740E050E0BA01CF
:103D220089E00E94A21A082F81111CC018E001C06C
:103D3200182F41E050E0BE016F5F7F4F83E00E9489
:103D4200CA2089818E3F29F08FEF810F1111F0CFA8
:103D520001C0812F882331F040E150E0B70183E0B8
:103D62000E94CA2080E00E948B27802F0F90DF9153
:0C3D7200CF911F910F91FF90EF900895EA
:103D7E001F93CF93DF93182F8AB18D7F8AB98BB1A2
:103D8E0082608BB9C8E0D0E00EC0DD0F8BB18160D0
:103D9E008BB90E94F3274999D1608BB18E7F8BB975
:103DAE000E94F327C150C111F0CF8AB182608AB947
:103DBE00112321F08BB18D7F8BB903C08BB1826043
:103DCE008BB90E94F3278BB181608BB90E94F327C8
:103DDE008BB18E7F8BB90E94F3278BB18D7F8BB900
:0A3DEE008D2FDF91CF911F910895F2
:103DF800E0917D0921E02E0F20937D09F0E0E05B42
:103E0800F64F808380916609909167090196909397
:103E1800670980936609243038F110927D098091F2
:103E28007E098C3608F5E82FF0E07596EE0FFF1F37
:103E3800EE0FFF1FE45FFE4FA0E5B9E04D915D91E5
:103E48006D917C91139741835283638374831D9290
:103E58001D921D921C9213978F5F80937E0980910B
:0A3E68007C098F5F80937C090895A8
:103E7200A0E0B0E0EFE3FFE10C948023EA01FB0154
:103E8200582F0E9447274B015C01C12CD12C76018F
:103E92008E019B01A50160E070E080E090E00E944D
:103EA200DC0197FF09C08FE490E0909301018093B9
:103EB200000180E090E00DC0198A188A1A8A1B8AD4
:103EC2001C8A1D8A8FEA93E0A0E08E8B9F8BA88FBD
:0C3ED200CE01CDB7DEB7ECE00C94B723B6
:103EDE00CF93DF93D82F8AB182608AB9C8E015C01C
:103EEE00DD2324F48BB182608BB903C08BB18D7F3F
:103EFE008BB98BB181608BB90E94F3278BB18E7F0A
:103F0E008BB90E94F327DD0FC150C111E9CF8AB1E1
:103F1E008D7F8AB98BB182608BB98BB181608BB981
:103F2E000E94F327499BC1E08BB18E7F8BB90E9413
:0A3F3E00F3278C2FDF91CF91089537
:103F4800FF920F931F93CF93DF93F82E8B01C42F0B
:103F5800411107C042E950E066EF72E080E00E943C
:103F6800BF2441E060E08EED0E94BE22D82F882356
:103F780099F08F2D0E946F1FD82F81110BC00CC094
:103F8800F80180810E946F1FD82F882329F00F5FC6
:103F98001F4FC150C111F4CF0E9466258D2FDF91AC
:0A3FA800CF911F910F91FF90089533
:103FB2008F3F2FEF920729F1282F2F7094FF02C015
:103FC200906F01C09F77AC015595479555954795E0
:103FD200559547955595479534E6349FC001359FD1
:103FE200900D112430E040E0265F3C4F4F4FF90125
:103FF200249147FD2081820F911D81569A4E21E026
:1040020001C020E06115710519F0FB0191838083E5
:04401200822F08955C
:10401600CF93DF93EC0190E026C0A92FB0E09D017D
:10402600220F331F2A0F3B1F032E000C440B2B526B
:104036003D4F4F4FF901542F0E94E4276C177D071F
:1040460089F4CD01880F991F8A0F9B1F0296092EAE
:10405600000CAA0B8B529D4FAF4FFC018491A7FD1C
:10406600808104C09F5F9B30C0F283E1DF91CF91D6
:024076000895AB
:10407800689401C0E894F92FF12B12F00C942327CF
:10408800A0E0B0E0EAE4F0E20C948023092E059465
:1040980022F40E94F226112392F4F0E80F26FFEF93
:1040A800E094F09400951095B094C094D094A194A5
:1040B800BF0ACF0ADF0AEF0AFF0A0F0B1F0B0E9485
:1040C800F71A07FC0E94F226CDB7DEB7ECE00C9495
:0240D800B7230C
:1040DA00FB01DC01B3702BED36EA43E250E00E94AB
:1040EA007527DC01CB01072E7AE0B695A79597953F
:1040FA0087957A95D1F7702D9F5FAF4FBF4F072EE7
:10410A0079E0B695A795979587957A95D1F7702D09
:10411A009C0101978E3F9F4F10F481E003C080E01D
:0E412A0020E030E0309711F0318320830895BB
:104138001F920F920FB60F9211248F93EF93FF9354
:1041480080919109882311F08330C1F486B5855B8D
:1041580088BD85B3846085BBEEE6F0E0808184602D
:1041680080838DB38D7F8DBB8BB180628BB91092AC
:10417800870981E08093910910929309FF91EF914B
:0C4188008F910F900FBE0F901F901895A4
:10419400FB01833071F408C02FEF2EBD0DB407FE70
:1041A400FDCF2EB52193AC01CA010197452BA1F790
:1041B4000895813061F406C021912EBD0DB407FE2F
:1041C400FDCFAC01CA010197452BB1F708958230A8
:1041D40051F405C0EEBD0DB407FEFDCFAC01CA011C
:0841E4000197452BB9F708957E
:1041EC008091580990915909A0915A09B0915B0995
:1041FC0080FF0CC08E7F0296A11DB11D80935809C3
:10420C0090935909A0935A09B0935B09809158096E
:10421C0090915909A0915A09B0915B090197A10994
:10422C00B10980933C0790933D07A0933E07B09350
:08423C003F070E94332408959E
:10424400CF92DF92EF92FF920F931F93CF93DF935E
:104254008C016A017B01C0E00FC0B701A601C8014F
:104264000E94E623D82F882349F060E177E280E0BA
:1042740090E00E94F721CF5FC43678F3C43609F486
:10428400D0E88D2FDF91CF911F910F91FF90EF9088
:06429400DF90CF900895B9
:10429A0080918B09811123C080919109811121C0DC
:1042AA0082E080938B091092880910928E0981E02E
:1042BA008093890986B58E5C87BD85B3826085BB8C
:1042CA00EEE6F0E08081826080830E94CF268093B0
:1042DA008C090E94982280938D0981E0089580E0DC
:0642EA00089580E0089534
:1042F000E894DF93CF93FC01DB010E9402277F93B8
:104300006F93E9019A01AC01BF93AF933F932F9351
:10431000DF010E94022726F46C1B7D0B820B930B9E
:104320009E01EB01FC010E94B127AF91BF912F913B
:104330003F910E94B127BE01CF01F9012F913F911A
:06434000CF91DF9108950A
:10434600CF93DF93DC01FB0187E0EB0119928A959D
:10435600E9F78C91808312968C911297818314963B
:104366008C911497828316968C911697848318964F
:104376008C91189785831A968D919C911B97883CF2
:1043860091051CF08453868302C0805D8683DF918D
:04439600CF91089526
:10439A00ECE2F7E084899589A689B7890196A11D7F
:1043AA00B11D848B958BA68BB78B80915809909100
:1043BA005909A0915A09B0915B09808F918FA28FF8
:1043CA00B38F80FF0CC08E7F0296A11DB11D809312
:1043DA00580990935909A0935A09B0935B090E940E
:0443EA00C616089556
:1043EE00AB01BC014F5F5F4F6F4F7F4F7695679567
:1043FE005795479596B517C086B59817E9F326B524
:10440E00822F891B90E0A0E0B0E0481759076A0799
:10441E007B0728F0481B590B6A0B7B0B03C040E04F
:10442E0050E0BA01922F411551056105710521F732
:02443E000895DF
:1044400014BC92E095BDA4E6B0E08C91877F8C937C
:104450001092800084E08093810096BB809184005C
:10446000909185008B5C934F909389008093880096
:10447000EFE6F0E08081826080838C918F7E8C9368
:10448000AEE6B0E08C918E7F8C9380818E7F8083AE
:0244900008958D
:104492001F920F920FB60F9211242F933F934F93B7
:1044A2005F936F937F938F939F93AF93BF93EF939A
:1044B200FF9349E053E067E472E080E00E94BF248A
:1044C200FF91EF91BF91AF919F918F917F916F91EA
:1044D2005F914F913F912F910F900FBE0F901F90C0
:0244E20018952B
:1044E40078941F920F920FB60F9211242F933F933B
:1044F4004F935F936F937F938F939F93AF93BF93E8
:10450400EF93FF938BB10E943B27FF91EF91BF91F3
:10451400AF919F918F917F916F915F914F913F9157
:0C4524002F910F900FBE0F901F90189564
:1045300080918809811110C081E00E942A25EAE655
:10454000F9E0908381838081882324F481E0809343
:104550008A0902C010928A09E0918809F0E0E659C0
:10456000F64F8081909188099F5F90938809909180
:0C4570008809923010F01092880908951C
:10457C00FF920F931F93CF93DF93F82E062F142FD8
:10458C00D3E0C0E00CC0D150602F8F2D0E941625B7
:10459C00C82F112341F0811102C00E942123C111A7
:1045AC0002C0D111F0CF8C2FDF91CF911F910F91C1
:0445BC00FF900895CF
:1045C000A1E21A2EAA1BBB1BFD010DC0AA1FBB1F17
:1045D000EE1FFF1FA217B307E407F50720F0A21B89
:1045E000B30BE40BF50B661F771F881F991F1A94F6
:1045F00069F760957095809590959B01AC01BD0120
:04460000CF01089549
:104604000F931F93CF9301E010E020E030E04CE2E1
:1046140053E060E070E0CB010E943417C82F882378
:1046240049F04CE253E060E828ED31E08CE297E099
:0E4634000E944C248C2FCF911F910F9108955E
:10464200CF938AB181608AB98AB182608AB9C0E4A3
:1046520011C08BB18E7F8BB98BB18D7F8BB90E94CC
:10466200F3278BB181608BB98BB182608BB90E94C9
:0C467200F327C150C111EDCFCF91089586
:10467E00CF93DF939C01EB01880F991F880F991F31
:10468E00092E000CAA0B85589D4FAF4FFC015A2FD7
:10469E000E944727CD2B39F02230310524F0605887
:0C46AE007E4A8E4F9F4FDF91CF91089500
:1046BA0060E87AE186E090E00E94061888B180649A
:1046CA0088B960ED77E080E090E00E94F72140E150
:1046DA0050E06FEF70E082E00E94CA2060ED77E060
:0A46EA0080E090E00E94F72108959F
:1046F4002F923F924F925F926F927F928F929F92EE
:10470400AF92BF92CF92DF92EF92FF920F931F93DB
:10471400CF93DF93CDB7DEB7CA1BDB0B0FB6F8948C
:08472400DEBF0FBECDBF0994FA
:10472C0085B78F7E85BF84B1886084B984B18B7F57
:10473C0084B985B18B7F85B98AB180628AB98BB116
:10474C0080628BB98DB38D7F8DBB10928B0985B137
:06475C00877F85B9089576
:104762002A88398848885F846E847D848C849B84FF
:10477200AA84B984C884DF80EE80FD800C811B810D
:10478200AA81B981CE0FD11D0FB6F894DEBF0FBE3C
:06479200CDBFED0108950A
:104798009C0160E971E00E943E25892B69F0C901FE
:1047A80064E670E00E943E25892B41F02370332790
:1047B800232B31F080E0089581E0089580E008958A
:0447C80081E00895EF
:1047CC00CF92DF92EF92FF92CF936A017B0181E04F
:1047DC000E948B27B701A60189EA0E94A21AC82F52
:1047EC0080E00E948B278C2FCF91FF90EF90DF9071
:0447FC00CF900895BD
:104800000F931F93CF938C0181E00E948B274AEA7C
:1048100051E060E070E088E00E94A21AC82FC80151
:104820000E94FA2780E00E948B278C2FCF911F9146
:044830000F91089547
:104834000F931F93CF938C0181E00E948B2740E05C
:1048440050E0BA018AE30E94A21AC82FC8010E944C
:10485400FA2780E00E948B278C2FCF911F910F9114
:024864000895B5
:104866000F931F934CE257E060E828ED31E08CE2AD
:1048760093E00E944C2401E010E020E030E04CE29E
:1048860053E060E070E0CB010E9458161F910F9133
:02489600089583
:10489800CF92DF92EF926A01E62EDC01280F391FD2
:1048A800A217B30751F0F6014491E7FC40814D93FC
:1048B8004FEFC41AD40AE40AF3CFEF90DF90CF90F9
:0248C800089551
:1048CA009091710991110DC090916F0991110BC0CE
:1048DA0090917609911109C020E00E945B0F81E056
:0E48EA00089580E0089580E0089580E008952C
:1048F800052E97FB1EF400940E94D42757FD07D07D
:104908000E94E02207FC03D04EF40C94D427509563
:0E4918004095309521953F4F4F4F5F4F0895CA
:104926008AB182608AB98BB182608BB98BB18160A2
:104936008BB90E94F3278BB18D7F8BB90E94F32729
:0C4946008BB18E7F8BB90E94F32708957F
:104952008BB181608BB98BB182608BB98AB1816076
:104962008AB98AB18D7F8AB98BB182608BB964E1D1
:0C49720070E080E090E00E94F7210895C2
:10497E005F934F938F937F936F9388E392E0A0E0C2
:10498E00AF939F938F930E94EC278DB79EB7089697
:0C499E000FB6F8949EBF0FBE8DBF0895A9
:1049AA00843019F491E09093160390E09C01220F51
:1049BA00331F820F931F845F9E4FFC01E95BFF4FF9
:0C49CA0071836083319721E02083089501
:1049D60084B1826884B984B18E7F84B985B18160DF
:1049E60085B983E58CBD1DBC85B78F7785BF60E82B
:0C49F6007AE186E090E00E940618089527
:104A020080916C09813081F410924F09ECE7F0E05B
:104A12008081807E896C808382E080936C09EAE7E2
:0A4A2200F0E08081886C8083089525
:104A2C00CF93DF93C82FD62F0E94A9240E949324E2
:104A3C00DD2319F08C2F816002C08C2F8E7F0E9499
:084A4C006F1FDF91CF91089567
:104A540090911803992351F0882359F01092180368
:104A640081E0809319038FEF93E0089580E090E84C
:084A740008958FEF93E008950F
:104A7C00AA1BBB1B51E107C0AA1FBB1FA617B70778
:104A8C0010F0A61BB70B881F991F5A95A9F7809594
:084A9C009095BC01CD010895C5
:104AA40097FB072E16F4009407D077FD09D00E94D7
:104AB4003E2507FC05D03EF4909581959F4F0895BF
:084AC400709561957F4F089584
:104ACC008BB18D7F8BB90E94F3278BB181608BB931
:104ADC000E94F3278AB18D7F8AB98BB182608BB922
:064AEC000E94F32708956B
:104AF2001F920F920FB60F92112489E795E28093CD
:104B0200790980916A008093780980916B00809383
:044B12007709FFCF51
:104B16001F920F920FB60F9211248BE895E28093A5
:104B2600790980916A008093780980916B0080935F
:044B36007709FFCF2D
:104B3A001F920F920FB60F9211248DE995E280937E
:104B4A00790980916A008093780980916B0080933B
:044B5A007709FFCF09
:104B5E001F920F920FB60F9211248FEA95E2809357
:104B6E00790980916A008093780980916B00809317
:044B7E007709FFCFE5
:104B82001F920F920FB60F92112481EC95E280933F
:104B9200790980916A008093780980916B008093F3
:044BA2007709FFCFC1
:104BA6001F920F920FB60F92112483ED95E2809318
:104BB600790980916A008093780980916B008093CF
:044BC6007709FFCF9D
:104BCA001F920F920FB60F92112485EE95E28093F1
:104BDA00790980916A008093780980916B008093AB
:044BEA007709FFCF79
:104BEE001F920F920FB60F92112487EF95E28093CA
:104BFE00790980916A008093780980916B00809387
:044C0E007709FFCF54
:104C12001F920F920FB60F92112489E096E28093B1
:104C2200790980916A008093780980916B00809362
:044C32007709FFCF30
:104C36001F920F920FB60F9211248BE196E280938A
:104C4600790980916A008093780980916B0080933E
:044C56007709FFCF0C
:104C5A001F920F920FB60F9211248DE296E2809363
:104C6A00790980916A008093780980916B0080931A
:044C7A007709FFCFE8
:104C7E001F920F920FB60F9211248FE396E280933C
:104C8E00790980916A008093780980916B008093F6
:044C9E007709FFCFC4
:104CA2001F920F920FB60F92112481E596E2809324
:104CB200790980916A008093780980916B008093D2
:044CC2007709FFCFA0
:104CC6001F920F920FB60F92112483E696E28093FD
:104CD600790980916A008093780980916B008093AE
:044CE6007709FFCF7C
:104CEA001F920F920FB60F92112485E796E28093D6
:104CFA00790980916A008093780980916B0080938A
:044D0A007709FFCF57
:104D0E001F920F920FB60F92112487E896E28093AE
:104D1E00790980916A008093780980916B00809365
:044D2E007709FFCF33
:104D32001F920F920FB60F92112489E996E2809387
:104D4200790980916A008093780980916B00809341
:044D52007709FFCF0F
:104D56001F920F920FB60F9211248BEA96E2809360
:104D6600790980916A008093780980916B0080931D
:044D76007709FFCFEB
:104D7A008091660990916709ECE0F1E094A783A716
:104D8A0080917C0985A71092670910926609109292
:044D9A007C090895F3
:104D9E0080918809811106C00E942A2590936B0983
:104DAE0080936A0980918809811102C081E008957B
:044DBE0080E00895F4
:104DC200CF9381E00E948B2740E050E0BA0180E05F
:104DD2000E94A21AC82F80E00E948B278C2FCF91AD
:024DE200089532
:104DE4006095709580959095309540955095219556
:104DF4003F4F4F4F5F4F6F4F7F4F8F4F9F4F0895E0
:104E0400A29FB001B39FC001A39F700D811D112407
:0E4E1400911DB29F700D811D1124911D0895F6
:104E220097FB57FF0C9479219F938F930E947921CE
:0E4E32006E1B7F0BAF91BF918A0B9B0B0895F7
:104E4000689401C0E8948F929F92CF93DF930E9461
:0C4E5000F71ADF91CF919F908F9008958A
:104E5C00A8950FB6F894A89580916000886180930E
:0A4E6C006000109260000FBE089570
:104E760086FD09C088B18F7E88B98EB18D7F8EB9C7
:084E860080E00E941928089544
:104E8E0057FD05C065917591859195910895619134
:084E9E00719181919191089539
:104EA6000024A7FD00942A0F301D401D501D601DD3
:084EB600701D801D901D089580
:104EBE00843040F48093050190910701891710F416
:064ECE0080930601089527
:104ED40010927D0910927E0910926709109266095A
:064EE40010927C09089504
:104EEA000E940227A59F900DB49F900DA49F800D4C
:064EFA00911D1124089532
:104F0000EC010E9431280E943028CE010E943228F4
:064F1000CE010E942D28D5
:104F1600882321F088B18F7B88B9089588B1806491
:044F260088B90895A9
:104F2A008CE0809369008CB382608CBB8DB3826005
:044F3A008DBB08958E
:104F3E00F999FECF92BD81BD8FB381608FBB80B5D5
:024F4E000895C4
:104F5000FC01480F591FE417F50711F06193FBCFCF
:024F60000895B2
:104F62000E940227460F571FC81FD91F08F4319607
:024F72000895A0
:104F74002A0D3B1D4C1D5D1D6E1D7F1D801F911F45
:024F840008958E
:104F86002A153B054C055D056E057F0580079107D3
:024F960008957C
:104F980081E080931E0310927B0980938309089512
:104FA80090958095709561957F4F8F4F9F4F08958D
:104FB800B7FF0C9475270E947527821B930B0895E1
:104FC80057FD03C065917591089561917191089598
:0E4FD800CF93DF93CDB7DEB7DF91CF91089571
:0E4FE6006AE070E080E090E00E94F7210895FC
:0E4FF40044E050E0BC0183E00E94CA20089512
:0E5002000E940227B7FF0895821B930B0895AA
:0C501000EAE7F0E080818068808308956A
:0C501C00E1E6F0E080E880831082089557
:0A50280090936509809364090895D0
:0A503200843010F480930601089505
:0A503C00109291090E946A2708955E
:0A50460044E059E00E94391F08956C
:0650500080912703089582
:045056000C940000B6
:04505A000E946B0045
:02505E000895B3
:025060000895B1
:025062000895AF
:025064000895AD
:00000001FF
