:100000000C9443000C94B0240C94C2240C94D4247B
:100010000C94E6240C94F8240C940A250C94632781
:100020000C94BE140C942E250C94611C0C94402549
:100030000C94A8190C9452250C9464250C941B1252
:100040000C94ED160C9476250C94B5120C9488251E
:100050000C9463270C949A250C941C250C94931BE8
:100060000C94B2210C94AC250C94BE250C944A1926
:100070000C9489210C94D0250C94E22501000102F6
:1000800080010409898011241FBECFEFD0E1DEBFBB
:10009000CDBFECE7F0E040E017C0B591A5913591F8
:1000A0002591059107FD0CC095918591EF01F92FE0
:1000B000E82F05900D92A217B307D9F7FE0104C0EF
:1000C0001D92A217B307E1F7E638F40731F70E9453
:0A00D0001A060C94C226F894FFCF24
:1000DA00525820416C6C2044652D526567697374CF
:1000EA006572202D206D6F64756C6520646572657C
:1000FA0067697374657265640D0A00525820416E0F
:10010A006E6F756E6365205265717565737420280C
:10011A00554E5245474953544552454429202D20AE
:10012A007363686564756C696E6720726573706F56
:10013A006E736520696E2025646D730D0A0052582E
:10014A0020416E6E6F756E636520526571756573B9
:10015A007420285245474953544552454429202D75
:10016A002069676E6F72696E670D0A0052582041E6
:10017A006E6E6F756E636520526571756573742056
:10018A002D20616C72656164792070656E64696E98
:10019A00670D0A0052582052656769737472617458
:1001AA00696F6E202D204D6F64756C652049443D42
:1001BA0025303278207265676973746572656420C8
:1001CA007375636365737366756C6C790D0A005297
:1001DA005820537461747573205265717565737410
:1001EA00202D2073656E64696E672073746174755F
:1001FA00730D0A00525820496E6469766964756104
:10020A006C2044652D5265676973746572202D20D0
:10021A006D6F64756C652049443D253032782064E1
:10022A0065726567697374657265640D0A00417366
:10023A00736572742025733A2025640A002E2E2FC6
:10024A002E2F6D61696E2E6300416E6E6F756E633F
:10025A00656D656E742064656C617920636F6D707D
:10026A006C657465202D2073656E64696E670D0A6E
:01027A000083
:10027B000000000080DE280080C84D0000A776003B
:10028B0000349E008012C700809FEE00007E170195
:10029B00805C400180E9670100C890010055B801FE
:1002AB0080841E00000140420F00000020A10700C7
:1002BB00010190D00300010048E80100020124F481
:0A02CB0000000201127A0000020098
:1002D50010050915050B14050C12050A1105051D58
:1002E500050D18050E1E050F1F051016051117051E
:0102F50012F6
:1002F6002E2E2F2E2F7274635F6D63703739343054
:040306006E2E6300F4
:10030A0000060C12191F252B32383E444B51575DFB
:0F031A000902050601050701060B00000B000094
:0C0329001F1C1F1E1F1E1F1F1E1F1E1F5B
:0C0335001F1E1F1E1F1F1E1F1E1F1F1D4E
:0B0341002E2E2F2E2F6164632E630010
:0B034C002E2E2F2E2F63616E2E6300FB
:0803570001000605FF0700008C
:08035F0001000105FF07000089
:0803670001000505FF0700007D
:08036F0001000805FF07000072
:0803770001000705FF0700006B
:08037F0001000405FF07000066
:0803870001000305FF0700005F
:08038F0001000205FF07000058
:0803970001000005FF07000052
:08039F00020000050007000048
:0803A7000000FF07FF07000042
:0403AF00474D540062
:0403B300474D54005E
:1003B800A6E1B0E0E2EEF1E00C94BA227901D42E85
:1003C800C52EB62FA72FF82FB92E40585D4B6E407B
:1003D8007F4F8F4F9F4F21153B474D415348624EEA
:1003E80071408105910511F008F008C2188B0F873C
:1003F8009B2D8F2F7A2F6B2F5C2D4D2D9701205819
:100408003D454C4B5843610971098109910919010E
:100418004D8359876D877983898B9A8BF0E8AF2E46
:10042800A1E5BA2ECC24C394D12CE12CF12C00E008
:1004380010E00E94AC1F29013A014B018E8B9B8B67
:1004480091014D8159856D85798189899A890E94A3
:10045800AA1F2D833E834F8358878D819E81AF814C
:10046800B885B7FF15C080589E4AAE4FBF4F8D83E1
:100478009E83AF83B8879201A301B4018E899B89BB
:10048800AFEF0E948A2629013A014B018E8B9B8B84
:100498009201A301B4018E899B89A3E00E948A2658
:1004A800E7E0AE2EB12CC12CD12CE12CF12C00E0D0
:1004B80010E00E94AA1F2D873E87AD85BE85B7FF35
:1004C80003C01796BE87AD8751EBA52E6AE3B62EFB
:1004D80072E0C72ED12CE12CF12C00E010E0920143
:1004E800A301B4018E899B890E94AC1F29873A8792
:1004F8004B875C879201A301B4018E899B890E9476
:10050800AA1F822E932EA42EB52EB7FE12C0B1EBD1
:100518008B0EBAE39B1EB2E0AB1EB11C89859A858F
:10052800AB85BC850197A109B10989879A87AB87F3
:10053800BC87C501B4012CEA3EE840E050E00E94C7
:10054800A22369017A01243031054105510529F4B6
:1005580043E0C42ED12CE12CF12CA4E5B1E7A7018E
:1005680096010E9417272B013C01480C591C6A1C54
:100578007B1CC301B20125EB35E040E050E00E944E
:10058800A22349015A01293131054105510529F4B0
:1005980038E1832E912CA12CB12CABE4BAEFA50144
:1005A80094010E941727460E571E681E791EC30124
:1005B800B2012DE631E040E050E00E94A2232983F9
:1005C8003A834B835C83243031054105510541F45E
:1005D80083E090E0A0E0B0E089839A83AB83BC839A
:1005E800A3E9BEEF29813A814B815C810E941727DC
:1005F800460E571E681E791E232B242B252B81F4AB
:1006080081149104A104B10471F431E020E0C11413
:10061800D104E104F10409F030E0832F922F05C0E2
:1006280080E090E002C081E090E01201ABE32A0E86
:10063800311C280E391E9C0124593E4F22153305C2
:1006480024F483599E4F281A390A92E0880C991C81
:10065800AA1CBB1C9A95D1F789819A81AB81BC8170
:10066800880E991EAA1EBB1EA4E6B0E0A70196013B
:100678000E94B726860E971EA81EB91ED501C40172
:10068800BB0F880B982FDC0189839A83AB83BC83CB
:1006980069857A858B859C8520E931E040E050E0CA
:1006A8000E944826F22FE32F6A017B018C019401F6
:1006B800A5016981762F862F962FAF2EBE2E0E9418
:1006C800F22649015A016B017C0125E333E040E041
:1006D8001A821982F901849147FD8081082E000C45
:1006E800990BAA0BBB0B2F5F3F4F4F4F481659066C
:1006F8006A067B0654F0481A590A6A0A7B0AA981D5
:10070800BA811196BA83A983E5CFE981FA81EA30E3
:10071800F10574F03C97FA83E9839401A501B601C9
:10072800C701A1E00E948A2649015A016B017C0198
:100738009401A501B601C7012C593F474F4F5F4FA0
:100748006F4F7F4F8F4F9F4F2F3F3F4F41055105B1
:10075800610571058105910511F008F04FC024E687
:10076800820E911CAF85B8891B969C928E921A971F
:10077800E981FA8132961996FC93EE931897FFEF68
:100788004F1A5F0A17965C924E9216978D859E8532
:100798001D969C938E931C971F963C922E921E97A3
:1007A8006D817E818F81988520E13EE040E050E0B8
:1007B8000E94A223AF85B88915963C932E9314976F
:1007C8008CE3C82ED12CE12CF12C6D817E818F8198
:1007D8009885A70196010E94A2234B015C01CA01DA
:1007E800B901A70196010E94A223EF85F8897383B6
:1007F80062839182808280E090E002C08FEF9FEF59
:080808006696E2E10C94D62291
:10081000CF92DF92EF92FF920F931F93CF93DF93CC
:1008200000D000D0CDB7DEB78C01809120038823A3
:1008300069F088E0D8011D928A95E9F748E0B8018F
:1008400088E00E94962681111092200380911E0359
:10085000882309F406C180916E09811180C08091BE
:1008600007018F70F8018083809126038183809136
:100870002503828380912501838384E03496DF0100
:100880001D928A95E9F780915801882379F080912B
:100890005B01882371F080910701833069F40E9425
:1008A000411380913F019091400108C080E090E8A1
:1008B00005C080E090E802C080E090E8F801848301
:1008C000958380915501882379F08091560190910C
:1008D00057014FEF53E060E070E09A01AB01281B35
:1008E000390B4109510903C020E030E0A901E0E1E2
:1008F000F1E0A5A1B6A10E941427DC01CB01689408
:1009000016F8B695A795979587951694D1F7C58C47
:10091000D68CE78CF0A0BC01CD016C0D7D1D8E1D29
:100920009F1D2FE030E040E050E00E942022209305
:100930005101309352014093530150935401D80117
:1009400016962C93169717963C9348E0B80181E0D1
:100950000E949626882309F46BC081E070C0813024
:10096000C1F5E0E1F1E081AD92ADD8018C9381ADAC
:1009700092AD11969C93119787A990AD12968C9386
:10098000129787A990AD13969C93139783AD94AD5E
:1009900014968C93149783AD94AD15969C936091A7
:1009A0004D0170914E0180914F01909150012FE0C7
:1009B00030E040E050E00E942022F8012683378397
:1009C00048E0B80182E00E949626882399F181E0F0
:1009D00036C0823089F5E0E1F1E083A994A9D8011D
:1009E0008C9383A994A911969C93119781A992A99C
:1009F00012968C93129781A992A913969C931397A0
:100A000085A996A914968C93149785A996A91596ED
:100A10009C93159716961C92169717961C9248E071
:100A2000B80183E00E949626882341F081E007C048
:100A300080E005C080E003C081E001C080E0882341
:100A400081F080916E098F5F80936E09833048F04A
:100A500010926E0910921E031092760981E0809325
:100A60001B0380911D03882309F48CC01C821B8208
:100A70001A8219829091250180912303891788F5A4
:100A8000E0912303F0E07596EE0FFF1FEE0FFF1FBE
:100A9000E05FFE4F80819181E0912303F0E0759645
:100AA000EE0FFF1FEE0FFF1FE05FFE4FE280F380AF
:100AB000BE016D5F7F4F0E94DB1F811102C01C824F
:100AC0001B8260E070E0C7010E945F1E882339F03E
:100AD000BE016F5F7F4FC7010E945F1E02C01A8276
:100AE000198280912303F8018083809125018183FD
:100AF00099818A81928383832B813C8124833583EE
:100B00002115310559F0C90164E070E10E946224A9
:100B100084E6689F602D1124668301C01682E0E19F
:100B2000F1E047A950AD81AD92AD8417950798F4D7
:100B30002115310581F067A970AD81AD92AD681BBB
:100B4000790BC9010E94622484E6689F602D1124FC
:100B5000F801678303C0D80117961C9248E0B801DA
:100B600084E00E949626882369F0809123038F5F9A
:100B7000809323039091230380912403981710F00E
:100B800010921D0380911B03882389F1E0E1F1E0BD
:100B90008389D8018C93848911968C93119780A5B1
:100BA00091A512968C93129780A591A513969C936C
:100BB000139786A514968C93149782A58F3F31F0D6
:100BC00085A592A5891B15968C9303C08FEFF8011C
:100BD0008583D80116961C92169717961C9248E0AA
:100BE000B80186E00E949626811110921B03809125
:100BF0001C03882391F0B801C80102960E94491B8A
:100C0000F801148215821682178248E0B80185E047
:100C10000E949626811110921C030F900F900F9046
:100C20000F90DF91CF911F910F91FF90EF90DF9088
:040C3000CF900895C4
:100C3400CF93DF93CDB7DEB728970FB6F894DEBF16
:100C44000FBECDBF0E94652688B18F7E88B987B15B
:100C5400806187B987B18D7F87B987B1806887B98B
:100C640088B18F7E88B98DB182608DB98EB18D7F48
:100C74008EB984B1806184B985B18F7E85B9E0E095
:100C8400F8E002C08AEA8193E11580E1F807D0F325
:100C940084B780936D0980916D0983FF0AC08091A8
:100CA4002803E0E1F1E082898F5F828B0E944E0C81
:100CB40047C080916D0980916D0980916D09F89408
:100CC4000E9446270E9460210E948A230E947D116F
:100CD4000E94E71C8093080181E00E94591789E073
:100CE40090E00E94D72680930A018AB18F7B8AB94B
:100CF4008BB180648BB911E01BBB82E08BBB84E0B9
:100D04008BBB88E08BBBECE6F0E080818064808361
:100D14008BB384608BBB89EC98E00E944C270E94C3
:100D2400FB1A0E943D0B85E0809307011092060197
:100D340010920501109221031092040110930C01EA
:100D4400789480910B018823E1F310920B01809138
:100D54002103811122C080917809882311F18091A7
:100D64007709882329F08091770981508093770946
:100D740080917709811115C081E08093220310923C
:100D8400780983E592E0A0E0AF939F938F930E944C
:100D940024270F900F900F9004C0CE0101960E945B
:100DA400080480911F03882381F010921F0310927E
:100DB4002703109221031092760981E08093220385
:100DC4000E94042780E00E945127EFE6F0E0908122
:100DD40080818D7F808380910C01209174099083A0
:100DE400813009F061C0222309F455C010927409BE
:100DF4000E941D1C0E94F425CE0101960E947407D6
:100E040080910401843029F5E0E1F1E095A585891C
:100E14009817E9F0809125018823C9F080910A018F
:100E24008823B9F080910A018F3F99F080910901DC
:100E34008F5F809309019091090180910A019817AD
:100E440040F081E0809304011092090102C01092E5
:100E54000901809122038823F1F086E5898380E2E9
:100E64008A8382E08B8383E08C8380911E0190913E
:100E74001F01A0912001B09121018D839E83AF8336
:100E8400B88748E0BE016F5F7F4F80E00E949626DE
:100E94008111109222030E944E0C80911703882323
:100EA400B1F01092170313C0222389F01092740931
:100EB4000E941D1C80E00E94591780910401843017
:100EC40031F40E944E240E9456270E948D20809166
:100ED4001603882321F0109216030E9441130E94E6
:040EE40011242FCFD7
:100EE8003F924F925F926F927F928F929F92AF92B2
:100EF800BF92CF92DF92EF92FF920F931F93CF93FF
:100F0800DF9300D000D000D0CDB7DEB780913B0191
:100F180090913C01892B09F420C1E0E1F1E08FEFC9
:100F280082A7938985A5891728F485A5838B81E0F5
:100F380080931B03E0E1F1E0948985A5981728F4D4
:100F480085A5848B81E080931B0380913B01909160
:100F58003C0183709927892B61F080913E018F3F76
:100F680041F0E0E1F1E086A58F5F86A781E08093FC
:100F78001B03E0E1F1E010AE17AA8FEF9FEF92AFED
:100F880081AF14AE13AE80E090E892AB81AB8FEFE7
:100F98009FE794AB83AB16AA15AAD12C312CC12C90
:100FA800412C512C3201812C912C54012FEF3FE719
:100FB8003E832D8380E090E89C838B836BC00D2D4E
:100FC80010E0F8017596EE0FFF1FEE0FFF1FE05FB0
:100FD800FE4F808191819A838983E280F38060E06B
:100FE80070E0C7010E945F1E8823F1F0F4FE03C081
:100FF800C701906F02C0C7019F772B813C812817DA
:10100800390714F49C838B832D813E8182179307C3
:1010180014F49E838D83092E000CAA0BBB0B880E3B
:10102800991EAA1EBB1E3394F8017596EE0FFF1F7A
:10103800EE0FFF1FE05FFE4F8081918199231CF422
:1010480081E080933701BE016F5F7F4F89819A816C
:101058000E94DB1F8823E9F0209147013091480165
:1010680089819A812817390720F490934801809341
:1010780047012091490130914A018217930720F4D2
:1010880090934A0180934901480E591E611C711CB6
:10109800C394D39480913D01D81608F490CFCC2006
:1010A80089F1EDE4F1E040825182628273826081CD
:1010B8007181828193812C2D30E040E050E00E94C4
:1010C800202230934C0120934B01809107018330FB
:1010D800C9F080911903811115C0E0E1F1E027A959
:1010E80030AD81AD92AD2817390760F087A990AD72
:1010F80021AD32AD821B930B8034910518F081E04D
:1011080080931A033320C9F0232D30E040E050E0EB
:10111800C501B4010E94A22365E471E0C9010E94DF
:101128005F1E61E471E08B819C810E945F1E63E415
:1011380071E08D819E810E945F1E80910801882345
:1011480051F080910701882331F080E191E00E94FD
:101158004214809308010E94042726960FB6F8943B
:10116800DEBF0FBECDBFDF91CF911F910F91FF90D2
:10117800EF90DF90CF90BF90AF909F908F907F902F
:0A1188006F905F904F903F90089524
:10119200CF92DF92EF92FF92CF93FB0190912103C6
:1011A20010927209823129F480818F700E94A126E7
:1011B20032C18F30A9F48AED90E0A0E0AF939F9303
:1011C2008F930E94242710922703109221031092DA
:1011D200760980E00E9451270F900F900F901BC15B
:1011E200803121F480E00E94512715C1813159F4E8
:1011F2002081318142815381648175818681978109
:101202000E94241808C18D3009F04FC0809121033B
:1012120081112FC08091780981112BC0C0901E01CD
:10122200D0901F01E0902001F09021011F92CF92F7
:1012320085E091E0A0E0AF939F938F930E942427D3
:101242008DECC89EC12C1124C694C694C694C0923B
:101252007709809177090F900F900F900F900F9060
:10126200811103C081E08093770981E0809378093E
:10127200D2C080912103882361F088E491E0A0E04C
:10128200AF939F938F930E9424270F900F900F90FC
:10129200C2C086E791E0A0E0AF939F938F930E9434
:1012A20024270F900F900F90B6C0893009F03FC0ED
:1012B200483009F0B0C0F0808281823009F0ABC0C2
:1012C2008381833009F0A7C040911E0150911F0114
:1012D200609120017091210184819581A681B7815D
:1012E200481759076A077B0709F095C010927209DF
:1012F200F09227030E940427C1E0C0931C03C0930D
:1013020021031F92FF928EE991E0A0E0AF939F9399
:101312008F930E9424271092780910927709C09324
:1013220020030F900F900F900F900F9074C04423E2
:1013320009F471C02081911108C08A3009F06BC094
:1013420090912103992309F466C0909127032913F0
:1013520062C08A30A9F4413009F05DC080917609FB
:10136200811159C089ED91E0A0E0AF939F938F93D3
:101372000E9424270E9404270F900F900F904BC0C9
:101382008B30F1F4433009F046C080911D03811186
:1013920042C08181909125018917E8F5809323034A
:1013A20090912303909324038F3F31F48091250180
:1013B200809324031092230381E080931D032BC0AA
:1013C2008C3049F410927209423029F581818F7074
:1013D2000E94512720C0853021F481E080931C03B4
:1013E2001AC08E30C1F41F922F938EEF91E0A0E0CD
:1013F200AF939F938F930E942427109227031092FA
:1014020021031092760980E00E9451270F900F90DD
:101412000F900F900F90CF91FF90EF90DF90CF90B1
:0214220008952B
:10142400ACE0B0E0E8E1FAE00C94BA2249015A01D8
:101434006B017C011C830B832A383105410551055E
:10144400610571058105910511F00CF042C0F901A7
:10145400E454F109F595E795F595E795C90183708D
:101464009927892B51F431970115110569F081E011
:1014740090E0D8018D939C9307C08B819C81009749
:1014840019F0DC011D921C92D901A654B10920E87F
:1014940033E341EE51E00E9414276B017C01DF012C
:1014A40020E831E541E050E00E941427DC01CB0143
:1014B4008C0D9D1DAE1DBF1D9C01AD016C017D01F8
:1014C400FF0CCC08DC2C7601AC2DFC2DEC2D9C2DD6
:1014D400CBC0EB81FC81EF2B31F41A821982CE014F
:1014E40001969C838B83C4018456910960E971E061
:1014F4000E9476247E836D839401A501B601C70101
:10150400ACE90E948A2619012A013B018F8398873E
:1015140070E9A72EBB24B394C12CD12CE12CF12C5F
:1015240000E010E09101A201B3010E94AA1FC901C9
:10153400009759F481E090E0AB81BC818D939C933A
:1015440020E030E040E050E033C0283C31056CF04E
:101554002C3231402CF08C52914043E050E00CC0CE
:10156400885C910942E050E007C0243631056CF0F4
:101574008456910941E050E0009749F4EB81FC81E5
:101584001182108220E030E013C040E050E09C0162
:1015940036952795369527958370992761E070E0F5
:1015A400892B11F060E070E0AB81BC816D937C937A
:1015B40081E6ED81FE818E9FB0018F9F700D112415
:1015C400E8E1E49FC001E59F900D1124860F971F69
:1015D400AB81BC814D915C91841B950B820F931F51
:1015E400E92FEE0FEE0B20E8A22E31E5B32ECC242A
:1015F400C394D12CE12CF12C00E010E09C014E2F7F
:101604005E2F6E2F7E2F8E2F9E2F0E94AB1A922E4E
:10161400832E4B835D8369877A878B879C8743E31B
:10162400B42E51EEC52EDD24D3949101A201B30151
:101634008F8198850E94AB1A59016A017B018C0144
:10164400292D382D4B815D8169857A858B859C8513
:101654000E94F2263B564149574C6F4F7F4F8F4FA4
:101664009F4FA62FF72FE82F6A2F7F2F8E2F2C96B0
:06167400E2E10C94D62215
:10167A00FF920F931F93CF93DF93CDB7DEB7A19756
:10168A000FB6F894DEBF0FBECDBF198241E0BE018E
:10169A006F5F7F4F87E00E94441F182F882309F449
:1016AA00EBC080E8898341E0BE016F5F7F4F80E035
:1016BA000E94441F182F811117C0DEC0198241E011
:1016CA00BE016F5F7F4F83E00E94671D182F88233A
:1016DA0009F4D2C0898185FD0AC060E070E0CB01BF
:1016EA000E9437210F5F01C000E0083C38F3083C34
:1016FA0008F0C2C089818860898341E0BE016F5FBA
:10170A007F4F83E00E94441F182F882309F4B4C036
:10171A0041E0BE016F5F7F4F82E00E94671D182F74
:10172A00882309F4A9C089818F7B898341E0BE019E
:10173A006F5F7F4F82E00E94441F182F882309F4AD
:10174A009BC0CE0102960E943415182F882309F4F3
:10175A0093C08A818C3310F410E001C011E08B81B0
:10176A008C3308F011E08C818C3308F011E08D8104
:10177A008150873008F011E02F818FEF820F8C3073
:10178A0018F50E81002311F1822F90E00197092E9E
:10179A00000CAA0B875D9C4FAF4FFC01F490A7FD8C
:1017AA00F080223071F4888590E08431910518F434
:1017BA008C5C974F02C08053984F0E94F12281118E
:1017CA00F394F01628F005C011E003C011E001C03F
:1017DA0011E01123B9F01A821B821C8281E08E83E8
:1017EA008F8388E18887CE0102960E94C313182F3F
:1017FA00882309F441C0CE0102960E943415182F9D
:10180A008823D1F1BE01675F7F4FCE0102960E9405
:10181A00A61DCE0109960E94A41C8B019C01F89476
:10182A0000934509109346092093470930934809C4
:10183A001092490910924A0910924B0910924C09C8
:10184A00789487B18E7F87B988B1816088B941E081
:10185A00BE016F5F7F4F87E00E94671D182F8823A4
:10186A0059F089818064898341E0BE016F5F7F4FAF
:10187A0087E00E94441F182F812FA1960FB6F89473
:10188A00DEBF0FBECDBFDF91CF911F910F91FF90A9
:02189A000895AF
:10189C001F93CF93DF93D0910601809105018D1793
:1018AC0030F09091070180910501891710F4D091C7
:1018BC00050180910701D81709F4F5C0D23009F45D
:1018CC0072C028F4DD2389F0D130E1F1E0C0D330CF
:1018DC0009F4A9C0D53009F0DAC0109207011092B2
:1018EC000601D09107010E94402788B18F7E88B9EC
:1018FC0068E873E180E090E00E9437218EB18D7F23
:10190C008EB968E873E180E090E00E943721EBE645
:10191C00F0E080818D7F8083E8E6F0E080818D7F30
:10192C00808381E080931A0310921903109218039C
:10193C0080910801882309F4B2C00E94362080935C
:10194C000801ADC088B18F7E88B968E873E180E08A
:10195C0090E00E943721EBE6F0E080818D7F808360
:10196C00E8E6F0E080818D7F8083809121038823DD
:10197C0019F08EB182608EB968E873E180E090E076
:10198C000E94372181E080931A0310921903109260
:10199C00180380910801882309F481C00E940D214D
:1019AC00809308017CC061990DC08091210388232C
:1019BC0019F08EB182608EB968E873E180E090E036
:1019CC000E943721CBE02AC080912103882349F063
:1019DC0088B1806188B988B18F7788B988B18068FF
:1019EC0088B968EE73E080E090E00E94372188B1FE
:1019FC008F7E88B968E873E180E090E00E9437211F
:101A0C0060E573EC80E090E00E9437218091170331
:101A1C00882319F01092170301C0C12F1FEF1C0F60
:101A2C00C111D2CF3CC061990DC080912103882394
:101A3C0019F08EB182608EB968E873E180E090E0B5
:101A4C000E94372180912103882349F088B180615D
:101A5C0088B988B18F7788B988B1806888B968E807
:101A6C0073E180E090E00E94372110921A031092EB
:101A7C00190381E080931803EBE6F0E0808182602B
:101A8C008083E8E6F0E080818260808308C048EFC4
:101A9C0053E067E472E080E00E94E523D5E0D09348
:0E1AAC0007010E940427DF91CF911F9108953A
:101ABA006F927F928F929F92BF92CF92DF92EF9214
:101ACA00FF920F931F93CF93DF93F82E6A01E62EAE
:101ADA00E9010F2EF5E06F2EF02D681638F440ED6F
:101AEA0050E06CE473E080E00E94E523093038F0AE
:101AFA0041ED50E06CE473E080E00E94E523EBEDF9
:101B0A00F0E0B08080818F7780838F2D8295807FEF
:101B1A008093ED001092EE00F6018491E7FC80813B
:101B2A0020E4829FC0011124102F182BAE2DC6016C
:101B3A000196A11DFC018491A7FD8081811110628B
:101B4A0010610E9460274E2D96012E5F3F4F4F4F26
:101B5A00F901542F0E941C27AB01577060E070E016
:101B6A00032E32E1440F551F661F771F3A95D1F7AE
:101B7A00302D3A014B01682AD401C3014E2D96013A
:101B8A002A5F3F4F4F4FF901249147FD20812223BD
:101B9A0011F024E001C020E0E0EFF0E02083208192
:101BAA00382F330F330F330F232B2083AC01BD01A2
:101BBA00689414F876956795579547951694D1F7D2
:101BCA004093F100AC01BD01032E3DE07695679587
:101BDA00579547953A95D1F7302D4093F200072E45
:101BEA0075E1B695A795979587957A95D1F7702D52
:101BFA008093F300AE2DC6010796A11DFC018491C6
:101C0A00A7FD8081882311F084E001C080E0E4EF21
:101C1A00F0E080838081816080831092F500AE2D90
:101C2A00C6010496A11DFC015A2F0E941C27629529
:101C3A00660F607E6093F600FC015A2F0E941C27F3
:101C4A007695679576956795769567956093F7008B
:101C5A0004C089918093FA0001500111FACF1093C0
:101C6A00EF00F6018491E7FC8081882369F0EEEDAC
:101C7A00F0E0208181E090E002C0880F991FFA9479
:101C8A00E2F7822B80830DC0EEEDF0E0208181E047
:101C9A0090E002C0880F991FFA94E2F78095822398
:101CAA008083B092DB00DF91CF911F910F91FF905B
:101CBA00EF90DF90CF90BF909F908F907F906F9022
:021CCA0008957B
:101CCC00A5E0B0E0ECE6FEE00C94BA223B01882ED5
:101CDC00A82FCB010A96A11DFC015A2F0E941C278C
:101CEC005B019B019B2C990C9908F92CB92DA92D02
:101CFC00892D992DE82C630148E0C40ED11CE11C00
:101D0C00F6015E2D0E941C272B016C30710510F121
:101D1C00CB016CE070E00E9476242C0197FF05C08B
:101D2C00615071098CE0480E511C972F990F990B3B
:101D3C009B01492F592F692F792F892FC92CD92C09
:101D4C00E92CF92C092D192D0E94F226942EF52E32
:101D5C00B62FA72F8E010F5F1F4F492D5F2D6B2FB5
:101D6C007A2F0E94120A59016A017B018C01698148
:101D7C007A81C2010E947F221B012C01550C220882
:101D8C00322C21019B01AC01622D722D822D922DE2
:101D9C000E94F22619012A01962E7B838C839D8347
:101DAC00A82DC3010696A11DFC015A2F0E941C27C9
:101DBC0061507109972F990F990B30E8A32E41E5CB
:101DCC00B42ECC24C394D12CE12CF12C00E010E0E7
:101DDC009B01492F592F692F792F892F0E94AB1AFC
:101DEC0051016201E92CFB800C811D810E94F226BD
:101DFC0059016A017B018C01A82DC3010496A11D18
:101E0C00FC015A2F0E941C27072E000C880B990BE3
:101E1C0020E13EE040E050E00E9448260E94F2267D
:101E2C0059016A017B018C01A82DC3010296A11DE9
:101E3C00FC015A2F0E941C27072E000C880B990BB3
:101E4C002CE330E040E050E00E9448260E94F2264D
:101E5C0059016A017B018C01F301582D0E941C274A
:101E6C009B01932F990F990B492F592F692F792F7C
:0E1E7C00892F0E94F2262596E2E10C94D622D0
:101E8A00CF92DF92FF920F931F93CF93DF93CDB739
:101E9A00DEB728970FB6F894DEBF0FBECDBF982FD6
:101EAA009295907F9093ED00EEEDF0E0208101E0B5
:101EBA0010E0082E02C0000F111F0A94E2F7902FBB
:101ECA00909592239083EFEEF0E090819F73908338
:101EDA0081115DC08091EE0086FF09C0EEEEF0E050
:101EEA0080818F7B808310926909109265098091A5
:101EFA00EE0085FF38C0EEEEF0E080818F7D8083B2
:101F0A00C0904D09D0904E09C114D10461F180915D
:101F1A00EF008F70F82E4091F30050E0440F551FE8
:101F2A00440F551F440F551F8091F20082958695E4
:101F3A008770482B90E00AC02091FA00E1E0F0E0B7
:101F4A00EC0FFD1FE90FF11D20839F5F9F15A0F382
:101F5A00CA010E94791F833131F04F2DBE016F5F94
:101F6A007F4FF60109958091EE008E7029F0EEEE12
:101F7A00F0E08081817F8083EEEDF0E08081082BA4
:101F8A000083EFEEF0E080818068808334C0813086
:101F9A0091F58091EE0086FF07C0EEEEF0E08081B9
:101FAA008F7B8083109269098091EE0085FF05C0BE
:101FBA00EEEEF0E080818F7D80838091EE00897162
:101FCA00D1F0EEEEF0E08081867E80838091680910
:101FDA00843168F481E08093650921E040916609C3
:101FEA006DE379E0809167090E940E1004C0109297
:101FFA0069091092650928960FB6F894DEBF0FBEDC
:10200A00CDBFDF91CF911F910F91FF90DF90CF90BD
:02201A00089527
:10201C006F927F928F92EF92FF920F93CF93DF93F9
:10202C00C82F7B01042FD22F8823F9F0813031F196
:10203C00823069F18330A1F18630D9F1873009F40F
:10204C0041C0853009F447C0843009F44DC0883054
:10205C0009F453C043E451E06CE473E080E00E9467
:10206C00E523612C712C812C50C00F2EF7E96F2EBB
:10207C00F3E07F2EF0E08F2EF02D47C00F2EFFE8FF
:10208C006F2EF3E07F2EF0E08F2EF02D3EC00F2E42
:10209C00F7E86F2EF3E07F2EF0E08F2EF02D35C099
:1020AC000F2EFFE76F2EF3E07F2EF0E08F2EF02D3A
:1020BC002CC00F2EF7E76F2EF3E07F2EF0E08F2E63
:1020CC00F02D23C00F2EFFE66F2EF3E07F2EF0E0F5
:1020DC008F2EF02D1AC00F2EFFE56F2EF3E07F2E02
:1020EC00F0E08F2EF02D11C00F2EF7E66F2EF3E0DF
:1020FC007F2EF0E08F2EF02D08C00F2EF7E56F2EFF
:10210C00F3E07F2EF0E08F2EF02DDD2321F0809177
:10211C006509811130C0D11104C080916909811108
:10212C002AC081E080936909D1111AC01092680904
:10213C00C0936709093038F043E551E06CE473E073
:10214C0080E00E94E523202F30E0C701A0E8AC011D
:10215C006A2F8DE399E00E9471230093660905C0F4
:10216C00809168098F5F809368099701682DA3019E
:10217C0081E00E945D0DDF91CF910F91FF90EF9068
:08218C008F907F906F90089581
:102194001F93CF93DF9300D000D00F92CDB7DEB75B
:1021A40087B1806487B988B1806488B988B1806454
:1021B40088B90E94FB230E949D2210E00DC0CE012D
:1021C40001960E941826813049F060E177E280E0B0
:1021D40090E00E9437211F5F143688F3143609F407
:1021E40076C0CE01019625E0FC0111922A95E9F70B
:1021F4000E942523813009F05EC08C818A3A09F05F
:1022040068C040E050E060E070E4CE0101960E94B6
:102214006220811160C0CE0101960E943F23882371
:102224000CF45BC08DE299E00E94E41D88230CF459
:1022340056C0EDE2F9E087818F7390E0A0E0B0E052
:10224400BC01552744279085892F90E0A0E0B0E099
:10225400BA2FA92F982F8827842B952BA62BB72B21
:102264002185822B0196A11DB11D072E7AE0880FCE
:10227400991FAA1FBB1F7A95D1F7702D809354091B
:1022840090935509A0935609B093570925812F704F
:1022940081E090E002C0880F991F2A95E2F790939D
:1022A4005F0980935E0960EC78ED87EA90E00E9414
:1022B400BF1781E017C040E050E060E070E4CE0159
:1022C40001960E94622081110CC081E00BC080E065
:1022D40009C080E007C080E005C080E003C080E062
:1022E40001C080E00F900F900F900F900F90DF913E
:0622F400CF911F91089537
:1022FA00CF9382E080937A0010927C00109294002F
:10230A0010929500109296001092970080EA80939E
:10231A007B00C0E083C02C2F30E0C901880F991FD1
:10232A00820F931F0196092E000CAA0B865E9C4F02
:10233A00AF4FFC018491A7FD8081813041F008F400
:10234A006CC0823021F1833009F441C05FC054B1BE
:10235A00C901880F991F280F391F2E5F3F4F032E7F
:10236A00000C440B265E3C4F4F4FF901249147FD68
:10237A00208181E090E002C0880F991F2A95E2F738
:10238A008095582354B995B1892385B946C057B168
:10239A00C901880F991F280F391F2E5F3F4F032E3F
:1023AA00000C440B265E3C4F4F4FF901249147FD28
:1023BA00208181E090E002C0880F991F2A95E2F7F8
:1023CA008095582357B998B1892388B926C04AB14C
:1023DA00C901880F991F820F931F0296092E000CBC
:1023EA00AA0B865E9C4FAF4FFC012491A7FD20816A
:1023FA0081E090E002C0880F991F2A95E2F7809544
:10240A0048234AB99BB189238BB907C045EB50E0F1
:10241A0061E473E080E00E94E523CF5FC53008F4F1
:0C242A007ACF81E080936409CF9108957F
:102436001F920F920FB60F9211242F933F934F9333
:102446005F936F937F938F939F93AF93BF93EF9316
:10245600FF9386B5835D87BD85B3826085BBEEE657
:10246600F0E080818260808380917E09882321F05C
:1024760085B1886085B903C085B1877F85B98091AC
:1024860083098F5F8093830980918309833061F488
:1024960080917F09882341F08BE080938309109215
:1024A6007E09109281094DC0809183098A3080F49B
:1024B60080918209882324F481E080937E0902C0FA
:1024C60010927E0980918209880F8093820939C013
:1024D600809183098A3029F48091810980937E094D
:1024E60030C0809183098B3019F410927E0929C07F
:1024F600809183098C3029F58091810980937E092A
:102506001092830980918109811108C01092800977
:10251600EEE6F0E080818D7F808313C00E94062660
:10252600809381090E94D8218093820986B58853B9
:1025360087BD85B3826085BBEEE6F0E08081826070
:102546008083FF91EF91BF91AF919F918F917F9182
:102556006F915F914F913F912F910F900FBE0F900A
:042566001F90189515
:10256A001F920F920FB60F9211240F931F932F935E
:10257A003F934F935F936F937F938F939F93AF9301
:10258A00BF93CF93DF93EF93FF93EBEDF0E0D0810E
:10259A001091DE0080818F778083C091E000C0FFB8
:1025AA000CC080E00E94450F00E020E030E04FE9D7
:1025BA0053E060E080E00E945D0DC1FF03C081E04E
:1025CA000E94450F8091DA0086FF03C080E4809361
:1025DA00DA008091DA0084FF0AC045EF51E06CE42A
:1025EA0073E080E00E94E52380E18093DA00809125
:1025FA00DA0083FF03C088E08093DA008091DA0072
:10260A0082FF03C084E08093DA008091DA0081FFC0
:10261A0003C082E08093DA008091DA0080FF13C061
:10262A0081E08093DA0080916809843150F421E0D6
:10263A00409166096DE379E0809167090E940E1066
:10264A0002C0109269091093DE00D093DB00FF915B
:10265A00EF91DF91CF91BF91AF919F918F917F9130
:10266A006F915F914F913F912F911F910F910F9011
:08267A000FBE0F901F90189590
:10268200A0915901B0915A0180915C0190915D0134
:10269200E0917909EF3F81F407C0F0E0EE0FFF1FF0
:1026A200E35EF64F91838083E0917909EF5FE093D7
:1026B2007909E83090F30FC021E02E0F20937909B9
:1026C200F0E0EE0FFF1FE35EF64F91838083283028
:1026D20010F01092790980E020E030E00BC0E82F82
:1026E200F0E0EE0FFF1FE35EF64F40815181240FB1
:1026F200351F8F5F883098F3C90199230CF4079630
:10270200959587959595879595958795A81BB90B6E
:1027120020E83CE00E943927AB01BC015F5F6F4FAC
:102722007F4FDB01CA01772324F481509E4FAF4FC4
:10273200BF4F072E79E0B595A795979587957A951E
:10274200D1F7702D9058AF4FBF4FE0E1F1E090AB61
:1027520087A727A530A9868997898217930720F42E
:1027620087A590A9978B868BE0E1F1E027A530A998
:10277200808D918D2817390720F487A590A9918F14
:04278200808F0895A7
:10278600FC0120818DEC289F912D1124969596951C
:10279600969530E1939FA0011124990F392F330F9D
:1027A600330F930F291B242B20832181289F912DE2
:1027B600112496959695969530E1939FA001112444
:1027C600990F392F330F330F930F291B242B218396
:1027D6004281489F912D112496959695969550E1A4
:1027E600959F90011124990F392F330F330F930FB3
:1027F600491B242B2F7B22839381977098609383A8
:102806002481289F912D112496959695969530E1D1
:10281600939FA0011124990F392F330F330F930F74
:10282600291B242B24832581289F912D11249695DD
:102836009695969530E1939FA0011124990F392F13
:10284600330F330F930F291B242B25839681989FD3
:10285600812D112486958695869540E1849F900169
:102866001124880F382F330F330F830F981B922BA9
:0E287600968347E0BF0180E00E94441F089552
:102884008F929F92AF92BF92CF92DF92EF92FF927C
:102894000F931F93CF93DF93FC0124813581213063
:1028A400344008F05BC0EC012C813D81AC0160E850
:1028B4008CE293E00E9471238C819D818115944068
:1028C40070F42C813D818C819D8140E054E0421B59
:1028D400530B60E070E0845D9C4F0E94E026C12CA5
:1028E400D12C76016894C1F8812C912C54012FC00D
:1028F400609158097091590980915A0990915B0926
:1029040001E010E020E030E0A401445D5C4F0E944F
:10291400A515882321F18091580990915909A09116
:102924005A09B0915B090196A11DB11D8093580904
:1029340090935909A0935A09B0935B0942E0940E0D
:10294400A11CB11C81E0C81AD108E108F108C11426
:10295400D104E104F10461F681E001C080E0DF917B
:10296400CF911F910F91FF90EF90DF90CF90BF9088
:08297400AF909F908F90089531
:10297C001F920F920FB60F9211242F938F939F9348
:10298C00EF93FF9380918609882311F0833051F5E2
:10299C0086B5855C88BD85B3846085BBEEE6F0E0CA
:1029AC00808184608083E9E6F0E08081837F8460AD
:1029BC0080838CB382608CBB80917A09882331F040
:1029CC0088B1806888B910927A0906C088B18F776F
:1029DC0088B981E080937A0981E08093860910920E
:1029EC00880932C0813081F580918809882361F192
:1029FC0086B598B59951891B982F20917D0982171E
:102A0C0014F480937D0920917C09291714F4809388
:102A1C007C098D5F8730C0F096300CF095E09B3FC1
:102A2C000CF49BEF28B5892F992314F481E0890FBE
:102A3C008595281B28BD80916209909163090196A8
:102A4C009093630980936209FF91EF919F918F910D
:0C2A5C002F910F900FBE0F901F90189547
:102A6800CF93DF93EC0147E0BC0180E00E94671D33
:102A7800882309F463C09881292F22952F70277025
:102A8800220F322F330F330F230F9F70920F98832B
:102A98009981292F22952F702770220F322F330FFB
:102AA800330F230F9F70920F99839A8196FF11C05D
:102AB80094FB222720F9220F322F330F330F230FD5
:102AC800392F3F70230F2A8395FF0FC0245F2A8375
:102AD8000CC0292F22952F702370220F322F330F0D
:102AE800330F230F9F70920F9A839B8197709B835C
:102AF8009C81292F22952F702370220F322F330F9C
:102B0800330F230F9F70920F9C839D8194FB222784
:102B180020F9220F322F330F330F230F9F70920F9C
:102B28009D839E81292F22952F70220F322F330FDC
:102B3800330F230F9F70920F9C5E9E83DF91CF917E
:022B48000895EE
:102B4A008F929F92AF92BF92CF92DF92EF92FF92B3
:102B5A000F931F93CF93DF934B015C01EA01680146
:102B6A0079010E94672781E00E94CD2681E0C8167C
:102B7A00D104E104F10489F4B501A40188E10E94B9
:102B8A00051A811137C060915E0970915F094EEF95
:102B9A00CE010E94E918182F30C0B501A40189E1BD
:102BAA000E94051A882319F027C06C017D016091E3
:102BBA005E0970915F094CEFCE010E94E918182F47
:102BCA000E94672780915E0990915F09C80FD91FFB
:102BDA00112349F0D701C6010197A109B109CD28EE
:102BEA00CE28CF2811F740E050E0BA018CE00E94CD
:102BFA00051A03C010E001C010E080E00E94CD2653
:102C0A00812FDF91CF911F910F91FF90EF90DF906D
:0C2C1A00CF90BF90AF909F908F900895D6
:102C26008F929F92AF92BF92CF92DF92EF92FF92D6
:102C36000F931F93ECE2F7E0C48CD58CE68CF78CEF
:102C460080A091A0A2A0B3A001E010E020E030E0B7
:102C56004CE253E0C701B6010E948116882309F4AD
:102C660042C0F401E45DFC4F009144071091450712
:102C760020914607309147070083118322833383CF
:102C8600148215821682178201E010E020E030E0FF
:102C96004CE253E0C701B6010E94A515882319F13D
:102CA600ECE2F7E080A191A1A2A1B3A10896A11D33
:102CB600B11D80A391A3A2A3B3A381159240A10540
:102CC600B10578F0848D958DA68DB78D0196A11DE1
:102CD600B11D848F958FA68FB78F10A211A212A255
:102CE60013A20E9458231F910F91FF90EF90DF903F
:0C2CF600CF90BF90AF909F908F900895FA
:102D02008F929F92AF92BF92CF92DF92EF92FF92F9
:102D12000F931F93CF93DF934B015C01EA0168018C
:102D220079010E94672781E00E94CD2681E0C816C2
:102D3200D104E104F10481F4B501A40181E10E940E
:102D4200051A811135C060915E0970915F09CE014B
:102D52000E94D81B182F2FC0B501A40182E10E9446
:102D6200051A882319F026C06C017D0160915E0965
:102D720070915F09CE010E94D81B182F0E9467270D
:102D820080915E0990915F09C80FD91F112349F004
:102D9200D701C6010197A109B109CD28CE28CF28B4
:102DA20019F740E050E0BA018CE00E94051A03C016
:102DB20010E001C010E080E00E94CD26812FDF915B
:102DC200CF911F910F91FF90EF90DF90CF90BF9026
:082DD200AF909F908F900895CF
:102DDA001F920F920FB60F9211242F933F934F9386
:102DEA005F936F937F938F939F93AF93BF93EF9369
:102DFA00FF9386B5855D88BD85B3846085BBEEE6A5
:102E0A00F0E08081846080832091850983B182FB10
:102E1A00882780F98093850990917A09992331F05E
:102E2A0098B1906898B910927A0906C098B19F77BC
:102E3A0098B981E080937A09809188098F5F80939D
:102E4A008809813019F4109287091DC08A3038F434
:102E5A0080918709880F822B8093870914C0209359
:102E6A00840988E0809369008CB382608CBBEEE6AB
:102E7A00F0E080818B7F8083809187090E949C1E6D
:102E8A0083E080938609FF91EF91BF91AF919F9163
:102E9A008F917F916F915F914F913F912F910F90F9
:082EAA000FBE0F901F90189558
:102EB200CF93DF9381110DC0809110019091110188
:102EC200A0911201B09113018A379A4DA747BA4BCC
:102ED20029F1C0E1D1E084E092E0FE019C0111926F
:102EE20021503040E1F79D838C838AE79AEDA7E772
:102EF200BAEB88839983AA83BB830E94281D6E87BD
:102F02007F87888B998B8FEF8AA78B8B1C8A84E0B3
:102F120090E00E94D7260E9487182AC0E0E1F1E0E3
:102F220017A211A610A612A615A616A680914D01EB
:102F320090914E01A0914F01B0915001892B8A2BA3
:102F42008B2BB1F410924D0110924E0110924F0151
:102F52001092500110AE17AA12AE11AE14AE13AEFB
:102F62008FE995E192AB81AB94AB83AB96AB85AB2A
:0C2F72008FEF80937909DF91CF910895D3
:102F7E00CF92DF92EF92FF926B017C0120E019C09D
:102F8E00822F90E0AC01440F551F840F951F880FC0
:102F9E00991F092E000CAA0B85559D4FAF4FFC01B2
:102FAE005A2F0E947E26C616D706E806F90618F492
:102FBE002F5F273028F3273009F421506CB530E00D
:102FCE00A901440F551FCA01820F931F880F991F25
:102FDE000496092E000CAA0B85559D4FAF4FFC0190
:102FEE008491A7FD80816C7F862B8CBD6DB5CA0147
:102FFE00820F931F880F991F0596092E000CAA0B9E
:10300E0085559D4FAF4FFC018491A7FD80816E7F4A
:10301E00862B8DBD240F351F220F331F032E000C60
:10302E00440B25553D4F4F4FF901542F0E947E26DC
:0A303E00FF90EF90DF90CF9008950F
:103048000F931F93CF93DF93CDB7DEB7A8970FB633
:10305800F894DEBF0FBECDBF29A33AA34BA35CA350
:103068006DA37EA38FA398A7FE01319689E1DF01A6
:103078001D928A95E9F7BE016F5D7F4F80E80E9437
:103088005B278C01892B39F442E851E066EF72E046
:1030980080E00E94E523A80160E829E130E0CE0144
:1030A80001960E947123BE01665E7F4FCE01019694
:1030B8000E94E320F89479A16AA15BA14CA13DA1EB
:1030C8002EA19FA188A57093450960934609509346
:1030D8004709409348093093490920934A09909336
:1030E8004B0980934C097894CE014A960E94C313E9
:1030F800A8960FB6F894DEBF0FBECDBFDF91CF9173
:063108001F910F910895D4
:10310E00CF92DF92EF92FF928F3508F08EE5E0E1DD
:10311E00F1E0858BC82ED12CE12CF12CAAECB8E075
:10312E00A70196010E94B726658F768F878F90A391
:10313E00A4E9B1E10E94B72661A372A383A394A36D
:10314E0081A192A1A3A1B4A1458D568D678D70A1C9
:10315E00841B950BA60BB70B880F991FAA1FBB1FBD
:10316E00880F991FAA1FBB1F880F991FAA1FBB1F6D
:10317E00880F991FAA1FBB1F880F991FAA1FBB1F5D
:10318E00880F991FAA1FBB1F880F991FAA1FBB1F4D
:10319E00AC01BD01BB2324F441505C4F6F4F7F4FF8
:1031AE00032E3AE075956795579547953A95D1F761
:1031BE00302D5093360140933501FF90EF90DF9004
:0431CE00CF90089501
:1031D200EF92FF920F931F93CF93DF9300D0CDB75F
:1031E200DEB78C017B014A8341E050E0BE016E5F95
:1031F2007F4F81E00E940A208A818D3FE1F1A70181
:10320200B80181E00E940A2000E010E00DC041E018
:1032120050E0BE016F5F7F4F83E00E940A208981E8
:103222008F3F31F40F5F1F4F0E3988E9180778F38B
:103232000E39184911F189818F718983853081F0A6
:1032420080E01EC041E050E0BE016F5F7F4F83E02F
:103252000E940A208981811109C00F5F1F4F02C09D
:1032620000E010E00E3988E9180760F30E391849BA
:1032720031F081E005C081E003C080E001C080E060
:103282000F900F90DF91CF911F910F91FF90EF90D0
:0232920008959D
:1032940078941F920F920FB60F9211242F933F939D
:1032A4004F935F936F937F938F939F93AF93BF934A
:1032B400EF93FF93609178007091790080914F09AA
:1032C40091E0980F90934F09953010F010924F09A8
:1032D400ACE7B0E05C9120914F0930E0F901EE0FCA
:1032E400FF1F2E0F3F1F032E000C440B265E3C4F86
:1032F4004F4FF901949147FD9081507E952B906C2E
:103304009C930E949D2480914F09811109C0EAE792
:10331400F0E08081877F808381E08093640905C029
:10332400EAE7F0E0808188648083FF91EF91BF91A8
:10333400AF919F918F917F916F915F914F913F9149
:0C3344002F910F900FBE0F901F90189556
:1033500078941F920F920FB60F9211248F939F9320
:10336000EF93FF9382E086BB80918400909185006B
:103370008B5C934F9093890080938800EFE6F0E098
:1033800080818260808381E080930B018091750948
:103390008F5F8093750980917509833078F0109262
:1033A000750981E08093740980910C01813019F4D2
:1033B00010920C0103C081E080930C01809172098E
:1033C0008F3F29F0809172098F5F809372098091FD
:1033D00072098F3640F0809172098F56809372097E
:1033E00081E080931F0380917309882329F08091E5
:1033F0007309815080937309FF91EF919F918F9191
:0A3400000F900FBE0F901F9018955B
:10340A00DF92EF92FF920F931F93CF93DF93CDB783
:10341A00DEB727970FB6F894DEBF0FBECDBF182FC1
:10342A00042FF52EE62ED72E88234CF440E050E0E8
:10343A00BA0187E30E94051A8F83823040F5812FF3
:10344A008F7380648983DA82EB82FC820D83112375
:10345A0011F080E001C085E9183009F487E881603D
:10346A008E8346E050E0BE016F5F7F4F81E00E948D
:10347A000A201AE041E050E0BE01695F7F4F83E015
:10348A000E940A208F81882314F4115099F72796F5
:10349A000FB6F894DEBF0FBECDBFDF91CF911F915B
:0A34AA000F91FF90EF90DF9008955E
:1034B40088249924F401E401B0E49F93AA279A157F
:1034C4008B049C04ED05FE05CF05D007A10798F4F5
:1034D400AD2FDC2FCF2FFE2FE92D982C892E982F7E
:1034E400872F762F652F542F432F322F2227B85042
:1034F40031F7BF9127C01B2EBF91BB27220F331F6B
:10350400441F551F661F771F881F991F881C991C0D
:10351400EE1FFF1FCC1FDD1FAA1FBB1F8A149B04B5
:10352400EC05FD05CE05DF05A007B10748F08A18B4
:103534009B08EC09FD09CE09DF09A00BB10B216042
:103544001A94E1F62EF49401AF01BE01CD01000CF2
:023554000895D8
:10355600DF93CF931F930F939A9DF02D219FF00D2C
:103566008B9DF00D8A9DE02DF10D039FF00D029FBE
:10357600E00DF11D4E9DE00DF11D5E9DF00D4F9D80
:10358600F00D7F936F93BF92AF925F934F93D501E8
:103596000E9439268B01AC01D7010E943926EB0126
:1035A600E80FF91FD6010E94E9262F913F91D60117
:1035B6000E943926C60FD71FE81FF91FAF91BF918A
:1035C6000E94E9262F913F910E943926C60FD71FE8
:1035D600E81FF91FD6010E943926E60FF71F98014A
:1035E600BE01CF0111240F911F91CF91DF91089554
:1035F6000F93CF93C2E0C093E20084E08093E30090
:1036060082E18093E40000E020E030E047EA53E006
:1036160060E080E00E945D0D20E030E047EA53E084
:1036260060E081E00E945D0D20E030E047EA53E073
:1036360060E082E00E945D0D20E030E047EA53E062
:1036460060E083E00E945D0D20E030E047EA53E051
:1036560060E084E00E945D0D20E030E047EA53E040
:1036660060E085E00E945D0D20E030E04FE953E028
:1036760060E080E00E945D0D8EEB8093DB00C093DE
:0C368600D80010926909CF910F910895AF
:103692000F931F93CF93DF938C01EB01892BF9F0EA
:1036A20087E090E00E94D72690E0F8019183808322
:1036B20088E090E00E94D72690E0982F8827F801B2
:1036C20020813181822B932B9183808301978E3FBE
:1036D2009F4F28F08CEC97E7F80191838083209725
:1036E200E1F085E090E00E94D72690E099838883FC
:1036F20086E090E00E94D72690E0982F88272881C4
:103702003981822B932B9983888301978E3F9F4F18
:1037120020F084EF91E899838883DF91CF911F9104
:043722000F91089566
:1037260078941F920F920FB60F9211242F933F9306
:103736004F935F936F937F938F939F93AF93BF93B3
:10374600EF93FF9396B180910701833021F080912A
:1037560007018230C9F491FF17C088B18F7E88B9FE
:1037660080910701833019F481E00E945127EBE62E
:10377600F0E080818D7F8083E8E6F0E080818D7FB8
:10378600808381E080931703FF91EF91BF91AF9102
:103796009F918F917F916F915F914F913F912F9163
:0A37A6000F900FBE0F901F901895B2
:1037B000CF92DF92EF92FF920F931F93CF93DF93FD
:1037C0000F92CDB7DEB77C016B0100E010E101C0C4
:1037D000890141E050E0BE016F5F7F4F83E00E94AE
:1037E0000A2089818E3F29F0980121503109012B4F
:1037F00079F78E3FB9F4A601B70183E00E940A2051
:1038000041E050E0BE016F5F7F4F83E00E940A20DD
:1038100041E050E0BE016F5F7F4F83E00E940A20CD
:1038200081E001C080E00F90DF91CF911F910F9157
:0A383000FF90EF90DF90CF90089515
:10383A0080910401823049F128F4882341F08130D3
:10384A0091F032C0833061F18430A9F12DC085B185
:10385A008F7E85B981E08093040180E00E94591728
:10386A000E940427089585B18F7E85B980E00E9461
:10387A00591782E08093040181E080937309E0E1A3
:10388A00F1E08FEF838B148A089580917309811177
:10389A0012C085B1806185B983E0809304010895DF
:1038AA0084E08093040108954BE652E067E472E0F5
:0838BA0080E00E94E52308955F
:1038C20078941F920F920FB60F9211242F933F9369
:1038D2004F935F936F937F938F939F93AF938CB329
:1038E20088608CBB20914509309146094091470977
:1038F200509148096091490970914A0980914B0998
:1039020090914C09A1E00E948A26209345093093A8
:1039120046094093470950934809609349097093B7
:103922004A0980934B0990934C09AF919F918F91D3
:103932007F916F915F914F913F912F910F900FBEA9
:063942000F901F90189584
:10394800A9E1B0E0EAEAFCE10C94BC222C01BC013C
:1039580080E80E94660E39014A0159016A01E12C8A
:10396800F12C00E010E00E94FB26F9F41A8A198A6B
:103978001B8A1C8A1D8A1E8A23EB33E040E02F8BAA
:10398800388F498F8E010F5F1F4F9301482D0E947A
:10399800DC0197FD0AC089E1F801D20101900D927E
:1039A8008A95E1F7B301C4010AC08FE490E09093CF
:1039B8000101809300016FEF7FEF8FEF9FEF699612
:0639C800E0E10C94D8229E
:1039CE00CF930E94CA10C82F8823C1F10E944222B1
:1039DE00811122C0ECE2F7E088ED91E0DF019C015D
:1039EE001D9221503040E1F781E090E0A0E0B0E080
:1039FE0084879587A687B787808F918FA28FB38F85
:103A0E0084E090E0A0E0B0E0848F958FA68FB78F12
:103A1E000E945823882389F080914407909145078E
:103A2E00A0914607B0914707809358099093590982
:103A3E00A0935A09B0935B0901C0C82F8C2FCF9168
:023A4E000895D9
:103A5000CF92DF92EF92FF9280E090E00E94D72613
:103A6000C82ED12CE12CF12C81E090E00E94D726C9
:103A700090E0A0E0B0E0BA2FA92F982F8827C82A9D
:103A8000D92AEA2AFB2A82E090E00E94D72690E019
:103A9000A0E0B0E0DC0199278827C82AD92AEA2AC1
:103AA000FB2A83E090E00E94D72690E0A0E0B0E0FF
:103AB000B82FAA2799278827BC01CD016C297D2919
:0E3AC0008E299F29FF90EF90DF90CF90089500
:103ACE00FF920F931F93CF93DF93F82E8B01C42F8A
:103ADE00411107C04FE550E066EF72E080E00E94B2
:103AEE00E52341E060E08EED0E94FE21D82F882371
:103AFE00E9F08F2D0E940F1FD82F8823B9F040E0D8
:103B0E0061E08EED0E94FE21D82F811108C00EC0FB
:103B1E0081E00E94221EF80181938F01C150C230B4
:103B2E00B8F780E00E94221EF80180830E948A244A
:0E3B3E008D2FDF91CF911F910F91FF90089571
:103B4C00CF93DF93DC01FB0189E1EB0119928A959C
:103B5C00E9F78C9190E09183808311968C91119769
:103B6C0090E09383828312968C91129790E09583C8
:103B7C00848314968C91149790E097838683159682
:103B8C008C91159790E001979187808716968C9170
:103B9C00843130F490E08C5C974F9387828705C01A
:103BAC0090E08053984F93878287828593858C56BB
:0C3BBC00974093878287DF91CF91089596
:103BC800EF92FF920F931F93CF93DF930F92CDB78E
:103BD800DEB77C0181E00E94CD2640E050E0BA01CA
:103BE80089E00E94051A082F81111CC018E001C045
:103BF800182F41E050E0BE016F5F7F4F83E00E94C5
:103C08000A2089818E3F29F08FEF810F1111F0CFA3
:103C180001C0812F882331F040E150E0B70183E0F3
:103C28000E940A2080E00E94CD26802F0F90DF910D
:0C3C3800CF911F910F91FF90EF90089525
:103C44001F93CF93DF93182F8AB18D7F8AB98BB1DD
:103C540082608BB9C8E0D0E00EC0DD0F8BB181600B
:103C64008BB90E942B274999D1608BB18E7F8BB978
:103C74000E942B27C150C111F0CF8AB182608AB94A
:103C8400112321F08BB18D7F8BB903C08BB182607E
:103C94008BB90E942B278BB181608BB90E942B2793
:103CA4008BB18E7F8BB90E942B278BB18D7F8BB903
:0A3CB4008D2FDF91CF911F9108952D
:103CBE008F3F2FEF920761F1282F2F7094FF02C0D4
:103CCE00906F01C09F77959587959595879595955A
:103CDE00879595958795AC014C5E5F4F4D38510594
:103CEE00C8F434E6389FD001399FB00D112430E06E
:103CFE0040E0265F3C4F4F4FF901849147FD808194
:103D0E00FD01E80FF11DCF0181569A4E21E005C04D
:103D1E0020E003C08FEF9FEF20E06115710519F0D1
:0A3D2E00FB0191838083822F08952A
:103D3800E091700921E02E0F20937009F0E0E05B1C
:103D4800F64F808380915C0990915D09019690936C
:103D58005D0980935C09243038F1109270098091D4
:103D680071098C3608F5E82FF0E07596EE0FFF1F05
:103D7800EE0FFF1FE05FFE4FA0E5B9E04D915D91AA
:103D88006D917C91139740835183628373831D9255
:103D98001D921D921C9213978F5F809371098091D9
:0A3DA8006F098F5F80936F09089583
:103DB200A0E0B0E0EFEDFEE10C94C022EA01FB01CD
:103DC200582F0E947E264B015C01C12CD12C76011A
:103DD2008E019B01A50160E070E080E090E00E940E
:103DE200DC0197FF09C08FE490E09093010180937A
:103DF200000180E090E00DC0198A188A1A8A1B8A95
:103E02001C8A1D8A8FEA93E0A0E08E8B9F8BA88F7D
:0C3E1200CE01CDB7DEB7ECE00C94DC2252
:103E1E00CF93DF93D82F8AB182608AB9C8E015C0DC
:103E2E00DD2324F48BB182608BB903C08BB18D7FFF
:103E3E008BB98BB181608BB90E942B278BB18E7F92
:103E4E008BB90E942B27DD0FC150C111E9CF8AB16A
:103E5E008D7F8AB98BB182608BB98BB181608BB942
:103E6E000E942B27499BC1E08BB18E7F8BB90E949C
:0A3E7E002B278C2FDF91CF910895C0
:103E8800FF920F931F93CF93DF93F82E8B01C42FCC
:103E9800411107C042E950E066EF72E080E00E94FD
:103EA800E52341E060E08EED0E94FE21D82F8823B3
:103EB80099F08F2D0E940F1FD82F81110BC00CC0B5
:103EC800F80180810E940F1FD82F882329F00F5FE7
:103ED8001F4FC150C111F4CF0E948A248D2FDF914A
:0A3EE800CF911F910F91FF900895F4
:103EF200CF93DF93EC0190E026C0A92FB0E09D01A3
:103F0200220F331F2A0F3B1F032E000C440B2B5290
:103F12003D4F4F4FF901542F0E941C276C177D070C
:103F220089F4CD01880F991F8A0F9B1F0296092ED3
:103F3200000CAA0B8B529D4FAF4FFC018491A7FD41
:103F4200808104C09F5F9B30C0F283E1DF91CF91FB
:023F52000895D0
:103F5400689401C0E894F92FF12B12F00C945A26BE
:103F6400A0E0B0E0E8EBFFE10C94C022092E059438
:103F740022F40E942926112392F4F0E80F26FFEF81
:103F8400E094F09400951095B094C094D094A194CA
:103F9400BF0ACF0ADF0AEF0AFF0A0F0B1F0B0E94AA
:103FA4005A1A07FC0E942926CDB7DEB7ECE00C9420
:023FB400DC220D
:103FB600FB01DC01B3702BED36EA43E250E00E94D0
:103FC600B726DC01CB01072E7AE0B695A795979523
:103FD60087957A95D1F7702D9F5FAF4FBF4F072E0C
:103FE60079E0B695A795979587957A95D1F7702D2F
:103FF6009C0101978E3F9F4F10F481E003C080E043
:0E40060020E030E0309711F0318320830895E0
:10401400FB01833071F408C02FEF2EBD0DB407FEF1
:10402400FDCF2EB52193AC01CA010197452BA1F711
:104034000895813061F406C021912EBD0DB407FEB0
:10404400FDCFAC01CA010197452BB1F70895823029
:1040540051F405C0EEBD0DB407FEFDCFAC01CA019D
:084064000197452BB9F70895FF
:10406C008091580990915909A0915A09B0915B0916
:10407C0080FF0CC08E7F0296A11DB11D8093580944
:10408C0090935909A0935A09B0935B0980915809F0
:10409C0090915909A0915A09B0915B090197A10916
:1040AC00B10980933C0790933D07A0933E07B093D2
:0840BC003F070E9458230895FC
:1040C400CF92DF92EF92FF920F931F93CF93DF93E0
:1040D4008C016A017B01C0E00FC0B701A601C801D1
:1040E4000E940B23D82F882349F060E177E280E017
:1040F40090E00E943721CF5FC43678F3C43609F4C8
:10410400D0E88D2FDF91CF911F910F91FF90EF9009
:06411400DF90CF9008953A
:10411A0080918009811123C080918609811121C073
:10412A0082E08093800910927B091092830981E0D2
:10413A0080937E0986B58E5C87BD85B3826085BB18
:10414A00EEE6F0E08081826080830E9406268093FA
:10415A0081090E94D8218093820981E0089580E034
:06416A00089580E00895B5
:10417000E894DF93CF93FC01DB010E9439267F9303
:104180006F93E9019A01AC01BF93AF933F932F93D3
:10419000DF010E94392626F46C1B7D0B820B930BEA
:1041A0009E01EB01FC010E94E926AF91BF912F9186
:1041B0003F910E94E926BE01CF01F9012F913F9165
:0641C000CF91DF9108958C
:1041C600CF93DF93DC01FB0187E0EB0119928A951F
:1041D600E9F78C91808312968C91129781831496BD
:1041E6008C911497828316968C91169784831896D1
:1041F6008C91189785831A968D919C911B97883C74
:1042060091051CF08453868302C0805D8683DF910E
:04421600CF910895A7
:10421A00ECE2F7E084899589A689B7890196A11D00
:10422A00B11D848B958BA68BB78B80915809909181
:10423A005909A0915A09B0915B09808F918FA28F79
:10424A00B38F80FF0CC08E7F0296A11DB11D809393
:10425A00580990935909A0935A09B0935B090E948F
:04426A00131608958A
:10426E00AB01BC014F5F5F4F6F4F7F4F76956795E8
:10427E005795479596B517C086B59817E9F326B5A5
:10428E00822F891B90E0A0E0B0E0481759076A071B
:10429E007B0728F0481B590B6A0B7B0B03C040E0D1
:1042AE0050E0BA01922F411551056105710521F7B4
:0242BE00089561
:1042C00014BC92E095BDA4E6B0E08C91877F8C93FE
:1042D0001092800084E08093810096BB80918400DE
:1042E000909185008B5C934F909389008093880018
:1042F000EFE6F0E08081826080838C918F7E8C93EA
:10430000AEE6B0E08C918E7F8C9380818E7F80832F
:0243100008950E
:104312001F920F920FB60F9211242F933F934F9338
:104322005F936F937F938F939F93AF93BF93EF931B
:10433200FF9344E053E067E472E080E00E94E523EB
:10434200FF91EF91BF91AF919F918F917F916F916B
:104352005F914F913F912F910F900FBE0F901F9041
:024362001895AC
:1043640078941F920F920FB60F9211242F933F93BC
:104374004F935F936F937F938F939F93AF93BF9369
:10438400EF93FF938BB10E947226FF91EF91BF913F
:10439400AF919F918F917F916F915F914F913F91D9
:0C43A4002F910F900FBE0F901F901895E6
:1043B00080917B09811110C081E00E943A24E0E6DF
:1043C000F9E0908381838081882324F481E08093C5
:1043D0007F0902C010927F09E0917B09F0E0E05A6A
:1043E000F64F808190917B099F5F90937B0990911C
:0C43F0007B09923010F010927B090895B8
:1043FC00FF920F931F93CF93DF93F82E062F142F5A
:10440C00D3E0C0E00CC0D150602F8F2D0E94262429
:10441C00C82F112341F0811102C00E946122C111E9
:10442C0002C0D111F0CF8C2FDF91CF911F910F9142
:04443C00FF90089550
:10444000A1E21A2EAA1BBB1BFD010DC0AA1FBB1F98
:10445000EE1FFF1FA217B307E407F50720F0A21B0A
:10446000B30BE40BF50B661F771F881F991F1A9477
:1044700069F760957095809590959B01AC01BD01A1
:04448000CF010895CB
:104484000F931F93CF9301E010E020E030E04CE263
:1044940053E060E070E0CB010E948116C82F8823AE
:1044A40049F04CE253E060E828ED31E08CE297E01B
:0E44B4000E9471238C2FCF911F910F910895BC
:1044C200CF938AB181608AB98AB182608AB9C0E425
:1044D20011C08BB18E7F8BB98BB18D7F8BB90E944E
:1044E2002B278BB181608BB98BB182608BB90E9413
:0C44F2002B27C150C111EDCFCF910895D0
:1044FE00CF93DF939C01EB01880F991F880F991FB3
:10450E00092E000CAA0B85589D4FAF4FFC015A2F58
:10451E000E947E26CD2B39F02230310524F06058D2
:0C452E007E4A8E4F9F4FDF91CF91089581
:10453A0060E87AE186E090E00E94BF1788B1806463
:10454A0088B960ED77E080E090E00E94372140E191
:10455A0050E06FEF70E082E00E940A2060ED77E0A1
:0A456A0080E090E00E9437210895E0
:104574002F923F924F925F926F927F928F929F926F
:10458400AF92BF92CF92DF92EF92FF920F931F935D
:10459400CF93DF93CDB7DEB7CA1BDB0B0FB6F8940E
:0845A400DEBF0FBECDBF09947C
:1045AC002A88398848885F846E847D848C849B84B7
:1045BC00AA84B984C884DF80EE80FD800C811B81C5
:1045CC00AA81B981CE0FD11D0FB6F894DEBF0FBEF4
:0645DC00CDBFED010895C2
:1045E2009C0160E971E00E946224892B69F0C90193
:1045F20064E670E00E946224892B41F02370332725
:10460200232B31F080E0089581E0089580E0089541
:0446120081E00895A6
:10461600CF92DF92EF92FF92CF936A017B0181E006
:104626000E94CD26B701A60189EA0E94051AC82F65
:1046360080E00E94CD268C2FCF91FF90EF90DF90E7
:04464600CF90089574
:10464A000F931F93CF938C0181E00E94CD264AEAF3
:10465A0051E060E070E088E00E94051AC82FC801A6
:10466A000E94322780E00E94CD268C2FCF911F9185
:04467A000F910895FF
:10467E000F931F93CF938C0181E00E94CD2640E0D3
:10468E0050E0BA018AE30E94051AC82FC8010E94A1
:10469E00322780E00E94CD268C2FCF911F910F9153
:0246AE0008956D
:1046B0000F931F934CE257E060E828ED31E08CE265
:1046C00093E00E94712301E010E020E030E04CE232
:1046D00053E060E070E0CB010E94A5151F910F919F
:0246E00008953B
:1046E200CF92DF92EF926A01E62EDC01280F391F8A
:1046F200A217B30751F0F6014491E7FC40814D93B4
:104702004FEFC41AD40AE40AF3CFEF90DF90CF90B0
:02471200089508
:1047140085B78F7E85BF84B1886084B984B18B7F6F
:1047240084B985B18B7F85B987B1806887B98DB32A
:104734008D7F8DBB1092800985B1877F85B90895DF
:10474400052E97FB1EF400940E940C2757FD07D0FA
:104754000E94202207FC03D04EF40C940C275095A1
:0E4764004095309521953F4F4F4F5F4F089580
:104772008AB182608AB98BB182608BB98BB1816058
:104782008BB90E942B278BB18D7F8BB90E942B276F
:0C4792008BB18E7F8BB90E942B270895FD
:10479E008BB181608BB98BB182608BB98AB181602C
:1047AE008AB98AB18D7F8AB98BB182608BB964E187
:0C47BE0070E080E090E00E943721089538
:1047CA005F934F938F937F936F9388E392E0A0E078
:1047DA00AF939F938F930E9424278DB79EB7089615
:0C47EA000FB6F8949EBF0FBE8DBF08955F
:1047F60084B1826884B984B18E7F84B985B18160C1
:1048060085B983E58CBD1DBC85B78F7785BF60E80C
:0C4816007AE186E090E00E94BF17089550
:1048220080916409813081F410924F09ECE7F0E045
:104832008081807E896C808382E080936409EAE7CC
:0A484200F0E08081886C8083089507
:10484C00CF93DF93C82FD62F0E94CF230E94B9237A
:10485C00DD2319F08C2F816002C08C2F8E7F0E947B
:08486C000F1FDF91CF910895A9
:1048740090911803992351F0882359F0109218034A
:1048840081E0809319038FEF93E0089580E090E82E
:0848940008958FEF93E00895F1
:10489C008FE780937D0980E880937C0910926309EF
:1048AC001092620988E0809369008CB382608CBBA3
:0848BC008DB382608DBB0895ED
:1048C400AA1BBB1B51E107C0AA1FBB1FA617B70732
:1048D40010F0A61BB70B881F991F5A95A9F780954E
:0848E4009095BC01CD0108957F
:1048EC0097FB072E16F4009407D077FD09D00E9491
:1048FC00622407FC05D03EF4909581959F4F089556
:08490C00709561957F4F08953D
:104914008BB18D7F8BB90E942B278BB181608BB9B2
:104924000E942B278AB18D7F8AB98BB182608BB9A3
:064934000E942B270895EC
:10493A00843019F491E09093160390E0FC01EE0F95
:10494A00FF1F8E0F9F1FFC01EB5AFE4F728361837C
:06495A0081E08083089556
:104960001F920F920FB60F92112480EB94E2809366
:104970006C0980916A0080936B0980916B00809331
:044980006A09FFCFF2
:104984001F920F920FB60F92112482EC94E280933F
:104994006C0980916A0080936B0980916B0080930D
:0449A4006A09FFCFCE
:1049A8001F920F920FB60F92112484ED94E2809318
:1049B8006C0980916A0080936B0980916B008093E9
:0449C8006A09FFCFAA
:1049CC001F920F920FB60F92112486EE94E28093F1
:1049DC006C0980916A0080936B0980916B008093C5
:0449EC006A09FFCF86
:1049F0001F920F920FB60F92112488EF94E28093CA
:104A00006C0980916A0080936B0980916B008093A0
:044A10006A09FFCF61
:104A14001F920F920FB60F9211248AE095E28093B1
:104A24006C0980916A0080936B0980916B0080937C
:044A34006A09FFCF3D
:104A38001F920F920FB60F9211248CE195E280938A
:104A48006C0980916A0080936B0980916B00809358
:044A58006A09FFCF19
:104A5C001F920F920FB60F9211248EE295E2809363
:104A6C006C0980916A0080936B0980916B00809334
:044A7C006A09FFCFF5
:104A80001F920F920FB60F92112480E495E280934B
:104A90006C0980916A0080936B0980916B00809310
:044AA0006A09FFCFD1
:104AA4001F920F920FB60F92112482E595E2809324
:104AB4006C0980916A0080936B0980916B008093EC
:044AC4006A09FFCFAD
:104AC8001F920F920FB60F92112484E695E28093FD
:104AD8006C0980916A0080936B0980916B008093C8
:044AE8006A09FFCF89
:104AEC001F920F920FB60F92112486E795E28093D6
:104AFC006C0980916A0080936B0980916B008093A4
:044B0C006A09FFCF64
:104B10001F920F920FB60F92112488E895E28093AE
:104B20006C0980916A0080936B0980916B0080937F
:044B30006A09FFCF40
:104B34001F920F920FB60F9211248AE995E2809387
:104B44006C0980916A0080936B0980916B0080935B
:044B54006A09FFCF1C
:104B58001F920F920FB60F9211248CEA95E2809360
:104B68006C0980916A0080936B0980916B00809337
:044B78006A09FFCFF8
:104B7C001F920F920FB60F9211248EEB95E2809339
:104B8C006C0980916A0080936B0980916B00809313
:044B9C006A09FFCFD4
:104BA0001F920F920FB60F92112480ED95E2809321
:104BB0006C0980916A0080936B0980916B008093EF
:044BC0006A09FFCFB0
:104BC4001F920F920FB60F92112482EE95E28093FA
:104BD4006C0980916A0080936B0980916B008093CB
:044BE4006A09FFCF8C
:104BE80080915C0990915D09E0E1F1E094A783A7C9
:104BF80080916F0985A710925D0910925C09109247
:044C08006F09089593
:104C0C0080917B09811106C00E943A24909361091E
:104C1C008093600980917B09811102C081E0089525
:044C2C0080E0089587
:104C3000CF9381E00E94CD2640E050E0BA0180E0B1
:104C40000E94051AC82F80E00E94CD268C2FCF919C
:024C50000895C5
:104C520060957095809590953095409550952195E9
:104C62003F4F4F4F5F4F6F4F7F4F8F4F9F4F089573
:104C7200A29FB001B39FC001A39F700D811D11249B
:0E4C8200911DB29F700D811D1124911D08958A
:104C900097FB57FF0C94B9209F938F930E94B920E4
:0E4CA0006E1B7F0BAF91BF918A0B9B0B08958B
:104CAE00689401C0E8948F929F92CF93DF930E94F5
:0C4CBE005A1ADF91CF919F908F900895BB
:104CCA00A8950FB6F894A8958091600088618093A2
:0A4CDA006000109260000FBE089504
:104CE40086FD09C088B18F7E88B98EB18D7F8EB95B
:084CF40080E00E9451270895A1
:104CFC0057FD05C0659175918591959108956191C8
:084D0C007191819191910895CC
:104D14000024A7FD00942A0F301D401D501D601D66
:084D2400701D801D901D089513
:104D2C0090916909911105C020E00E940E1081E05C
:064D3C00089580E00895D7
:104D4200843040F48093050190910701891710F493
:064D5200809306010895A4
:104D5800109270091092710910925D0910925C0905
:064D680010926F0908958E
:104D6E000E943926A59F900DB49F900DA49F800D93
:064D7E00911D11240895AF
:104D8400EC010E9469270E946827CE010E946A27CD
:064D9400CE010E9465271C
:104D9A00882321F088B18F7B88B9089588B180640F
:044DAA0088B9089527
:104DAE00F999FECF92BD81BD8FB381608FBB80B567
:024DBE00089556
:104DC000FC01480F591FE417F50711F06193FBCF61
:024DD000089544
:104DD2000E943926460F571FC81FD91F08F4319663
:024DE200089532
:104DE4002A0D3B1D4C1D5D1D6E1D7F1D801F911FD7
:024DF400089520
:104DF6002A153B054C055D056E057F058007910765
:024E060008950D
:104E080081E080931E0310926E09809376090895BD
:104E180090958095709561957F4F8F4F9F4F08951E
:104E2800B7FF0C94B7260E94B726821B930B0895F0
:104E380057FD03C065917591089561917191089529
:0E4E4800CF93DF93CDB7DEB7DF91CF91089502
:0E4E56006AE070E080E090E00E94372108954D
:0E4E640044E050E0BC0183E00E940A20089563
:0E4E72000E943926B7FF0895821B930B089506
:0C4E8000EAE7F0E08081806880830895FC
:0C4E8C00E1E6F0E080E8808310820895E9
:0A4E980090934E0980934D09089590
:0A4EA200843010F480930601089597
:0A4EAC00109286090E94AC260895BA
:0A4EB60044E059E00E94D91E08955F
:064EC00080912703089514
:044EC6000C94000048
:044ECA000E946B00D7
:024ECE00089545
:024ED000089543
:024ED200089541
:024ED40008953F
:00000001FF
