:100000000C9443000C9462220C9474220C9486226B
:100010000C9498220C94AA220C94BC220C941D25BA
:100020000C941A1D0C94E0220C94021A0C94F222E7
:100030000C94EF160C9404230C9416230C943B1090
:100040000C944F130C9428230C94D5100C943A2341
:100050000C941D250C944C230C94CE220C94341932
:100060000C94321F0C945E230C9470230C94911604
:100070000C94091F0C9482230C9494230100010218
:10008000800104077B8011241FBECFEFD0E1DEBFCB
:10009000CDBFECE7F0E040E017C0B591A5913591F8
:1000A0002591059107FD0CC095918591EF01F92FE0
:1000B000E82F05900D92A217B307D9F7FE0104C0EF
:1000C0001D92A217B307E1F7E638F40731F70E9453
:0A00D000AE070C947424F894FFCFDF
:1000DA000000000080DE280080C84D0000A77600DE
:1000EA0000349E008012C700809FEE00007E170138
:1000FA00805C400180E9670100C890010055B801A1
:10010A0080841E00000140420F00000020A1070069
:10011A00010190D00300010048E80100020124F423
:0A012A0000000201127A000002003A
:1001340010050915050B14050C12050A1105051EF9
:0B014400050D1F050E16050F17051016
:10014F004173736572742025733A2025640A002E5B
:0B015F002E2F2E2F6D61696E2E6300A5
:10016A002E2E2F2E2F7274635F6D637037393430E1
:04017A006E2E630082
:10017E0000060C12191F252B32383E444B51575D89
:0F018E000902050601050701060B00000B000022
:0C019D001F1C1F1E1F1E1F1F1E1F1E1FE9
:0C01A9001F1E1F1E1F1F1E1F1E1F1F1DDC
:0B01B5002E2E2F2E2F6164632E63009E
:0B01C0002E2E2F2E2F63616E2E630089
:0801CB0001000605FF0700001A
:0801D30001000105FF07000017
:0801DB0001000505FF0700000B
:0801E30001000805FF07000000
:0801EB0001000705FF070000F9
:0801F30001000405FF070000F4
:0801FB0001000305FF070000ED
:0802030001000205FF070000E5
:08020B0001000005FF070000DF
:080213000200000500050000D7
:08021B000000FF07FF070000CF
:04022300474D5400EF
:04022700474D5400EB
:10022C00A6E1B0E0ECE1F1E00C9456207901D42E7B
:10023C00C52EB62FA72FF82FB92E40585D4B6E4008
:10024C007F4F8F4F9F4F21153B474D415348624E77
:10025C0071408105910511F008F008C2188B0F87C9
:10026C009B2D8F2F7A2F6B2F5C2D4D2D97012058A6
:10027C003D454C4B5843610971098109910919019C
:10028C004D8359876D877983898B9A8BF0E8AF2ED4
:10029C00A1E5BA2ECC24C394D12CE12CF12C00E096
:1002AC0010E00E94B11D29013A014B018E8B9B8BF2
:1002BC0091014D8159856D85798189899A890E9431
:1002CC00AF1D2D833E834F8358878D819E81AF81D7
:1002DC00B885B7FF15C080589E4AAE4FBF4F8D836F
:1002EC009E83AF83B8879201A301B4018E899B8949
:1002FC00AFEF0E943C2429013A014B018E8B9B8B62
:10030C009201A301B4018E899B89A3E00E943C2435
:10031C00E7E0AE2EB12CC12CD12CE12CF12C00E05D
:10032C0010E00E94AF1D2D873E87AD85BE85B7FFBF
:10033C0003C01796BE87AD8751EBA52E6AE3B62E88
:10034C0072E0C72ED12CE12CF12C00E010E09201D0
:10035C00A301B4018E899B890E94B11D29873A871C
:10036C004B875C879201A301B4018E899B890E9403
:10037C00AF1D822E932EA42EB52EB7FE12C0B1EB5C
:10038C008B0EBAE39B1EB2E0AB1EB11C89859A851D
:10039C00AB85BC850197A109B10989879A87AB8781
:1003AC00BC87C501B4012CEA3EE840E050E00E9455
:1003BC003E2169017A01243031054105510529F4AA
:1003CC0043E0C42ED12CE12CF12CA4E5B1E7A7011C
:1003DC0096010E94CB242B013C01480C591C6A1C31
:1003EC007B1CC301B20125EB35E040E050E00E94DC
:1003FC003E2149015A01293131054105510529F4A4
:10040C0038E1832E912CA12CB12CABE4BAEFA501D1
:10041C0094010E94CB24460E571E681E791EC30100
:10042C00B2012DE631E040E050E00E943E212983EC
:10043C003A834B835C83243031054105510541F4EB
:10044C0083E090E0A0E0B0E089839A83AB83BC8327
:10045C00A3E9BEEF29813A814B815C810E94CB24B8
:10046C00460E571E681E791E232B242B252B81F438
:10047C0081149104A104B10471F431E020E0C114A1
:10048C00D104E104F10409F030E0832F922F05C070
:10049C0080E090E002C081E090E01201ABE32A0E14
:1004AC00311C280E391E9C0124593E4F2215330550
:1004BC0024F483599E4F281A390A92E0880C991C0F
:1004CC00AA1CBB1C9A95D1F789819A81AB81BC81FE
:1004DC00880E991EAA1EBB1EA4E6B0E0A7019601C9
:1004EC000E946924860E971EA81EB91ED501C40150
:1004FC00BB0F880B982FDC0189839A83AB83BC8359
:10050C0069857A858B859C8520E931E040E050E057
:10051C000E94FA23F22FE32F6A017B018C019401D4
:10052C00A5016981762F862F962FAF2EBE2E0E94A5
:10053C00AE2449015A016B017C0129EA31E040E00B
:10054C001A821982F901849147FD8081082E000CD2
:10055C00990BAA0BBB0B2F5F3F4F4F4F48165906F9
:10056C006A067B0654F0481A590A6A0A7B0AA98162
:10057C00BA811196BA83A983E5CFE981FA81EA3071
:10058C00F10574F03C97FA83E9839401A501B60157
:10059C00C701A1E00E943C2449015A016B017C0176
:1005AC009401A501B601C7012C593F474F4F5F4F2E
:1005BC006F4F7F4F8F4F9F4F2F3F3F4F410551053F
:1005CC00610571058105910511F008F04FC024E615
:1005DC00820E911CAF85B8891B969C928E921A97AD
:1005EC00E981FA8132961996FC93EE931897FFEFF6
:1005FC004F1A5F0A17965C924E9216978D859E85C0
:10060C001D969C938E931C971F963C922E921E9730
:10061C006D817E818F81988520E13EE040E050E045
:10062C000E943E21AF85B88915963C932E93149762
:10063C008CE3C82ED12CE12CF12C6D817E818F8125
:10064C009885A70196010E943E214B015C01CA01CD
:10065C00B901A70196010E943E21EF85F8897383A9
:10066C0062839182808280E090E002C08FEF9FEFE6
:08067C006696E2E10C94722085
:10068400CF92DF92EF92FF920F931F93CF93DF935A
:1006940000D000D0CDB7DEB78C0180911803882339
:1006A40069F088E0D8011D928A95E9F748E0B8011D
:1006B40088E00E9448248111109218038091160347
:1006C400882309F400C180916507811180C080915D
:1006D40006018F70F801808380911E0381838091CD
:1006E4001D03828380911D01838384E03496DF019E
:1006F4001D928A95E9F780915001882379F08091C1
:100704005301882371F080910601833069F40E94BB
:100714006211809137019091380108C080E090E81F
:1007240005C080E090E802C080E090E8F80184838E
:10073400958380914D01882379F080914E019091A9
:100744004F014FEF53E060E070E09A01AB01281BCA
:10075400390B4109510903C020E030E0A901ECE064
:10076400F1E0A1A1B2A10E94C824DC01CB016894EC
:1007740016F8B695A795979587951694D1F7C18CD9
:10078400D28CE38CF48CBC01CD016C0D7D1D8E1DCF
:100794009F1D2FE030E040E050E00E94A01F209316
:1007A400490130934A0140934B0150934C01D801C5
:1007B40016962C93169717963C9348E0B80181E05F
:1007C4000E944824882309F467C081E06CC081300A
:1007D400A1F5ECE0F1E085A996A9D8018C9385A94F
:1007E40096A911969C93119783A994A912968C9318
:1007F400129783A994A913969C93139787A990ADF4
:1008040014968C93149787A990AD15969C9361AD1B
:1008140072AD83AD94AD2FE030E040E050E00E9433
:10082400A01FF8012683378348E0B80182E00E94C4
:100834004824882399F181E036C0823089F5ECE0C0
:10084400F1E087A590A9D8018C9387A590A911966A
:100854009C93119785A596A512968C93129785A5BE
:1008640096A513969C93139781A992A914968C9399
:10087400149781A992A915969C93159716961C9284
:10088400169717961C9248E0B80183E00E9448240A
:10089400882341F081E007C080E005C080E003C008
:1008A40081E001C080E0882371F0809165078F5F4B
:1008B40080936507833038F0109265071092160311
:1008C40081E08093130380911503882309F46EC09B
:1008D4001C821B821A8219829091350180911B031C
:1008E400891708F05DC080911B0390E04496880F3F
:1008F400991F880F991FAE014F5F5F4FBE016D5F57
:100904007F4F845F9E4F0E94EC2180911B03F8016E
:100914008083ECE0F1E08189D80111968C931197E2
:1009240099818A8112969C93129713968C931397AC
:100934003B812C8114963C93149715962C93832F0A
:10094400922F64E070E10E94142244E6649F602DBB
:100954001124D80116966C9363A974A985A996A944
:10096400681B790B832F922F0E941422649F602DA1
:100974001124F801678348E0B80184E00E94482408
:100984008823A1F080911B038F5F80931B039091B8
:100994001B0380911C03981748F01092150306C09E
:1009A40010921C0310921B031092150380911303E1
:1009B400882389F1ECE0F1E08785D8018C93808964
:1009C40011968C93119784A195A112968C931297EA
:1009D40084A195A113969C93139782A514968C9346
:1009E400149786A18F3F31F081A596A1891B159696
:1009F4008C9303C08FEFF8018583D80116961C925F
:100A0400169717961C9248E0B80186E00E94482485
:100A140081111092130380911403882391F0B8017B
:100A2400C80102960E94EA18F801148215821682FF
:100A3400178248E0B80185E00E9448248111109291
:100A440014030F900F900F900F90DF91CF911F918F
:0C0A54000F91FF90EF90DF90CF9008957D
:100A60003F924F925F926F927F928F929F92AF923E
:100A7000BF92CF92DF92EF92FF920F931F93CF938B
:100A8000DF9300D000D000D0CDB7DEB78091330126
:100A900090913401892B09F41EC1ECE0F1E08FEF55
:100AA00086A3978581A5891728F481A5878781E08A
:100AB00080931303ECE0F1E0908981A5981728F466
:100AC00081A5808B81E08093130380913301909105
:100AD000340183709927892B61F0809136018F3F13
:100AE00041F0ECE0F1E082A58F5F82A781E0809386
:100AF0001303ECE0F1E014AA13AA8FEF9FEF96AB7B
:100B000085AB10AE17AA80E090E896A785A78FEF77
:100B10009FE790AB87A712AA11AAD12C312CC12C28
:100B2000412C512C3201812C912C54012FEF3FE7A5
:100B30003E832D8380E090E89C838B836BC00D2DDA
:100B400010E0F8017496EE0FFF1FEE0FFF1FE45F39
:100B5000FE4F808191819A838983E280F38060E0F7
:100B600070E0C7010E94001C8823F1F0F4FE03C06E
:100B7000C701906F02C0C7019F77EB81FC81E81726
:100B8000F90714F49C838B832D813E818217930790
:100B900014F49E838D83092E000CAA0BBB0B880EC8
:100BA000991EAA1EBB1E3394F8017496EE0FFF1F08
:100BB000EE0FFF1FE45FFE4F8081918199231CF4AB
:100BC00081E080932F01BE016F5F7F4F89819A8101
:100BD0000E947E1D8823E9F020913F013091400161
:100BE00089819A812817390720F4909340018093D6
:100BF0003F0120914101309142018217930720F477
:100C00009093420180934101480E591E611C711C52
:100C1000C394D39480913501D81608F490CFCC209A
:100C200079F10CE011E0F80141AE52AE63AE74AE62
:100C300061AD72AD83AD94AD2C2D30E040E050E05D
:100C40000E94A01FF80130AF27AB809106018330CE
:100C5000B9F080911103811113C023A934A985A98A
:100C600096A92817390760F083A994A925A936A960
:100C7000821B930B8034910518F081E0809312035E
:100C80003320C9F0232D30E040E050E0C501B4012D
:100C90000E943E216DE371E0C9010E94001C69E3DE
:100CA00071E08B819C810E94001C6BE371E08D815F
:100CB0009E810E94001C80910701882351F0809141
:100CC0000601882331F08CE091E00E94631280934A
:100CD00007010E94FA2426960FB6F894DEBF0FBED5
:100CE000CDBFDF91CF911F910F91FF90EF90DF90DB
:100CF000CF90BF90AF909F908F907F906F905F90BC
:060D00004F903F900895A2
:100D0600ACE0B0E0E9E8F6E00C94562049015A015F
:100D16006B017C011C830B832A3831054105510583
:100D2600610571058105910511F00CF042C0F901CC
:100D3600E454F109F595E795F595E795C9018370B2
:100D46009927892B51F431970115110569F081E036
:100D560090E0D8018D939C9307C08B819C8100976E
:100D660019F0DC011D921C92D901A654B10920E8A4
:100D760033E341EE51E00E94C8246B017C01DF01A0
:100D860020E831E541E050E00E94C824DC01CB01B7
:100D96008C0D9D1DAE1DBF1D9C01AD016C017D011D
:100DA600FF0CCC08DC2C7601AC2DFC2DEC2D9C2DFB
:100DB600CBC0EB81FC81EF2B31F41A821982CE0174
:100DC60001969C838B83C4018456910960E971E086
:100DD6000E9428227E836D839401A501B601C70176
:100DE600ACE90E943C2419012A013B018F839887B4
:100DF60070E9A72EBB24B394C12CD12CE12CF12C85
:100E060000E010E09101A201B3010E94AF1DC901EB
:100E1600009759F481E090E0AB81BC818D939C935F
:100E260020E030E040E050E033C0283C31056CF073
:100E36002C3231402CF08C52914043E050E00CC0F3
:100E4600885C910942E050E007C0243631056CF019
:100E56008456910941E050E0009749F4EB81FC810A
:100E66001182108220E030E013C040E050E09C0187
:100E760036952795369527958370992761E070E01A
:100E8600892B11F060E070E0AB81BC816D937C939F
:100E960081E6ED81FE818E9FB0018F9F700D11243A
:100EA600E8E1E49FC001E59F900D1124860F971F8E
:100EB600AB81BC814D915C91841B950B820F931F76
:100EC600E92FEE0FEE0B20E8A22E31E5B32ECC244F
:100ED600C394D12CE12CF12C00E010E09C014E2FA4
:100EE6005E2F6E2F7E2F8E2F9E2F0E944C18922ED5
:100EF600832E4B835D8369877A878B879C8743E341
:100F0600B42E51EEC52EDD24D3949101A201B30176
:100F16008F8198850E944C1859016A017B018C01CA
:100F2600292D382D4B815D8169857A858B859C8538
:100F36000E94AE243B564149574C6F4F7F4F8F4F0F
:100F46009F4FA62FF72FE82F6A2F7F2F8E2F2C96D5
:060F5600E2E10C947220A0
:100F5C00CF93DF93CDB7DEB728970FB6F894DEBFEB
:100F6C000FBECDBF0E94172488B18F7E88B987B180
:100F7C00806187B987B18D7F87B988B18F7E88B939
:100F8C008DB182608DB98EB18D7F8EB984B1806147
:100F9C0084B985B18F7E85B9E0E0F8E002C08AEAB9
:100FAC008193E11580E1F807D0F384B78093630750
:100FBC008091630783FF0AC080912003ECE0F1E08D
:100FCC0086858F5F86870E94E70A41C08091630700
:100FDC008091630780916307F8940E9400250E941A
:100FEC00E01E0E9426210E949D0F0E94881A809369
:100FFC00070181E00E944C1789E090E00E94932445
:10100C00809309018AB18F7B8AB98BB180648BB9CB
:10101C0011E01BBB82E08BBB84E08BBB88E08BBBFD
:10102C00ECE6F0E08081806480838BB384608BBBC2
:10103C0089EF9EE00E9406250E949C180E94D7080A
:10104C0085E0809306011092050110930B017894B2
:10105C0080910A018823E1F310920A01809119030F
:10106C00882329F0CE0101960E94420303C081E03F
:10107C0080931A0380911A038823C1F086E5898333
:10108C0080E28A8382E08B8383E08C830E94C91A7E
:10109C006D837E838F83988748E0BE016F5F7F4F9F
:1010AC0080E00E944824811110921A03809117034A
:1010BC00882371F01092170310921F0310921903DA
:1010CC0081E080931A030E94FA2480E00E940B2591
:1010DC00EFE6F0E0908180818D7F808380910B0121
:1010EC0020916B0790838130F1F5222399F11092B6
:1010FC006B070E94BE190E94A623CE0101960E9486
:10110C00300580916407843029F5ECE0F1E091A57D
:10111C0081899817E9F080911D018823C9F080918D
:10112C0009018823B9F0809109018F3F99F08091D2
:10113C0008018F5F8093080190910801809109014B
:10114C00981740F081E0809364071092080102C068
:10115C00109208010E94E70A80910F038823B1F0D6
:10116C0010920F0313C0222389F010926B070E9478
:10117C00BE1980E00E944C1780916407843031F4D2
:10118C000E9489240E9410250E94371E80910E0314
:10119C00882321F010920E030E9462110E94C32139
:0211AC0057CF1B
:1011AE00FF920F931F93CF93DF93CDB7DEB7A19727
:1011BE000FB6F894DEBF0FBECDBF198241E0BE015F
:1011CE006F5F7F4F87E00E94E51C182F882309F47C
:1011DE00EBC080E8898341E0BE016F5F7F4F80E006
:1011EE000E94E51C182F811117C0DEC0198241E044
:1011FE00BE016F5F7F4F83E00E94081B182F88236C
:10120E0009F4D2C0898185FD0AC060E070E0CB018F
:10121E000E94B71E0F5F01C000E0083C38F3083C87
:10122E0008F0C2C089818860898341E0BE016F5F8A
:10123E007F4F83E00E94E51C182F882309F4B4C069
:10124E0041E0BE016F5F7F4F82E00E94081B182FA6
:10125E00882309F4A9C089818F7B898341E0BE016F
:10126E006F5F7F4F82E00E94E51C182F882309F4E0
:10127E009BC0CE0102960E94DE12182F882309F41D
:10128E0093C08A818C3310F410E001C011E08B8181
:10129E008C3308F011E08C818C3308F011E08D81D5
:1012AE008150873008F011E02F818FEF820F8C3044
:1012BE0018F50E81002311F1822F90E00197092E6F
:1012CE00000CAA0B83569E4FAF4FFC01F490A7FD66
:1012DE00F080223071F4888590E08431910518F405
:1012EE008C5C974F02C08053984F0E948D208111C5
:1012FE00F394F01628F005C011E003C011E001C010
:10130E0011E01123B9F01A821B821C8281E08E83B8
:10131E008F8388E18887CE0102960E94E411182FF0
:10132E00882309F441C0CE0102960E94DE12182FC6
:10133E008823D1F1BE01675F7F4FCE0102960E94D6
:10134E00471BCE0109960E94451A8B019C01F89409
:10135E0000933D0710933E0720933F0730934007BD
:10136E0010924107109242071092430710924407C1
:10137E00789487B18E7F87B988B1816088B941E052
:10138E00BE016F5F7F4F87E00E94081B182F8823D6
:10139E0059F089818064898341E0BE016F5F7F4F80
:1013AE0087E00E94E51C182F812FA1960FB6F894A6
:1013BE00DEBF0FBECDBFDF91CF911F910F91FF907A
:0213CE00089580
:1013D0008F929F92AF92BF92CF92DF92EF92FF9245
:1013E0000F931F93CF93DF93F82E6A01E62EE90146
:1013F0000F2EF5E08F2EF02D881638F44DEC50E0CE
:1014000060EC71E080E00E948121093038F04EEC00
:1014100050E060EC71E080E00E9481218F2D829588
:10142000807F8093ED001092EE00F6018491E7FC3E
:10143000808120E4829FC0011124102F182BAE2D33
:10144000C6010196A11DFC018491A7FD8081811137
:10145000106210610E941A254E2D96012E5F3F4F9B
:101460004F4FF901542F0E94D024AB01577060E018
:1014700070E0032E32E1440F551F661F771F3A9527
:10148000D1F7302D4A015B01882AD501C4014E2DC8
:1014900096012A5F3F4F4F4FF901249147FD20816C
:1014A000222311F024E001C020E0E0EFF0E02083EF
:1014B0002081382F330F330F330F232B2083AC01C0
:1014C000BD01689414F876956795579547951694DD
:1014D000D1F74093F100AC01BD01032E3DE07695BC
:1014E0006795579547953A95D1F7302D4093F2007F
:1014F000072E75E1B695A795979587957A95D1F7BB
:10150000702D8093F300AE2DC6010796A11DFC013E
:101510008491A7FD8081882311F084E001C080E0E0
:10152000E4EFF0E080838081816080831092F50099
:10153000AE2DC6010496A11DFC015A2F0E94D02495
:101540006295660F607E6093F600FC015A2F0E9440
:10155000D02476956795769567957695679560938F
:10156000F70004C089918093FA0001500111FACF6D
:101570001093EF00F6018491E7FC8081882369F0E5
:10158000EEEDF0E0208181E090E002C0880F991F2D
:10159000FA94E2F7822B80830DC0EEEDF0E020811B
:1015A00081E090E002C0880F991FFA94E2F78095DD
:1015B00082238083DF91CF911F910F91FF90EF9055
:0E15C000DF90CF90BF90AF909F908F900895D6
:1015CE001F93CF93DF93D0910501809104018D1766
:1015DE0030F09091060180910401891710F4D0919A
:1015EE00040180910601D81709F4E1C0D23009F444
:1015FE006EC028F4DD2389F0D130E1F1CCC0D330B8
:10160E0009F49DC0D53009F0C6C0109206011092A3
:10161E000501D09106010E94F42488B18F7E88B90D
:10162E0068E873E180E090E00E94B71E8EB18D7F76
:10163E008EB968E873E180E090E00E94B71EEBE699
:10164E00F0E080818D7F8083E8E6F0E080818D7F01
:10165E00808381E080931203109211031092100385
:10166E0080910701882309F49EC00E94AD218093CA
:10167E00070199C088B18F7E88B968E873E180E070
:10168E0090E00E94B71EEBE6F0E080818D7F8083B4
:10169E00E8E6F0E080818D7F80838EB182608EB926
:1016AE0068E873E180E090E00E94B71E81E08093CD
:1016BE0012031092110310921003809107018823D8
:1016CE0009F471C00E943A20809307016CC06199A1
:1016DE0009C08EB182608EB968E873E180E090E057
:1016EE000E94B71ECBE026C088B1806188B988B150
:1016FE008F7788B988B1806888B968EE73E080E02A
:10170E0090E00E94B71E88B18F7E88B968E873E1B9
:10171E0080E090E00E94B71E60E573EC80E090E000
:10172E000E94B71E80910F03882319F010920F03A9
:10173E0001C0C12F1FEF1C0FC111D6CF34C061994C
:10174E0009C08EB182608EB968E873E180E090E0E6
:10175E000E94B71E88B1806188B988B18F7788B929
:10176E0088B1806888B968E873E180E090E00E94F3
:10177E00B71E109212031092110381E08093100392
:10178E00EBE6F0E0808182608083E8E6F0E0808125
:10179E008260808308C04AEC53E06EE571E080E021
:1017AE000E948121D5E0D09306010E94FA24DF9198
:0617BE00CF911F91089578
:1017C400A5E0B0E0E8EEFBE00C9456203B01882E47
:1017D400A82FCB010A96A11DFC015A2F0E94D024E8
:1017E4005B019B019B2C990C9908F92CB92DA92D0F
:1017F400892D992DE82C630148E0C40ED11CE11C0D
:10180400F6015E2D0E94D0242B016C30710510F17D
:10181400CB016CE070E00E9428222C0197FF05C0E8
:10182400615071098CE0480E511C972F990F990B48
:101834009B01492F592F692F792F892FC92CD92C16
:10184400E92CF92C092D192D0E94AE24942EF52E85
:10185400B62FA72F8E010F5F1F4F492D5F2D6B2FC2
:101864007A2F0E94830659016A017B018C016981E8
:101874007A81C2010E94FF1F1B012C01550C220812
:10188400322C21019B01AC01622D722D822D922DEF
:101894000E94AE2419012A01962E7B838C839D839A
:1018A400A82DC3010696A11DFC015A2F0E94D02425
:1018B40061507109972F990F990B30E8A32E41E5D8
:1018C400B42ECC24C394D12CE12CF12C00E010E0F4
:1018D4009B01492F592F692F792F892F0E944C186A
:1018E40051016201E92CFB800C811D810E94AE2410
:1018F40059016A017B018C01A82DC3010496A11D25
:10190400FC015A2F0E94D024072E000C880B990B3F
:1019140020E13EE040E050E00E94FA230E94AE2421
:1019240059016A017B018C01A82DC3010296A11DF6
:10193400FC015A2F0E94D024072E000C880B990B0F
:101944002CE330E040E050E00E94FA230E94AE24F1
:1019540059016A017B018C01F301582D0E94D024A6
:101964009B01932F990F990B492F592F692F792F89
:0E197400892F0E94AE242596E2E10C94722089
:10198200CF92DF92FF920F931F93CF93DF93CDB746
:10199200DEB728970FB6F894DEBF0FBECDBF982FE3
:1019A2009295907F9093ED00EEEDF0E0208101E0C2
:1019B20010E0082E02C0000F111F0A94E2F7902FC8
:1019C200909592239083EFEEF0E090819F73908345
:1019D20081115DC08091EE0086FF09C0EEEEF0E05D
:1019E20080818F7B808310925F0710925B078091CA
:1019F200EE0085FF38C0EEEEF0E080818F7D8083BF
:101A0200C0904507D0904607C114D10461F180917E
:101A1200EF008F70F82E4091F30050E0440F551FF5
:101A2200440F551F440F551F8091F20082958695F1
:101A32008770482B90E00AC02091FA00E1E0F0E0C4
:101A4200EC0FFD1FE90FF11D20839F5F9F15A0F38F
:101A5200CA010E944D1D813131F04F2DBE016F5FD1
:101A62007F4FF60109958091EE008E7029F0EEEE1F
:101A7200F0E08081817F8083EEEDF0E08081082BB1
:101A82000083EFEEF0E080818068808334C0813093
:101A920091F58091EE0086FF07C0EEEEF0E08081C6
:101AA2008F7B808310925F078091EE0085FF05C0D7
:101AB200EEEEF0E080818F7D80838091EE0089716F
:101AC200D1F0EEEEF0E08081867E808380915E0729
:101AD200843168F481E080935B0721E040915C07E8
:101AE20065E377E080915D070E948A0D04C0109241
:101AF2005F0710925B0728960FB6F894DEBF0FBE01
:101B0200CDBFDF91CF911F910F91FF90DF90CF90CA
:021B1200089534
:101B14006F927F928F92EF92FF920F93CF93DF9306
:101B2400C82F7B01042FD22F8823F9F0813031F1A3
:101B3400823069F18330A1F18630D9F1873009F41C
:101B440041C0853009F447C0843009F44DC0883061
:101B540009F453C049E351E060EC71E080E00E9475
:101B64008121612C712C812C50C00F2EFBE06F2E33
:101B7400F2E07F2EF0E08F2EF02D47C00F2EF3E021
:101B84006F2EF2E07F2EF0E08F2EF02D3EC00F2E50
:101B9400FBEF6F2EF1E07F2EF0E08F2EF02D35C09D
:101BA4000F2EF3EF6F2EF1E07F2EF0E08F2EF02D4D
:101BB4002CC00F2EFBEE6F2EF1E07F2EF0E08F2E67
:101BC400F02D23C00F2EF3EE6F2EF1E07F2EF0E008
:101BD4008F2EF02D1AC00F2EF3ED6F2EF1E07F2E15
:101BE400F0E08F2EF02D11C00F2EFBED6F2EF1E0E3
:101BF4007F2EF0E08F2EF02D08C00F2EFBEC6F2E01
:101C0400F1E07F2EF0E08F2EF02DDD2321F0809186
:101C14005B07811130C0D11104C080915F0781112D
:101C24002AC081E080935F07D1111AC010925E0729
:101C3400C0935D07093038F049E451E060EC71E08D
:101C440080E00E948121202F30E0C701A0E8AC0190
:101C54006A2F85E397E00E940D2100935C0705C07D
:101C640080915E078F5F80935E079701682DA301C3
:101C740081E00E94E809DF91CF910F91FF90EF90EE
:081C84008F907F906F9008958E
:101C8C001F93CF93DF9300D000D00F92CDB7DEB768
:101C9C0087B1806487B988B1806488B988B1806461
:101CAC0088B90E9497210E941D2010E00DC0CE0122
:101CBC0001960E94CA23813049F060E177E280E00E
:101CCC0090E00E94B71E1F5F143688F3143609F497
:101CDC0076C0CE01019625E0FC0111922A95E9F718
:101CEC000E94C120813009F05EC08C818A3A09F0D3
:101CFC0068C040E050E060E070E4CE0101960E94C4
:101D0C000C1E811160C0CE0101960E94DB2088233D
:101D1C000CF45BC085E297E00E94851B88230CF4D1
:101D2C0056C0E5E2F7E087818F7390E0A0E0B0E069
:101D3C00BC01552744279085892F90E0A0E0B0E0A6
:101D4C00BA2FA92F982F8827842B952BA62BB72B2E
:101D5C002185822B0196A11DB11D072E7AE0880FDB
:101D6C00991FAA1FBB1F7A95D1F7702D80934C0732
:101D7C0090934D07A0934E07B0934F0725812F707A
:101D8C0081E090E002C0880F991F2A95E2F79093AA
:101D9C0057078093560760EC78ED87EA90E00E9435
:101DAC00061581E017C040E050E060E070E4CE0121
:101DBC0001960E940C1E81110CC081E00BC080E0CA
:101DCC0009C080E007C080E005C080E003C080E06F
:101DDC0001C080E00F900F900F900F900F90DF914B
:061DEC00CF911F91089544
:101DF200EF92FF920F931F93CF93DF93C82F8B0124
:101E0200D42FF0901903893041F5483009F08DC084
:101E1200FB01C0818281823009F087C083818330D7
:101E220009F083C00E94C91AF80104811581268134
:101E32003781601771078207930709F076C0109205
:101E42006907C0931F030E94FA2481E08093140360
:101E5200809319038093180368C0FB01E080442338
:101E620009F463C010926907803121F481818F7077
:101E72000E945324FF20E1F180911F03E81238C031
:101E8200CA3029F4D130A1F50E94FA2431C0CB30F6
:101E9200F1F4D33069F580911503811129C0F8015D
:101EA200818190911D01891718F580931B039091F0
:101EB2001B0390931C038F3F31F480911D0180938B
:101EC2001C0310921B0381E08093150311C0CC30D8
:101ED20051F410926907D23059F4F80181818F7060
:101EE2000E940B2505C0C53019F481E080931403CC
:101EF200CD3041F410921F031092190380E00E942A
:101F02000B2513C0CE3021F480E00E940B250DC0BA
:101F1200CF3059F4F80120813181428153816481AB
:101F22007581868197810E946B15DF91CF911F91F8
:081F32000F91FF90EF9008955C
:101F3A00CF9382E080937A0010927C0010929400F2
:101F4A0010929500109296001092970080EA809362
:101F5A007B00C0E083C02C2F30E0C901880F991F95
:101F6A00820F931F0196092E000CAA0B82579E4FCF
:101F7A00AF4FFC018491A7FD8081813041F008F4C4
:101F8A006CC0823021F1833009F441C05FC054B182
:101F9A00C901880F991F280F391F2E5F3F4F032E43
:101FAA00000C440B22573E4F4F4FF901249147FD35
:101FBA00208181E090E002C0880F991F2A95E2F7FC
:101FCA008095582354B995B1892385B946C057B12C
:101FDA00C901880F991F280F391F2E5F3F4F032E03
:101FEA00000C440B22573E4F4F4FF901249147FDF5
:101FFA00208181E090E002C0880F991F2A95E2F7BC
:10200A008095582357B998B1892388B926C04AB10F
:10201A00C901880F991F820F931F0296092E000C7F
:10202A00AA0B82579E4FAF4FFC012491A7FD208136
:10203A0081E090E002C0880F991F2A95E2F7809507
:10204A0048234AB99BB189238BB907C045EB50E0B5
:10205A0065EB71E080E00E948121CF5FC53008F412
:0C206A007ACF81E080935A07CF9108954F
:102076001F920F920FB60F9211242F933F934F93F7
:102086005F936F937F938F939F93AF93BF93EF93DA
:10209600FF9386B5835D87BD85B3826085BBEEE61B
:1020A600F0E080818260808380917007882321F030
:1020B60085B1886085B903C085B1877F85B9809170
:1020C60075078F5F8093750780917507833061F47C
:1020D60080917107882341F08BE0809375071092F9
:1020E6007007109273074DC0809175078A3080F48F
:1020F60080917407882324F481E08093700702C0DE
:102106001092700780917407880F8093740739C006
:10211600809175078A3029F4809173078093700740
:1021260030C0809175078B3019F41092700729C062
:10213600809175078C3029F580917307809370071D
:102146001092750780917307811108C0109272076B
:10215600EEE6F0E080818D7F808313C00E94B82375
:10216600809373070E94581F8093740786B588531F
:1021760087BD85B3826085BBEEE6F0E08081826034
:102186008083FF91EF91BF91AF919F918F917F9146
:102196006F915F914F913F912F910F900FBE0F90CE
:0421A6001F901895D9
:1021AA001F920F920FB60F9211240F931F932F9322
:1021BA003F934F935F936F937F938F939F93AF93C5
:1021CA00BF93CF93DF93EF93FF93EBEDF0E0D081D2
:1021DA001091DE0080818F7780837894C091E0002F
:1021EA00C0FF0CC080E00E94C10C00E020E030E09B
:1021FA0043E152E060E080E00E94E809C1FF03C0C9
:10220A0081E00E94C10C8091DA0086FF03C080E45D
:10221A008093DA008091DA0084FF0AC049EE51E027
:10222A0060EC71E080E00E94812180E18093DA0015
:10223A008091DA0083FF03C088E08093DA008091FE
:10224A00DA0082FF03C084E08093DA008091DA002A
:10225A0081FF03C082E08093DA008091DA0080FF78
:10226A0013C081E08093DA0080915E07843150F4D4
:10227A0021E040915C0765E377E080915D070E9469
:10228A008A0D02C010925F071093DE00D093DB0024
:10229A00FF91EF91DF91CF91BF91AF919F918F9174
:1022AA007F916F915F914F913F912F911F910F9164
:0A22BA000F900FBE0F901F901895B3
:1022C400A0915101B0915201809154019091550116
:1022D400E0916D07EF3F81F407C0F0E0EE0FFF1FC0
:1022E400EB5EF84F91838083E0916D07EF5FE0939D
:1022F4006D07E83090F30FC021E02E0F20936D0797
:10230400F0E0EE0FFF1FEB5EF84F918380832830DF
:1023140010F010926D0780E020E030E00BC0E82F51
:10232400F0E0EE0FFF1FEB5EF84F40815181240F68
:10233400351F8F5F883098F3C90199230CF40796F1
:10234400959587959595879595958795A81BB90B30
:1023540020E83CE00E94ED24AB01BC015F5F6F4FBD
:102364007F4FDB01CA01772324F481509E4FAF4F86
:10237400BF4F072E79E0B595A795979587957A95E0
:10238400D1F7702D9058AF4FBF4FECE0F1E094A718
:1023940083A723A534A5828993898217930720F400
:1023A40083A594A5938B828BECE0F1E023A534A55F
:1023B400848995892817390720F483A594A5958BDA
:0423C400848B089569
:1023C800FC0120818DEC289F912D112496959695DE
:1023D800969530E1939FA0011124990F392F330F5F
:1023E800330F930F291B242B20832181289F912DA4
:1023F800112496959695969530E1939FA001112406
:10240800990F392F330F330F930F291B242B218357
:102418004281489F912D112496959695969550E165
:10242800959F90011124990F392F330F330F930F74
:10243800491B242B2F7B2283938197709860938369
:102448002481289F912D112496959695969530E193
:10245800939FA0011124990F392F330F330F930F36
:10246800291B242B24832581289F912D112496959F
:102478009695969530E1939FA0011124990F392FD5
:10248800330F330F930F291B242B25839681989F95
:10249800812D112486958695869540E1849F90012B
:1024A8001124880F382F330F330F830F981B922B6B
:0E24B800968347E0BF0180E00E94E51C089576
:1024C6008F929F92AF92BF92CF92DF92EF92FF923E
:1024D6000F931F93CF93DF93FC0124813581213025
:1024E600324008F05AC0EC012C813D81AC0160E815
:1024F60084E293E00E940D218C819D81811592409A
:1025060070F42C813D818C819D8140E052E0421B1C
:10251600530B60E070E08C5D9C4F0E949C24C12CA4
:10252600D12C7601C394812C912C54012FC060913B
:10253600500770915107809152079091530701E01F
:1025460010E020E030E0A4014C5D5C4F0E94BE1319
:10255600882321F18091500790915107A09152074D
:10256600B09153070196A11DB11D8093500790931A
:102576005107A0935207B093530742E0940EA11C53
:10258600B11C81E0C81AD108E108F108C114D104D0
:10259600E104F10461F681E001C080E0DF91CF91B2
:1025A6001F910F91FF90EF90DF90CF90BF90AF906B
:0625B6009F908F90089534
:1025BC00CF93DF93EC0147E0BC0180E00E94081B45
:1025CC00882309F463C09881292F22952F702770D6
:1025DC00220F322F330F330F230F9F70920F9883DC
:1025EC009981292F22952F702770220F322F330FAC
:1025FC00330F230F9F70920F99839A8196FF11C00E
:10260C0094FB222720F9220F322F330F330F230F85
:10261C00392F3F70230F2A8395FF0FC0245F2A8325
:10262C000CC0292F22952F702370220F322F330FBD
:10263C00330F230F9F70920F9A839B8197709B830C
:10264C009C81292F22952F702370220F322F330F4C
:10265C00330F230F9F70920F9C839D8194FB222735
:10266C0020F9220F322F330F330F230F9F70920F4D
:10267C009D839E81292F22952F70220F322F330F8D
:10268C00330F230F9F70920F9C5E9E83DF91CF912F
:02269C0008959F
:10269E001F920F920FB60F9211242F933F934F93C9
:1026AE005F936F937F938F939F93AF93BF93EF93AC
:1026BE00FF9386B5855D88BD85B3846085BBEEE6E8
:1026CE00F0E08081846080832091770783B182FB64
:1026DE00882780F98093770790916E07992331F0C0
:1026EE0098B1906898B910926E0706C098B19F770E
:1026FE0098B981E080936E0780917A078F5F8093FF
:10270E007A07813019F41092790720C08A3038F494
:10271E0080917907880F822B8093790717C02093B9
:10272E0076078CE0809369008CB382608CBB8DB38E
:10273E0082608DBBEEE6F0E080818B7F808380919E
:10274E0079070E943D1C83E080937807FF91EF91FB
:10275E00BF91AF919F918F917F916F915F914F91AB
:0E276E003F912F910F900FBE0F901F90189566
:10277C008F929F92AF92BF92CF92DF92EF92FF9285
:10278C000F931F93CF93DF934B015C01EA01680118
:10279C0079010E94212581E00E947F2481E0C816E6
:1027AC00D104E104F10489F4B501A40188E10E948B
:1027BC00A617811137C060915607709157074EEFDD
:1027CC00CE010E943016182F30C0B501A40189E14A
:1027DC000E94A617882319F027C06C017D01609117
:1027EC005607709157074CEFCE010E943016182FE8
:1027FC000E9421258091560790915707C80FD91F29
:10280C00112349F0D701C6010197A109B109CD28BF
:10281C00CE28CF2811F740E050E0BA018CE00E949E
:10282C00A61703C010E001C010E080E00E947F24D6
:10283C00812FDF91CF911F910F91FF90EF90DF903F
:0C284C00CF90BF90AF909F908F900895A8
:102858008F929F92AF92BF92CF92DF92EF92FF92A8
:102868000F931F93E4E2F5E0C48CD58CE68CF78CCB
:1028780080A091A0A2A0B3A001E010E020E030E089
:1028880044E253E0C701B6010E949A14882309F470
:1028980042C0F401EC5DFC4F00913C0510913D05F0
:1028A80020913E0530913F050083118322833383B5
:1028B800148215821682178201E010E020E030E0D1
:1028C80044E253E0C701B6010E94BE13882319F100
:1028D800E4E2F5E080A191A1A2A1B3A10896A11D0F
:1028E800B11D80A391A3A2A3B3A381159240A10512
:1028F800B10578F0848D958DA68DB78D0196A11DB3
:10290800B11D848F958FA68FB78F10A211A212A226
:1029180013A20E94F4201F910F91FF90EF90DF9077
:0C292800CF90BF90AF909F908F900895CB
:102934008F929F92AF92BF92CF92DF92EF92FF92CB
:102944000F931F93CF93DF934B015C01EA0168015E
:1029540079010E94212581E00E947F2481E0C8162C
:10296400D104E104F10481F4B501A40181E10E94E0
:10297400A617811135C06091560770915707CE0193
:102984000E947919182F2FC0B501A40182E10E9479
:10299400A617882319F026C06C017D0160915607A3
:1029A40070915707CE010E947919182F0E94212592
:1029B4008091560790915707C80FD91F112349F0EA
:1029C400D701C6010197A109B109CD28CE28CF2886
:1029D40019F740E050E0BA018CE00E94A61703C04A
:1029E40010E001C010E080E00E947F24812FDF917D
:1029F400CF911F910F91FF90EF90DF90CF90BF90F8
:082A0400AF909F908F900895A0
:102A0C00CF92DF92EF92FF926B017C0120E019C014
:102A1C00822F90E0AC01440F551F840F951F880F37
:102A2C00991F092E000CAA0B865F9E4FAF4FFC011D
:102A3C005A2F0E943024C616D706E806F90618F459
:102A4C002F5F273028F3273009F421506CB530E084
:102A5C00A901440F551FCA01820F931F880F991F9C
:102A6C000496092E000CAA0B865F9E4FAF4FFC01FB
:102A7C008491A7FD80816C7F862B8CBD6DB5CA01BE
:102A8C00820F931F880F991F0596092E000CAA0B15
:102A9C00865F9E4FAF4FFC018491A7FD80816E7FB6
:102AAC00862B8DBD240F351F220F331F032E000CD8
:102ABC00440B265F3E4F4F4FF901542F0E94302498
:0A2ACC00FF90EF90DF90CF90089587
:102AD6000F931F93CF93DF93CDB7DEB7A8970FB6AB
:102AE600F894DEBF0FBECDBF29A33AA34BA35CA3C8
:102AF6006DA37EA38FA398A7FE01319689E1DF011E
:102B06001D928A95E9F7BE016F5D7F4F80E80E94AE
:102B160015258C01892B39F442E851E06AE671E00B
:102B260080E00E948121A80160E829E130E0CE0121
:102B360001960E940D21BE01665E7F4FCE01019671
:102B46000E948D1EF89479A16AA15BA14CA13DA1BA
:102B56002EA19FA188A570933D0760933E075093D1
:102B66003F074093400730934107209342079093D5
:102B76004307809344077894CE014A960E94E41155
:102B8600A8960FB6F894DEBF0FBECDBFDF91CF91EA
:062B96001F910F9108954C
:102B9C00CF92DF92EF92FF928F3508F08EE5ECE04A
:102BAC00F1E0818BC82ED12CE12CF12CAAECB8E0F1
:102BBC00A70196010E946924618F728F838F948F75
:102BCC00A4E9B1E10E946924658F768F878F90A369
:102BDC00858D968DA78DB0A1418D528D638D748D91
:102BEC00841B950BA60BB70B880F991FAA1FBB1F35
:102BFC00880F991FAA1FBB1F880F991FAA1FBB1FE5
:102C0C00880F991FAA1FBB1F880F991FAA1FBB1FD4
:102C1C00880F991FAA1FBB1F880F991FAA1FBB1FC4
:102C2C00AC01BD01BB2324F441505C4F6F4F7F4F6F
:102C3C00032E3AE075956795579547953A95D1F7D8
:102C4C00302D50932E0140932D01FF90EF90DF908B
:042C5C00CF90089578
:102C6000EF92FF920F931F93CF93DF9300D0CDB7D6
:102C7000DEB78C017B014A8341E050E0BE016E5F0C
:102C80007F4F81E00E94E01D8A818D3FE1F1A70125
:102C9000B80181E00E94E01D00E010E00DC041E0BD
:102CA00050E0BE016F5F7F4F83E00E94E01D89818D
:102CB0008F3F31F40F5F1F4F0E3988E9180778F303
:102CC0000E39184911F189818F718983853081F01E
:102CD00080E01EC041E050E0BE016F5F7F4F83E0A7
:102CE0000E94E01D8981811109C00F5F1F4F02C042
:102CF00000E010E00E3988E9180760F30E39184932
:102D000031F081E005C081E003C080E001C080E0D7
:102D10000F900F90DF91CF911F910F91FF90EF9047
:022D2000089514
:102D220078941F920F920FB60F9211242F933F9314
:102D32004F935F936F937F938F939F93AF93BF93C1
:102D4200EF93FF936091780070917900809147072B
:102D520091E0980F90934707953010F01092470733
:102D6200ACE7B0E05C912091470730E0F901EE0F4B
:102D7200FF1F2E0F3F1F032E000C440B22573E4F06
:102D82004F4FF901949147FD9081507E952B906CA5
:102D92009C930E944F2280914707811109C0EAE764
:102DA200F0E08081877F808381E080935A0705C0AD
:102DB200EAE7F0E0808188648083FF91EF91BF9120
:102DC200AF919F918F917F916F915F914F913F91C1
:0C2DD2002F910F900FBE0F901F901895CE
:102DDE0078941F920F920FB60F9211248F939F9398
:102DEE00EF93FF9382E086BB8091840090918500E3
:102DFE008B5C934F9093890080938800EFE6F0E010
:102E0E0080818260808381E080930A0180916C07CB
:102E1E008F5F80936C0780916C07833078F01092EF
:102E2E006C0781E080936B0780910B01813019F460
:102E3E0010920B0103C081E080930B018091690712
:102E4E008F3F29F0809169078F5F8093690780918A
:102E5E0069078F3640F0809169078F568093690716
:102E6E0081E08093170380916A07882329F080916F
:102E7E006A07815080936A07FF91EF919F918F911E
:0A2E8E000F900FBE0F901F901895D3
:102E9800CF93DF9381110DC080910C0190910D01AA
:102EA800A0910E01B0910F018A379A4DA747BA4BEE
:102EB800E9F0ECE0F1E080E092E0DF01EC011D9246
:102EC8002197E9F7958384838AE79AEDA7E7BAEB18
:102ED80080839183A283B3838FEF86A3878784E05F
:102EE80090E00E9493240E94CE151CC0ECE0F1E013
:102EF80011AE12AE13AE14AE14AA13AA16AA15AACE
:102F080010AE17AA80EB91E0ACE5B1E0ED019C01B1
:102F1800199221503040E1F713A215A214A216A26B
:102F280011A612A6ECE0F1E08FE995E196A785A736
:102F380090AB87A792AB81AB8FEF80936D07DF9142
:042F4800CF91089588
:102F4C00DF92EF92FF920F931F93CF93DF93CDB746
:102F5C00DEB727970FB6F894DEBF0FBECDBF182F84
:102F6C00042FF52EE62ED72E88234CF440E050E0AB
:102F7C00BA0187E30E94A6178F83823040F5812F18
:102F8C008F7380648983DA82EB82FC820D83112338
:102F9C0011F080E001C085E9183009F487E8816000
:102FAC008E8346E050E0BE016F5F7F4F81E00E9450
:102FBC00E01D1AE041E050E0BE01695F7F4F83E005
:102FCC000E94E01D8F81882314F4115099F72796E5
:102FDC000FB6F894DEBF0FBECDBFDF91CF911F911E
:0A2FEC000F91FF90EF90DF90089521
:102FF60088249924F401E401B0E49F93AA279A1542
:103006008B049C04ED05FE05CF05D007A10798F4B7
:10301600AD2FDC2FCF2FFE2FE92D982C892E982F40
:10302600872F762F652F542F432F322F2227B85004
:1030360031F7BF9127C01B2EBF91BB27220F331F2D
:10304600441F551F661F771F881F991F881C991CD0
:10305600EE1FFF1FCC1FDD1FAA1FBB1F8A149B0478
:10306600EC05FD05CE05DF05A007B10748F08A1877
:103076009B08EC09FD09CE09DF09A00BB10B216005
:103086001A94E1F62EF49401AF01BE01CD01000CB5
:0230960008959B
:10309800DF93CF931F930F939A9DF02D219FF00DEF
:1030A8008B9DF00D8A9DE02DF10D039FF00D029F81
:1030B800E00DF11D4E9DE00DF11D5E9DF00D4F9D43
:1030C800F00D7F936F93BF92AF925F934F93D501AB
:1030D8000E94EB238B01AC01D7010E94EB23EB018B
:1030E800E80FF91FD6010E94A5242F913F91D60120
:1030F8000E94EB23C60FD71FE81FF91FAF91BF919E
:103108000E94A5242F913F910E94EB23C60FD71F41
:10311800E81FF91FD6010E94EB23E60FF71F98015D
:10312800BE01CF0111240F911F91CF91DF91089516
:103138000F93CF93C2E0C093E20084E08093E30052
:1031480082E18093E40000E020E030E04BE152E0CF
:1031580060E080E00E94E80920E030E04BE152E0C6
:1031680060E081E00E94E80920E030E04BE152E0B5
:1031780060E082E00E94E80920E030E04BE152E0A4
:1031880060E083E00E94E80920E030E04BE152E093
:1031980060E084E00E94E80920E030E04BE152E082
:1031A80060E085E00E94E80920E030E043E152E079
:1031B80060E080E00E94E8098EEB8093DB00C0931A
:0C31C800D80010925F07CF910F9108957E
:1031D4000F931F93CF93DF938C01EB01892BF9F0AD
:1031E40087E090E00E94932490E0F801918380832B
:1031F40088E090E00E94932490E0982F8827F801BB
:1032040020813181822B932B9183808301978E3F80
:103214009F4F28F08CEC97E7F801918380832097E7
:10322400E1F085E090E00E94932490E09983888304
:1032340086E090E00E94932490E0982F88272881CC
:103244003981822B932B9983888301978E3F9F4FDB
:1032540020F084EF91E899838883DF91CF911F91C7
:043264000F91089529
:1032680078941F920F920FB60F9211242F933F93C9
:103278004F935F936F937F938F939F93AF93BF9376
:10328800EF93FF9396B180910601833021F08091EE
:1032980006018230C9F491FF17C088B18F7E88B9C2
:1032A80080910601833019F481E00E940B25EBE63A
:1032B800F0E080818D7F8083E8E6F0E080818D7F7B
:1032C800808381E080930F03FF91EF91BF91AF91CD
:1032D8009F918F917F916F915F914F913F912F9126
:0A32E8000F900FBE0F901F90189575
:1032F200CF92DF92EF92FF920F931F93CF93DF93C0
:103302000F92CDB7DEB77C016B0100E010E101C086
:10331200890141E050E0BE016F5F7F4F83E00E9470
:10332200E01D89818E3F29F0980121503109012B3E
:1033320079F78E3FB9F4A601B70183E00E94E01D40
:1033420041E050E0BE016F5F7F4F83E00E94E01DCD
:1033520041E050E0BE016F5F7F4F83E00E94E01DBD
:1033620081E001C080E00F90DF91CF911F910F911A
:0A337200FF90EF90DF90CF900895D8
:10337C0080916407823049F128F4882341F0813030
:10338C0091F032C0833061F18430A9F12DC085B148
:10339C008F7E85B981E08093640780E00E944C1792
:1033AC000E94FA24089585B18F7E85B980E00E9431
:1033BC004C1782E08093640781E080936A07ECE00D
:1033CC00F1E08FEF8787108A089580916A07811149
:1033DC0012C085B1806185B983E08093640708953C
:1033EC0084E080936407089541E652E06EE571E055
:0833FC0080E00E948121089588
:1034040078941F920F920FB60F9211242F933F932B
:103414004F935F936F937F938F939F93AF938CB3EB
:1034240088608CBB20913D0730913E0740913F0757
:103434005091400760914107709142078091430782
:1034440090914407A1E00E943C2420933D073093CF
:103454003E0740933F0750934007609341077093A2
:1034640042078093430790934407AF919F918F91B4
:103474007F916F915F914F913F912F910F900FBE6C
:063484000F901F90189547
:10348A00A9E1B0E0EBE4FAE10C9458202C01BC016C
:10349A0080E80E94E20B39014A0159016A01E12CD4
:1034AA00F12C00E010E00E94B724F9F41A8A198A74
:1034BA001B8A1C8A1D8A1E8A27E232E040E02F8B73
:1034CA00388F498F8E010F5F1F4F9301482D0E943D
:1034DA00160197FD0AC089E1F801D20101900D9207
:1034EA008A95E1F7B301C4010AC08FE490E0909392
:1034FA000101809300016FEF7FEF8FEF9FEF6996D5
:06350A00E0E10C947420C6
:10351000CF930E94460EC82F8823C1F10E94C21F7C
:10352000811122C0E4E2F5E088ED91E0DF019C0129
:103530001D9221503040E1F781E090E0A0E0B0E042
:1035400084879587A687B787808F918FA28FB38F47
:1035500084E090E0A0E0B0E0848F958FA68FB78FD5
:103560000E94F420882389F080913C0590913D05CC
:10357000A0913E05B0913F0580935007909351076D
:10358000A0935207B093530701C0C82F8C2FCF913F
:0235900008959C
:10359200CF92DF92EF92FF9280E090E00E9493241C
:1035A200C82ED12CE12CF12C81E090E00E949324D2
:1035B20090E0A0E0B0E0BA2FA92F982F8827C82A60
:1035C200D92AEA2AFB2A82E090E00E94932490E022
:1035D200A0E0B0E0DC0199278827C82AD92AEA2A84
:1035E200FB2A83E090E00E94932490E0A0E0B0E008
:1035F200B82FAA2799278827BC01CD016C297D29DC
:0E3602008E299F29FF90EF90DF90CF900895C2
:10361000FF920F931F93CF93DF93F82E8B01C42F4C
:10362000411107C04FE550E06AE671E080E00E947A
:10363000812141E060E08EED0E947E1FD82F88231B
:10364000E9F08F2D0E94B01CD82F8823B9F040E0FC
:1036500061E08EED0E947E1FD82F811108C00EC040
:1036600081E00E94C31BF80181938F01C150C230D9
:10367000B8F780E00E94C31BF80180830E943C22BF
:0E3680008D2FDF91CF911F910F91FF90089534
:10368E00CF93DF93DC01FB0189E1EB0119928A955F
:10369E00E9F78C9190E09183808311968C9111972C
:1036AE0090E09383828312968C91129790E095838B
:1036BE00848314968C91149790E097838683159645
:1036CE008C91159790E001979187808716968C9133
:1036DE00843130F490E08C5C974F9387828705C0DD
:1036EE0090E08053984F93878287828593858C567E
:0C36FE00974093878287DF91CF91089559
:10370A00EF92FF920F931F93CF93DF930F92CDB750
:10371A00DEB77C0181E00E947F2440E050E0BA01DC
:10372A0089E00E94A617082F81111CC018E001C069
:10373A00182F41E050E0BE016F5F7F4F83E00E9487
:10374A00E01D89818E3F29F08FEF810F1111F0CF93
:10375A0001C0812F882331F040E150E0B70183E0B6
:10376A000E94E01D80E00E947F24802F0F90DF914D
:0C377A00CF911F910F91FF90EF900895E8
:103786001F93CF93DF93182F8AB18D7F8AB98BB1A0
:1037960082608BB9C8E0D0E00EC0DD0F8BB18160CE
:1037A6008BB90E94DF244999D1608BB18E7F8BB98A
:1037B6000E94DF24C150C111F0CF8AB182608AB95C
:1037C600112321F08BB18D7F8BB903C08BB1826041
:1037D6008BB90E94DF248BB181608BB90E94DF24F4
:1037E6008BB18E7F8BB90E94DF248BB18D7F8BB915
:0A37F6008D2FDF91CF911F910895F0
:103800008F3F2FEF920761F1282F2F7094FF02C096
:10381000906F01C09F77959587959595879595951C
:10382000879595958795AC014C5E5F4F4D38510556
:10383000C8F434E6389FD001399FB00D112430E030
:1038400040E022583E4F4F4FF901849147FD80815F
:10385000FD01E80FF11DCF0181569A4E21E005C010
:1038600020E003C08FEF9FEF20E06115710519F094
:0A387000FB0191838083822F0895ED
:10387A00E091670721E02E0F20936707F0E0E85BED
:10388A00F84F808380915407909155070196909341
:10389A00550780935407243038F1109267078091B6
:1038AA0068078C3608F5E82FF0E07496EE0FFF1FD4
:1038BA00EE0FFF1FE45FFE4FA8E4B7E04D915D9164
:1038CA006D917C91139740835183628373831D9218
:1038DA001D921D921C9213978F5F809368078091A7
:0A38EA0066078F5F8093660708955C
:1038F400A0E0B0E0E0E8FCE10C945C20EA01FB010C
:10390400582F0E9430244B015C01C12CD12C76012C
:103914008E019B01A50160E070E080E090E00E94D0
:10392400160197FF09C08FE490E090930101809302
:10393400000180E090E00DC0198A188A1A8A1B8A57
:103944001C8A1D8A83E292E0A0E08E8B9F8BA88F55
:0C395400CE01CDB7DEB7ECE00C9478207B
:10396000CF93DF93D82F8AB182608AB9C8E015C09F
:10397000DD2324F48BB182608BB903C08BB18D7FC2
:103980008BB98BB181608BB90E94DF248BB18E7FA4
:103990008BB90E94DF24DD0FC150C111E9CF8AB17C
:1039A0008D7F8AB98BB182608BB98BB181608BB905
:1039B0000E94DF24499BC1E08BB18E7F8BB90E94AE
:0A39C000DF248C2FDF91CF910895D2
:1039CA00FF920F931F93CF93DF93F82E8B01C42F8F
:1039DA00411107C042E950E06AE671E080E00E94C6
:1039EA00812141E060E08EED0E947E1FD82F88235E
:1039FA0099F08F2D0E94B01CD82F81110BC00CC0DA
:103A0A00F80180810E94B01CD82F882329F00F5F0B
:103A1A001F4FC150C111F4CF0E943C228D2FDF915C
:0A3A2A00CF911F910F91FF900895B6
:103A34001F920F920FB60F9211248F93EF93FF935F
:103A440086B5855C88BD85B3846085BBEEE6F0E011
:103A54008081846080838DB38D7F8DBB80916E0760
:103A6400882331F088B1806888B910926E0706C047
:103A740088B18F7788B981E080936E0781E0809365
:103A8400780710927A07FF91EF918F910F900FBEF4
:063A94000F901F90189531
:103A9A00CF93DF93EC0190E026C0A92FB0E09D01FF
:103AAA00220F331F2A0F3B1F032E000C440B2C5CE2
:103ABA003E4F4F4FF901542F0E94D0246C177D07B7
:103ACA0089F4CD01880F991F8A0F9B1F0296092E30
:103ADA00000CAA0B8C5C9E4FAF4FFC018491A7FD92
:103AEA00808104C09F5F9930C0F281E1DF91CF915C
:023AFA0008952D
:103AFC00FB0193709C01205F31402131324000F575
:103B0C00DC012BED36EA43E250E00E946924DC0133
:103B1C00CB01072E7AE0B695A795979587957A9560
:103B2C00D1F7702D9F5FAF4FBF4F072E79E0B69541
:103B3C00A795979587957A95D1F7702D21E003C0BD
:103B4C0020E080E090E0309711F091838083822F09
:023B5C000895CA
:103B5E00689401C0E894F92FF12B12F00C940C2408
:103B6E00A0E0B0E0EDEBFDE10C945C20092E059495
:103B7E0022F40E94DB23112392F4F0E80F26FFEFCC
:103B8E00E094F09400951095B094C094D094A194C4
:103B9E00BF0ACF0ADF0AEF0AFF0A0F0B1F0B0E94A4
:103BAE00FB1707FC0E94DB23CDB7DEB7ECE00C94CD
:023BBE0078206D
:103BC000FB01833071F408C02FEF2EBD0DB407FE4A
:103BD000FDCF2EB52193AC01CA010197452BA1F76A
:103BE0000895813061F406C021912EBD0DB407FE09
:103BF000FDCFAC01CA010197452BB1F70895823082
:103C000051F405C0EEBD0DB407FEFDCFAC01CA01F5
:083C10000197452BB9F7089557
:103C1800CF92DF92EF92FF920F931F93CF93DF9390
:103C28008C016A017B01C0E00FC0B701A601C80181
:103C38000E94A720D82F882349F060E177E280E02E
:103C480090E00E94B71ECF5FC43678F3C43609F4FB
:103C5800D0E88D2FDF91CF911F910F91FF90EF90BA
:063C6800DF90CF900895EB
:103C6E0080917207811123C080917807811121C044
:103C7E0082E08093720710926F071092750781E0B1
:103C8E008093700786B58E5C87BD85B3826085BBD9
:103C9E00EEE6F0E08081826080830E94B8238093FC
:103CAE0073070E94581F8093740781E0089580E087
:063CBE00089580E0089566
:103CC400E894DF93CF93FC01DB010E94EB237F9305
:103CD4006F93E9019A01AC01BF93AF933F932F9384
:103CE400DF010E94EB2326F46C1B7D0B820B930BEC
:103CF4009E01EB01FC010E94A524AF91BF912F917D
:103D04003F910E94A524BE01CF01F9012F913F915B
:063D1400CF91DF9108953C
:103D1A00CF93DF93DC01FB0187E0EB0119928A95CF
:103D2A00E9F78C91808312968C911297818314966D
:103D3A008C911497828316968C9116978483189681
:103D4A008C91189785831A968D919C911B97883C24
:103D5A0091051CF08453868302C0805D8683DF91BF
:043D6A00CF91089558
:103D6E00AB01BC014F5F5F4F6F4F7F4F76956795ED
:103D7E005795479596B517C086B59817E9F326B5AA
:103D8E00822F891B90E0A0E0B0E0481759076A0720
:103D9E007B0728F0481B590B6A0B7B0B03C040E0D6
:103DAE0050E0BA01922F411551056105710521F7B9
:023DBE00089566
:103DC00014BC92E095BDA4E6B0E08C91877F8C9303
:103DD0001092800084E08093810096BB80918400E3
:103DE000909185008B5C934F90938900809388001D
:103DF000EFE6F0E08081826080838C918F7E8C93EF
:103E0000AEE6B0E08C918E7F8C9380818E7F808334
:023E1000089513
:103E12001F920F920FB60F9211242F933F934F933D
:103E22005F936F937F938F939F93AF93BF93EF9320
:103E3200FF934AEF52E06EE571E080E00E9481213B
:103E4200FF91EF91BF91AF919F918F917F916F9170
:103E52005F914F913F912F910F900FBE0F901F9046
:023E62001895B1
:103E640078941F920F920FB60F9211242F933F93C1
:103E74004F935F936F937F938F939F93AF93BF936E
:103E8400EF93FF938BB10E942424FF91EF91BF9194
:103E9400AF919F918F917F916F915F914F913F91DE
:0C3EA4002F910F900FBE0F901F901895EB
:103EB00080916F07811110C081E00E940022E8E527
:103EC000F7E0908381838081882324F481E08093CC
:103ED000710702C010927107E0916F07F0E0E85A95
:103EE000F84F808190916F079F5F90936F0790913B
:0C3EF0006F07923010F010926F070895D9
:103EFC00FF920F931F93CF93DF93F82E062F142F5F
:103F0C00D3E0C0E00CC0D150602F8F2D0E94D8217F
:103F1C00C82F112341F0811102C00E94E11FC11171
:103F2C0002C0D111F0CF8C2FDF91CF911F910F9147
:043F3C00FF90089555
:103F4000A1E21A2EAA1BBB1BFD010DC0AA1FBB1F9D
:103F5000EE1FFF1FA217B307E407F50720F0A21B0F
:103F6000B30BE40BF50B661F771F881F991F1A947C
:103F700069F760957095809590959B01AC01BD01A6
:043F8000CF010895D0
:103F84000F931F93CF9301E010E020E030E044E270
:103F940053E060E070E0CB010E949A14C82F88239C
:103FA40049F044E253E060E828ED31E084E295E032
:0E3FB4000E940D218C2FCF911F910F91089527
:103FC200CF938AB181608AB98AB182608AB9C0E42A
:103FD20011C08BB18E7F8BB98BB18D7F8BB90E9453
:103FE200DF248BB181608BB98BB182608BB90E9467
:0C3FF200DF24C150C111EDCFCF91089524
:103FFE00CF93DF939C01EB01880F991F880F991FB8
:10400E00092E000CAA0B86529F4FAF4FFC015A2F60
:10401E000E943024CD2B39F02230310524F0605827
:0C402E007E4A8E4F9F4FDF91CF91089586
:10403A0060E87AE186E090E00E94061588B1806423
:10404A0088B960ED77E080E090E00E94B71E40E119
:10405A0050E06FEF70E082E00E94E01D60ED77E0D3
:0A406A0080E090E00E94B71E089568
:10407400E4E2F5E084899589A689B7890196A11DB2
:10408400B11D848B958BA68BB78B80915007909133
:104094005107A0915207B0915307808F918FA28F3F
:0840A400B38F0E942C14089553
:1040AC002F923F924F925F926F927F928F929F923C
:1040BC00AF92BF92CF92DF92EF92FF920F931F932A
:1040CC00CF93DF93CDB7DEB7CA1BDB0B0FB6F894DB
:0840DC00DEBF0FBECDBF099449
:1040E4002A88398848885F846E847D848C849B8484
:1040F400AA84B984C884DF80EE80FD800C811B8192
:10410400AA81B981CE0FD11D0FB6F894DEBF0FBEC0
:06411400CDBFED0108958E
:10411A009C0160E971E00E941422892B69F0C901AF
:10412A0064E670E00E941422892B41F02370332741
:10413A00232B31F080E0089581E0089580E008950E
:04414A0081E0089573
:10414E00CF92DF92EF92FF92CF936A017B0181E0D3
:10415E000E947F24B701A60189EA0E94A617C82FE4
:10416E0080E00E947F248C2FCF91FF90EF90DF9004
:04417E00CF90089541
:104182000F931F93CF938C0181E00E947F244AEA10
:1041920051E060E070E088E00E94A617C82FC801D5
:1041A2000E94E62480E00E947F248C2FCF911F91F1
:0441B2000F910895CC
:1041B6000F931F93CF938C0181E00E947F2440E0F0
:1041C60050E0BA018AE30E94A617C82FC8010E94D0
:1041D600E62480E00E947F248C2FCF911F910F91BF
:0241E60008953A
:1041E8000F931F9344E255E060E828ED31E084E244
:1041F80093E00E940D2101E010E020E030E044E26D
:1042080053E060E070E0CB010E94BE131F910F9154
:02421800089507
:10421A00CF92DF92EF926A01E62EDC01280F391F56
:10422A00A217B30751F0F6014491E7FC40814D9380
:10423A004FEFC41AD40AE40AF3CFEF90DF90CF907D
:02424A000895D5
:10424C0085B78F7E85BF84B1886084B984B18B7F3C
:10425C0084B985B18B7F85B987B1806887B98DB3F7
:10426C008D7F8DBB1092720785B1877F85B90895BC
:10427C00052E97FB1EF400940E94C02457FD07D016
:10428C000E94A01F07FC03D04EF40C94C024509540
:0E429C004095309521953F4F4F4F5F4F08954D
:1042AA008AB182608AB98BB182608BB98BB1816025
:1042BA008BB90E94DF248BB18D7F8BB90E94DF24DA
:0C42CA008BB18E7F8BB90E94DF24089519
:1042D6008BB181608BB98BB182608BB98AB18160F9
:1042E6008AB98AB18D7F8AB98BB182608BB964E154
:0C42F60070E080E090E00E94B71E089588
:104302005F934F938F937F936F938FE491E0A0E03D
:10431200AF939F938F930E94D8248DB79EB7089630
:0C4322000FB6F8949EBF0FBE8DBF08952B
:10432E0084B1826884B984B18E7F84B985B181608D
:10433E0085B983E58CBD1DBC85B78F7785BF60E8D9
:0C434E007AE186E090E00E9406150895D8
:10435A008091500790915107A0915207B09153074D
:10436A000197A109B1098093340590933505A0936B
:0C437A003605B09337050E94F42008952A
:1043860080915A07813081F410924707ECE7F0E0FC
:104396008081807E896C808382E080935A07EAE779
:0A43A600F0E08081886C80830895A8
:1043B000CF93DF93C82FD62F0E946B210E945521E7
:1043C000DD2319F08C2F816002C08C2F8E7F0E941C
:0843D000B01CDF91CF910895AC
:1043D8000F931F93CF93DF93EC018A018881998112
:1043E8000E947E1DB8018A819B810E94001CDF917A
:0843F800CF911F910F91089570
:1044000090911003992351F0882359F010921003D2
:1044100081E0809311038FEF93E0089580E090E8AE
:0844200008958FEF93E0089569
:10442800AA1BBB1B51E107C0AA1FBB1FA617B707D2
:1044380010F0A61BB70B881F991F5A95A9F78095EE
:084448009095BC01CD0108951F
:1044500097FB072E16F4009407D077FD09D00E9431
:10446000142207FC05D03EF4909581959F4F089546
:08447000709561957F4F0895DE
:104478008BB18D7F8BB90E94DF248BB181608BB9A2
:104488000E94DF248AB18D7F8AB98BB182608BB993
:064498000E94DF240895DC
:10449E00843019F491E090930E0390E0FC01EE0F3E
:1044AE00FF1F8E0F9F1FFC01E35BFE4F7283618324
:0644BE0081E080830895F7
:1044C4001F920F920FB60F92112482E692E280930C
:1044D400620780916A008093610780916B008093EA
:0444E4006007FFCF9F
:1044E8001F920F920FB60F92112484E792E28093E5
:1044F800620780916A008093610780916B008093C6
:044508006007FFCF7A
:10450C001F920F920FB60F92112486E892E28093BD
:10451C00620780916A008093610780916B008093A1
:04452C006007FFCF56
:104530001F920F920FB60F92112488E992E2809396
:10454000620780916A008093610780916B0080937D
:044550006007FFCF32
:104554001F920F920FB60F9211248AEA92E280936F
:10456400620780916A008093610780916B00809359
:044574006007FFCF0E
:104578001F920F920FB60F9211248CEB92E2809348
:10458800620780916A008093610780916B00809335
:044598006007FFCFEA
:10459C001F920F920FB60F9211248EEC92E2809321
:1045AC00620780916A008093610780916B00809311
:0445BC006007FFCFC6
:1045C0001F920F920FB60F92112480EE92E2809309
:1045D000620780916A008093610780916B008093ED
:0445E0006007FFCFA2
:1045E4001F920F920FB60F92112482EF92E28093E2
:1045F400620780916A008093610780916B008093C9
:044604006007FFCF7D
:104608001F920F920FB60F92112484E093E28093C9
:10461800620780916A008093610780916B008093A4
:044628006007FFCF59
:10462C001F920F920FB60F92112486E193E28093A2
:10463C00620780916A008093610780916B00809380
:04464C006007FFCF35
:104650001F920F920FB60F92112488E293E280937B
:10466000620780916A008093610780916B0080935C
:044670006007FFCF11
:104674001F920F920FB60F9211248AE393E2809354
:10468400620780916A008093610780916B00809338
:044694006007FFCFED
:104698001F920F920FB60F9211248CE493E280932D
:1046A800620780916A008093610780916B00809314
:0446B8006007FFCFC9
:1046BC001F920F920FB60F9211248EE593E2809306
:1046CC00620780916A008093610780916B008093F0
:0446DC006007FFCFA5
:1046E0001F920F920FB60F92112480E793E28093EE
:1046F000620780916A008093610780916B008093CC
:044700006007FFCF80
:104704001F920F920FB60F92112482E893E28093C6
:10471400620780916A008093610780916B008093A7
:044724006007FFCF5C
:104728001F920F920FB60F92112484E993E280939F
:10473800620780916A008093610780916B00809383
:044748006007FFCF38
:10474C008091540790915507ECE0F1E090A787A376
:10475C008091660781A7109255071092540710920A
:04476C00660708953F
:1047700080916F07811106C00E9400229093590713
:104780008093580780916F07811102C081E00895DE
:0447900080E0089528
:10479400CF9381E00E947F2440E050E0BA0180E0A2
:1047A4000E94A617C82F80E00E947F248C2FCF91EF
:0247B400089566
:1047B600609570958095909530954095509521958A
:1047C6003F4F4F4F5F4F6F4F7F4F8F4F9F4F089514
:1047D600A29FB001B39FC001A39F700D811D11243C
:0E47E600911DB29F700D811D1124911D08952B
:1047F40097FB57FF0C94631E9F938F930E94631E35
:0E4804006E1B7F0BAF91BF918A0B9B0B08952B
:10481200689401C0E8948F929F92CF93DF930E9495
:0C482200FB17DF91CF919F908F900895BD
:10482E00A8950FB6F894A895809160008861809342
:0A483E006000109260000FBE0895A4
:1048480086FD09C088B18F7E88B98EB18D7F8EB9FB
:0848580080E00E940B25089589
:1048600057FD05C065917591859195910895619168
:0848700071918191919108956D
:104878000024A7FD00942A0F301D401D501D601D07
:08488800701D801D901D0895B4
:1048900090915F07911105C020E00E948A0D81E090
:0648A000089580E0089578
:1048A600843040F48093040190910601891710F436
:0648B60080930501089546
:1048BC0010926707109268071092550710925407D0
:0648CC001092660708953A
:1048D2000E94EB23A59F900DB49F900DA49F800D85
:0648E200911D1124089550
:1048E800EC010E9423250E942225CE010E94242546
:0648F800CE010E941F2505
:1048FE00882321F088B18F7B88B9089588B18064B0
:04490E0088B90895C7
:104912008CE0809369008CB382608CBB8DB3826023
:044922008DBB0895AC
:10492600F999FECF92BD81BD8FB381608FBB80B5F3
:024936000895E2
:10493800FC01480F591FE417F50711F06193FBCFED
:024948000895D0
:10494A000E94EB23460F571FC81FD91F08F4319640
:02495A000895BE
:10495C002A0D3B1D4C1D5D1D6E1D7F1D801F911F63
:02496C000895AC
:10496E002A153B054C055D056E057F0580079107F1
:02497E0008959A
:1049800090958095709561957F4F8F4F9F4F0895BB
:10499000B7FF0C9469240E946924821B930B08952D
:1049A00057FD03C0659175910895619171910895C6
:0E49B000CF93DF93CDB7DEB7DF91CF9108959F
:0E49BE006AE070E080E090E00E94B71E08956D
:0E49CC0044E050E0BC0183E00E94E01D08952D
:0E49DA000E94EB23B7FF0895821B930B0895F4
:0C49E800EAE7F0E0808180688083089599
:0C49F40081E0809316031092650708957F
:0C4A0000E1E6F0E080E880831082089579
:0A4A0C009093460780934507089534
:0A4A1600843010F480930501089528
:0A4A2000109278070E945E240895AA
:0A4A2A004CEF56E00E947A1C08953C
:064A340080911F030895AC
:044A3A000C940000D8
:044A3E000E946B0067
:024A42000895D5
:024A44000895D3
:024A46000895D1
:024A48000895CF
:00000001FF
