:100000000C9443000C9407290C9419290C942B2967
:100010000C943D290C944F290C9461290C94DA2BF3
:100020000C942A240C9485290C94C9200C949729AB
:100030000C94F01B0C94A9290C94BB290C94FB1470
:100040000C9436180C94CD290C9421130C94DF29B0
:100050000C94DA2B0C94F1290C9473290C94FB1F4B
:100060000C9400260C94032A0C94152A0C94921BD1
:100070000C94D7250C94272A0C94392A01000102EC
:100080008001040B9A8011241FBECFEFD0E1DEBFA8
:10009000CDBFECE7F0E040E017C0B591A5913591F8
:1000A0002591059107FD0CC095918591EF01F92FE0
:1000B000E82F05900D92A217B307D9F7FE0104C0EF
:1000C0001D92A217B307E1F7E638F40731F70E9453
:0A00D0007E090C941A2BF894FFCF60
:1000DA00525820416C6C2044652D526567697374CF
:1000EA006572202D206D6F64756C6520646572657C
:1000FA0067697374657265640D0A00525820416E0F
:10010A006E6F756E6365205265717565737420280C
:10011A00554E5245474953544552454429202D20AE
:10012A007363686564756C696E6720726573706F56
:10013A006E736520696E2025646D730D0A0052582E
:10014A0020416E6E6F756E636520526571756573B9
:10015A007420285245474953544552454429202D75
:10016A002069676E6F72696E670D0A0052582041E6
:10017A006E6E6F756E636520526571756573742056
:10018A002D20616C72656164792070656E64696E98
:10019A00670D0A0052582052656769737472617458
:1001AA00696F6E202D204D6F64756C652049443D42
:1001BA0025303278207265676973746572656420C8
:1001CA007375636365737366756C6C790D0A005297
:1001DA005820537461747573205265717565737410
:1001EA00202D2073656E64696E672073746174755F
:1001FA00730D0A00525820496E6469766964756104
:10020A006C2044652D5265676973746572202D20D0
:10021A006D6F64756C652049443D253032782064E1
:10022A0065726567697374657265640D0A00417366
:10023A00736572742025733A2025640A002E2E2FC6
:10024A002E2F6D61696E2E6300416E6E6F756E633F
:10025A00656D656E742064656C617920636F6D707D
:10026A006C657465202D2073656E64696E670D0A6E
:01027A000083
:10027B000000000080DE280080C84D0000A776003B
:10028B0000349E008012C700809FEE00007E170195
:10029B00805C400180E9670100C890010055B801FE
:1002AB0080841E00000140420F00000020A10700C7
:1002BB00010190D00300010048E80100020124F481
:0A02CB0000000201127A0000020098
:1002D50010050915050B14050C12050A1105051D58
:1002E500050D18050E1E050F1F051016051117051E
:0402F50012200513BB
:1002F9002E2E2F2E2F7274635F6D63703739343051
:040309006E2E6300F1
:10030D0000060C12191F252B32383E444B51575DF8
:0F031D000902050601050701060B00000B000091
:0C032C001F1C1F1E1F1E1F1F1E1F1E1F58
:0C0338001F1E1F1E1F1F1E1F1E1F1F1D4B
:0B0344002E2E2F2E2F6164632E63000D
:0B034F002E2E2F2E2F63616E2E6300F8
:08035A0001002305FF0700006C
:0803620001002205FF07000065
:08036A0001002105FF0700005E
:0803720001000605FF07000071
:08037A0001000105FF0700006E
:0803820001000505FF07000062
:08038A0001000805FF07000057
:0803920001000705FF07000050
:08039A0001000405FF0700004B
:0803A20001000305FF07000044
:0803AA0001000205FF0700003D
:0803B20001000005FF07000037
:0803BA0002000005000700002D
:0803C2000000FF07FF07000027
:0403CA00474D540047
:0403CE00474D540043
:1003D200CF92DF92EF92FF920F931F93CF93DF930F
:1003E20000D000D0CDB7DEB78C0180911C058823E8
:1003F20069F088E0D8011D928A95E9F748E0B801D2
:1004020088E00E94F327811110921C0580911A0541
:10041200882309F406C180917F0B811180C08091ED
:1004220007018F70F801808380912205818380917A
:100432002105828380912501838384E03496DF0144
:100442001D928A95E9F780915901882379F080916C
:100452005C01882371F080910701833069F40E9466
:10046200B916809140019091410108C080E090E866
:1004720005C080E090E802C080E090E8F801848343
:10048200958380915601882379F08091570190914C
:1004920058014FEF53E060E070E09A01AB01281B76
:1004A200390B4109510903C020E030E0A901E0E124
:1004B200F1E0A5A1B6A10E947F2BDC01CB016894DB
:1004C20016F8B695A795979587951694D1F7C58C8A
:1004D200D68CE78CF0A0BC01CD016C0D7D1D8E1D6C
:1004E2009F1D2FE030E040E050E00E946E262093F6
:1004F2005201309353014093540150935501D80156
:1005020016962C93169717963C9348E0B80181E013
:100512000E94F327882309F46BC081E070C0813008
:10052200C1F5E0E1F1E082AD93ADD8018C9382ADEB
:1005320093AD11969C93119780AD91AD12968C93C9
:10054200129780AD91AD13969C93139784AD95ADA0
:1005520014968C93149784AD95AD15969C936091E7
:100562004E0170914F0180915001909151012FE005
:1005720030E040E050E00E946E26F8012683378387
:1005820048E0B80182E00E94F327882399F181E0D4
:1005920036C0823089F5E0E1F1E084A995A9D8015D
:1005A2008C9384A995A911969C93119782A993A9DA
:1005B20012968C93129782A993A913969C931397E0
:1005C20086A997A914968C93149786A997A915962C
:1005D2009C93159716961C92169717961C9248E0B4
:1005E200B80183E00E94F327882341F081E007C02D
:1005F20080E005C080E003C081E001C080E0882384
:1006020081F080917F0B8F5F80937F0B833048F066
:1006120010927F0B10921A051092890B81E0809341
:10062200170580911905882309F4C1C01C821B8219
:100632001A821982E0901F05F0903F01EF1408F032
:1006420069C0FF2009F466C0EF2DEE198FEF8E0FFF
:100652008C3608F05FC020916D0130916E01232B22
:1006620029F120916B0130916C01232B39F44091D7
:10067200690150916A014150510906C040916B01D4
:1006820050916C01415051092091250130E0220F17
:10069200331F220F331F249FF001259FF00D349F3B
:1006A200F00D11249F0120593E4F15C040916B015E
:1006B20050916C012091250130E0220F331F220F4F
:1006C200331F429FF001439FF00D529FF00D112402
:1006D2009F0120593E4FE82FF0E0EE0FFF1FEE0F73
:1006E200FF1FE20FF31F80819181C280D380BE0180
:1006F2006D5F7F4F0E94FB23811102C01C821B820F
:10070200BE016F5F7F4FC6010E946723811102C045
:100712001A821982F801E082F18299818A81928398
:1007220083832B813C81248335832115310559F044
:10073200C90164E070E10E94CC2884E6689F602DC4
:100742001124668301C01682E0E1F1E040AD51ADB3
:1007520082AD93AD8417950798F42115310581F088
:1007620060AD71AD82AD93AD681B790BC9010E947A
:10077200CC2884E6689F602D1124F801678303C0AA
:10078200D80117961C9248E0B80184E00E94F32732
:10079200882369F080911F058F5F80931F059091D8
:1007A2001F0580912005981710F01092190580916D
:1007B2001705882389F1E0E1F1E08389D8018C9360
:1007C200848911968C93119780A591A512968C938A
:1007D200129780A591A513969C93139786A51496BC
:1007E2008C93149782A58F3F31F085A592A5891B22
:1007F20015968C9303C08FEFF8018583D801169666
:100802001C92169717961C9248E0B80186E00E9447
:10081200F32781111092170580911805882309F199
:10082200B801C80102960E94261FA0912501B0E0DE
:1008320028E936E146E050E00E940F2B2CED35E02E
:1008420040E050E00E946E26F80124833583168230
:10085200178248E0B80185E00E94F32781111092C7
:1008620018050F900F900F900F90DF91CF911F916D
:0C0872000F91FF90EF90DF90CF90089561
:10087E00A6E1B0E0E5E4F4E00C9408277901D42E6B
:10088E00C52EB62FA72FF82FB92E40585D4B6E40B0
:10089E007F4F8F4F9F4F21153B474D415348624E1F
:1008AE0071408105910511F008F008C2188B0F8771
:1008BE009B2D8F2F7A2F6B2F5C2D4D2D970120584E
:1008CE003D454C4B58436109710981099109190144
:1008DE004D8359876D877983898B9A8BF0E8AF2E7C
:1008EE00A1E5BA2ECC24C394D12CE12CF12C00E03E
:1008FE0010E00E94CC2329013A014B018E8B9B8B79
:10090E0091014D8159856D85798189899A890E94D8
:10091E00CA232D833E834F8358878D819E81AF815D
:10092E00B885B7FF15C080589E4AAE4FBF4F8D8316
:10093E009E83AF83B8879201A301B4018E899B89F0
:10094E00AFEF0E94ED2A29013A014B018E8B9B8B52
:10095E009201A301B4018E899B89A3E00E94ED2A26
:10096E00E7E0AE2EB12CC12CD12CE12CF12C00E005
:10097E0010E00E94CA232D873E87AD85BE85B7FF46
:10098E0003C01796BE87AD8751EBA52E6AE3B62E30
:10099E0072E0C72ED12CE12CF12C00E010E0920178
:1009AE00A301B4018E899B890E94CC2329873A87A3
:1009BE004B875C879201A301B4018E899B890E94AB
:1009CE00CA23822E932EA42EB52EB7FE12C0B1EBE3
:1009DE008B0EBAE39B1EB2E0AB1EB11C89859A85C5
:1009EE00AB85BC850197A109B10989879A87AB8729
:1009FE00BC87C501B4012CEA3EE840E050E00E94FD
:100A0E000A2869017A01243031054105510529F47E
:100A1E0043E0C42ED12CE12CF12CA4E5B1E7A701C3
:100A2E0096010E94822B2B013C01480C591C6A1C1A
:100A3E007B1CC301B20125EB35E040E050E00E9483
:100A4E000A2849015A01293131054105510529F478
:100A5E0038E1832E912CA12CB12CABE4BAEFA50179
:100A6E0094010E94822B460E571E681E791EC301EA
:100A7E00B2012DE631E040E050E00E940A282983C1
:100A8E003A834B835C83243031054105510541F493
:100A9E0083E090E0A0E0B0E089839A83AB83BC83CF
:100AAE00A3E9BEEF29813A814B815C810E94822BA2
:100ABE00460E571E681E791E232B242B252B81F4E0
:100ACE0081149104A104B10471F431E020E0C11449
:100ADE00D104E104F10409F030E0832F922F05C018
:100AEE0080E090E002C081E090E01201ABE32A0EBC
:100AFE00311C280E391E9C0124593E4F22153305F8
:100B0E0024F483599E4F281A390A92E0880C991CB6
:100B1E00AA1CBB1C9A95D1F789819A81AB81BC81A5
:100B2E00880E991EAA1EBB1EA4E6B0E0A701960170
:100B3E000E940F2B860E971EA81EB91ED501C4014A
:100B4E00BB0F880B982FDC0189839A83AB83BC8300
:100B5E0069857A858B859C8520E931E040E050E0FF
:100B6E000E949F2AF22FE32F6A017B018C019401D0
:100B7E00A5016981762F862F962FAF2EBE2E0E944D
:100B8E005D2B49015A016B017C0128E333E040E003
:100B9E001A821982F901849147FD8081082E000C7A
:100BAE00990BAA0BBB0B2F5F3F4F4F4F48165906A1
:100BBE006A067B0654F0481A590A6A0A7B0AA9810A
:100BCE00BA811196BA83A983E5CFE981FA81EA3019
:100BDE00F10574F03C97FA83E9839401A501B601FF
:100BEE00C701A1E00E94ED2A49015A016B017C0167
:100BFE009401A501B601C7012C593F474F4F5F4FD6
:100C0E006F4F7F4F8F4F9F4F2F3F3F4F41055105E6
:100C1E00610571058105910511F008F04FC024E6BC
:100C2E00820E911CAF85B8891B969C928E921A9754
:100C3E00E981FA8132961996FC93EE931897FFEF9D
:100C4E004F1A5F0A17965C924E9216978D859E8567
:100C5E001D969C938E931C971F963C922E921E97D8
:100C6E006D817E818F81988520E13EE040E050E0ED
:100C7E000E940A28AF85B88915963C932E93149737
:100C8E008CE3C82ED12CE12CF12C6D817E818F81CD
:100C9E009885A70196010E940A284B015C01CA01A2
:100CAE00B901A70196010E940A28EF85F88973837E
:100CBE0062839182808280E090E002C08FEF9FEF8E
:080CCE006696E2E10C943F2759
:100CD6003F924F925F926F927F928F929F92AF92C6
:100CE600BF92CF92DF92EF92FF920F931F93CF9313
:100CF600DF9300D000D000D0CDB7DEB780913B01A6
:100D060090913C01892B09F41FC1E0E1F1E08FEFDE
:100D160082A7938985A5891728F485A5838B81E009
:100D260080931705E0E1F1E0948985A5981728F4EA
:100D360085A5848B81E08093170580913B01909176
:100D46003C0183709927892B61F080913E018F3F8A
:100D560041F0E0E1F1E086A58F5F86A781E0809310
:100D66001705E0E1F1E011AE10AE8FEF9FEF93AF04
:100D760082AF15AE14AE80E090E893AB82AB8FEFF6
:100D86009FE795AB84AB17AA16AAD12C312CC12CA0
:100D9600412C512C3201812C912C54012FEF3FE72D
:100DA6003E832D8380E090E89C838B837AC02091DC
:100DB6006B0130916C018091250190E0880F991F9D
:100DC600880F991F289F8001299F100D389F100DAD
:100DD600112400591E4F8D2D90E0880F991F880F02
:100DE600991F080F191FD8018D919C9111979A830D
:100DF60089831296ED90FC90139760E070E0C7012E
:100E06000E9467238823F1F0F4FE03C0C701906FA8
:100E160002C0C7019F77EB81FC81E817F90714F43C
:100E26009C838B832D813E818217930714F49E83C6
:100E36008D83092E000CAA0BBB0B880E991EAA1EC9
:100E4600BB1E3394D8018D919C9199231CF481E0AB
:100E560080933701BE016F5F7F4F89819A810E941F
:100E6600FB238823E9F020914801309149018981CB
:100E76009A812817390720F49093490180934801F5
:100E860020914A0130914B018217930720F49093E9
:100E96004B0180934A01480E591E611C711CC39474
:100EA600D39480913D01D81608F481CFCC2089F1E6
:100EB600EEE4F1E040825182628273826081718148
:100EC600828193812C2D30E040E050E00E946E2616
:100ED60030934D0120934C01809107018330C9F076
:100EE60080911505811115C0E0E1F1E020AD31AD2D
:100EF60082AD93AD2817390760F080AD91AD22AD74
:100F060033AD821B930B8034910518F081E08093FA
:100F160016053320C9F0232D30E040E050E0C5012E
:100F2600B4010E940A2866E471E0C9010E946723A1
:100F360062E471E08B819C810E94672364E471E026
:100F46008D819E810E946723E0E1F1E085A587A758
:100F56008091690190916A01892B01F12BE631E0BC
:100F6600F901808191810196E9E6F1E06081718164
:100F76000E94CC28D90111969C938E9320916D01E5
:100F860030916E01808191812817390738F4EDE69A
:100F9600F1E080819181019691838083809109019E
:100FA6008823B1F080910801882391F00E94701F78
:100FB6000E94422B609365017093660180936701DE
:100FC6009093680180E191E00E94BA17809309012D
:100FD60026960FB6F894DEBF0FBECDBFDF91CF9138
:100FE6001F910F91FF90EF90DF90CF90BF90AF9041
:100FF6009F908F907F906F905F904F903F90089555
:10100600CF92DF92EF92FF92CF93FB0190911D0555
:101016001092830B823129F480818F700E94F92A05
:1010260064C18F30A9F48AED90E0A0E0AF939F935E
:101036008F930E948F2B1092230510921D051092FC
:10104600890B80E00E94C12B0F900F900F904DC12D
:10105600803121F480E00E94C12B47C1813159F4CF
:101066002081318142815381648175818681978196
:101076000E94CE1A3AC1833121F5808190912305D1
:10108600891719F08F3F09F030C181819281A381C0
:10109600B4818F3F9F4FAF4FBF4F39F480E191E04E
:1010A6009093690B8093680B06C080E191E0909362
:1010B600690B8093680B81E08093880B1092870BF5
:1010C60014C12091880B222329F026EF280F223005
:1010D60008F40BC18D3009F04FC080911D058111B8
:1010E6002FC080918B0B81112BC0C0901E01D09018
:1010F6001F01E0902001F09021011F92CF9285E020
:1011060091E0A0E0AF939F938F930E948F2B8DEC7D
:10111600C89EC12C1124C694C694C694C0928A0B4C
:1011260080918A0B0F900F900F900F900F90811166
:1011360003C081E080938A0B81E080938B0BD5C03E
:1011460080911D05882361F088E491E0A0E0AF93CB
:101156009F938F930E948F2B0F900F900F90C5C077
:1011660086E791E0A0E0AF939F938F930E948F2B29
:101176000F900F900F90B9C0893009F041C04830E8
:1011860009F0B3C0F0808281823009F0AEC083815D
:10119600833009F0AAC040911E0150911F01609151
:1011A60020017091210184819581A681B78148171C
:1011B60059076A077B0709F098C01092830BF092D3
:1011C60023050E946F2BC1E0C0931805C0931D052F
:1011D6001092890B1F92FF928EE991E0A0E0AF93E7
:1011E6009F938F930E948F2B10928B0B10928A0BDA
:1011F600C0931C050F900F900F900F900F9075C025
:10120600442309F472C02081911108C08A3009F084
:101216006CC090911D05992309F467C09091230530
:10122600291363C08A30A9F4413009F05EC0809169
:10123600890B81115AC089ED91E0A0E0AF939F938D
:101246008F930E948F2B0E946F2B0F900F900F9001
:101256004CC08B30F9F4433009F047C08091190532
:10126600811143C08181909125018917F0F5809302
:101276001F0590911F059F5F909320058F3F31F4C6
:10128600809125018093200510921F0581E08093AF
:1012960019052BC08C3049F41092830B423029F586
:1012A60081818F700E94C12B20C0853021F481E09E
:1012B600809318051AC08E30C1F41F922F938EEFBB
:1012C60091E0A0E0AF939F938F930E948F2B109293
:1012D600230510921D051092890B80E00E94C12BF8
:1012E6000F900F900F900F900F90CF91FF90EF906F
:0612F600DF90CF90089587
:1012FC00CF93DF93CDB7DEB728970FB6F894DEBF48
:10130C000FBECDBF0E94BC2A88B18F7E88B987B131
:10131C00806187B987B18D7F87B987B1806887B9BC
:10132C0088B18F7E88B98DB182608DB98EB18D7F79
:10133C008EB984B1806184B985B18F7E85B984B74B
:10134C0080937E0B80917E0B83FF0AC080912405D5
:10135C00E0E1F1E082898F5F828B0E94190C6AC0F8
:10136C0080917E0B80917E0B80917E0BF8940E9475
:10137C00B12B0E94AE250E9424270E94C0130E940C
:10138C004F21809309011092080181E00E945E14A4
:10139C008AB18F7B8AB98BB180648BB911E01BBB8E
:1013AC0082E08BBB84E08BBB88E08BBBECE6F0E08F
:1013BC008081806480838BB384608BBB83E098E0F6
:1013CC000E94B72B0E948C1E1092230510921D05B3
:1013DC001092890B80E00E94C12B10931E05109275
:1013EC001B0510921A0510921905109218051092EF
:1013FC0017051092160510921505109214051092EF
:10140C0013051092200510921F05109222051092C0
:10141C00210510920A010E94390D85E08093070185
:10142C00109206011092050110921D0510920401F4
:10143C0010930C01789480910B018823E1F31092A6
:10144C000B010E944D1C0E9495150E942D16809137
:10145C001D05811122C080918B0B882311F1809185
:10146C008A0B882329F080918A0B815080938A0BF8
:10147C0080918A0B811115C081E080931E0510921A
:10148C008B0B83E592E0A0E0AF939F938F930E9428
:10149C008F2B0F900F900F9004C0CE0101960E94DD
:1014AC00E90180911B05882381F010921B05109295
:1014BC00230510921D051092890B81E080931E0567
:1014CC000E946F2B80E00E94C12BEFE6F0E0908130
:1014DC0080818D7F808380910C012091850B90837E
:1014EC00813009F057C0222309F44BC01092850BB0
:1014FC000E9485200E944B2ACE0101960E946B0609
:10150C00809104018430D9F4E0E1F1E095A585895E
:10151C00981799F080912501882379F080910A0120
:10152C008F5F80930A0180910A01853040F081E041
:10153C008093040110920A0102C010920A0180915A
:10154C001E058823F1F086E5898380E28A8382E098
:10155C008B8383E08C8380911E0190911F01A0915D
:10156C002001B09121018D839E83AF83B88748E021
:10157C00BE016F5F7F4F80E00E94F32781111092B4
:10158C001E050E94190C809113058823B1F010924E
:10159C00130513C0222389F01092850B0E9485201D
:1015AC0080E00E945E1480910401843031F40E942A
:1015BC002F2B0E94C62B0E94DB24809112058823BE
:1015CC0021F0109212050E94B9160E948F2833CF79
:1015DC00ACE0B0E0E4EFFAE00C94082749015A01C2
:1015EC006B017C011C830B832A38310541055105A5
:1015FC00610571058105910511F00CF042C0F901EE
:10160C00E454F109F595E795F595E795C9018370D3
:10161C009927892B51F431970115110569F081E057
:10162C0090E0D8018D939C9307C08B819C8100978F
:10163C0019F0DC011D921C92D901A654B10920E8C5
:10164C0033E341EE51E00E947F2B6B017C01DF0103
:10165C0020E831E541E050E00E947F2BDC01CB011A
:10166C008C0D9D1DAE1DBF1D9C01AD016C017D013E
:10167C00FF0CCC08DC2C7601AC2DFC2DEC2D9C2D1C
:10168C00CBC0EB81FC81EF2B31F41A821982CE0195
:10169C0001969C838B83C4018456910960E971E0A7
:1016AC000E94E0287E836D839401A501B601C701D9
:1016BC00ACE90E94ED2A19012A013B018F8398871E
:1016CC0070E9A72EBB24B394C12CD12CE12CF12CA6
:1016DC0000E010E09101A201B3010E94CA23C901EC
:1016EC00009759F481E090E0AB81BC818D939C9381
:1016FC0020E030E040E050E033C0283C31056CF095
:10170C002C3231402CF08C52914043E050E00CC014
:10171C00885C910942E050E007C0243631056CF03A
:10172C008456910941E050E0009749F4EB81FC812B
:10173C001182108220E030E013C040E050E09C01A8
:10174C0036952795369527958370992761E070E03B
:10175C00892B11F060E070E0AB81BC816D937C93C0
:10176C0081E6ED81FE818E9FB0018F9F700D11245B
:10177C00E8E1E49FC001E59F900D1124860F971FAF
:10178C00AB81BC814D915C91841B950B820F931F97
:10179C00E92FEE0FEE0B20E8A22E31E5B32ECC2470
:1017AC00C394D12CE12CF12C00E010E09C014E2FC5
:1017BC005E2F6E2F7E2F8E2F9E2F0E943C1E922E00
:1017CC00832E4B835D8369877A878B879C8743E362
:1017DC00B42E51EEC52EDD24D3949101A201B30198
:1017EC008F8198850E943C1E59016A017B018C01F6
:1017FC00292D382D4B815D8169857A858B859C855A
:10180C000E945D2B3B564149574C6F4F7F4F8F4F7A
:10181C009F4FA62FF72FE82F6A2F7F2F8E2F2C96F6
:06182C00E2E10C943F27ED
:101832001F93CF93DF93D0910601809105018D17FD
:1018420030F09091070180910501891710F4D09131
:10185200050180910701D81709F406C1D23009F4B5
:1018620072C028F4DD2389F0D130E1F1E0C0D33039
:1018720009F4A9C0D53009F0DAC01092070110921C
:101882000601D09107010E94AB2B88B18F7E88B9E7
:1018920068E873E180E090E00E9485258EB18D7F3B
:1018A2008EB968E873E180E090E00E948525EBE65E
:1018B200F0E080818D7F8083E8E6F0E080818D7F9B
:1018C200808381E08093160510921505109214050D
:1018D20080910901882309F4B2C00E948424809374
:1018E2000901ADC088B18F7E88B968E873E180E0F4
:1018F20090E00E948525EBE6F0E080818D7F808379
:10190200E8E6F0E080818D7F808380911D05882349
:1019120019F08EB182608EB968E873E180E090E0E0
:101922000E94852581E0809316051092150510927C
:10193200140580910901882309F481C00E945B2566
:10194200809309017CC061990DC080911D05882397
:1019520019F08EB182608EB968E873E180E090E0A0
:101962000E948525CBE02AC080911D05882349F07D
:1019720088B1806188B988B18F7788B988B1806869
:1019820088B968EE73E080E090E00E94852588B116
:101992008F7E88B968E873E180E090E00E94852537
:1019A20060E573EC80E090E00E948525809113054C
:1019B200882319F01092130501C0C12F1FEF1C0FCD
:1019C200C111D2CF3CC061990DC080911D05882301
:1019D20019F08EB182608EB968E873E180E090E020
:1019E2000E94852580911D05882349F088B1806178
:1019F20088B988B18F7788B988B1806888B968E872
:101A020073E180E090E00E94852510921605109205
:101A1200150581E080931405EBE6F0E08081826099
:101A22008083E8E6F0E080818260808308C049E23A
:101A320054E067E472E080E00E944D28D5E0809196
:101A42000701811105C0DD2319F00E94D02B08C0C7
:101A520080910701882321F0D11102C00E94D72B67
:101A6200D09307010E946F2BDF91CF911F910895B0
:101A7200FF920F931F93CF93DF93CDB7DEB7A1975A
:101A82000FB6F894DEBF0FBECDBF198241E0BE0192
:101A92006F5F7F4F87E00E943223182F882309F45B
:101AA200EBC080E8898341E0BE016F5F7F4F80E039
:101AB2000E943223182F811117C0DEC0198241E023
:101AC200BE016F5F7F4F83E00E94CF21182F8823D2
:101AD20009F4D2C0898185FD0AC060E070E0CB01C3
:101AE2000E9485250F5F01C000E0083C38F3083CE6
:101AF20008F0C2C089818860898341E0BE016F5FBE
:101B02007F4F83E00E943223182F882309F4B4C048
:101B120041E0BE016F5F7F4F82E00E94CF21182F0C
:101B2200882309F4A9C089818F7B898341E0BE01A2
:101B32006F5F7F4F82E00E943223182F882309F4BF
:101B42009BC0CE0102960E94B018182F882309F478
:101B520093C08A818C3310F410E001C011E08B81B4
:101B62008C3308F011E08C818C3308F011E08D8108
:101B72008150873008F011E02F818FEF820F8C3077
:101B820018F50E81002311F1822F90E00197092EA2
:101B9200000CAA0B845D9C4FAF4FFC01F490A7FD93
:101BA200F080223071F4888590E08431910518F438
:101BB2008C5C974F02C08053984F0E945A27811124
:101BC200F394F01628F005C011E003C011E001C043
:101BD20011E01123B9F01A821B821C8281E08E83EC
:101BE2008F8388E18887CE0102960E943B17182FC7
:101BF200882309F441C0CE0102960E94B018182F22
:101C02008823D1F1BE01675F7F4FCE0102960E9409
:101C12000E22CE0109960E940C218B019C01F894A0
:101C22000093410B1093420B2093430B3093440BD0
:101C32001092450B1092460B1092470B1092480BD4
:101C4200789487B18E7F87B988B1816088B941E085
:101C5200BE016F5F7F4F87E00E94CF21182F88233C
:101C620059F089818064898341E0BE016F5F7F4FB3
:101C720087E00E943223182F812FA1960FB6F89485
:101C8200DEBF0FBECDBFDF91CF911F910F91FF90AD
:021C92000895B3
:101C94006F927F928F929F92BF92CF92DF92EF9238
:101CA400FF920F931F93CF93DF93F82E6A01E62ED2
:101CB400E9010F2EF5E06F2EF02D681638F44DEF84
:101CC40050E06FE473E080E00E944D28093038F062
:101CD4004EEF50E06FE473E080E00E944D28EBED9E
:101CE400F0E0B08080818F7780838F2D8295807F14
:101CF4008093ED001092EE00F6018491E7FC808160
:101D040020E4829FC0011124102F182BAE2DC60190
:101D14000196A11DFC018491A7FD808181111062AF
:101D240010610E94D42B4E2D96012E5F3F4F4F4FD2
:101D3400F901542F0E94872BAB01577060E070E0CB
:101D4400032E32E1440F551F661F771F3A95D1F7D2
:101D5400302D3A014B01682AD401C3014E2D96015E
:101D64002A5F3F4F4F4FF901249147FD20812223E1
:101D740011F024E001C020E0E0EFF0E020832081B6
:101D8400382F330F330F330F232B2083AC01BD01C6
:101D9400689414F876956795579547951694D1F7F6
:101DA4004093F100AC01BD01032E3DE076956795AB
:101DB400579547953A95D1F7302D4093F200072E69
:101DC40075E1B695A795979587957A95D1F7702D76
:101DD4008093F300AE2DC6010796A11DFC018491EA
:101DE400A7FD8081882311F084E001C080E0E4EF46
:101DF400F0E080838081816080831092F500AE2DB5
:101E0400C6010496A11DFC015A2F0E94872B6295DE
:101E1400660F607E6093F600FC015A2F0E94872BA8
:101E24007695679576956795769567956093F700AF
:101E340004C089918093FA0001500111FACF1093E4
:101E4400EF00F6018491E7FC8081882369F0EEEDD0
:101E5400F0E0208181E090E002C0880F991FFA949D
:101E6400E2F7822B80830DC0EEEDF0E0208181E06B
:101E740090E002C0880F991FFA94E2F780958223BC
:101E84008083B092DB00DF91CF911F910F91FF907F
:101E9400EF90DF90CF90BF909F908F907F906F9046
:021EA40008959F
:101EA6006F927F928F92EF92FF920F93CF93DF9371
:101EB600C82F7B01042FD22F882349F1813081F16D
:101EC6008230B9F18330F1F1863009F444C08730AD
:101ED60009F44AC0853009F450C0843009F456C06C
:101EE600883009F45CC0843109F462C0853109F494
:101EF60068C0863109F46EC04CE751E06FE473E0C8
:101F060080E00E944D28612C712C812C6BC00F2E15
:101F1600F2EB6F2EF3E07F2EF0E08F2EF02D62C0F5
:101F26000F2EFAEA6F2EF3E07F2EF0E08F2EF02DC3
:101F360059C00F2EF2EA6F2EF3E07F2EF0E08F2EBF
:101F4600F02D50C00F2EFAE96F2EF3E07F2EF0E051
:101F56008F2EF02D47C00F2EF2E96F2EF3E07F2E65
:101F6600F0E08F2EF02D3EC00F2EFAE86F2EF3E034
:101F76007F2EF0E08F2EF02D35C00F2EFAE76F2E54
:101F8600F3E07F2EF0E08F2EF02D2CC00F2EF2E81E
:101F96006F2EF3E07F2EF0E08F2EF02D23C00F2E54
:101FA600F2E76F2EF3E07F2EF0E08F2EF02D1AC0B1
:101FB6000F2EFAE66F2EF3E07F2EF0E08F2EF02D37
:101FC60011C00F2EF2E66F2EF3E07F2EF0E08F2E7B
:101FD600F02D08C00F2EFAE56F2EF3E07F2EF0E00D
:101FE6008F2EF02DDD2321F08091740B811134C0EA
:101FF600D11104C08091780B81112EC08091780B8D
:10200600811103C082E08093780BD1111AC010921F
:10201600770BC093760B093038F041E951E06FE455
:1020260073E080E00E944D28202F30E0C701A0E831
:10203600AC016A2F89E39BE00E94DA270093750BB7
:1020460005C08091770B8F5F8093770B9701682D82
:10205600A30181E00E944A0EDF91CF910F91FF907C
:0A206600EF908F907F906F90089527
:10207000A5E0B0E0EEE3F0E10C9408273B01882EE8
:10208000A82FCB010A96A11DFC015A2F0E94872B75
:102090005B019B019B2C990C9908F92CB92DA92D5A
:1020A000892D992DE82C630148E0C40ED11CE11C58
:1020B000F6015E2D0E94872B2B016C30710510F10B
:1020C000CB016CE070E00E94E0282C0197FF05C076
:1020D000615071098CE0480E511C972F990F990B94
:1020E0009B01492F592F692F792F892FC92CD92C62
:1020F000E92CF92C092D192D0E945D2B942EF52E1B
:10210000B62FA72F8E010F5F1F4F492D5F2D6B2F0D
:102110007A2F0E94EE0A59016A017B018C016981C4
:102120007A81C2010E94CD261B012C01550C220888
:10213000322C21019B01AC01622D722D822D922D3A
:102140000E945D2B19012A01962E7B838C839D832F
:10215000A82DC3010696A11DFC015A2F0E94872BB2
:1021600061507109972F990F990B30E8A32E41E523
:10217000B42ECC24C394D12CE12CF12C00E010E03F
:102180009B01492F592F692F792F892F0E943C1EBF
:1021900051016201E92CFB800C811D810E945D2BA5
:1021A00059016A017B018C01A82DC3010496A11D70
:1021B000FC015A2F0E94872B072E000C880B990BCD
:1021C00020E13EE040E050E00E949F2A0E945D2B0B
:1021D00059016A017B018C01A82DC3010296A11D42
:1021E000FC015A2F0E94872B072E000C880B990B9D
:1021F0002CE330E040E050E00E949F2A0E945D2BDB
:1022000059016A017B018C01F301582D0E94872B33
:102210009B01932F990F990B492F592F692F792FD4
:0E222000892F0E945D2B2596E2E10C943F274A
:10222E00CF92DF92FF920F931F93CF93DF93CDB791
:10223E00DEB728970FB6F894DEBF0FBECDBF982F2E
:10224E009295907F9093ED00EEEDF0E0208101E00D
:10225E0010E0082E02C0000F111F0A94E2F7902F13
:10226E00909592239083EFEEF0E090819F73908390
:10227E00811150C08091EE0085FF38C0EEEEF0E087
:10228E0080818F7D8083C090640BD090650BC114CC
:10229E00D10461F18091EF008F70F82E4091F30020
:1022AE0050E0440F551F440F551F440F551F80918A
:1022BE00F200829586958770482B90E00AC0209197
:1022CE00FA00E1E0F0E0EC0FFD1FE90FF11D2083B5
:1022DE009F5F9F15A0F3CA010E949923873131F0A9
:1022EE004F2DBE016F5F7F4FF60109958091EE0075
:1022FE008E7029F0EEEEF0E08081817F8083EEED2E
:10230E00F0E08081082B0083EFEEF0E080818068A2
:10231E0080832BC0813049F58091EE0086FF07C087
:10232E00EEEEF0E080818F7B80831092780B8091AF
:10233E00EE008971D1F0EEEEF0E08081867E808332
:10234E008091770B843168F481E08093740B21E0E7
:10235E004091750B69E37BE08091760B0E94530FE1
:10236E0004C01092780B1092740B28960FB6F89446
:10237E00DEBF0FBECDBFDF91CF911F910F91FF90AA
:06238E00DF90CF900895DE
:102394001F93CF93DF9300D000D00F92CDB7DEB759
:1023A40087B1806487B988B1806488B988B1806452
:1023B40088B90E9479280E94EB2610E00DC0CE0156
:1023C40001960E946F2A813049F060E177E280E053
:1023D40090E00E9485251F5F143688F3143609F4B3
:1023E40076C0CE01019625E0FC0111922A95E9F709
:1023F4000E948E27813009F05EC08C818A3A09F0F0
:1024040068C040E050E060E070E4CE0101960E94B4
:10241400B024811160C0CE0101960E94A8278823B0
:102424000CF45BC089E29BE00E944C2288230CF4EC
:1024340056C0E9E2FBE087818F7390E0A0E0B0E052
:10244400BC01552744279085892F90E0A0E0B0E097
:10245400BA2FA92F982F8827842B952BA62BB72B1F
:102464002185822B0196A11DB11D072E7AE0880FCC
:10247400991FAA1FBB1F7A95D1F7702D8093540B17
:102484009093550BA093560BB093570B25812F7047
:1024940081E090E002C0880F991F2A95E2F790939B
:1024A4006B0B80936A0B60EC78ED87EA90E00E94F6
:1024B400691A81E017C040E050E060E070E4CE01AA
:1024C40001960E94B02481110CC081E00BC080E011
:1024D40009C080E007C080E005C080E003C080E060
:1024E40001C080E00F900F900F900F900F90DF913C
:0624F400CF911F91089535
:1024FA00CF92DF92EF92FF92282F8F3508F02EE5C8
:10250A0020932501622F70E0660F771F660F771FF1
:10251A006115710599F080E893E00E94CC28E9E6FC
:10252A00F1E07183608380819181892B69F481E074
:10253A0090E090936A018093690106C081E090E07F
:10254A0090936A018093690110926C0110926B0159
:10255A0010926E0110926D0180E090E010C0FC01B3
:10256A00EE0FFF1FEE0FFF1FE059FE4F4FEF5FEF19
:10257A00518340834FEF5FE7538342830196803E46
:10258A00910568F3C22ED12CE12CF12CAAECB8E00B
:10259A00A70196010E940F2BE0E1F1E0658F768F8B
:1025AA00878F90A3A4E9B1E10E940F2B61A372A3C4
:1025BA0083A394A381A192A1A3A1B4A1458D568D11
:1025CA00678D70A1841B950BA60BB70B880F991FFB
:1025DA00AA1FBB1F880F991FAA1FBB1F880F991F0D
:1025EA00AA1FBB1F880F991FAA1FBB1F880F991FFD
:1025FA00AA1FBB1F880F991FAA1FBB1F880F991FED
:10260A00AA1FBB1FAC01BD01BB2324F441505C4F80
:10261A006F4F7F4F032E3AE075956795579547950B
:10262A003A95D1F7302D5093360140933501FF90FA
:08263A00EF90DF90CF900895AE
:102642001F920F920FB60F9211240F931F932F9385
:102652003F934F935F936F937F938F939F93AF9328
:10266200BF93CF93DF93EF93FF93EBEDF0E0D08135
:102672001091DE0080818F778083C091E000C0FFDF
:102682000CC080E00E94171100E020E030E04AEB2D
:1026920053E060E080E00E944A0EC1FF03C081E087
:1026A2000E9417118091DA0086FF16C080E48093A1
:1026B200DA0080915C0B90915D0B019690935D0B1B
:1026C20080935C0B82E08093D8001092780B10927A
:1026D200740B8AE08093730B8091DA0084FF0AC046
:1026E20041E752E06FE473E080E00E944D2880E110
:1026F2008093DA008091DA0083FF03C088E0809340
:10270200DA008091DA0082FF03C084E08093DA006D
:102712008091DA0081FF03C082E08093DA00809129
:10272200DA0080FF13C081E08093DA008091770B9A
:10273200843150F421E04091750B69E37BE0809194
:10274200760B0E94530F02C01092780B1093DE009A
:10275200D093DB00FF91EF91DF91CF91BF91AF91C9
:102762009F918F917F916F915F914F913F912F91A7
:0E2772001F910F910F900FBE0F901F901895A2
:10278000CF9382E080937A0010927C0010929400A4
:1027900010929500109296001092970080EA809314
:1027A0007B00C0E083C02C2F30E0C901880F991F47
:1027B000820F931F0196092E000CAA0B835E9C4F7B
:1027C000AF4FFC018491A7FD8081813041F008F476
:1027D0006CC0823021F1833009F441C05FC054B134
:1027E000C901880F991F280F391F2E5F3F4F032EF5
:1027F000000C440B235E3C4F4F4FF901249147FDE1
:10280000208181E090E002C0880F991F2A95E2F7AD
:102810008095582354B995B1892385B946C057B1DD
:10282000C901880F991F280F391F2E5F3F4F032EB4
:10283000000C440B235E3C4F4F4FF901249147FDA0
:10284000208181E090E002C0880F991F2A95E2F76D
:102850008095582357B998B1892388B926C04AB1C1
:10286000C901880F991F820F931F0296092E000C31
:10287000AA0B835E9C4FAF4FFC012491A7FD2081E2
:1028800081E090E002C0880F991F2A95E2F78095B9
:1028900048234AB99BB189238BB907C045EB50E067
:1028A00064E473E080E00E944D28CF5FC53008F4F7
:0C28B0007ACF81E080936E0BCF910895E9
:1028BC00CF93DF9381110DC0809110019091110184
:1028CC00A0911201B09113018A379A4DA747BA4BC8
:1028DC0089F1C0E1D1E080E094E0FE019C0111920D
:1028EC0021503040E1F79D838C838AE79AEDA7E76E
:1028FC00BAEB88839983AA83BB830E9490216E874D
:10290C007F87888B998B8FEF8AA78B8B1C8A84E0AF
:10291C0090E00E94392B0E947D120E94BC2B0E94D9
:10292C00422B6093650170936601809367019093CD
:10293C00680155C020916B0130916C01809125018B
:10294C0090E0880F991F880F991F289FA001299F3D
:10295C00500D389F500D112440595E4F80E011C02E
:10296C00E82FF0E0EE0FFF1FEE0FFF1FE40FF51F37
:10297C002FEF3FEF318320832FEF3FE73383228309
:10298C008F5F90912501891758F3E0E1F1E017A2D0
:10299C0011A610A612A615A616A680914E0190910E
:1029AC004F01A0915001B0915101892B8A2B8B2B97
:1029BC00B1F410924E0110924F01109250011092EE
:1029CC00510111AE10AE13AE12AE15AE14AE8FE9AE
:1029DC0095E193AB82AB95AB84AB97AB86AB8FEFAA
:0A29EC0080938C0BDF91CF910895CA
:1029F6001F920F920FB60F9211242F933F934F936E
:102A06005F936F937F938F939F93AF93BF93EF9350
:102A1600FF9386B5835D87BD85B3826085BBEEE691
:102A2600F0E080818260808380918F0B882321F083
:102A360085B1886085B903C085B1877F85B98091E6
:102A4600940B8F5F8093940B8091940B833061F489
:102A56008091900B882341F08BE08093940B109229
:102A66008F0B1092920B4DC08091940B8A3080F49C
:102A76008091930B882324F481E080938F0B02C00E
:102A860010928F0B8091930B880F8093930B39C014
:102A96008091940B8A3029F48091920B80938F0B4E
:102AA60030C08091940B8B3019F410928F0B29C093
:102AB6008091940B8C3029F58091920B80938F0B2B
:102AC6001092940B8091920B811108C01092910B79
:102AD600EEE6F0E080818D7F808313C00E945D2A40
:102AE6008093920B0E9426268093930B86B588537B
:102AF60087BD85B3826085BBEEE6F0E080818260AB
:102B06008083FF91EF91BF91AF919F918F917F91BC
:102B16006F915F914F913F912F910F900FBE0F9044
:042B26001F9018954F
:102B2A000F938091730B882319F081508093730B54
:102B3A008091710B882319F081508093710B209139
:102B4A00EA003091EB008091700B821748F5311141
:102B5A0027C090916F0B911123C04091720B4F5F68
:102B6A004093720B4430F8F09091710B91111BC095
:102B7A0050E0435051094430510514F043E050E00D
:102B8A0062E070E0FB0102C0EE0FFF1F4A95E2F718
:102B9A00E093710BE13138F090E19093710B03C02F
:102BAA0031111092720B422F50E090E00A9684176E
:102BBA0095074CF0432F50E080916F0B90E00A96F6
:102BCA00841795073CF48091710B853018F485E0E1
:102BDA008093710B2093700B30936F0B222314F0A8
:102BEA0033234CF480914D0B90914E0B01969093A8
:102BFA004E0B80934D0B8091D90082FD12C082E06A
:102C0A008093D80000E020E030E04AEB53E060E037
:102C1A0080E00E944A0E8091EA00811102C08091F0
:102C2A00EB00EDEEF0E0908110828091EF00807C65
:102C3A0059F49093ED0000E020E030E04AEB53E0D5
:102C4A0060E00E944A0E02C09093ED000F91089531
:102C5A00CF93DF93CDB7DEB728970FB6F894DEBFD0
:102C6A000FBECDBF8091880B823051F1833009F4B9
:102C7A0052C0813009F06FC0E091680BF091690B86
:102C8A00EB5AFF4F80819181A281B38189839A8314
:102C9A00AB83BC8381E890E09E838D831F82188674
:102CAA0048E0BE016F5F7F4F84E10E94F3278823CB
:102CBA0009F451C082E08093880B1092870B4BC0B5
:102CCA004091870B44231CF150E0440F551F440FD9
:102CDA00551F440F551F8091680B9091690B480F3F
:102CEA00591F60E828E030E0CE0101960E94DA27F9
:102CFA0048E0BE016F5F7F4F85E10E94F32788237A
:102D0A0051F18091870B8F5F8093870B24C083E0FA
:102D1A008093880B20C06091680B7091690B80E8E2
:102D2A0040E054E00E94DA1E69837A838B839C8395
:102D3A001D821E821F82188648E0BE016F5F7F4F88
:102D4A0086E10E94F327882331F01092880B1092B3
:102D5A00690B1092680B28960FB6F894DEBF0FBE67
:082D6A00CDBFDF91CF91089568
:102D7200A0915A01B0915B0180915D0190915E0139
:102D8200E0918C0BEF3F81F407C0F0E0EE0FFF1FE4
:102D9200E75EF44F91838083E0918C0BEF5FE093C9
:102DA2008C0BE83090F30FC021E02E0F20938C0B98
:102DB200F0E0EE0FFF1FE75EF44F9183808328302F
:102DC20010F010928C0B80E020E030E00BC0E82F76
:102DD200F0E0EE0FFF1FE75EF44F40815181240FB8
:102DE200351F8F5F883098F3C90199230CF4079639
:102DF200959587959595879595958795A81BB90B78
:102E020020E83CE00E94A42BAB01BC015F5F6F4F46
:102E12007F4FDB01CA01772324F481509E4FAF4FCD
:102E2200BF4F072E79E0B595A795979587957A9527
:102E3200D1F7702D9058AF4FBF4FE0E1F1E091AB69
:102E420080AB20A931A9868997898217930720F43C
:102E520080A991A9978B868BE0E1F1E020A931A9A5
:102E6200808D918D2817390720F480A991A9918F1F
:042E7200808F0895B0
:102E7600FC0120818DEC289F912D11249695969525
:102E8600969530E1939FA0011124990F392F330FA6
:102E9600330F930F291B242B20832181289F912DEB
:102EA600112496959695969530E1939FA00111244D
:102EB600990F392F330F330F930F291B242B21839F
:102EC6004281489F912D112496959695969550E1AD
:102ED600959F90011124990F392F330F330F930FBC
:102EE600491B242B2F7B22839381977098609383B1
:102EF6002481289F912D112496959695969530E1DB
:102F0600939FA0011124990F392F330F330F930F7D
:102F1600291B242B24832581289F912D11249695E6
:102F26009695969530E1939FA0011124990F392F1C
:102F3600330F330F930F291B242B25839681989FDC
:102F4600812D112486958695869540E1849F900172
:102F56001124880F382F330F330F830F981B922BB2
:0E2F6600968347E0BF0180E00E943223089569
:102F74008F929F92AF92BF92CF92DF92EF92FF9285
:102F84000F931F93CF93DF93FC012481358121306C
:102F9400344008F05BC0EC012C813D81AC0160E859
:102FA40088E295E00E94DA278C819D818115944006
:102FB40070F42C813D818C819D8140E054E0421B62
:102FC400530B60E070E0885D9A4F0E944B2BC12C3C
:102FD400D12C76016894C1F8812C912C54012FC016
:102FE4006091580B7091590B80915A0B90915B0B27
:102FF40001E010E020E030E0A401485D5A4F0E9457
:103004002119882321F18091580B9091590BA0919B
:103014005A0BB0915B0B0196A11DB11D8093580B07
:103024009093590BA0935A0BB0935B0B42E0940E10
:10303400A11CB11C81E0C81AD108E108F108C1142F
:10304400D104E104F10461F681E001C080E0DF9184
:10305400CF911F910F91FF90EF90DF90CF90BF9091
:08306400AF909F908F9008953A
:10306C001F920F920FB60F9211242F933F934F93F1
:10307C005F936F937F938F939F93AF93BF93EF93D4
:10308C00FF9386B58E5C88BD85B3846085BBEEE608
:10309C00F0E08081846080832091960B83B182FB69
:1030AC00882780F98093960B90918D0B992331F0A2
:1030BC009BB190629BB910928D0B06C09BB19F7D0A
:1030CC009BB981E080938D0B8091990B8F5F8093DE
:1030DC00990B813019F41092980B2BC08A3038F46C
:1030EC008091980B880F822B8093980B22C0209391
:1030FC00950B8BB18F7D8BB981E080938D0BE9E6BD
:10310C00F0E09CE090838CB382608CBB90838CB39A
:10311C0082608CBB8DB382608DBBEEE6F0E080816B
:10312C008B7F80838091980B0E94EC1D83E08093B1
:10313C00970BFF91EF91BF91AF919F918F917F91E1
:10314C006F915F914F913F912F910F900FBE0F9008
:04315C001F90189513
:10316000CF93DF93EC0147E0BC0180E00E94CF21C8
:10317000882309F463C09881292F22952F70277026
:10318000220F322F330F330F230F9F70920F98832C
:103190009981292F22952F702770220F322F330FFC
:1031A000330F230F9F70920F99839A8196FF11C05E
:1031B00094FB222720F9220F322F330F330F230FD6
:1031C000392F3F70230F2A8395FF0FC0245F2A8376
:1031D0000CC0292F22952F702370220F322F330F0E
:1031E000330F230F9F70920F9A839B8197709B835D
:1031F0009C81292F22952F702370220F322F330F9D
:10320000330F230F9F70920F9C839D8194FB222785
:1032100020F9220F322F330F330F230F9F70920F9D
:103220009D839E81292F22952F70220F322F330FDD
:10323000330F230F9F70920F9C5E9E83DF91CF917F
:023240000895EF
:103242008F929F92AF92BF92CF92DF92EF92FF92B4
:103252000F931F93CF93DF934B015C01EA01680147
:1032620079010E94DE2B81E00E94252B81E0C816A5
:10327200D104E104F10489F4B501A40188E10E94BA
:10328200A31C811137C060916A0B70916B0B4EEFDA
:10329200CE010E94311B182F30C0B501A40189E173
:1032A2000E94A31C882319F027C06C017D01609144
:1032B2006A0B70916B0B4CEFCE010E94311B182FE1
:1032C2000E94DE2B80916A0B90916B0BC80FD91F65
:1032D200112349F0D701C6010197A109B109CD28EF
:1032E200CE28CF2811F740E050E0BA018CE00E94CE
:1032F200A31C03C010E001C010E080E00E94252B57
:10330200812FDF91CF911F910F91FF90EF90DF906E
:0C331200CF90BF90AF909F908F900895D7
:10331E008F929F92AF92BF92CF92DF92EF92FF92D7
:10332E000F931F93E8E2F9E0C48CD58CE68CF78CF2
:10333E0080A091A0A2A0B3A001E010E020E030E0B8
:10334E0048E255E0C701B6010E94FD19882309F431
:10335E0042C0F401E85DFA4F009140091091410915
:10336E0020914209309143090083118322833383D4
:10337E00148215821682178201E010E020E030E000
:10338E0048E255E0C701B6010E942119882319F1C0
:10339E00E8E2F9E080A191A1A2A1B3A10896A11D36
:1033AE00B11D80A391A3A2A3B3A381159240A10541
:1033BE00B10578F0848D958DA68DB78D0196A11DE2
:1033CE00B11D848F958FA68FB78F10A211A212A256
:1033DE0013A20E94C1271F910F91FF90EF90DF90D3
:0C33EE00CF90BF90AF909F908F900895FB
:1033FA008F929F92AF92BF92CF92DF92EF92FF92FB
:10340A000F931F93CF93DF934B015C01EA0168018D
:10341A0079010E94DE2B81E00E94252B81E0C816EB
:10342A00D104E104F10481F4B501A40181E10E940F
:10343A00A31C811135C060916A0B70916B0BCE0190
:10344A000E944020182F2FC0B501A40182E10E94DA
:10345A00A31C882319F026C06C017D0160916A0BB8
:10346A0070916B0BCE010E944020182F0E94DE2B18
:10347A0080916A0B90916B0BC80FD91F112349F0E9
:10348A00D701C6010197A109B109CD28CE28CF28B5
:10349A0019F740E050E0BA018CE00E94A31C03C077
:1034AA0010E001C010E080E00E94252B812FDF91FF
:1034BA00CF911F910F91FF90EF90DF90CF90BF9027
:0834CA00AF909F908F900895D0
:1034D200CF92DF92EF92FF926B017C0120E019C044
:1034E200822F90E0AC01440F551F840F951F880F67
:1034F200991F092E000CAA0B85559D4FAF4FFC0159
:103502005A2F0E94E12AC616D706E806F90618F4D1
:103512002F5F273028F3273009F421506CB530E0B3
:10352200A901440F551FCA01820F931F880F991FCB
:103532000496092E000CAA0B85559D4FAF4FFC0136
:103542008491A7FD80816C7F862B8CBD6DB5CA01ED
:10355200820F931F880F991F0596092E000CAA0B44
:1035620085559D4FAF4FFC018491A7FD80816E7FF1
:10357200862B8DBD240F351F220F331F032E000C07
:10358200440B25553D4F4F4FF901542F0E94E12A1C
:0A359200FF90EF90DF90CF900895B6
:10359C000F931F93CF93DF93CDB7DEB7A8970FB6DA
:1035AC00F894DEBF0FBECDBF29A33AA34BA35CA3F7
:1035BC006DA37EA38FA398A7FE01319689E1DF014D
:1035CC001D928A95E9F7BE016F5D7F4F80E80E94DE
:1035DC00CB2B8C01892B39F442E851E069EF72E076
:1035EC0080E00E944D28A80160E829E130E0CE017E
:1035FC0001960E94DA27BE01665E7F4FCE010196CE
:10360C000E943125F89479A16AA15BA14CA13DA13E
:10361C002EA19FA188A57093410B6093420B5093F0
:10362C00430B4093440B3093450B2093460B9093E4
:10363C00470B8093480B7894CE014A960E943B1717
:10364C00A8960FB6F894DEBF0FBECDBFDF91CF9119
:06365C001F910F9108957B
:10366200EF92FF920F931F93CF93DF9300D0CDB7CA
:10367200DEB78C017B014A8341E050E0BE016E5F00
:103682007F4F81E00E9458248A818D3FE1F1A7019A
:10369200B80181E00E94582400E010E00DC041E032
:1036A20050E0BE016F5F7F4F83E00E945824898102
:1036B2008F3F31F40F5F1F4F0E3988E9180778F3F7
:1036C2000E39184911F189818F718983853081F012
:1036D20080E01EC041E050E0BE016F5F7F4F83E09B
:1036E2000E9458248981811109C00F5F1F4F02C0B7
:1036F20000E010E00E3988E9180760F30E39184926
:1037020031F081E005C081E003C080E001C080E0CB
:103712000F900F90DF91CF911F910F91FF90EF903B
:02372200089508
:1037240078941F920F920FB60F9211242F933F9308
:103734004F935F936F937F938F939F93AF93BF93B5
:10374400EF93FF93609178007091790080914F0B13
:1037540091E0980F90934F0B953010F010924F0B0F
:10376400ACE7B0E05C9120914F0B30E0F901EE0F33
:10377400FF1F2E0F3F1F032E000C440B235E3C4FF4
:103784004F4FF901949147FD9081507E952B906C99
:103794009C930E94632880914F0B811109C0EAE732
:1037A400F0E08081877F808381E080936E0B05C089
:1037B400EAE7F0E0808188648083FF91EF91BF9114
:1037C400AF919F918F917F916F915F914F913F91B5
:0C37D4002F910F900FBE0F901F901895C2
:1037E00078941F920F920FB60F9211248F939F938C
:1037F000EF93FF9382E086BB8091840090918500D7
:103800008B5C934F9093890080938800EFE6F0E003
:1038100080818260808381E080930B018091860BA0
:103820008F5F8093860B8091860B833078F01092A7
:10383000860B81E08093850B80910C01813019F417
:1038400010920C0103C081E080930C018091830BE6
:103850008F3F29F08091830B8F5F8093830B809142
:10386000830B8F3640F08091830B8F568093830BB0
:1038700081E080931B058091840B882329F080913F
:10388000840B81508093840BFF91EF919F918F91D6
:0A3890000F900FBE0F901F901895C7
:10389A008091780B882309F450C0EDEEF0E0808126
:1038AA0090E190839091EE0096FF12C0EEEEF0E068
:1038BA0090819F7B90831092780B20915E0B3091C0
:1038CA005F0B2F5F3F4F30935F0B20935E0B33C02C
:1038DA009091EE009F7189F01092EE001092780B91
:1038EA002091600B3091610B2F5F3F4F3093610B3A
:1038FA002093600B1092740B1EC09091780B91501C
:10390A009093780B9091780B911115C01092EE005C
:10391A001092EF001092740BEEEDF0E090819D7F13
:10392A0090832091620B3091630B2F5F3F4F30934E
:0C393A00630B2093620B8093ED00089556
:10394600DF92EF92FF920F931F93CF93DF93CDB742
:10395600DEB727970FB6F894DEBF0FBECDBF182F80
:10396600042FF52EE62ED72E88234CF440E050E0A7
:10397600BA0187E30E94A31C8F83823040F5812F12
:103986008F7380648983DA82EB82FC820D83112334
:1039960011F080E001C085E9183009F487E88160FC
:1039A6008E8346E050E0BE016F5F7F4F81E00E944C
:1039B60058241AE041E050E0BE01695F7F4F83E082
:1039C6000E9458248F81882314F4115099F7279662
:1039D6000FB6F894DEBF0FBECDBFDF91CF911F911A
:0A39E6000F91FF90EF90DF9008951D
:1039F0008F929F92AF92BF92CF92DF92EF92FF92FF
:103A0000CF93DF93C82FD0E06096CC0FDD1FCC0F93
:103A1000DD1FCE010E94392BC82ED12CE12CF12CB8
:103A2000FC2CEE24DD24CC24CE0101960E94392BFF
:103A3000882E912CA12CB12CD401992788274601DE
:103A40005701882A992AAA2ABB2ACE0102960E94E7
:103A5000392BC82ED12CE12CF12CBE2DAD2D9C2D57
:103A6000882775016401C82AD92AEA2AFB2ACE01CF
:103A700003960E94392BA7019601282BCA01B90190
:103A8000DF91CF91FF90EF90DF90CF90BF90AF90FC
:063A90009F908F90089545
:103A960088249924F401E401B0E49F93AA279A1597
:103AA6008B049C04ED05FE05CF05D007A10798F40D
:103AB600AD2FDC2FCF2FFE2FE92D982C892E982F96
:103AC600872F762F652F542F432F322F2227B8505A
:103AD60031F7BF9127C01B2EBF91BB27220F331F83
:103AE600441F551F661F771F881F991F881C991C26
:103AF600EE1FFF1FCC1FDD1FAA1FBB1F8A149B04CE
:103B0600EC05FD05CE05DF05A007B10748F08A18CC
:103B16009B08EC09FD09CE09DF09A00BB10B21605A
:103B26001A94E1F62EF49401AF01BE01CD01000C0A
:023B36000895F0
:103B3800CF92DF92EF92FF921F93CF93DF93C0E073
:103B4800D0E010E0C12CD12C76011BC08C2F0E9434
:103B5800F81C6F3F2FEF72078207920789F0DD2369
:103B680031F0C616D706E806F90630F009C01C2F52
:103B78006B017C01D1E004C01C2F6B017C01D1E0FA
:103B8800CF5FCC231CF7DD2359F0C092490BD092AC
:103B98004A0BE0924B0BF0924C0B10937A0B10C02F
:103BA8001092490B10924A0B10924B0B10924C0B2F
:103BB80010927A0B40E050E0BA0180E00E94B61FF4
:103BC800DF91CF911F91FF90EF90DF90CF900895F4
:103BD800E091810B21E02E0F2093810BF0E0E05B58
:103BE800F44F80838091660B9091670B01969093B8
:103BF800670B8093660B2430D0F11092810B809173
:103C0800820B8C36A0F540916B0150916C0120918C
:103C1800250130E0220F331F220F331F429FF0018E
:103C2800439FF00D529FF00D1124E059FE4F282FAD
:103C380030E0220F331F220F331FE20FF31FA0E5DE
:103C4800BBE04D915D916D917C91139740835183B9
:103C5800628373831D921D921D921C9213978F5F2E
:103C68008093820B8091800B8F5F8093800B0895E7
:103C7800DF93CF931F930F939A9DF02D219FF00D03
:103C88008B9DF00D8A9DE02DF10D039FF00D029F95
:103C9800E00DF11D4E9DE00DF11D5E9DF00D4F9D57
:103CA800F00D7F936F93BF92AF925F934F93D501BF
:103CB8000E94902A8B01AC01D7010E94902AEB0147
:103CC800E80FF91FD6010E94542B2F913F91D6017E
:103CD8000E94902AC60FD71FE81FF91FAF91BF9106
:103CE8000E94542B2F913F910E94902AC60FD71FF4
:103CF800E81FF91FD6010E94902AE60FF71F9801C6
:103D0800BE01CF0111240F911F91CF91DF9108952A
:103D18000F93CF93C2E0C093E20084E08093E30066
:103D280082E18093E40000E020E030E042EC53E0E0
:103D380060E080E00E944A0E20E030E042EC53E070
:103D480060E081E00E944A0E20E030E042EC53E05F
:103D580060E082E00E944A0E20E030E042EC53E04E
:103D680060E083E00E944A0E20E030E042EC53E03D
:103D780060E084E00E944A0E20E030E042EC53E02C
:103D880060E085E00E944A0E20E030E04AEB53E014
:103D980060E080E00E944A0E8EEB8093DB00C093C7
:0C3DA800D8001092780BCF910F91089575
:103DB4006F927F928F92CF92DF92EF92FF923B01AC
:103DC400882E20E030E08FEF9FEFDC012CC0E82C40
:103DD4006301C20ED31EE11C37FDEA94F60164911F
:103DE400E7FC6081862760E01AC06C017D01F694CF
:103DF400E794D794C79481709927AA27BB27B095D5
:103E0400A095909581959F4FAF4FBF4F8072937847
:103E1400A87BBD7E8C259D25AE25BF256F5F6830B0
:103E240020F32F5F3F4F2417350788F2BC01CD01E3
:103E34006095709580959095FF90EF90DF90CF906E
:083E44008F907F906F900895AC
:103E4C000F931F93CF93DF938C01EB01892BF9F028
:103E5C0087E090E00E94392B90E0F80191838083F9
:103E6C0088E090E00E94392B90E0982F8827F80189
:103E7C0020813181822B932B9183808301978E3FFC
:103E8C009F4F28F08CEC97E7F80191838083209763
:103E9C00E1F085E090E00E94392B90E099838883D3
:103EAC0086E090E00E94392B90E0982F882728819B
:103EBC003981822B932B9983888301978E3F9F4F57
:103ECC0020F084EF91E899838883DF91CF911F9143
:043EDC000F910895A5
:103EE000CF93DF934091490B50914A0B60914B0B5C
:103EF00070914C0B4F5F5F4F6F4F7F4F4093490B5B
:103F000050934A0B60934B0B70934C0B8091790B41
:103F10008F5F8093790B811120C080917A0BC82F1D
:103F2000D0E02196CF77D078DD2324F42197C068A4
:103F3000DF6F21964FEF5FEFBA010E94B61F8C2F03
:103F4000C0937A0B4091490B50914A0B60914B0BF7
:103F500070914C0B0E94B61F06C08F7021F48091A7
:0C3F60007A0B0E94B61FDF91CF910895EC
:103F6C00BF92CF92DF92EF92FF920F931F93CF935A
:103F7C00DF936A017B01C82FD0E06096CC0FDD1F68
:103F8C00CC0FDD1F0E94F81C162F072FB82E292FDF
:103F9C006F2D772788279927261719F0CE010E94B5
:103FAC00C92AB70188279927B61621F0CE010196A8
:103FBC000E94C92A99278F2D7E2D6D2D061721F071
:103FCC00CE0102960E94C92A1C1529F06C2DCE0137
:103FDC0003960E94C92ADF91CF911F910F91FF90F8
:0A3FEC00EF90DF90CF90BF90089592
:103FF60078941F920F920FB60F9211242F933F932E
:104006004F935F936F937F938F939F93AF93BF93DA
:10401600EF93FF9396B180910701833021F0809151
:1040260007018230C9F491FF17C088B18F7E88B925
:1040360080910701833019F481E00E94C12BEBE6E1
:10404600F0E080818D7F8083E8E6F0E080818D7FDF
:10405600808381E080931305FF91EF91BF91AF912B
:104066009F918F917F916F915F914F913F912F918A
:0A4076000F900FBE0F901F901895D9
:10408000CF92DF92EF92FF920F931F93CF93DF9324
:104090000F92CDB7DEB77C016B0100E010E101C0EB
:1040A000890141E050E0BE016F5F7F4F83E00E94D5
:1040B000582489818E3F29F0980121503109012B24
:1040C00079F78E3FB9F4A601B70183E00E94582426
:1040D00041E050E0BE016F5F7F4F83E00E945824B3
:1040E00041E050E0BE016F5F7F4F83E00E945824A3
:1040F00081E001C080E00F90DF91CF911F910F917F
:0A410000FF90EF90DF90CF9008953C
:10410A0080910401823049F128F4882341F08130FA
:10411A0091F032C0833061F18430A9F12DC085B1AC
:10412A008F7E85B981E08093040180E00E945E144D
:10413A000E946F2B089585B18F7E85B980E00E9419
:10414A005E1482E08093040181E08093840BE0E1B5
:10415A00F1E08FEF838B148A08958091840B81118B
:10416A0012C085B1806185B983E080930401089506
:10417A0084E08093040108954CE952E067E472E018
:08418A0080E00E944D28089519
:1041920078941F920F920FB60F9211242F933F9390
:1041A2004F935F936F937F938F939F93AF938CB350
:1041B20088608CBB2091410B3091420B4091430BA4
:1041C2005091440B6091450B7091460B8091470BC7
:1041D2009091480BA1E00E94ED2A2093410B30936D
:1041E200420B4093430B5093440B6093450B7093E7
:1041F200460B8093470B9093480BAF919F918F9101
:104202007F916F915F914F913F912F910F900FBED0
:064212000F901F901895AB
:10421800A9E1B0E0E2E1F1E20C940A272C01BC012B
:1042280080E80E94381039014A0159016A01E12CDD
:10423800F12C00E010E00E94662BF9F41A8A198A22
:104248001B8A1C8A1D8A1E8A2EEC33E040E02F8BC5
:10425800388F498F8E010F5F1F4F9301482D0E94A1
:104268003F0497FD0AC089E1F801D20101900D923F
:104278008A95E1F7B301C4010AC08FE490E09093F6
:104288000101809300016FEF7FEF8FEF9FEF699639
:06429800E0E10C94412757
:10429E00CF930E94CA11C82F8823C1F10E94902685
:1042AE00811122C0E8E2F9E088ED91E0DF019C0186
:1042BE001D9221503040E1F781E090E0A0E0B0E0A7
:1042CE0084879587A687B787808F918FA28FB38FAC
:1042DE0084E090E0A0E0B0E0848F958FA68FB78F3A
:1042EE000E94C127882389F080914009909141094D
:1042FE00A0914209B09143098093580B9093590BAA
:10430E00A0935A0BB0935B0B01C0C82F8C2FCF918B
:02431E00089500
:10432000CF92DF92EF92FF9280E090E00E94392BD3
:10433000C82ED12CE12CF12C81E090E00E94392B89
:1043400090E0A0E0B0E0BA2FA92F982F8827C82AC4
:10435000D92AEA2AFB2A82E090E00E94392B90E0D9
:10436000A0E0B0E0DC0199278827C82AD92AEA2AE8
:10437000FB2A83E090E00E94392B90E0A0E0B0E0BF
:10438000B82FAA2799278827BC01CD016C297D2940
:0E4390008E299F29FF90EF90DF90CF90089527
:10439E00FF920F931F93CF93DF93F82E8B01C42FB1
:1043AE00411107C04FE550E069EF72E080E00E94D6
:1043BE004D2841E060E08EED0E944C26D82F8823D8
:1043CE00E9F08F2D0E94FD22D82F8823B9F040E00E
:1043DE0061E08EED0E944C26D82F811108C00EC0D0
:1043EE0081E00E948A22F80181938F01C150C23070
:1043FE00B8F780E00E948A22F80180830E94F42898
:0E440E008D2FDF91CF911F910F91FF90089598
:10441C00CF93DF93DC01FB0189E1EB0119928A95C3
:10442C00E9F78C9190E09183808311968C91119790
:10443C0090E09383828312968C91129790E09583EF
:10444C00848314968C91149790E0978386831596A9
:10445C008C91159790E001979187808716968C9197
:10446C00843130F490E08C5C974F9387828705C041
:10447C0090E08053984F93878287828593858C56E2
:0C448C00974093878287DF91CF910895BD
:10449800EF92FF920F931F93CF93DF930F92CDB7B5
:1044A800DEB77C0181E00E94252B40E050E0BA0194
:1044B80089E00E94A31C082F81111CC018E001C0CC
:1044C800182F41E050E0BE016F5F7F4F83E00E94EC
:1044D800582489818E3F29F08FEF810F1111F0CF79
:1044E80001C0812F882331F040E150E0B70183E01B
:1044F8000E94582480E00E94252B802F0F90DF9186
:0C450800CF911F910F91FF90EF9008954C
:104514001F93CF93DF93182F8AB18D7F8AB98BB104
:1045240082608BB9C8E0D0E00EC0DD0F8BB1816032
:104534008BB90E94962B4999D1608BB18E7F8BB930
:104544000E94962BC150C111F0CF8AB182608AB902
:10455400112321F08BB18D7F8BB903C08BB18260A5
:104564008BB90E94962B8BB181608BB90E94962BDC
:104574008BB18E7F8BB90E94962B8BB18D7F8BB9BB
:0A4584008D2FDF91CF911F91089554
:10458E00A0E0B0E0EDECF2E20C940E27EA01FB01A4
:10459E00582F0E94E12A4B015C01C12CD12C7601CF
:1045AE008E019B01A50160E070E080E090E00E942A
:1045BE003F0497FF09C08FE490E090930101809330
:1045CE00000180E090E00DC0198A188A1A8A1B8AB1
:1045DE001C8A1D8A8AEC93E0A0E08E8B9F8BA88F9D
:0C45EE00CE01CDB7DEB7ECE00C94452701
:1045FA00CF93DF93D82F8AB182608AB9C8E015C0F9
:10460A00DD2324F48BB182608BB903C08BB18D7F1B
:10461A008BB98BB181608BB90E94962B8BB18E7F3F
:10462A008BB90E94962BDD0FC150C111E9CF8AB117
:10463A008D7F8AB98BB182608BB98BB181608BB95E
:10464A000E94962B499BC1E08BB18E7F8BB90E9449
:0A465A00962B8C2FDF91CF9108956D
:10466400FF920F931F93CF93DF93F82E8B01C42FE8
:10467400411107C042E950E069EF72E080E00E9416
:104684004D2841E060E08EED0E944C26D82F88230F
:1046940099F08F2D0E94FD22D82F81110BC00CC0E0
:1046A400F80180810E94FD22D82F882329F00F5F12
:1046B4001F4FC150C111F4CF0E94F4288D2FDF91F8
:0A46C400CF911F910F91FF90089510
:1046CE008F3F2FEF920729F1282F2F7094FF02C0F2
:1046DE00906F01C09F77AC015595479555954795BD
:1046EE00559547955595479534E6349FC001359FAE
:1046FE00900D112430E040E0235F3C4F4F4FF90105
:10470E00249147FD2081820F911D81569A4E21E002
:10471E0001C020E06115710519F0FB0191838083C2
:04472E00822F089539
:10473200CF93DF93EC0190E026C0A92FB0E09D015A
:10474200220F331F2A0F3B1F032E000C440B2B5248
:104752003D4F4F4FF901542F0E94872B6C177D0755
:1047620089F4CD01880F991F8A0F9B1F0296092E8B
:10477200000CAA0B8B529D4FAF4FFC018491A7FDF9
:10478200808104C09F5F9C30C0F287E1DF91CF91AE
:02479200089588
:10479400689401C0E894F92FF12B12F00C94B12A1B
:1047A400A0E0B0E0E8EDF3E20C940E27092E0594A6
:1047B40022F40E94802A112392F4F0E80F26FFEFDE
:1047C400E094F09400951095B094C094D094A19482
:1047D400BF0ACF0ADF0AEF0AFF0A0F0B1F0B0E9462
:1047E4004B1D07FC0E94802ACDB7DEB7ECE00C9489
:0247F400452757
:1047F600FB01DC01B3702BED36EA43E250E00E9488
:104806000F2BDC01CB01072E7AE0B695A79597957D
:1048160087957A95D1F7702D9F5FAF4FBF4F072EC3
:1048260079E0B695A795979587957A95D1F7702DE6
:104836009C0101978E3F9F4F10F481E003C080E0FA
:0E48460020E030E0309711F031832083089598
:104854001F920F920FB60F9211248F93EF93FF9331
:104864008091970B882311F08330C1F486B5855B62
:1048740088BD85B3846085BBEEE6F0E0808184600A
:1048840080838DB38D7F8DBB8BB180628BB9109289
:104894008D0B81E08093970B1092990BFF91EF9110
:0C48A4008F910F900FBE0F901F90189581
:1048B000FB01833071F408C02FEF2EBD0DB407FE4D
:1048C000FDCF2EB52193AC01CA010197452BA1F76D
:1048D0000895813061F406C021912EBD0DB407FE0C
:1048E000FDCFAC01CA010197452BB1F70895823085
:1048F00051F405C0EEBD0DB407FEFDCFAC01CA01F9
:084900000197452BB9F708955A
:104908008091580B9091590BA0915A0BB0915B0B69
:1049180080FF0CC08E7F0296A11DB11D8093580B9D
:104928009093590BA0935A0BB0935B0B8091580B43
:104938009091590BA0915A0BB0915B0B0197A1096B
:10494800B1098093380990933909A0933A09B09333
:084958003B090E94C1270895EC
:10496000CF92DF92EF92FF920F931F93CF93DF933B
:104970008C016A017B01C0E00FC0B701A601C8012C
:104980000E947427D82F882349F060E177E280E005
:1049900090E00E948525CF5FC43678F3C43609F4D1
:1049A000D0E88D2FDF91CF911F910F91FF90EF9065
:0649B000DF90CF90089596
:1049B6008091910B811123C08091970B811121C0A9
:1049C60082E08093910B10928E0B1092940B81E0F3
:1049D60080938F0B86B58E5C87BD85B3826085BB61
:1049E600EEE6F0E08081826080830E945D2A8093FB
:1049F600920B0E9426268093930B81E0089580E017
:064A0600089580E0089510
:104A0C00E894DF93CF93FC01DB010E94902A7F9303
:104A1C006F93E9019A01AC01BF93AF933F932F932E
:104A2C00DF010E94902A26F46C1B7D0B820B930BEA
:104A3C009E01EB01FC010E94542BAF91BF912F9171
:104A4C003F910E94542BBE01CF01F9012F913F9150
:064A5C00CF91DF910895E7
:104A6200CF93DF93DC01FB0187E0EB0119928A957A
:104A7200E9F78C91808312968C9112978183149618
:104A82008C911497828316968C911697848318962C
:104A92008C91189785831A968D919C911B97883CCF
:104AA20091051CF08453868302C0805D8683DF916A
:044AB200CF91089503
:104AB600E8E2F9E084899589A689B7890196A11D5E
:104AC600B11D848B958BA68BB78B8091580B9091DB
:104AD600590BA0915A0BB0915B0B808F918FA28FCF
:104AE600B38F80FF0CC08E7F0296A11DB11D8093EF
:104AF600580B9093590BA0935A0BB0935B0B0E94E3
:044B06008F19089566
:104B0A00AB01BC014F5F5F4F6F4F7F4F7695679543
:104B1A005795479596B517C086B59817E9F326B500
:104B2A00822F891B90E0A0E0B0E0481759076A0776
:104B3A007B0728F0481B590B6A0B7B0B03C040E02C
:104B4A0050E0BA01922F411551056105710521F70F
:024B5A000895BC
:104B5C0014BC92E095BDA4E6B0E08C91877F8C9359
:104B6C001092800084E08093810096BB8091840039
:104B7C00909185008B5C934F909389008093880073
:104B8C00EFE6F0E08081826080838C918F7E8C9345
:104B9C00AEE6B0E08C918E7F8C9380818E7F80838B
:024BAC0008956A
:104BAE001F920F920FB60F9211242F933F934F9394
:104BBE005F936F937F938F939F93AF93BF93EF9377
:104BCE00FF9345E353E067E472E080E00E944D28D6
:104BDE00FF91EF91BF91AF919F918F917F916F91C7
:104BEE005F914F913F912F910F900FBE0F901F909D
:024BFE00189508
:104C000078941F920F920FB60F9211242F933F9317
:104C10004F935F936F937F938F939F93AF93BF93C4
:104C2000EF93FF938BB10E94D52AFF91EF91BF9133
:104C3000AF919F918F917F916F915F914F913F9134
:0C4C40002F910F900FBE0F901F90189541
:104C4C0080918E0B811110C081E00E94B828ECE697
:104C5C00FBE0908381838081882324F481E080931E
:104C6C00900B02C01092900BE0918E0BF0E0E45987
:104C7C00F44F808190918E0B9F5F90938E0B90914F
:0C4C8C008E0B923010F010928E0B0895E9
:104C9800FF920F931F93CF93DF93F82E062F142FB5
:104CA800D3E0C0E00CC0D150602F8F2D0E94A42803
:104CB800C82F112341F0811102C00E94AF26C111F3
:104CC80002C0D111F0CF8C2FDF91CF911F910F919E
:044CD800FF900895AC
:104CDC00A1E21A2EAA1BBB1BFD010DC0AA1FBB1FF4
:104CEC00EE1FFF1FA217B307E407F50720F0A21B66
:104CFC00B30BE40BF50B661F771F881F991F1A94D3
:104D0C0069F760957095809590959B01AC01BD01FC
:044D1C00CF01089526
:104D20000F931F93CF9301E010E020E030E048E2C2
:104D300055E060E070E0CB010E94FD19C82F882388
:104D400049F048E255E060E828ED31E088E299E07A
:0E4D50000E94DA278C2FCF911F910F910895AA
:104D5E00CF938AB181608AB98AB182608AB9C0E480
:104D6E0011C08BB18E7F8BB98BB18D7F8BB90E94A9
:104D7E00962B8BB181608BB98BB182608BB90E94FF
:0C4D8E00962BC150C111EDCFCF910895BC
:104D9A00CF93DF939C01EB01880F991F880F991F0E
:104DAA00092E000CAA0B85589D4FAF4FFC015A2FB4
:104DBA000E94E12ACD2B39F02230310524F06058C7
:0C4DCA007E4A8E4F9F4FDF91CF910895DD
:104DD60060E87AE186E090E00E94691A88B1806412
:104DE60088B960ED77E080E090E00E94852540E19B
:104DF60050E06FEF70E082E00E94582460ED77E0AB
:0A4E060080E090E00E9485250895E9
:104E10002F923F924F925F926F927F928F929F92CA
:104E2000AF92BF92CF92DF92EF92FF920F931F93B8
:104E3000CF93DF93CDB7DEB7CA1BDB0B0FB6F89469
:084E4000DEBF0FBECDBF0994D7
:104E480085B78F7E85BF84B1886084B984B18B7F34
:104E580084B985B18B7F85B98AB180628AB98BB1F3
:104E680080628BB98DB38D7F8DBB1092910B85B10C
:064E7800877F85B9089553
:104E7E002A88398848885F846E847D848C849B84DC
:104E8E00AA84B984C884DF80EE80FD800C811B81EA
:104E9E00AA81B981CE0FD11D0FB6F894DEBF0FBE19
:064EAE00CDBFED010895E7
:104EB4009C0160E971E00E94CC28892B69F0C9014A
:104EC40064E670E00E94CC28892B41F023703327DC
:104ED400232B31F080E0089581E0089580E0089567
:044EE40081E00895CC
:104EE800CF92DF92EF92FF92CF936A017B0181E02C
:104EF8000E94252BB701A60189EA0E94A31CC82F8E
:104F080080E00E94252B8C2FCF91FF90EF90DF90AF
:044F1800CF90089599
:104F1C000F931F93CF938C0181E00E94252B4AEABB
:104F2C0051E060E070E088E00E94A31CC82FC8012B
:104F3C000E949D2B80E00E94252B8C2FCF911F91DE
:044F4C000F91089524
:104F50000F931F93CF938C0181E00E94252B40E09B
:104F600050E0BA018AE30E94A31CC82FC8010E9426
:104F70009D2B80E00E94252B8C2FCF911F910F91AC
:024F8000089592
:104F82000F931F9348E259E060E828ED31E088E290
:104F920095E00E94DA2701E010E020E030E048E2EC
:104FA20055E060E070E0CB010E9421191F910F9142
:024FB200089560
:104FB400CF92DF92EF926A01E62EDC01280F391FAF
:104FC400A217B30751F0F6014491E7FC40814D93D9
:104FD4004FEFC41AD40AE40AF3CFEF90DF90CF90D6
:024FE40008952E
:104FE6009091730B91110DC09091710B91110BC0A3
:104FF6009091780B911109C020E00E94530F81E037
:0E500600089580E0089580E0089580E0089508
:10501400052E97FB1EF400940E94772B57FD07D0B2
:105024000E946E2607FC03D04EF40C94772B509507
:0E5034004095309521953F4F4F4F5F4F0895A7
:105042008AB182608AB98BB182608BB98BB181607F
:105052008BB90E94962B8BB18D7F8BB90E94962BB8
:0C5062008BB18E7F8BB90E94962B0895B5
:10506E008BB181608BB98BB182608BB98AB1816053
:10507E008AB98AB18D7F8AB98BB182608BB964E1AE
:0C508E0070E080E090E00E94852508950D
:10509A005F934F938F937F936F9388E392E0A0E09F
:1050AA00AF939F938F930E948F2B8DB79EB70896CD
:0C50BA000FB6F8949EBF0FBE8DBF089586
:1050C600843019F491E09093120590E09C01220F30
:1050D600331F820F931F805F9E4FFC01E95BFF4FDA
:0C50E60071836083319721E020830895DE
:1050F20084B1826884B984B18E7F84B985B18160BC
:1051020085B983E58CBD1DBC85B78F7785BF60E807
:0C5112007AE186E090E00E94691A08959E
:10511E0080916E0B813081F410924F0BECE7F0E032
:10512E008081807E896C808382E080936E0BEAE7BB
:0A513E00F0E08081886C8083089502
:10514800CF93DF93C82FD62F0E9437280E9421289B
:10515800DD2319F08C2F816002C08C2F8E7F0E9476
:08516800FD22DF91CF910895B3
:1051700090911405992351F0882359F01092140549
:1051800081E0809315058FEF93E0089580E090E82B
:0851900008958FEF93E00895EC
:10519800AA1BBB1B51E107C0AA1FBB1FA617B70755
:1051A80010F0A61BB70B881F991F5A95A9F7809571
:0851B8009095BC01CD010895A2
:1051C00097FB072E16F4009407D077FD09D00E94B4
:1051D000CC2807FC05D03EF4909581959F4F08950B
:0851E000709561957F4F089561
:1051E8008BB18D7F8BB90E94962B8BB181608BB967
:1051F8000E94962B8AB18D7F8AB98BB182608BB958
:065208000E94962B0895A0
:10520E001F920F920FB60F92112487E099E28093AE
:10521E007D0B80916A0080937C0B80916B00809354
:04522E007B0BFFCF28
:105232001F920F920FB60F92112489E199E2809387
:105242007D0B80916A0080937C0B80916B00809330
:045252007B0BFFCF04
:105256001F920F920FB60F9211248BE299E2809360
:105266007D0B80916A0080937C0B80916B0080930C
:045276007B0BFFCFE0
:10527A001F920F920FB60F9211248DE399E2809339
:10528A007D0B80916A0080937C0B80916B008093E8
:04529A007B0BFFCFBC
:10529E001F920F920FB60F9211248FE499E2809312
:1052AE007D0B80916A0080937C0B80916B008093C4
:0452BE007B0BFFCF98
:1052C2001F920F920FB60F92112481E699E28093FA
:1052D2007D0B80916A0080937C0B80916B008093A0
:0452E2007B0BFFCF74
:1052E6001F920F920FB60F92112483E799E28093D3
:1052F6007D0B80916A0080937C0B80916B0080937C
:045306007B0BFFCF4F
:10530A001F920F920FB60F92112485E899E28093AB
:10531A007D0B80916A0080937C0B80916B00809357
:04532A007B0BFFCF2B
:10532E001F920F920FB60F92112487E999E2809384
:10533E007D0B80916A0080937C0B80916B00809333
:04534E007B0BFFCF07
:105352001F920F920FB60F92112489EA99E280935D
:105362007D0B80916A0080937C0B80916B0080930F
:045372007B0BFFCFE3
:105376001F920F920FB60F9211248BEB99E2809336
:105386007D0B80916A0080937C0B80916B008093EB
:045396007B0BFFCFBF
:10539A001F920F920FB60F9211248DEC99E280930F
:1053AA007D0B80916A0080937C0B80916B008093C7
:0453BA007B0BFFCF9B
:1053BE001F920F920FB60F9211248FED99E28093E8
:1053CE007D0B80916A0080937C0B80916B008093A3
:0453DE007B0BFFCF77
:1053E2001F920F920FB60F92112481EF99E28093D0
:1053F2007D0B80916A0080937C0B80916B0080937F
:045402007B0BFFCF52
:105406001F920F920FB60F92112483E09AE28093B7
:105416007D0B80916A0080937C0B80916B0080935A
:045426007B0BFFCF2E
:10542A001F920F920FB60F92112485E19AE2809390
:10543A007D0B80916A0080937C0B80916B00809336
:04544A007B0BFFCF0A
:10544E001F920F920FB60F92112487E29AE2809369
:10545E007D0B80916A0080937C0B80916B00809312
:04546E007B0BFFCFE6
:105472001F920F920FB60F92112489E39AE2809342
:105482007D0B80916A0080937C0B80916B008093EE
:045492007B0BFFCFC2
:105496008091660B9091670BE0E1F1E094A783A7FA
:1054A6008091800B85A71092670B1092660B109265
:0454B600800B0895CA
:1054BA0080918E0B811106C00E94B82890936D0BC3
:1054CA0080936C0B80918E0B811102C081E008954C
:0454DA0080E00895D1
:1054DE00CF9381E00E94252B40E050E0BA0180E09E
:1054EE000E94A31CC82F80E00E94252B8C2FCF91E9
:0254FE0008950F
:105500006095709580959095309540955095219532
:105510003F4F4F4F5F4F6F4F7F4F8F4F9F4F0895BC
:10552000A29FB001B39FC001A39F700D811D1124E4
:0E553000911DB29F700D811D1124911D0895D3
:10553E0097FB57FF0C9407259F938F930E94072587
:0E554E006E1B7F0BAF91BF918A0B9B0B0895D4
:10555C00689401C0E8948F929F92CF93DF930E943E
:0C556C004B1DDF91CF919F908F90089510
:10557800A8950FB6F894A8958091600088618093EB
:0A5588006000109260000FBE08954D
:10559200F999FECF92BD81BD60BD8FB384608FBB90
:0855A2008FB382608FBB0895F6
:1055AA0086FD09C088B18F7E88B98EB18D7F8EB98C
:0855BA0080E00E94C12B08955E
:1055C20057FD05C0659175918591959108956191F9
:0855D2007191819191910895FE
:1055DA000024A7FD00942A0F301D401D501D601D98
:0855EA00701D801D901D089545
:1055F200843040F48093050190910701891710F4DB
:06560200809306010895EB
:105608001092810B1092820B1092670B1092660B0E
:065618001092800B0895C2
:10561E000E94902AA59F900DB49F900DA49F800D7F
:06562E00911D11240895F6
:10563400EC010E94E02B0E94DF2BCE010E94E12BA3
:06564400CE010E94DC2BE8
:10564A00882321F088B18F7B88B9089588B1806456
:04565A0088B908956E
:10565E008CE0809369008CB382608CBB8DB38260CA
:04566E008DBB089553
:10567200F999FECF92BD81BD8FB381608FBB80B59A
:02568200089589
:105684006091490B70914A0B80914B0B90914C0B9C
:02569400089577
:10569600FC01480F591FE417F50711F06193FBCF82
:0256A600089565
:1056A8000E94902A460F571FC81FD91F08F4319629
:0256B800089553
:1056BA002A0D3B1D4C1D5D1D6E1D7F1D801F911FF8
:0256CA00089541
:1056CC002A153B054C055D056E057F058007910786
:0256DC0008952F
:1056DE0081E080931A0510927F0B8093890B0895B9
:1056EE0090958095709561957F4F8F4F9F4F089540
:1056FE00B7FF0C940F2B0E940F2B821B930B089558
:10570E0057FD03C06591759108956191719108954A
:0E571E00CF93DF93CDB7DEB7DF91CF91089523
:0E572C006AE070E080E090E00E94852508951C
:0E573A0044E050E0BC0183E00E945824089532
:0E5748000E94902AB7FF0895821B930B0895CC
:0C575600EAE7F0E080818068808308951D
:0C576200E1E6F0E080E88083108208950A
:0A576E009093650B8093640B08957F
:0A5778000E949C1D1092790B089509
:0A578200843010F4809306010895AE
:0A578C001092970B0E94042B089561
:0A57960040E05BE00E94C722089586
:0857A00081E0809308010895E7
:0657A80080912305089525
:0657AE00109208010895AD
:0457B4000C94000051
:0457B8000E946B00E0
:0257BC0008954E
:0257BE0008954C
:0257C00008954A
:0257C200089548
:00000001FF
